{
  "contractName": "ADaiDelegate",
  "abi": [
    {
      "anonymous": false,
      "inputs": [
        {
          "indexed": false,
          "internalType": "uint256",
          "name": "cashPrior",
          "type": "uint256"
        },
        {
          "indexed": false,
          "internalType": "uint256",
          "name": "interestAccumulated",
          "type": "uint256"
        },
        {
          "indexed": false,
          "internalType": "uint256",
          "name": "borrowIndex",
          "type": "uint256"
        },
        {
          "indexed": false,
          "internalType": "uint256",
          "name": "totalBorrows",
          "type": "uint256"
        }
      ],
      "name": "AccrueInterest",
      "type": "event"
    },
    {
      "anonymous": false,
      "inputs": [
        {
          "indexed": true,
          "internalType": "address",
          "name": "owner",
          "type": "address"
        },
        {
          "indexed": true,
          "internalType": "address",
          "name": "spender",
          "type": "address"
        },
        {
          "indexed": false,
          "internalType": "uint256",
          "name": "amount",
          "type": "uint256"
        }
      ],
      "name": "Approval",
      "type": "event"
    },
    {
      "anonymous": false,
      "inputs": [
        {
          "indexed": false,
          "internalType": "address",
          "name": "borrower",
          "type": "address"
        },
        {
          "indexed": false,
          "internalType": "uint256",
          "name": "borrowAmount",
          "type": "uint256"
        },
        {
          "indexed": false,
          "internalType": "uint256",
          "name": "accountBorrows",
          "type": "uint256"
        },
        {
          "indexed": false,
          "internalType": "uint256",
          "name": "totalBorrows",
          "type": "uint256"
        }
      ],
      "name": "Borrow",
      "type": "event"
    },
    {
      "anonymous": false,
      "inputs": [
        {
          "indexed": false,
          "internalType": "uint256",
          "name": "error",
          "type": "uint256"
        },
        {
          "indexed": false,
          "internalType": "uint256",
          "name": "info",
          "type": "uint256"
        },
        {
          "indexed": false,
          "internalType": "uint256",
          "name": "detail",
          "type": "uint256"
        }
      ],
      "name": "Failure",
      "type": "event"
    },
    {
      "anonymous": false,
      "inputs": [
        {
          "indexed": false,
          "internalType": "address",
          "name": "liquidator",
          "type": "address"
        },
        {
          "indexed": false,
          "internalType": "address",
          "name": "borrower",
          "type": "address"
        },
        {
          "indexed": false,
          "internalType": "uint256",
          "name": "repayAmount",
          "type": "uint256"
        },
        {
          "indexed": false,
          "internalType": "address",
          "name": "bTokenCollateral",
          "type": "address"
        },
        {
          "indexed": false,
          "internalType": "uint256",
          "name": "seizeTokens",
          "type": "uint256"
        }
      ],
      "name": "LiquidateBorrow",
      "type": "event"
    },
    {
      "anonymous": false,
      "inputs": [
        {
          "indexed": false,
          "internalType": "address",
          "name": "minter",
          "type": "address"
        },
        {
          "indexed": false,
          "internalType": "uint256",
          "name": "mintAmount",
          "type": "uint256"
        },
        {
          "indexed": false,
          "internalType": "uint256",
          "name": "mintTokens",
          "type": "uint256"
        }
      ],
      "name": "Mint",
      "type": "event"
    },
    {
      "anonymous": false,
      "inputs": [
        {
          "indexed": false,
          "internalType": "address",
          "name": "oldAdmin",
          "type": "address"
        },
        {
          "indexed": false,
          "internalType": "address",
          "name": "newAdmin",
          "type": "address"
        }
      ],
      "name": "NewAdmin",
      "type": "event"
    },
    {
      "anonymous": false,
      "inputs": [
        {
          "indexed": false,
          "internalType": "contract ComptrollerInterface",
          "name": "oldComptroller",
          "type": "address"
        },
        {
          "indexed": false,
          "internalType": "contract ComptrollerInterface",
          "name": "newComptroller",
          "type": "address"
        }
      ],
      "name": "NewComptroller",
      "type": "event"
    },
    {
      "anonymous": false,
      "inputs": [
        {
          "indexed": false,
          "internalType": "contract InterestRateModel",
          "name": "oldInterestRateModel",
          "type": "address"
        },
        {
          "indexed": false,
          "internalType": "contract InterestRateModel",
          "name": "newInterestRateModel",
          "type": "address"
        }
      ],
      "name": "NewMarketInterestRateModel",
      "type": "event"
    },
    {
      "anonymous": false,
      "inputs": [
        {
          "indexed": false,
          "internalType": "address",
          "name": "oldPendingAdmin",
          "type": "address"
        },
        {
          "indexed": false,
          "internalType": "address",
          "name": "newPendingAdmin",
          "type": "address"
        }
      ],
      "name": "NewPendingAdmin",
      "type": "event"
    },
    {
      "anonymous": false,
      "inputs": [
        {
          "indexed": false,
          "internalType": "uint256",
          "name": "oldReserveFactorMantissa",
          "type": "uint256"
        },
        {
          "indexed": false,
          "internalType": "uint256",
          "name": "newReserveFactorMantissa",
          "type": "uint256"
        }
      ],
      "name": "NewReserveFactor",
      "type": "event"
    },
    {
      "anonymous": false,
      "inputs": [
        {
          "indexed": false,
          "internalType": "address",
          "name": "redeemer",
          "type": "address"
        },
        {
          "indexed": false,
          "internalType": "uint256",
          "name": "redeemAmount",
          "type": "uint256"
        },
        {
          "indexed": false,
          "internalType": "uint256",
          "name": "redeemTokens",
          "type": "uint256"
        }
      ],
      "name": "Redeem",
      "type": "event"
    },
    {
      "anonymous": false,
      "inputs": [
        {
          "indexed": false,
          "internalType": "address",
          "name": "redeemer",
          "type": "address"
        },
        {
          "indexed": false,
          "internalType": "uint256",
          "name": "feeAmount",
          "type": "uint256"
        },
        {
          "indexed": false,
          "internalType": "uint256",
          "name": "redeemTokens",
          "type": "uint256"
        }
      ],
      "name": "RedeemFee",
      "type": "event"
    },
    {
      "anonymous": false,
      "inputs": [
        {
          "indexed": false,
          "internalType": "address",
          "name": "payer",
          "type": "address"
        },
        {
          "indexed": false,
          "internalType": "address",
          "name": "borrower",
          "type": "address"
        },
        {
          "indexed": false,
          "internalType": "uint256",
          "name": "repayAmount",
          "type": "uint256"
        },
        {
          "indexed": false,
          "internalType": "uint256",
          "name": "accountBorrows",
          "type": "uint256"
        },
        {
          "indexed": false,
          "internalType": "uint256",
          "name": "totalBorrows",
          "type": "uint256"
        }
      ],
      "name": "RepayBorrow",
      "type": "event"
    },
    {
      "anonymous": false,
      "inputs": [
        {
          "indexed": false,
          "internalType": "address",
          "name": "benefactor",
          "type": "address"
        },
        {
          "indexed": false,
          "internalType": "uint256",
          "name": "addAmount",
          "type": "uint256"
        },
        {
          "indexed": false,
          "internalType": "uint256",
          "name": "newTotalReserves",
          "type": "uint256"
        }
      ],
      "name": "ReservesAdded",
      "type": "event"
    },
    {
      "anonymous": false,
      "inputs": [
        {
          "indexed": false,
          "internalType": "address",
          "name": "admin",
          "type": "address"
        },
        {
          "indexed": false,
          "internalType": "uint256",
          "name": "reduceAmount",
          "type": "uint256"
        },
        {
          "indexed": false,
          "internalType": "uint256",
          "name": "newTotalReserves",
          "type": "uint256"
        }
      ],
      "name": "ReservesReduced",
      "type": "event"
    },
    {
      "anonymous": false,
      "inputs": [
        {
          "indexed": true,
          "internalType": "address",
          "name": "from",
          "type": "address"
        },
        {
          "indexed": true,
          "internalType": "address",
          "name": "to",
          "type": "address"
        },
        {
          "indexed": false,
          "internalType": "uint256",
          "name": "amount",
          "type": "uint256"
        }
      ],
      "name": "Transfer",
      "type": "event"
    },
    {
      "constant": false,
      "inputs": [],
      "name": "_acceptAdmin",
      "outputs": [
        {
          "internalType": "uint256",
          "name": "",
          "type": "uint256"
        }
      ],
      "payable": false,
      "stateMutability": "nonpayable",
      "type": "function"
    },
    {
      "constant": false,
      "inputs": [
        {
          "internalType": "uint256",
          "name": "addAmount",
          "type": "uint256"
        }
      ],
      "name": "_addReserves",
      "outputs": [
        {
          "internalType": "uint256",
          "name": "",
          "type": "uint256"
        }
      ],
      "payable": false,
      "stateMutability": "nonpayable",
      "type": "function"
    },
    {
      "constant": false,
      "inputs": [
        {
          "internalType": "uint256",
          "name": "reduceAmount",
          "type": "uint256"
        }
      ],
      "name": "_reduceReserves",
      "outputs": [
        {
          "internalType": "uint256",
          "name": "",
          "type": "uint256"
        }
      ],
      "payable": false,
      "stateMutability": "nonpayable",
      "type": "function"
    },
    {
      "constant": false,
      "inputs": [
        {
          "internalType": "contract ComptrollerInterface",
          "name": "newComptroller",
          "type": "address"
        }
      ],
      "name": "_setComptroller",
      "outputs": [
        {
          "internalType": "uint256",
          "name": "",
          "type": "uint256"
        }
      ],
      "payable": false,
      "stateMutability": "nonpayable",
      "type": "function"
    },
    {
      "constant": false,
      "inputs": [
        {
          "internalType": "contract InterestRateModel",
          "name": "newInterestRateModel",
          "type": "address"
        }
      ],
      "name": "_setInterestRateModel",
      "outputs": [
        {
          "internalType": "uint256",
          "name": "",
          "type": "uint256"
        }
      ],
      "payable": false,
      "stateMutability": "nonpayable",
      "type": "function"
    },
    {
      "constant": false,
      "inputs": [
        {
          "internalType": "address payable",
          "name": "newPendingAdmin",
          "type": "address"
        }
      ],
      "name": "_setPendingAdmin",
      "outputs": [
        {
          "internalType": "uint256",
          "name": "",
          "type": "uint256"
        }
      ],
      "payable": false,
      "stateMutability": "nonpayable",
      "type": "function"
    },
    {
      "constant": false,
      "inputs": [
        {
          "internalType": "uint256",
          "name": "newReserveFactorMantissa",
          "type": "uint256"
        }
      ],
      "name": "_setReserveFactor",
      "outputs": [
        {
          "internalType": "uint256",
          "name": "",
          "type": "uint256"
        }
      ],
      "payable": false,
      "stateMutability": "nonpayable",
      "type": "function"
    },
    {
      "constant": true,
      "inputs": [],
      "name": "accrualBlockNumber",
      "outputs": [
        {
          "internalType": "uint256",
          "name": "",
          "type": "uint256"
        }
      ],
      "payable": false,
      "stateMutability": "view",
      "type": "function"
    },
    {
      "constant": true,
      "inputs": [],
      "name": "admin",
      "outputs": [
        {
          "internalType": "address payable",
          "name": "",
          "type": "address"
        }
      ],
      "payable": false,
      "stateMutability": "view",
      "type": "function"
    },
    {
      "constant": true,
      "inputs": [
        {
          "internalType": "address",
          "name": "owner",
          "type": "address"
        },
        {
          "internalType": "address",
          "name": "spender",
          "type": "address"
        }
      ],
      "name": "allowance",
      "outputs": [
        {
          "internalType": "uint256",
          "name": "",
          "type": "uint256"
        }
      ],
      "payable": false,
      "stateMutability": "view",
      "type": "function"
    },
    {
      "constant": false,
      "inputs": [
        {
          "internalType": "address",
          "name": "spender",
          "type": "address"
        },
        {
          "internalType": "uint256",
          "name": "amount",
          "type": "uint256"
        }
      ],
      "name": "approve",
      "outputs": [
        {
          "internalType": "bool",
          "name": "",
          "type": "bool"
        }
      ],
      "payable": false,
      "stateMutability": "nonpayable",
      "type": "function"
    },
    {
      "constant": true,
      "inputs": [
        {
          "internalType": "address",
          "name": "owner",
          "type": "address"
        }
      ],
      "name": "balanceOf",
      "outputs": [
        {
          "internalType": "uint256",
          "name": "",
          "type": "uint256"
        }
      ],
      "payable": false,
      "stateMutability": "view",
      "type": "function"
    },
    {
      "constant": false,
      "inputs": [
        {
          "internalType": "address",
          "name": "owner",
          "type": "address"
        }
      ],
      "name": "balanceOfUnderlying",
      "outputs": [
        {
          "internalType": "uint256",
          "name": "",
          "type": "uint256"
        }
      ],
      "payable": false,
      "stateMutability": "nonpayable",
      "type": "function"
    },
    {
      "constant": false,
      "inputs": [
        {
          "internalType": "uint256",
          "name": "borrowAmount",
          "type": "uint256"
        }
      ],
      "name": "borrow",
      "outputs": [
        {
          "internalType": "uint256",
          "name": "",
          "type": "uint256"
        }
      ],
      "payable": false,
      "stateMutability": "nonpayable",
      "type": "function"
    },
    {
      "constant": false,
      "inputs": [
        {
          "internalType": "address",
          "name": "account",
          "type": "address"
        }
      ],
      "name": "borrowBalanceCurrent",
      "outputs": [
        {
          "internalType": "uint256",
          "name": "",
          "type": "uint256"
        }
      ],
      "payable": false,
      "stateMutability": "nonpayable",
      "type": "function"
    },
    {
      "constant": true,
      "inputs": [
        {
          "internalType": "address",
          "name": "account",
          "type": "address"
        }
      ],
      "name": "borrowBalanceStored",
      "outputs": [
        {
          "internalType": "uint256",
          "name": "",
          "type": "uint256"
        }
      ],
      "payable": false,
      "stateMutability": "view",
      "type": "function"
    },
    {
      "constant": true,
      "inputs": [],
      "name": "borrowIndex",
      "outputs": [
        {
          "internalType": "uint256",
          "name": "",
          "type": "uint256"
        }
      ],
      "payable": false,
      "stateMutability": "view",
      "type": "function"
    },
    {
      "constant": true,
      "inputs": [],
      "name": "borrowRatePerBlock",
      "outputs": [
        {
          "internalType": "uint256",
          "name": "",
          "type": "uint256"
        }
      ],
      "payable": false,
      "stateMutability": "view",
      "type": "function"
    },
    {
      "constant": true,
      "inputs": [],
      "name": "comptroller",
      "outputs": [
        {
          "internalType": "contract ComptrollerInterface",
          "name": "",
          "type": "address"
        }
      ],
      "payable": false,
      "stateMutability": "view",
      "type": "function"
    },
    {
      "constant": true,
      "inputs": [],
      "name": "daiJoinAddress",
      "outputs": [
        {
          "internalType": "address",
          "name": "",
          "type": "address"
        }
      ],
      "payable": false,
      "stateMutability": "view",
      "type": "function"
    },
    {
      "constant": true,
      "inputs": [],
      "name": "decimals",
      "outputs": [
        {
          "internalType": "uint8",
          "name": "",
          "type": "uint8"
        }
      ],
      "payable": false,
      "stateMutability": "view",
      "type": "function"
    },
    {
      "constant": false,
      "inputs": [],
      "name": "exchangeRateCurrent",
      "outputs": [
        {
          "internalType": "uint256",
          "name": "",
          "type": "uint256"
        }
      ],
      "payable": false,
      "stateMutability": "nonpayable",
      "type": "function"
    },
    {
      "constant": true,
      "inputs": [],
      "name": "exchangeRateStored",
      "outputs": [
        {
          "internalType": "uint256",
          "name": "",
          "type": "uint256"
        }
      ],
      "payable": false,
      "stateMutability": "view",
      "type": "function"
    },
    {
      "constant": true,
      "inputs": [
        {
          "internalType": "address",
          "name": "account",
          "type": "address"
        }
      ],
      "name": "getAccountSnapshot",
      "outputs": [
        {
          "internalType": "uint256",
          "name": "",
          "type": "uint256"
        },
        {
          "internalType": "uint256",
          "name": "",
          "type": "uint256"
        },
        {
          "internalType": "uint256",
          "name": "",
          "type": "uint256"
        },
        {
          "internalType": "uint256",
          "name": "",
          "type": "uint256"
        }
      ],
      "payable": false,
      "stateMutability": "view",
      "type": "function"
    },
    {
      "constant": true,
      "inputs": [],
      "name": "getCash",
      "outputs": [
        {
          "internalType": "uint256",
          "name": "",
          "type": "uint256"
        }
      ],
      "payable": false,
      "stateMutability": "view",
      "type": "function"
    },
    {
      "constant": true,
      "inputs": [],
      "name": "implementation",
      "outputs": [
        {
          "internalType": "address",
          "name": "",
          "type": "address"
        }
      ],
      "payable": false,
      "stateMutability": "view",
      "type": "function"
    },
    {
      "constant": false,
      "inputs": [
        {
          "internalType": "address",
          "name": "underlying_",
          "type": "address"
        },
        {
          "internalType": "contract ComptrollerInterface",
          "name": "comptroller_",
          "type": "address"
        },
        {
          "internalType": "contract InterestRateModel",
          "name": "interestRateModel_",
          "type": "address"
        },
        {
          "internalType": "uint256",
          "name": "initialExchangeRateMantissa_",
          "type": "uint256"
        },
        {
          "internalType": "string",
          "name": "name_",
          "type": "string"
        },
        {
          "internalType": "string",
          "name": "symbol_",
          "type": "string"
        },
        {
          "internalType": "uint8",
          "name": "decimals_",
          "type": "uint8"
        }
      ],
      "name": "initialize",
      "outputs": [],
      "payable": false,
      "stateMutability": "nonpayable",
      "type": "function"
    },
    {
      "constant": false,
      "inputs": [
        {
          "internalType": "contract ComptrollerInterface",
          "name": "comptroller_",
          "type": "address"
        },
        {
          "internalType": "contract InterestRateModel",
          "name": "interestRateModel_",
          "type": "address"
        },
        {
          "internalType": "uint256",
          "name": "initialExchangeRateMantissa_",
          "type": "uint256"
        },
        {
          "internalType": "string",
          "name": "name_",
          "type": "string"
        },
        {
          "internalType": "string",
          "name": "symbol_",
          "type": "string"
        },
        {
          "internalType": "uint8",
          "name": "decimals_",
          "type": "uint8"
        }
      ],
      "name": "initialize",
      "outputs": [],
      "payable": false,
      "stateMutability": "nonpayable",
      "type": "function"
    },
    {
      "constant": true,
      "inputs": [],
      "name": "interestRateModel",
      "outputs": [
        {
          "internalType": "contract InterestRateModel",
          "name": "",
          "type": "address"
        }
      ],
      "payable": false,
      "stateMutability": "view",
      "type": "function"
    },
    {
      "constant": true,
      "inputs": [],
      "name": "isBToken",
      "outputs": [
        {
          "internalType": "bool",
          "name": "",
          "type": "bool"
        }
      ],
      "payable": false,
      "stateMutability": "view",
      "type": "function"
    },
    {
      "constant": false,
      "inputs": [
        {
          "internalType": "address",
          "name": "borrower",
          "type": "address"
        },
        {
          "internalType": "uint256",
          "name": "repayAmount",
          "type": "uint256"
        },
        {
          "internalType": "contract BTokenInterface",
          "name": "bTokenCollateral",
          "type": "address"
        }
      ],
      "name": "liquidateBorrow",
      "outputs": [
        {
          "internalType": "uint256",
          "name": "",
          "type": "uint256"
        }
      ],
      "payable": false,
      "stateMutability": "nonpayable",
      "type": "function"
    },
    {
      "constant": false,
      "inputs": [
        {
          "internalType": "uint256",
          "name": "mintAmount",
          "type": "uint256"
        }
      ],
      "name": "mint",
      "outputs": [
        {
          "internalType": "uint256",
          "name": "",
          "type": "uint256"
        }
      ],
      "payable": false,
      "stateMutability": "nonpayable",
      "type": "function"
    },
    {
      "constant": true,
      "inputs": [],
      "name": "name",
      "outputs": [
        {
          "internalType": "string",
          "name": "",
          "type": "string"
        }
      ],
      "payable": false,
      "stateMutability": "view",
      "type": "function"
    },
    {
      "constant": true,
      "inputs": [],
      "name": "pendingAdmin",
      "outputs": [
        {
          "internalType": "address payable",
          "name": "",
          "type": "address"
        }
      ],
      "payable": false,
      "stateMutability": "view",
      "type": "function"
    },
    {
      "constant": true,
      "inputs": [],
      "name": "potAddress",
      "outputs": [
        {
          "internalType": "address",
          "name": "",
          "type": "address"
        }
      ],
      "payable": false,
      "stateMutability": "view",
      "type": "function"
    },
    {
      "constant": false,
      "inputs": [
        {
          "internalType": "uint256",
          "name": "redeemTokens",
          "type": "uint256"
        }
      ],
      "name": "redeem",
      "outputs": [
        {
          "internalType": "uint256",
          "name": "",
          "type": "uint256"
        }
      ],
      "payable": false,
      "stateMutability": "nonpayable",
      "type": "function"
    },
    {
      "constant": false,
      "inputs": [
        {
          "internalType": "uint256",
          "name": "redeemAmount",
          "type": "uint256"
        }
      ],
      "name": "redeemUnderlying",
      "outputs": [
        {
          "internalType": "uint256",
          "name": "",
          "type": "uint256"
        }
      ],
      "payable": false,
      "stateMutability": "nonpayable",
      "type": "function"
    },
    {
      "constant": false,
      "inputs": [
        {
          "internalType": "uint256",
          "name": "repayAmount",
          "type": "uint256"
        }
      ],
      "name": "repayBorrow",
      "outputs": [
        {
          "internalType": "uint256",
          "name": "",
          "type": "uint256"
        }
      ],
      "payable": false,
      "stateMutability": "nonpayable",
      "type": "function"
    },
    {
      "constant": false,
      "inputs": [
        {
          "internalType": "address",
          "name": "borrower",
          "type": "address"
        },
        {
          "internalType": "uint256",
          "name": "repayAmount",
          "type": "uint256"
        }
      ],
      "name": "repayBorrowBehalf",
      "outputs": [
        {
          "internalType": "uint256",
          "name": "",
          "type": "uint256"
        }
      ],
      "payable": false,
      "stateMutability": "nonpayable",
      "type": "function"
    },
    {
      "constant": true,
      "inputs": [],
      "name": "reserveFactorMantissa",
      "outputs": [
        {
          "internalType": "uint256",
          "name": "",
          "type": "uint256"
        }
      ],
      "payable": false,
      "stateMutability": "view",
      "type": "function"
    },
    {
      "constant": false,
      "inputs": [
        {
          "internalType": "address",
          "name": "liquidator",
          "type": "address"
        },
        {
          "internalType": "address",
          "name": "borrower",
          "type": "address"
        },
        {
          "internalType": "uint256",
          "name": "seizeTokens",
          "type": "uint256"
        }
      ],
      "name": "seize",
      "outputs": [
        {
          "internalType": "uint256",
          "name": "",
          "type": "uint256"
        }
      ],
      "payable": false,
      "stateMutability": "nonpayable",
      "type": "function"
    },
    {
      "constant": true,
      "inputs": [],
      "name": "supplyRatePerBlock",
      "outputs": [
        {
          "internalType": "uint256",
          "name": "",
          "type": "uint256"
        }
      ],
      "payable": false,
      "stateMutability": "view",
      "type": "function"
    },
    {
      "constant": true,
      "inputs": [],
      "name": "symbol",
      "outputs": [
        {
          "internalType": "string",
          "name": "",
          "type": "string"
        }
      ],
      "payable": false,
      "stateMutability": "view",
      "type": "function"
    },
    {
      "constant": true,
      "inputs": [],
      "name": "totalBorrows",
      "outputs": [
        {
          "internalType": "uint256",
          "name": "",
          "type": "uint256"
        }
      ],
      "payable": false,
      "stateMutability": "view",
      "type": "function"
    },
    {
      "constant": false,
      "inputs": [],
      "name": "totalBorrowsCurrent",
      "outputs": [
        {
          "internalType": "uint256",
          "name": "",
          "type": "uint256"
        }
      ],
      "payable": false,
      "stateMutability": "nonpayable",
      "type": "function"
    },
    {
      "constant": true,
      "inputs": [],
      "name": "totalReserves",
      "outputs": [
        {
          "internalType": "uint256",
          "name": "",
          "type": "uint256"
        }
      ],
      "payable": false,
      "stateMutability": "view",
      "type": "function"
    },
    {
      "constant": true,
      "inputs": [],
      "name": "totalSupply",
      "outputs": [
        {
          "internalType": "uint256",
          "name": "",
          "type": "uint256"
        }
      ],
      "payable": false,
      "stateMutability": "view",
      "type": "function"
    },
    {
      "constant": false,
      "inputs": [
        {
          "internalType": "address",
          "name": "dst",
          "type": "address"
        },
        {
          "internalType": "uint256",
          "name": "amount",
          "type": "uint256"
        }
      ],
      "name": "transfer",
      "outputs": [
        {
          "internalType": "bool",
          "name": "",
          "type": "bool"
        }
      ],
      "payable": false,
      "stateMutability": "nonpayable",
      "type": "function"
    },
    {
      "constant": false,
      "inputs": [
        {
          "internalType": "address",
          "name": "src",
          "type": "address"
        },
        {
          "internalType": "address",
          "name": "dst",
          "type": "address"
        },
        {
          "internalType": "uint256",
          "name": "amount",
          "type": "uint256"
        }
      ],
      "name": "transferFrom",
      "outputs": [
        {
          "internalType": "bool",
          "name": "",
          "type": "bool"
        }
      ],
      "payable": false,
      "stateMutability": "nonpayable",
      "type": "function"
    },
    {
      "constant": true,
      "inputs": [],
      "name": "underlying",
      "outputs": [
        {
          "internalType": "address",
          "name": "",
          "type": "address"
        }
      ],
      "payable": false,
      "stateMutability": "view",
      "type": "function"
    },
    {
      "constant": true,
      "inputs": [],
      "name": "vatAddress",
      "outputs": [
        {
          "internalType": "address",
          "name": "",
          "type": "address"
        }
      ],
      "payable": false,
      "stateMutability": "view",
      "type": "function"
    },
    {
      "constant": false,
      "inputs": [
        {
          "internalType": "bytes",
          "name": "data",
          "type": "bytes"
        }
      ],
      "name": "_becomeImplementation",
      "outputs": [],
      "payable": false,
      "stateMutability": "nonpayable",
      "type": "function"
    },
    {
      "constant": false,
      "inputs": [],
      "name": "_resignImplementation",
      "outputs": [],
      "payable": false,
      "stateMutability": "nonpayable",
      "type": "function"
    },
    {
      "constant": false,
      "inputs": [],
      "name": "accrueInterest",
      "outputs": [
        {
          "internalType": "uint256",
          "name": "",
          "type": "uint256"
        }
      ],
      "payable": false,
      "stateMutability": "nonpayable",
      "type": "function"
    }
  ],
  "bytecode": "0x6080604052619e2680620000146000396000f3fe608060405234801561001057600080fd5b50600436106103425760003560e01c8063852a12e3116101b8578063b71d1a0c11610104578063f2b3abbd116100a2578063f851a4401161007c578063f851a44014611451578063f8f9da281461149b578063fbb62337146114b9578063fca7820b146114db57610342565b8063f2b3abbd1461132d578063f3fdb15a14611385578063f5e3c462146113cf57610342565b8063c5ebeaec116100de578063c5ebeaec14611213578063db006a7514611255578063dd62ed3e14611297578063e9c714f21461130f57610342565b8063b71d1a0c14611130578063bd6d894d14611188578063c37f68e2146111a657610342565b806399d8c1b411610171578063a9059cbb1161014b578063a9059cbb1461100c578063aa5af0fd14611072578063ae9d70b014611090578063b2a02ff1146110ae57610342565b806399d8c1b414610e03578063a0712d6814610fac578063a6afed9514610fee57610342565b8063852a12e314610c345780638a8df2e614610c765780638d925ccd14610cc05780638f840ddd14610d0a57806395d89b4114610d2857806395dd919314610dab57610342565b80633af9e669116102925780635fe3b567116102305780636c540baf1161020a5780636c540baf14610b565780636f307dc314610b7457806370a0823114610bbe57806373acee9814610c1657610342565b80635fe3b56714610a80578063601a0bf114610aca57806366ced60214610b0c57610342565b80634576b5db1161026c5780634576b5db1461090557806347bd37181461095d57806356e677281461097b5780635c60da1b14610a3657610342565b80633af9e6691461084d5780633b1d21a2146108a55780633e941010146108c357610342565b806318160ddd116102ff57806323b872dd116102d957806323b872dd146106f75780632608f8181461077d57806326782247146107df578063313ce5671461082957610342565b806318160ddd146104f2578063182df0f5146105105780631a31d4651461052e57610342565b806306fdde0314610347578063095ea7b3146103ca5780630e75270214610430578063153ab50514610472578063173b99041461047c57806317bfdfbc1461049a575b600080fd5b61034f61151d565b6040518080602001828103825283818151815260200191508051906020019080838360005b8381101561038f578082015181840152602081019050610374565b50505050905090810190601f1680156103bc5780820380516001836020036101000a031916815260200191505b509250505060405180910390f35b610416600480360360408110156103e057600080fd5b81019080803573ffffffffffffffffffffffffffffffffffffffff169060200190929190803590602001909291905050506115bb565b604051808215151515815260200191505060405180910390f35b61045c6004803603602081101561044657600080fd5b81019080803590602001909291905050506116b2565b6040518082815260200191505060405180910390f35b61047a6116ca565b005b610484611b07565b6040518082815260200191505060405180910390f35b6104dc600480360360208110156104b057600080fd5b81019080803573ffffffffffffffffffffffffffffffffffffffff169060200190929190505050611b0d565b6040518082815260200191505060405180910390f35b6104fa611c5c565b6040518082815260200191505060405180910390f35b610518611c62565b6040518082815260200191505060405180910390f35b6106f5600480360360e081101561054457600080fd5b81019080803573ffffffffffffffffffffffffffffffffffffffff169060200190929190803573ffffffffffffffffffffffffffffffffffffffff169060200190929190803573ffffffffffffffffffffffffffffffffffffffff16906020019092919080359060200190929190803590602001906401000000008111156105cb57600080fd5b8201836020820111156105dd57600080fd5b803590602001918460018302840111640100000000831117156105ff57600080fd5b91908080601f016020809104026020016040519081016040528093929190818152602001838380828437600081840152601f19601f8201169050808301925050505050505091929192908035906020019064010000000081111561066257600080fd5b82018360208201111561067457600080fd5b8035906020019184600183028401116401000000008311171561069657600080fd5b91908080601f016020809104026020016040519081016040528093929190818152602001838380828437600081840152601f19601f820116905080830192505050505050509192919290803560ff169060200190929190505050611cea565b005b6107636004803603606081101561070d57600080fd5b81019080803573ffffffffffffffffffffffffffffffffffffffff169060200190929190803573ffffffffffffffffffffffffffffffffffffffff16906020019092919080359060200190929190505050611de6565b604051808215151515815260200191505060405180910390f35b6107c96004803603604081101561079357600080fd5b81019080803573ffffffffffffffffffffffffffffffffffffffff16906020019092919080359060200190929190505050611ec0565b6040518082815260200191505060405180910390f35b6107e7611eda565b604051808273ffffffffffffffffffffffffffffffffffffffff1673ffffffffffffffffffffffffffffffffffffffff16815260200191505060405180910390f35b610831611f00565b604051808260ff1660ff16815260200191505060405180910390f35b61088f6004803603602081101561086357600080fd5b81019080803573ffffffffffffffffffffffffffffffffffffffff169060200190929190505050611f13565b6040518082815260200191505060405180910390f35b6108ad61201c565b6040518082815260200191505060405180910390f35b6108ef600480360360208110156108d957600080fd5b810190808035906020019092919050505061202b565b6040518082815260200191505060405180910390f35b6109476004803603602081101561091b57600080fd5b81019080803573ffffffffffffffffffffffffffffffffffffffff16906020019092919050505061203d565b6040518082815260200191505060405180910390f35b6109656122ae565b6040518082815260200191505060405180910390f35b610a346004803603602081101561099157600080fd5b81019080803590602001906401000000008111156109ae57600080fd5b8201836020820111156109c057600080fd5b803590602001918460018302840111640100000000831117156109e257600080fd5b91908080601f016020809104026020016040519081016040528093929190818152602001838380828437600081840152601f19601f8201169050808301925050505050505091929192905050506122b4565b005b610a3e6123a0565b604051808273ffffffffffffffffffffffffffffffffffffffff1673ffffffffffffffffffffffffffffffffffffffff16815260200191505060405180910390f35b610a886123c6565b604051808273ffffffffffffffffffffffffffffffffffffffff1673ffffffffffffffffffffffffffffffffffffffff16815260200191505060405180910390f35b610af660048036036020811015610ae057600080fd5b81019080803590602001909291905050506123ec565b6040518082815260200191505060405180910390f35b610b146124f2565b604051808273ffffffffffffffffffffffffffffffffffffffff1673ffffffffffffffffffffffffffffffffffffffff16815260200191505060405180910390f35b610b5e612518565b6040518082815260200191505060405180910390f35b610b7c61251e565b604051808273ffffffffffffffffffffffffffffffffffffffff1673ffffffffffffffffffffffffffffffffffffffff16815260200191505060405180910390f35b610c0060048036036020811015610bd457600080fd5b81019080803573ffffffffffffffffffffffffffffffffffffffff169060200190929190505050612544565b6040518082815260200191505060405180910390f35b610c1e61258d565b6040518082815260200191505060405180910390f35b610c6060048036036020811015610c4a57600080fd5b81019080803590602001909291905050506126d4565b6040518082815260200191505060405180910390f35b610c7e6126e6565b604051808273ffffffffffffffffffffffffffffffffffffffff1673ffffffffffffffffffffffffffffffffffffffff16815260200191505060405180910390f35b610cc861270c565b604051808273ffffffffffffffffffffffffffffffffffffffff1673ffffffffffffffffffffffffffffffffffffffff16815260200191505060405180910390f35b610d12612732565b6040518082815260200191505060405180910390f35b610d30612738565b6040518080602001828103825283818151815260200191508051906020019080838360005b83811015610d70578082015181840152602081019050610d55565b50505050905090810190601f168015610d9d5780820380516001836020036101000a031916815260200191505b509250505060405180910390f35b610ded60048036036020811015610dc157600080fd5b81019080803573ffffffffffffffffffffffffffffffffffffffff1690602001909291905050506127d6565b6040518082815260200191505060405180910390f35b610faa600480360360c0811015610e1957600080fd5b81019080803573ffffffffffffffffffffffffffffffffffffffff169060200190929190803573ffffffffffffffffffffffffffffffffffffffff1690602001909291908035906020019092919080359060200190640100000000811115610e8057600080fd5b820183602082011115610e9257600080fd5b80359060200191846001830284011164010000000083111715610eb457600080fd5b91908080601f016020809104026020016040519081016040528093929190818152602001838380828437600081840152601f19601f82011690508083019250505050505050919291929080359060200190640100000000811115610f1757600080fd5b820183602082011115610f2957600080fd5b80359060200191846001830284011164010000000083111715610f4b57600080fd5b91908080601f016020809104026020016040519081016040528093929190818152602001838380828437600081840152601f19601f820116905080830192505050505050509192919290803560ff169060200190929190505050612861565b005b610fd860048036036020811015610fc257600080fd5b8101908080359060200190929190505050612b58565b6040518082815260200191505060405180910390f35b610ff6612b70565b6040518082815260200191505060405180910390f35b6110586004803603604081101561102257600080fd5b81019080803573ffffffffffffffffffffffffffffffffffffffff16906020019092919080359060200190929190505050612c25565b604051808215151515815260200191505060405180910390f35b61107a612cfe565b6040518082815260200191505060405180910390f35b611098612d04565b6040518082815260200191505060405180910390f35b61111a600480360360608110156110c457600080fd5b81019080803573ffffffffffffffffffffffffffffffffffffffff169060200190929190803573ffffffffffffffffffffffffffffffffffffffff16906020019092919080359060200190929190505050612dde565b6040518082815260200191505060405180910390f35b6111726004803603602081101561114657600080fd5b81019080803573ffffffffffffffffffffffffffffffffffffffff169060200190929190505050612eaa565b6040518082815260200191505060405180910390f35b611190613029565b6040518082815260200191505060405180910390f35b6111e8600480360360208110156111bc57600080fd5b81019080803573ffffffffffffffffffffffffffffffffffffffff169060200190929190505050613175565b6040518085815260200184815260200183815260200182815260200194505050505060405180910390f35b61123f6004803603602081101561122957600080fd5b810190808035906020019092919050505061329d565b6040518082815260200191505060405180910390f35b6112816004803603602081101561126b57600080fd5b81019080803590602001909291905050506132af565b6040518082815260200191505060405180910390f35b6112f9600480360360408110156112ad57600080fd5b81019080803573ffffffffffffffffffffffffffffffffffffffff169060200190929190803573ffffffffffffffffffffffffffffffffffffffff1690602001909291905050506132c1565b6040518082815260200191505060405180910390f35b611317613348565b6040518082815260200191505060405180910390f35b61136f6004803603602081101561134357600080fd5b81019080803573ffffffffffffffffffffffffffffffffffffffff169060200190929190505050613665565b6040518082815260200191505060405180910390f35b61138d6136b5565b604051808273ffffffffffffffffffffffffffffffffffffffff1673ffffffffffffffffffffffffffffffffffffffff16815260200191505060405180910390f35b61143b600480360360608110156113e557600080fd5b81019080803573ffffffffffffffffffffffffffffffffffffffff16906020019092919080359060200190929190803573ffffffffffffffffffffffffffffffffffffffff1690602001909291905050506136db565b6040518082815260200191505060405180910390f35b6114596136f7565b604051808273ffffffffffffffffffffffffffffffffffffffff1673ffffffffffffffffffffffffffffffffffffffff16815260200191505060405180910390f35b6114a361371d565b6040518082815260200191505060405180910390f35b6114c16137ed565b604051808215151515815260200191505060405180910390f35b611507600480360360208110156114f157600080fd5b81019080803590602001909291905050506137f2565b6040518082815260200191505060405180910390f35b60018054600181600116156101000203166002900480601f0160208091040260200160405190810160405280929190818152602001828054600181600116156101000203166002900480156115b35780601f10611588576101008083540402835291602001916115b3565b820191906000526020600020905b81548152906001019060200180831161159657829003601f168201915b505050505081565b60008033905082600f60008373ffffffffffffffffffffffffffffffffffffffff1673ffffffffffffffffffffffffffffffffffffffff16815260200190815260200160002060008673ffffffffffffffffffffffffffffffffffffffff1673ffffffffffffffffffffffffffffffffffffffff168152602001908152602001600020819055508373ffffffffffffffffffffffffffffffffffffffff168173ffffffffffffffffffffffffffffffffffffffff167f8c5be1e5ebec7d5bd14f71427d1e84f3dd0314c0f7b2291e5b200ac8c7c3b925856040518082815260200191505060405180910390a3600191505092915050565b6000806116be836138f8565b50905080915050919050565b600360019054906101000a900473ffffffffffffffffffffffffffffffffffffffff1673ffffffffffffffffffffffffffffffffffffffff163373ffffffffffffffffffffffffffffffffffffffff1614611770576040517f08c379a000000000000000000000000000000000000000000000000000000000815260040180806020018281038252602d815260200180619bca602d913960400191505060405180910390fd5b6000601360009054906101000a900473ffffffffffffffffffffffffffffffffffffffff1690506000601460009054906101000a900473ffffffffffffffffffffffffffffffffffffffff1690506000601560009054906101000a900473ffffffffffffffffffffffffffffffffffffffff1690508173ffffffffffffffffffffffffffffffffffffffff16639f678cca6040518163ffffffff1660e01b8152600401602060405180830381600087803b15801561182d57600080fd5b505af1158015611841573d6000803e3d6000fd5b505050506040513d602081101561185757600080fd5b81019080805190602001909291905050505060008273ffffffffffffffffffffffffffffffffffffffff16630bebac86306040518263ffffffff1660e01b8152600401808273ffffffffffffffffffffffffffffffffffffffff1673ffffffffffffffffffffffffffffffffffffffff16815260200191505060206040518083038186803b1580156118e857600080fd5b505afa1580156118fc573d6000803e3d6000fd5b505050506040513d602081101561191257600080fd5b810190808051906020019092919050505090508273ffffffffffffffffffffffffffffffffffffffff16637f8661a1826040518263ffffffff1660e01b815260040180828152602001915050600060405180830381600087803b15801561197857600080fd5b505af115801561198c573d6000803e3d6000fd5b5050505060008273ffffffffffffffffffffffffffffffffffffffff16636c25b346306040518263ffffffff1660e01b8152600401808273ffffffffffffffffffffffffffffffffffffffff1673ffffffffffffffffffffffffffffffffffffffff16815260200191505060206040518083038186803b158015611a0f57600080fd5b505afa158015611a23573d6000803e3d6000fd5b505050506040513d6020811015611a3957600080fd5b810190808051906020019092919050505090508473ffffffffffffffffffffffffffffffffffffffff1663ef693bed306b033b2e3c9fd0803ce80000008481611a7e57fe5b046040518363ffffffff1660e01b8152600401808373ffffffffffffffffffffffffffffffffffffffff1673ffffffffffffffffffffffffffffffffffffffff16815260200182815260200192505050600060405180830381600087803b158015611ae857600080fd5b505af1158015611afc573d6000803e3d6000fd5b505050505050505050565b60085481565b60008060009054906101000a900460ff16611b90576040517f08c379a000000000000000000000000000000000000000000000000000000000815260040180806020018281038252600a8152602001807f72652d656e74657265640000000000000000000000000000000000000000000081525060200191505060405180910390fd5b60008060006101000a81548160ff02191690831515021790555060006011811115611bb757fe5b611bbf612b70565b14611c32576040517f08c379a00000000000000000000000000000000000000000000000000000000081526004018080602001828103825260168152602001807f61636372756520696e746572657374206661696c65640000000000000000000081525060200191505060405180910390fd5b611c3b826127d6565b905060016000806101000a81548160ff021916908315150217905550919050565b600d5481565b6000806000611c6f613a0a565b9150915060006003811115611c8057fe5b826003811115611c8c57fe5b14611ce2576040517f08c379a0000000000000000000000000000000000000000000000000000000008152600401808060200182810382526035815260200180619d3d6035913960400191505060405180910390fd5b809250505090565b611cf8868686868686612861565b86601160006101000a81548173ffffffffffffffffffffffffffffffffffffffff021916908373ffffffffffffffffffffffffffffffffffffffff160217905550601160009054906101000a900473ffffffffffffffffffffffffffffffffffffffff1673ffffffffffffffffffffffffffffffffffffffff166318160ddd6040518163ffffffff1660e01b815260040160206040518083038186803b158015611da157600080fd5b505afa158015611db5573d6000803e3d6000fd5b505050506040513d6020811015611dcb57600080fd5b81019080805190602001909291905050505050505050505050565b60008060009054906101000a900460ff16611e69576040517f08c379a000000000000000000000000000000000000000000000000000000000815260040180806020018281038252600a8152602001807f72652d656e74657265640000000000000000000000000000000000000000000081525060200191505060405180910390fd5b60008060006101000a81548160ff02191690831515021790555060006011811115611e9057fe5b611e9c33868686613ae6565b14905060016000806101000a81548160ff0219169083151502179055509392505050565b600080611ecd84846141b9565b5090508091505092915050565b600460009054906101000a900473ffffffffffffffffffffffffffffffffffffffff1681565b600360009054906101000a900460ff1681565b6000611f1d619914565b6040518060200160405280611f30613029565b8152509050600080611f8183600e60008873ffffffffffffffffffffffffffffffffffffffff1673ffffffffffffffffffffffffffffffffffffffff168152602001908152602001600020546142cd565b9150915060006003811115611f9257fe5b826003811115611f9e57fe5b14612011576040517f08c379a000000000000000000000000000000000000000000000000000000000815260040180806020018281038252601f8152602001807f62616c616e636520636f756c64206e6f742062652063616c63756c617465640081525060200191505060405180910390fd5b809350505050919050565b6000612026614330565b905090565b6000612036826144ba565b9050919050565b6000600360019054906101000a900473ffffffffffffffffffffffffffffffffffffffff1673ffffffffffffffffffffffffffffffffffffffff163373ffffffffffffffffffffffffffffffffffffffff16146120a7576120a06001603f6145c6565b90506122a9565b6000600560009054906101000a900473ffffffffffffffffffffffffffffffffffffffff1690508273ffffffffffffffffffffffffffffffffffffffff16627e3dd26040518163ffffffff1660e01b815260040160206040518083038186803b15801561211357600080fd5b505afa158015612127573d6000803e3d6000fd5b505050506040513d602081101561213d57600080fd5b81019080805190602001909291905050506121c0576040517f08c379a000000000000000000000000000000000000000000000000000000000815260040180806020018281038252601c8152602001807f6d61726b6572206d6574686f642072657475726e65642066616c73650000000081525060200191505060405180910390fd5b82600560006101000a81548173ffffffffffffffffffffffffffffffffffffffff021916908373ffffffffffffffffffffffffffffffffffffffff1602179055507f7ac369dbd14fa5ea3f473ed67cc9d598964a77501540ba6751eb0b3decf5870d8184604051808373ffffffffffffffffffffffffffffffffffffffff1673ffffffffffffffffffffffffffffffffffffffff1681526020018273ffffffffffffffffffffffffffffffffffffffff1673ffffffffffffffffffffffffffffffffffffffff1681526020019250505060405180910390a1600060118111156122a557fe5b9150505b919050565b600b5481565b600360019054906101000a900473ffffffffffffffffffffffffffffffffffffffff1673ffffffffffffffffffffffffffffffffffffffff163373ffffffffffffffffffffffffffffffffffffffff161461235a576040517f08c379a0000000000000000000000000000000000000000000000000000000008152600401808060200182810382526030815260200180619b486030913960400191505060405180910390fd5b60008082806020019051604081101561237257600080fd5b8101908080519060200190929190805190602001909291905050509150915061239b828261463a565b505050565b601260009054906101000a900473ffffffffffffffffffffffffffffffffffffffff1681565b600560009054906101000a900473ffffffffffffffffffffffffffffffffffffffff1681565b60008060009054906101000a900460ff1661246f576040517f08c379a000000000000000000000000000000000000000000000000000000000815260040180806020018281038252600a8152602001807f72652d656e74657265640000000000000000000000000000000000000000000081525060200191505060405180910390fd5b60008060006101000a81548160ff0219169083151502179055506000612493612b70565b9050600060118111156124a257fe5b81146124c6576124be8160118111156124b757fe5b60306145c6565b9150506124d3565b6124cf83614ba6565b9150505b60016000806101000a81548160ff021916908315150217905550919050565b601460009054906101000a900473ffffffffffffffffffffffffffffffffffffffff1681565b60095481565b601160009054906101000a900473ffffffffffffffffffffffffffffffffffffffff1681565b6000600e60008373ffffffffffffffffffffffffffffffffffffffff1673ffffffffffffffffffffffffffffffffffffffff168152602001908152602001600020549050919050565b60008060009054906101000a900460ff16612610576040517f08c379a000000000000000000000000000000000000000000000000000000000815260040180806020018281038252600a8152602001807f72652d656e74657265640000000000000000000000000000000000000000000081525060200191505060405180910390fd5b60008060006101000a81548160ff0219169083151502179055506000601181111561263757fe5b61263f612b70565b146126b2576040517f08c379a00000000000000000000000000000000000000000000000000000000081526004018080602001828103825260168152602001807f61636372756520696e746572657374206661696c65640000000000000000000081525060200191505060405180910390fd5b600b54905060016000806101000a81548160ff02191690831515021790555090565b60006126df82614db7565b9050919050565b601360009054906101000a900473ffffffffffffffffffffffffffffffffffffffff1681565b601560009054906101000a900473ffffffffffffffffffffffffffffffffffffffff1681565b600c5481565b60028054600181600116156101000203166002900480601f0160208091040260200160405190810160405280929190818152602001828054600181600116156101000203166002900480156127ce5780601f106127a3576101008083540402835291602001916127ce565b820191906000526020600020905b8154815290600101906020018083116127b157829003601f168201915b505050505081565b60008060006127e484614ec0565b91509150600060038111156127f557fe5b82600381111561280157fe5b14612857576040517f08c379a0000000000000000000000000000000000000000000000000000000008152600401808060200182810382526037815260200180619c226037913960400191505060405180910390fd5b8092505050919050565b600360019054906101000a900473ffffffffffffffffffffffffffffffffffffffff1673ffffffffffffffffffffffffffffffffffffffff163373ffffffffffffffffffffffffffffffffffffffff1614612907576040517f08c379a0000000000000000000000000000000000000000000000000000000008152600401808060200182810382526024815260200180619b016024913960400191505060405180910390fd5b600060095414801561291b57506000600a54145b612970576040517f08c379a0000000000000000000000000000000000000000000000000000000008152600401808060200182810382526023815260200180619b256023913960400191505060405180910390fd5b836007819055506000600754116129d2576040517f08c379a0000000000000000000000000000000000000000000000000000000008152600401808060200182810382526030815260200180619b786030913960400191505060405180910390fd5b60006129dd8761203d565b9050600060118111156129ec57fe5b8114612a60576040517f08c379a000000000000000000000000000000000000000000000000000000000815260040180806020018281038252601a8152602001807f73657474696e6720636f6d7074726f6c6c6572206661696c656400000000000081525060200191505060405180910390fd5b612a68614fcb565b600981905550670de0b6b3a7640000600a81905550612a8686614fd3565b905060006011811115612a9557fe5b8114612aec576040517f08c379a0000000000000000000000000000000000000000000000000000000008152600401808060200182810382526022815260200180619ba86022913960400191505060405180910390fd5b8360019080519060200190612b02929190619927565b508260029080519060200190612b19929190619927565b5081600360006101000a81548160ff021916908360ff16021790555060016000806101000a81548160ff02191690831515021790555050505050505050565b600080612b6483615269565b50905080915050919050565b6000601460009054906101000a900473ffffffffffffffffffffffffffffffffffffffff1673ffffffffffffffffffffffffffffffffffffffff16639f678cca6040518163ffffffff1660e01b8152600401602060405180830381600087803b158015612bdc57600080fd5b505af1158015612bf0573d6000803e3d6000fd5b505050506040513d6020811015612c0657600080fd5b810190808051906020019092919050505050612c2061537a565b905090565b60008060009054906101000a900460ff16612ca8576040517f08c379a000000000000000000000000000000000000000000000000000000000815260040180806020018281038252600a8152602001807f72652d656e74657265640000000000000000000000000000000000000000000081525060200191505060405180910390fd5b60008060006101000a81548160ff02191690831515021790555060006011811115612ccf57fe5b612cdb33338686613ae6565b14905060016000806101000a81548160ff02191690831515021790555092915050565b600a5481565b6000600660009054906101000a900473ffffffffffffffffffffffffffffffffffffffff1673ffffffffffffffffffffffffffffffffffffffff1663b8168816612d4c614330565b600b54600c546008546040518563ffffffff1660e01b81526004018085815260200184815260200183815260200182815260200194505050505060206040518083038186803b158015612d9e57600080fd5b505afa158015612db2573d6000803e3d6000fd5b505050506040513d6020811015612dc857600080fd5b8101908080519060200190929190505050905090565b60008060009054906101000a900460ff16612e61576040517f08c379a000000000000000000000000000000000000000000000000000000000815260040180806020018281038252600a8152602001807f72652d656e74657265640000000000000000000000000000000000000000000081525060200191505060405180910390fd5b60008060006101000a81548160ff021916908315150217905550612e8733858585615833565b905060016000806101000a81548160ff0219169083151502179055509392505050565b6000600360019054906101000a900473ffffffffffffffffffffffffffffffffffffffff1673ffffffffffffffffffffffffffffffffffffffff163373ffffffffffffffffffffffffffffffffffffffff1614612f1457612f0d600160456145c6565b9050613024565b6000600460009054906101000a900473ffffffffffffffffffffffffffffffffffffffff16905082600460006101000a81548173ffffffffffffffffffffffffffffffffffffffff021916908373ffffffffffffffffffffffffffffffffffffffff1602179055507fca4f2f25d0898edd99413412fb94012f9e54ec8142f9b093e7720646a95b16a98184604051808373ffffffffffffffffffffffffffffffffffffffff1673ffffffffffffffffffffffffffffffffffffffff1681526020018273ffffffffffffffffffffffffffffffffffffffff1673ffffffffffffffffffffffffffffffffffffffff1681526020019250505060405180910390a16000601181111561302057fe5b9150505b919050565b60008060009054906101000a900460ff166130ac576040517f08c379a000000000000000000000000000000000000000000000000000000000815260040180806020018281038252600a8152602001807f72652d656e74657265640000000000000000000000000000000000000000000081525060200191505060405180910390fd5b60008060006101000a81548160ff021916908315150217905550600060118111156130d357fe5b6130db612b70565b1461314e576040517f08c379a00000000000000000000000000000000000000000000000000000000081526004018080602001828103825260168152602001807f61636372756520696e746572657374206661696c65640000000000000000000081525060200191505060405180910390fd5b613156611c62565b905060016000806101000a81548160ff02191690831515021790555090565b6000806000806000600e60008773ffffffffffffffffffffffffffffffffffffffff1673ffffffffffffffffffffffffffffffffffffffff16815260200190815260200160002054905060008060006131cd89614ec0565b8094508192505050600060038111156131e257fe5b8160038111156131ee57fe5b1461321f576009601181111561320057fe5b6000806000829250819150809050975097509750975050505050613296565b613227613a0a565b80935081925050506000600381111561323c57fe5b81600381111561324857fe5b14613279576009601181111561325a57fe5b6000806000829250819150809050975097509750975050505050613296565b6000601181111561328657fe5b8484849750975097509750505050505b9193509193565b60006132a882615dac565b9050919050565b60006132ba82615eb3565b9050919050565b6000600f60008473ffffffffffffffffffffffffffffffffffffffff1673ffffffffffffffffffffffffffffffffffffffff16815260200190815260200160002060008373ffffffffffffffffffffffffffffffffffffffff1673ffffffffffffffffffffffffffffffffffffffff16815260200190815260200160002054905092915050565b6000600460009054906101000a900473ffffffffffffffffffffffffffffffffffffffff1673ffffffffffffffffffffffffffffffffffffffff163373ffffffffffffffffffffffffffffffffffffffff161415806133d35750600073ffffffffffffffffffffffffffffffffffffffff163373ffffffffffffffffffffffffffffffffffffffff16145b156133eb576133e4600160006145c6565b9050613662565b6000600360019054906101000a900473ffffffffffffffffffffffffffffffffffffffff1690506000600460009054906101000a900473ffffffffffffffffffffffffffffffffffffffff169050600460009054906101000a900473ffffffffffffffffffffffffffffffffffffffff16600360016101000a81548173ffffffffffffffffffffffffffffffffffffffff021916908373ffffffffffffffffffffffffffffffffffffffff1602179055506000600460006101000a81548173ffffffffffffffffffffffffffffffffffffffff021916908373ffffffffffffffffffffffffffffffffffffffff1602179055507ff9ffabca9c8276e99321725bcb43fb076a6c66a54b7f21c4e8146d8519b417dc82600360019054906101000a900473ffffffffffffffffffffffffffffffffffffffff16604051808373ffffffffffffffffffffffffffffffffffffffff1673ffffffffffffffffffffffffffffffffffffffff1681526020018273ffffffffffffffffffffffffffffffffffffffff1673ffffffffffffffffffffffffffffffffffffffff1681526020019250505060405180910390a17fca4f2f25d0898edd99413412fb94012f9e54ec8142f9b093e7720646a95b16a981600460009054906101000a900473ffffffffffffffffffffffffffffffffffffffff16604051808373ffffffffffffffffffffffffffffffffffffffff1673ffffffffffffffffffffffffffffffffffffffff1681526020018273ffffffffffffffffffffffffffffffffffffffff1673ffffffffffffffffffffffffffffffffffffffff1681526020019250505060405180910390a16000601181111561365d57fe5b925050505b90565b600080613670612b70565b90506000601181111561367f57fe5b81146136a35761369b81601181111561369457fe5b60406145c6565b9150506136b0565b6136ac83614fd3565b9150505b919050565b600660009054906101000a900473ffffffffffffffffffffffffffffffffffffffff1681565b6000806136e9858585615fbc565b509050809150509392505050565b600360019054906101000a900473ffffffffffffffffffffffffffffffffffffffff1681565b6000600660009054906101000a900473ffffffffffffffffffffffffffffffffffffffff1673ffffffffffffffffffffffffffffffffffffffff166315f24053613765614330565b600b54600c546040518463ffffffff1660e01b815260040180848152602001838152602001828152602001935050505060206040518083038186803b1580156137ad57600080fd5b505afa1580156137c1573d6000803e3d6000fd5b505050506040513d60208110156137d757600080fd5b8101908080519060200190929190505050905090565b600181565b60008060009054906101000a900460ff16613875576040517f08c379a000000000000000000000000000000000000000000000000000000000815260040180806020018281038252600a8152602001807f72652d656e74657265640000000000000000000000000000000000000000000081525060200191505060405180910390fd5b60008060006101000a81548160ff0219169083151502179055506000613899612b70565b9050600060118111156138a857fe5b81146138cc576138c48160118111156138bd57fe5b60466145c6565b9150506138d9565b6138d58361618f565b9150505b60016000806101000a81548160ff021916908315150217905550919050565b6000806000809054906101000a900460ff1661397c576040517f08c379a000000000000000000000000000000000000000000000000000000000815260040180806020018281038252600a8152602001807f72652d656e74657265640000000000000000000000000000000000000000000081525060200191505060405180910390fd5b60008060006101000a81548160ff02191690831515021790555060006139a0612b70565b9050600060118111156139af57fe5b81146139da576139cb8160118111156139c457fe5b60366145c6565b600080905092509250506139eb565b6139e53333866162a2565b92509250505b60016000806101000a81548160ff021916908315150217905550915091565b6000806000600d5490506000811415613a2c5760006007549250925050613ae2565b6000613a36614330565b90506000613a42619914565b6000613a5384600b54600c54616980565b809450819250505060006003811115613a6857fe5b816003811115613a7457fe5b14613a8d57806000809050965096505050505050613ae2565b613a9783866169dc565b809350819250505060006003811115613aac57fe5b816003811115613ab857fe5b14613ad157806000809050965096505050505050613ae2565b600082600001519650965050505050505b9091565b600080600560009054906101000a900473ffffffffffffffffffffffffffffffffffffffff1673ffffffffffffffffffffffffffffffffffffffff1663bdcdc258308787876040518563ffffffff1660e01b8152600401808573ffffffffffffffffffffffffffffffffffffffff1673ffffffffffffffffffffffffffffffffffffffff1681526020018473ffffffffffffffffffffffffffffffffffffffff1673ffffffffffffffffffffffffffffffffffffffff1681526020018373ffffffffffffffffffffffffffffffffffffffff1673ffffffffffffffffffffffffffffffffffffffff168152602001828152602001945050505050602060405180830381600087803b158015613bfa57600080fd5b505af1158015613c0e573d6000803e3d6000fd5b505050506040513d6020811015613c2457600080fd5b8101908080519060200190929190505050905060008114613c5457613c4c6003604a83616ab0565b9150506141b1565b8373ffffffffffffffffffffffffffffffffffffffff168573ffffffffffffffffffffffffffffffffffffffff161415613c9c57613c946002604b6145c6565b9150506141b1565b60008090508573ffffffffffffffffffffffffffffffffffffffff168773ffffffffffffffffffffffffffffffffffffffff161415613cfd577fffffffffffffffffffffffffffffffffffffffffffffffffffffffffffffffff9050613d7d565b600f60008773ffffffffffffffffffffffffffffffffffffffff1673ffffffffffffffffffffffffffffffffffffffff16815260200190815260200160002060008873ffffffffffffffffffffffffffffffffffffffff1673ffffffffffffffffffffffffffffffffffffffff1681526020019081526020016000205490505b600080600080613d8d8589616b24565b809450819550505060006003811115613da257fe5b846003811115613dae57fe5b14613dcc57613dbf6009604b6145c6565b96505050505050506141b1565b613e15600e60008c73ffffffffffffffffffffffffffffffffffffffff1673ffffffffffffffffffffffffffffffffffffffff1681526020019081526020016000205489616b24565b809350819550505060006003811115613e2a57fe5b846003811115613e3657fe5b14613e5457613e476009604c6145c6565b96505050505050506141b1565b613e9d600e60008b73ffffffffffffffffffffffffffffffffffffffff1673ffffffffffffffffffffffffffffffffffffffff1681526020019081526020016000205489616b4f565b809250819550505060006003811115613eb257fe5b846003811115613ebe57fe5b14613edc57613ecf6009604d6145c6565b96505050505050506141b1565b81600e60008c73ffffffffffffffffffffffffffffffffffffffff1673ffffffffffffffffffffffffffffffffffffffff1681526020019081526020016000208190555080600e60008b73ffffffffffffffffffffffffffffffffffffffff1673ffffffffffffffffffffffffffffffffffffffff168152602001908152602001600020819055507fffffffffffffffffffffffffffffffffffffffffffffffffffffffffffffffff851461400d5782600f60008c73ffffffffffffffffffffffffffffffffffffffff1673ffffffffffffffffffffffffffffffffffffffff16815260200190815260200160002060008d73ffffffffffffffffffffffffffffffffffffffff1673ffffffffffffffffffffffffffffffffffffffff168152602001908152602001600020819055505b8873ffffffffffffffffffffffffffffffffffffffff168a73ffffffffffffffffffffffffffffffffffffffff167fddf252ad1be2c89b69c2b068fc378daa952ba7f163c4a11628f55a4df523b3ef8a6040518082815260200191505060405180910390a3600560009054906101000a900473ffffffffffffffffffffffffffffffffffffffff1673ffffffffffffffffffffffffffffffffffffffff16636a56947e308c8c8c6040518563ffffffff1660e01b8152600401808573ffffffffffffffffffffffffffffffffffffffff1673ffffffffffffffffffffffffffffffffffffffff1681526020018473ffffffffffffffffffffffffffffffffffffffff1673ffffffffffffffffffffffffffffffffffffffff1681526020018373ffffffffffffffffffffffffffffffffffffffff1673ffffffffffffffffffffffffffffffffffffffff168152602001828152602001945050505050600060405180830381600087803b15801561418357600080fd5b505af1158015614197573d6000803e3d6000fd5b50505050600060118111156141a857fe5b96505050505050505b949350505050565b6000806000809054906101000a900460ff1661423d576040517f08c379a000000000000000000000000000000000000000000000000000000000815260040180806020018281038252600a8152602001807f72652d656e74657265640000000000000000000000000000000000000000000081525060200191505060405180910390fd5b60008060006101000a81548160ff0219169083151502179055506000614261612b70565b90506000601181111561427057fe5b811461429b5761428c81601181111561428557fe5b60356145c6565b600080905092509250506142ac565b6142a63386866162a2565b92509250505b60016000806101000a81548160ff0219169083151502179055509250929050565b60008060006142da619914565b6142e48686616b81565b91509150600060038111156142f557fe5b82600381111561430157fe5b1461431757816000809050935093505050614329565b600061432282616bff565b9350935050505b9250929050565b600080601460009054906101000a900473ffffffffffffffffffffffffffffffffffffffff16905060008173ffffffffffffffffffffffffffffffffffffffff16630bebac86306040518263ffffffff1660e01b8152600401808273ffffffffffffffffffffffffffffffffffffffff1673ffffffffffffffffffffffffffffffffffffffff16815260200191505060206040518083038186803b1580156143d757600080fd5b505afa1580156143eb573d6000803e3d6000fd5b505050506040513d602081101561440157600080fd5b810190808051906020019092919050505090506b033b2e3c9fd0803ce80000006144ab8373ffffffffffffffffffffffffffffffffffffffff1663c92aecc46040518163ffffffff1660e01b815260040160206040518083038186803b15801561446a57600080fd5b505afa15801561447e573d6000803e3d6000fd5b505050506040513d602081101561449457600080fd5b810190808051906020019092919050505083616c1e565b816144b257fe5b049250505090565b60008060009054906101000a900460ff1661453d576040517f08c379a000000000000000000000000000000000000000000000000000000000815260040180806020018281038252600a8152602001807f72652d656e74657265640000000000000000000000000000000000000000000081525060200191505060405180910390fd5b60008060006101000a81548160ff0219169083151502179055506000614561612b70565b90506000601181111561457057fe5b81146145945761458c81601181111561458557fe5b604e6145c6565b9150506145a7565b61459d83616cb3565b5080915050809150505b60016000806101000a81548160ff021916908315150217905550919050565b60007f45b96fe442630264581b197e84bbada861235052c5a1aadfff9ea4e40a969aa08360118111156145f557fe5b83605681111561460157fe5b600060405180848152602001838152602001828152602001935050505060405180910390a182601181111561463257fe5b905092915050565b6000829050600082905060008273ffffffffffffffffffffffffffffffffffffffff1663f4b9fa756040518163ffffffff1660e01b8152600401602060405180830381600087803b15801561468e57600080fd5b505af11580156146a2573d6000803e3d6000fd5b505050506040513d60208110156146b857600080fd5b8101908080519060200190929190505050905060008373ffffffffffffffffffffffffffffffffffffffff166336569e776040518163ffffffff1660e01b8152600401602060405180830381600087803b15801561471557600080fd5b505af1158015614729573d6000803e3d6000fd5b505050506040513d602081101561473f57600080fd5b81019080805190602001909291905050509050601160009054906101000a900473ffffffffffffffffffffffffffffffffffffffff1673ffffffffffffffffffffffffffffffffffffffff168273ffffffffffffffffffffffffffffffffffffffff16146147f8576040517f08c379a0000000000000000000000000000000000000000000000000000000008152600401808060200182810382526022815260200180619c596022913960400191505060405180910390fd5b85601360006101000a81548173ffffffffffffffffffffffffffffffffffffffff021916908373ffffffffffffffffffffffffffffffffffffffff16021790555084601460006101000a81548173ffffffffffffffffffffffffffffffffffffffff021916908373ffffffffffffffffffffffffffffffffffffffff16021790555080601560006101000a81548173ffffffffffffffffffffffffffffffffffffffff021916908373ffffffffffffffffffffffffffffffffffffffff1602179055508173ffffffffffffffffffffffffffffffffffffffff1663095ea7b3601360009054906101000a900473ffffffffffffffffffffffffffffffffffffffff167fffffffffffffffffffffffffffffffffffffffffffffffffffffffffffffffff6040518363ffffffff1660e01b8152600401808373ffffffffffffffffffffffffffffffffffffffff1673ffffffffffffffffffffffffffffffffffffffff16815260200182815260200192505050600060405180830381600087803b15801561498457600080fd5b505af1158015614998573d6000803e3d6000fd5b505050508073ffffffffffffffffffffffffffffffffffffffff1663a3b22fc4601460009054906101000a900473ffffffffffffffffffffffffffffffffffffffff166040518263ffffffff1660e01b8152600401808273ffffffffffffffffffffffffffffffffffffffff1673ffffffffffffffffffffffffffffffffffffffff168152602001915050600060405180830381600087803b158015614a3d57600080fd5b505af1158015614a51573d6000803e3d6000fd5b505050508073ffffffffffffffffffffffffffffffffffffffff1663a3b22fc4601360009054906101000a900473ffffffffffffffffffffffffffffffffffffffff166040518263ffffffff1660e01b8152600401808273ffffffffffffffffffffffffffffffffffffffff1673ffffffffffffffffffffffffffffffffffffffff168152602001915050600060405180830381600087803b158015614af657600080fd5b505af1158015614b0a573d6000803e3d6000fd5b505050508273ffffffffffffffffffffffffffffffffffffffff16639f678cca6040518163ffffffff1660e01b8152600401602060405180830381600087803b158015614b5657600080fd5b505af1158015614b6a573d6000803e3d6000fd5b505050506040513d6020811015614b8057600080fd5b810190808051906020019092919050505050614b9d306000616e00565b50505050505050565b600080600360019054906101000a900473ffffffffffffffffffffffffffffffffffffffff1673ffffffffffffffffffffffffffffffffffffffff163373ffffffffffffffffffffffffffffffffffffffff1614614c1257614c0a600160316145c6565b915050614db2565b614c1a614fcb565b60095414614c3657614c2e600a60336145c6565b915050614db2565b82614c3f614330565b1015614c5957614c51600e60326145c6565b915050614db2565b600c54831115614c7757614c6f600260346145c6565b915050614db2565b82600c54039050600c54811115614cd9576040517f08c379a0000000000000000000000000000000000000000000000000000000008152600401808060200182810382526024815260200180619dce6024913960400191505060405180910390fd5b80600c81905550614d0c600360019054906101000a900473ffffffffffffffffffffffffffffffffffffffff168461732a565b7f3bad0c59cf2f06e7314077049f48a93578cd16f5ef92329f1dab1420a99c177e600360019054906101000a900473ffffffffffffffffffffffffffffffffffffffff168483604051808473ffffffffffffffffffffffffffffffffffffffff1673ffffffffffffffffffffffffffffffffffffffff168152602001838152602001828152602001935050505060405180910390a160006011811115614dae57fe5b9150505b919050565b60008060009054906101000a900460ff16614e3a576040517f08c379a000000000000000000000000000000000000000000000000000000000815260040180806020018281038252600a8152602001807f72652d656e74657265640000000000000000000000000000000000000000000081525060200191505060405180910390fd5b60008060006101000a81548160ff0219169083151502179055506000614e5e612b70565b905060006011811115614e6d57fe5b8114614e9157614e89816011811115614e8257fe5b60276145c6565b915050614ea1565b614e9d33600085617536565b9150505b60016000806101000a81548160ff021916908315150217905550919050565b600080600080600080601060008873ffffffffffffffffffffffffffffffffffffffff1673ffffffffffffffffffffffffffffffffffffffff1681526020019081526020016000209050600081600001541415614f2a576000808090509550955050505050614fc6565b614f3a8160000154600a54618064565b809450819550505060006003811115614f4f57fe5b846003811115614f5b57fe5b14614f73578360008090509550955050505050614fc6565b614f818382600101546180b7565b809350819550505060006003811115614f9657fe5b846003811115614fa257fe5b14614fba578360008090509550955050505050614fc6565b60008295509550505050505b915091565b600043905090565b600080600360019054906101000a900473ffffffffffffffffffffffffffffffffffffffff1673ffffffffffffffffffffffffffffffffffffffff163373ffffffffffffffffffffffffffffffffffffffff161461503f57615037600160426145c6565b915050615264565b615047614fcb565b600954146150635761505b600a60416145c6565b915050615264565b600660009054906101000a900473ffffffffffffffffffffffffffffffffffffffff1690508273ffffffffffffffffffffffffffffffffffffffff16632191f92a6040518163ffffffff1660e01b815260040160206040518083038186803b1580156150ce57600080fd5b505afa1580156150e2573d6000803e3d6000fd5b505050506040513d60208110156150f857600080fd5b810190808051906020019092919050505061517b576040517f08c379a000000000000000000000000000000000000000000000000000000000815260040180806020018281038252601c8152602001807f6d61726b6572206d6574686f642072657475726e65642066616c73650000000081525060200191505060405180910390fd5b82600660006101000a81548173ffffffffffffffffffffffffffffffffffffffff021916908373ffffffffffffffffffffffffffffffffffffffff1602179055507fedffc32e068c7c95dfd4bdfd5c4d939a084d6b11c4199eac8436ed234d72f9268184604051808373ffffffffffffffffffffffffffffffffffffffff1673ffffffffffffffffffffffffffffffffffffffff1681526020018273ffffffffffffffffffffffffffffffffffffffff1673ffffffffffffffffffffffffffffffffffffffff1681526020019250505060405180910390a16000601181111561526057fe5b9150505b919050565b6000806000809054906101000a900460ff166152ed576040517f08c379a000000000000000000000000000000000000000000000000000000000815260040180806020018281038252600a8152602001807f72652d656e74657265640000000000000000000000000000000000000000000081525060200191505060405180910390fd5b60008060006101000a81548160ff0219169083151502179055506000615311612b70565b90506000601181111561532057fe5b811461534b5761533c81601181111561533557fe5b601e6145c6565b6000809050925092505061535b565b61535533856180eb565b92509250505b60016000806101000a81548160ff021916908315150217905550915091565b600080615385614fcb565b905060006009549050818114156153ac57600060118111156153a357fe5b92505050615830565b60006153b6614330565b90506000600b5490506000600c5490506000600a5490506000600660009054906101000a900473ffffffffffffffffffffffffffffffffffffffff1673ffffffffffffffffffffffffffffffffffffffff166315f240538686866040518463ffffffff1660e01b815260040180848152602001838152602001828152602001935050505060206040518083038186803b15801561545257600080fd5b505afa158015615466573d6000803e3d6000fd5b505050506040513d602081101561547c57600080fd5b8101908080519060200190929190505050905065048c2739500081111561550b576040517f08c379a000000000000000000000000000000000000000000000000000000000815260040180806020018281038252601c8152602001807f626f72726f772072617465206973206162737572646c7920686967680000000081525060200191505060405180910390fd5b6000806155188989616b24565b915091506000600381111561552957fe5b82600381111561553557fe5b146155a8576040517f08c379a000000000000000000000000000000000000000000000000000000000815260040180806020018281038252601f8152602001807f636f756c64206e6f742063616c63756c61746520626c6f636b2064656c74610081525060200191505060405180910390fd5b6155b0619914565b6000806000806155ce60405180602001604052808a81525087616b81565b8096508198505050600060038111156155e357fe5b8760038111156155ef57fe5b146156215761560c6009600689600381111561560757fe5b616ab0565b9e505050505050505050505050505050615830565b61562b858c6142cd565b80955081985050506000600381111561564057fe5b87600381111561564c57fe5b1461567e576156696009600189600381111561566457fe5b616ab0565b9e505050505050505050505050505050615830565b615688848c616b4f565b80945081985050506000600381111561569d57fe5b8760038111156156a957fe5b146156db576156c6600960048960038111156156c157fe5b616ab0565b9e505050505050505050505050505050615830565b6156f66040518060200160405280600854815250858c6187b9565b80935081985050506000600381111561570b57fe5b87600381111561571757fe5b14615749576157346009600589600381111561572f57fe5b616ab0565b9e505050505050505050505050505050615830565b615754858a8b6187b9565b80925081985050506000600381111561576957fe5b87600381111561577557fe5b146157a7576157926009600389600381111561578d57fe5b616ab0565b9e505050505050505050505050505050615830565b8d60098190555080600a8190555082600b8190555081600c819055507f4dec04e750ca11537cabcd8a9eab06494de08da3735bc8871cd41250e190bc048c8583866040518085815260200184815260200183815260200182815260200194505050505060405180910390a16000601181111561581f57fe5b9e5050505050505050505050505050505b90565b600080600560009054906101000a900473ffffffffffffffffffffffffffffffffffffffff1673ffffffffffffffffffffffffffffffffffffffff1663d02f735130888888886040518663ffffffff1660e01b8152600401808673ffffffffffffffffffffffffffffffffffffffff1673ffffffffffffffffffffffffffffffffffffffff1681526020018573ffffffffffffffffffffffffffffffffffffffff1673ffffffffffffffffffffffffffffffffffffffff1681526020018473ffffffffffffffffffffffffffffffffffffffff1673ffffffffffffffffffffffffffffffffffffffff1681526020018373ffffffffffffffffffffffffffffffffffffffff1673ffffffffffffffffffffffffffffffffffffffff16815260200182815260200195505050505050602060405180830381600087803b15801561597b57600080fd5b505af115801561598f573d6000803e3d6000fd5b505050506040513d60208110156159a557600080fd5b81019080805190602001909291905050509050600081146159d5576159cd6003601b83616ab0565b915050615da4565b8473ffffffffffffffffffffffffffffffffffffffff168473ffffffffffffffffffffffffffffffffffffffff161415615a1d57615a156006601c6145c6565b915050615da4565b6000806000615a6b600e60008973ffffffffffffffffffffffffffffffffffffffff1673ffffffffffffffffffffffffffffffffffffffff1681526020019081526020016000205487616b24565b809350819450505060006003811115615a8057fe5b836003811115615a8c57fe5b14615ab457615aa96009601a856003811115615aa457fe5b616ab0565b945050505050615da4565b615afd600e60008a73ffffffffffffffffffffffffffffffffffffffff1673ffffffffffffffffffffffffffffffffffffffff1681526020019081526020016000205487616b4f565b809250819450505060006003811115615b1257fe5b836003811115615b1e57fe5b14615b4657615b3b60096019856003811115615b3657fe5b616ab0565b945050505050615da4565b81600e60008973ffffffffffffffffffffffffffffffffffffffff1673ffffffffffffffffffffffffffffffffffffffff1681526020019081526020016000208190555080600e60008a73ffffffffffffffffffffffffffffffffffffffff1673ffffffffffffffffffffffffffffffffffffffff168152602001908152602001600020819055508773ffffffffffffffffffffffffffffffffffffffff168773ffffffffffffffffffffffffffffffffffffffff167fddf252ad1be2c89b69c2b068fc378daa952ba7f163c4a11628f55a4df523b3ef886040518082815260200191505060405180910390a3600560009054906101000a900473ffffffffffffffffffffffffffffffffffffffff1673ffffffffffffffffffffffffffffffffffffffff16636d35bf91308b8b8b8b6040518663ffffffff1660e01b8152600401808673ffffffffffffffffffffffffffffffffffffffff1673ffffffffffffffffffffffffffffffffffffffff1681526020018573ffffffffffffffffffffffffffffffffffffffff1673ffffffffffffffffffffffffffffffffffffffff1681526020018473ffffffffffffffffffffffffffffffffffffffff1673ffffffffffffffffffffffffffffffffffffffff1681526020018373ffffffffffffffffffffffffffffffffffffffff1673ffffffffffffffffffffffffffffffffffffffff16815260200182815260200195505050505050600060405180830381600087803b158015615d7857600080fd5b505af1158015615d8c573d6000803e3d6000fd5b5050505060006011811115615d9d57fe5b9450505050505b949350505050565b60008060009054906101000a900460ff16615e2f576040517f08c379a000000000000000000000000000000000000000000000000000000000815260040180806020018281038252600a8152602001807f72652d656e74657265640000000000000000000000000000000000000000000081525060200191505060405180910390fd5b60008060006101000a81548160ff0219169083151502179055506000615e53612b70565b905060006011811115615e6257fe5b8114615e8657615e7e816011811115615e7757fe5b60086145c6565b915050615e94565b615e903384618824565b9150505b60016000806101000a81548160ff021916908315150217905550919050565b60008060009054906101000a900460ff16615f36576040517f08c379a000000000000000000000000000000000000000000000000000000000815260040180806020018281038252600a8152602001807f72652d656e74657265640000000000000000000000000000000000000000000081525060200191505060405180910390fd5b60008060006101000a81548160ff0219169083151502179055506000615f5a612b70565b905060006011811115615f6957fe5b8114615f8d57615f85816011811115615f7e57fe5b60276145c6565b915050615f9d565b615f9933846000617536565b9150505b60016000806101000a81548160ff021916908315150217905550919050565b6000806000809054906101000a900460ff16616040576040517f08c379a000000000000000000000000000000000000000000000000000000000815260040180806020018281038252600a8152602001807f72652d656e74657265640000000000000000000000000000000000000000000081525060200191505060405180910390fd5b60008060006101000a81548160ff0219169083151502179055506000616064612b70565b90506000601181111561607357fe5b811461609e5761608f81601181111561608857fe5b600f6145c6565b6000809050925092505061616d565b8373ffffffffffffffffffffffffffffffffffffffff1663a6afed956040518163ffffffff1660e01b8152600401602060405180830381600087803b1580156160e657600080fd5b505af11580156160fa573d6000803e3d6000fd5b505050506040513d602081101561611057600080fd5b810190808051906020019092919050505090506000601181111561613057fe5b811461615b5761614c81601181111561614557fe5b60106145c6565b6000809050925092505061616d565b61616733878787618d55565b92509250505b60016000806101000a81548160ff021916908315150217905550935093915050565b6000600360019054906101000a900473ffffffffffffffffffffffffffffffffffffffff1673ffffffffffffffffffffffffffffffffffffffff163373ffffffffffffffffffffffffffffffffffffffff16146161f9576161f2600160476145c6565b905061629d565b616201614fcb565b6009541461621c57616215600a60486145c6565b905061629d565b670de0b6b3a764000082111561623f57616238600260496145c6565b905061629d565b60006008549050826008819055507faaa68312e2ea9d50e16af5068410ab56e1a1fd06037b1a35664812c30f8214608184604051808381526020018281526020019250505060405180910390a16000601181111561629957fe5b9150505b919050565b6000806000600560009054906101000a900473ffffffffffffffffffffffffffffffffffffffff1673ffffffffffffffffffffffffffffffffffffffff166324008a62308888886040518563ffffffff1660e01b8152600401808573ffffffffffffffffffffffffffffffffffffffff1673ffffffffffffffffffffffffffffffffffffffff1681526020018473ffffffffffffffffffffffffffffffffffffffff1673ffffffffffffffffffffffffffffffffffffffff1681526020018373ffffffffffffffffffffffffffffffffffffffff1673ffffffffffffffffffffffffffffffffffffffff168152602001828152602001945050505050602060405180830381600087803b1580156163b857600080fd5b505af11580156163cc573d6000803e3d6000fd5b505050506040513d60208110156163e257600080fd5b81019080805190602001909291905050509050600081146164195761640a6003603883616ab0565b60008090509250925050616978565b616421614fcb565b6009541461644457616435600a60396145c6565b60008090509250925050616978565b61644c6199a7565b601060008773ffffffffffffffffffffffffffffffffffffffff1673ffffffffffffffffffffffffffffffffffffffff168152602001908152602001600020600101548160600181815250506164a186614ec0565b8260200183608001828152508260038111156164b957fe5b60038111156164c457fe5b8152505050600060038111156164d657fe5b816020015160038111156164e657fe5b1461651757616507600960378360200151600381111561650257fe5b616ab0565b6000809050935093505050616978565b7fffffffffffffffffffffffffffffffffffffffffffffffffffffffffffffffff85141561655257806080015181604001818152505061655d565b848160400181815250505b61656b878260400151616e00565b8160e001818152505061658681608001518260e00151616b24565b826020018360a0018281525082600381111561659e57fe5b60038111156165a957fe5b8152505050600060038111156165bb57fe5b816020015160038111156165cb57fe5b14616621576040517f08c379a000000000000000000000000000000000000000000000000000000000815260040180806020018281038252603a815260200180619c7b603a913960400191505060405180910390fd5b616631600b548260e00151616b24565b826020018360c0018281525082600381111561664957fe5b600381111561665457fe5b81525050506000600381111561666657fe5b8160200151600381111561667657fe5b146166cc576040517f08c379a0000000000000000000000000000000000000000000000000000000008152600401808060200182810382526031815260200180619cb56031913960400191505060405180910390fd5b8060a00151601060008873ffffffffffffffffffffffffffffffffffffffff1673ffffffffffffffffffffffffffffffffffffffff16815260200190815260200160002060000181905550600a54601060008873ffffffffffffffffffffffffffffffffffffffff1673ffffffffffffffffffffffffffffffffffffffff168152602001908152602001600020600101819055508060c00151600b819055507f1a2a22cb034d26d1854bdc6666a5b91fe25efbbb5dcad3b0355478d6f5c362a187878360e001518460a001518560c00151604051808673ffffffffffffffffffffffffffffffffffffffff1673ffffffffffffffffffffffffffffffffffffffff1681526020018573ffffffffffffffffffffffffffffffffffffffff1673ffffffffffffffffffffffffffffffffffffffff1681526020018481526020018381526020018281526020019550505050505060405180910390a1600560009054906101000a900473ffffffffffffffffffffffffffffffffffffffff1673ffffffffffffffffffffffffffffffffffffffff16631ededc913089898560e0015186606001516040518663ffffffff1660e01b8152600401808673ffffffffffffffffffffffffffffffffffffffff1673ffffffffffffffffffffffffffffffffffffffff1681526020018573ffffffffffffffffffffffffffffffffffffffff1673ffffffffffffffffffffffffffffffffffffffff1681526020018473ffffffffffffffffffffffffffffffffffffffff1673ffffffffffffffffffffffffffffffffffffffff16815260200183815260200182815260200195505050505050600060405180830381600087803b15801561694757600080fd5b505af115801561695b573d6000803e3d6000fd5b505050506000601181111561696c57fe5b8160e001519350935050505b935093915050565b6000806000806169908787616b4f565b91509150600060038111156169a157fe5b8260038111156169ad57fe5b146169c3578160008090509350935050506169d4565b6169cd8186616b24565b9350935050505b935093915050565b60006169e6619914565b6000806169fb86670de0b6b3a7640000618064565b9150915060006003811115616a0c57fe5b826003811115616a1857fe5b14616a3c578160405180602001604052806000815250809050935093505050616aa9565b600080616a4983886180b7565b9150915060006003811115616a5a57fe5b826003811115616a6657fe5b14616a8c5781604051806020016040528060008152508090509550955050505050616aa9565b600060405180602001604052808381525080905095509550505050505b9250929050565b60007f45b96fe442630264581b197e84bbada861235052c5a1aadfff9ea4e40a969aa0846011811115616adf57fe5b846056811115616aeb57fe5b8460405180848152602001838152602001828152602001935050505060405180910390a1836011811115616b1b57fe5b90509392505050565b600080838311616b3c57600083850391509150616b48565b60036000809050915091505b9250929050565b60008060008385019050848110616b6d576000819250925050616b7a565b6002600080905092509250505b9250929050565b6000616b8b619914565b600080616b9c866000015186618064565b9150915060006003811115616bad57fe5b826003811115616bb957fe5b14616bdd578160405180602001604052806000815250809050935093505050616bf8565b60006040518060200160405280838152508090509350935050505b9250929050565b6000670de0b6b3a7640000826000015181616c1657fe5b049050919050565b600080821480616c3b5750828283850292508281616c3857fe5b04145b616cad576040517f08c379a000000000000000000000000000000000000000000000000000000000815260040180806020018281038252600c8152602001807f6d756c2d6f766572666c6f77000000000000000000000000000000000000000081525060200191505060405180910390fd5b92915050565b600080600080616cc1614fcb565b60095414616ce157616cd5600a604f6145c6565b81935093505050616dfb565b616ceb3386616e00565b905080600c54019150600c54821015616d6c576040517f08c379a00000000000000000000000000000000000000000000000000000000081526004018080602001828103825260208152602001807f61646420726573657276657320756e6578706563746564206f766572666c6f7781525060200191505060405180910390fd5b81600c819055507fa91e67c5ea634cd43a12c5a482724b03de01e85ca68702a53d0c2f45cb7c1dc5338284604051808473ffffffffffffffffffffffffffffffffffffffff1673ffffffffffffffffffffffffffffffffffffffff168152602001838152602001828152602001935050505060405180910390a160006011811115616df357fe5b819350935050505b915091565b600080601160009054906101000a900473ffffffffffffffffffffffffffffffffffffffff1690508073ffffffffffffffffffffffffffffffffffffffff166323b872dd8530866040518463ffffffff1660e01b8152600401808473ffffffffffffffffffffffffffffffffffffffff1673ffffffffffffffffffffffffffffffffffffffff1681526020018373ffffffffffffffffffffffffffffffffffffffff1673ffffffffffffffffffffffffffffffffffffffff1681526020018281526020019350505050602060405180830381600087803b158015616ee357600080fd5b505af1158015616ef7573d6000803e3d6000fd5b505050506040513d6020811015616f0d57600080fd5b8101908080519060200190929190505050616f73576040517f08c379a0000000000000000000000000000000000000000000000000000000008152600401808060200182810382526024815260200180619d196024913960400191505060405180910390fd5b6000601360009054906101000a900473ffffffffffffffffffffffffffffffffffffffff1690506000601160009054906101000a900473ffffffffffffffffffffffffffffffffffffffff1690506000601460009054906101000a900473ffffffffffffffffffffffffffffffffffffffff1690506000601560009054906101000a900473ffffffffffffffffffffffffffffffffffffffff1690508373ffffffffffffffffffffffffffffffffffffffff16633b4da69f308573ffffffffffffffffffffffffffffffffffffffff166370a08231306040518263ffffffff1660e01b8152600401808273ffffffffffffffffffffffffffffffffffffffff1673ffffffffffffffffffffffffffffffffffffffff16815260200191505060206040518083038186803b1580156170a957600080fd5b505afa1580156170bd573d6000803e3d6000fd5b505050506040513d60208110156170d357600080fd5b81019080805190602001909291905050506040518363ffffffff1660e01b8152600401808373ffffffffffffffffffffffffffffffffffffffff1673ffffffffffffffffffffffffffffffffffffffff16815260200182815260200192505050600060405180830381600087803b15801561714d57600080fd5b505af1158015617161573d6000803e3d6000fd5b5050505060008173ffffffffffffffffffffffffffffffffffffffff16636c25b346306040518263ffffffff1660e01b8152600401808273ffffffffffffffffffffffffffffffffffffffff1673ffffffffffffffffffffffffffffffffffffffff16815260200191505060206040518083038186803b1580156171e457600080fd5b505afa1580156171f8573d6000803e3d6000fd5b505050506040513d602081101561720e57600080fd5b8101908080519060200190929190505050905060008373ffffffffffffffffffffffffffffffffffffffff1663c92aecc46040518163ffffffff1660e01b815260040160206040518083038186803b15801561726957600080fd5b505afa15801561727d573d6000803e3d6000fd5b505050506040513d602081101561729357600080fd5b810190808051906020019092919050505082816172ac57fe5b0490508373ffffffffffffffffffffffffffffffffffffffff1663049878f3826040518263ffffffff1660e01b815260040180828152602001915050600060405180830381600087803b15801561730257600080fd5b505af1158015617316573d6000803e3d6000fd5b505050508897505050505050505092915050565b6000601360009054906101000a900473ffffffffffffffffffffffffffffffffffffffff1690506000601460009054906101000a900473ffffffffffffffffffffffffffffffffffffffff16905060006174238273ffffffffffffffffffffffffffffffffffffffff1663c92aecc46040518163ffffffff1660e01b815260040160206040518083038186803b1580156173c357600080fd5b505afa1580156173d7573d6000803e3d6000fd5b505050506040513d60208110156173ed57600080fd5b8101908080519060200190929190505050617414866b033b2e3c9fd0803ce8000000616c1e565b8161741b57fe5b0460016197b2565b90508173ffffffffffffffffffffffffffffffffffffffff16637f8661a1826040518263ffffffff1660e01b815260040180828152602001915050600060405180830381600087803b15801561747857600080fd5b505af115801561748c573d6000803e3d6000fd5b505050508273ffffffffffffffffffffffffffffffffffffffff1663ef693bed86866040518363ffffffff1660e01b8152600401808373ffffffffffffffffffffffffffffffffffffffff1673ffffffffffffffffffffffffffffffffffffffff16815260200182815260200192505050600060405180830381600087803b15801561751757600080fd5b505af115801561752b573d6000803e3d6000fd5b505050505050505050565b6000808314806175465750600082145b61759b576040517f08c379a0000000000000000000000000000000000000000000000000000000008152600401808060200182810382526034815260200180619d9a6034913960400191505060405180910390fd5b6175a3619a02565b6175ab613a0a565b8260200183604001828152508260038111156175c357fe5b60038111156175ce57fe5b8152505050600060038111156175e057fe5b816020015160038111156175f057fe5b14617619576176116009602b8360200151600381111561760c57fe5b616ab0565b91505061805d565b60008411156176bb578381606001818152505061764860405180602001604052808360400151815250856142cd565b82602001836080018281525082600381111561766057fe5b600381111561766b57fe5b81525050506000600381111561767d57fe5b8160200151600381111561768d57fe5b146176b6576176ae60096029836020015160038111156176a957fe5b616ab0565b91505061805d565b617750565b6176d78360405180602001604052808460400151815250619835565b8260200183606001828152508260038111156176ef57fe5b60038111156176fa57fe5b81525050506000600381111561770c57fe5b8160200151600381111561771c57fe5b146177455761773d6009602a8360200151600381111561773857fe5b616ab0565b91505061805d565b828160800181815250505b6000600560009054906101000a900473ffffffffffffffffffffffffffffffffffffffff1673ffffffffffffffffffffffffffffffffffffffff1663eabe7d91308885606001516040518463ffffffff1660e01b8152600401808473ffffffffffffffffffffffffffffffffffffffff1673ffffffffffffffffffffffffffffffffffffffff1681526020018373ffffffffffffffffffffffffffffffffffffffff1673ffffffffffffffffffffffffffffffffffffffff1681526020018281526020019350505050602060405180830381600087803b15801561783357600080fd5b505af1158015617847573d6000803e3d6000fd5b505050506040513d602081101561785d57600080fd5b810190808051906020019092919050505090506000811461788e576178856003602883616ab0565b9250505061805d565b617896614fcb565b600954146178b3576178aa600a602c6145c6565b9250505061805d565b6178c3600d548360600151616b24565b836020018460a001828152508260038111156178db57fe5b60038111156178e657fe5b8152505050600060038111156178f857fe5b8260200151600381111561790857fe5b14617932576179296009602e8460200151600381111561792457fe5b616ab0565b9250505061805d565b61797f600e60008873ffffffffffffffffffffffffffffffffffffffff1673ffffffffffffffffffffffffffffffffffffffff168152602001908152602001600020548360600151616b24565b836020018460c0018281525082600381111561799757fe5b60038111156179a257fe5b8152505050600060038111156179b457fe5b826020015160038111156179c457fe5b146179ee576179e56009602d846020015160038111156179e057fe5b616ab0565b9250505061805d565b81608001516179fb614330565b1015617a1657617a0d600e602f6145c6565b9250505061805d565b6000806000600560009054906101000a900473ffffffffffffffffffffffffffffffffffffffff1673ffffffffffffffffffffffffffffffffffffffff166304ef9d586040518163ffffffff1660e01b815260040160206040518083038186803b158015617a8357600080fd5b505afa158015617a97573d6000803e3d6000fd5b505050506040513d6020811015617aad57600080fd5b810190808051906020019092919050505014617dff57617b738460800151600560009054906101000a900473ffffffffffffffffffffffffffffffffffffffff1673ffffffffffffffffffffffffffffffffffffffff166304ef9d586040518163ffffffff1660e01b815260040160206040518083038186803b158015617b3357600080fd5b505afa158015617b47573d6000803e3d6000fd5b505050506040513d6020811015617b5d57600080fd5b8101908080519060200190929190505050618064565b85602001819450826003811115617b8657fe5b6003811115617b9157fe5b815250505060006003811115617ba357fe5b84602001516003811115617bb357fe5b14617bdf57617bd46009605686602001516003811115617bcf57fe5b616ab0565b94505050505061805d565b617bf182670de0b6b3a76400006180b7565b85602001819450826003811115617c0457fe5b6003811115617c0f57fe5b815250505060006003811115617c2157fe5b84602001516003811115617c3157fe5b14617c5d57617c526009605686602001516003811115617c4d57fe5b616ab0565b94505050505061805d565b617c6b846080015183616b24565b85602001819350826003811115617c7e57fe5b6003811115617c8957fe5b815250505060006003811115617c9b57fe5b84602001516003811115617cab57fe5b14617cd757617ccc6009605686602001516003811115617cc757fe5b616ab0565b94505050505061805d565b617d83600560009054906101000a900473ffffffffffffffffffffffffffffffffffffffff1673ffffffffffffffffffffffffffffffffffffffff1663c5f956af6040518163ffffffff1660e01b815260040160206040518083038186803b158015617d4257600080fd5b505afa158015617d56573d6000803e3d6000fd5b505050506040513d6020811015617d6c57600080fd5b81019080805190602001909291905050508361732a565b7fccf8e53b86a99b7e9ecf796342c165764d66154780f638c08e6241d711fba6d488838660600151604051808473ffffffffffffffffffffffffffffffffffffffff1673ffffffffffffffffffffffffffffffffffffffff168152602001838152602001828152602001935050505060405180910390a1617e07565b836080015190505b617e11888261732a565b8360a00151600d819055508360c00151600e60008a73ffffffffffffffffffffffffffffffffffffffff1673ffffffffffffffffffffffffffffffffffffffff168152602001908152602001600020819055503073ffffffffffffffffffffffffffffffffffffffff168873ffffffffffffffffffffffffffffffffffffffff167fddf252ad1be2c89b69c2b068fc378daa952ba7f163c4a11628f55a4df523b3ef86606001516040518082815260200191505060405180910390a37fe5b754fb1abb7f01b499791d0b820ae3b6af3424ac1c59768edb53f4ec31a92988828660600151604051808473ffffffffffffffffffffffffffffffffffffffff1673ffffffffffffffffffffffffffffffffffffffff168152602001838152602001828152602001935050505060405180910390a1600560009054906101000a900473ffffffffffffffffffffffffffffffffffffffff1673ffffffffffffffffffffffffffffffffffffffff166351dff989308a876080015188606001516040518563ffffffff1660e01b8152600401808573ffffffffffffffffffffffffffffffffffffffff1673ffffffffffffffffffffffffffffffffffffffff1681526020018473ffffffffffffffffffffffffffffffffffffffff1673ffffffffffffffffffffffffffffffffffffffff168152602001838152602001828152602001945050505050600060405180830381600087803b15801561803157600080fd5b505af1158015618045573d6000803e3d6000fd5b505050506000601181111561805657fe5b9450505050505b9392505050565b600080600084141561807f57600080809050915091506180b0565b600083850290508385828161809057fe5b04146180a7576002600080905092509250506180b0565b60008192509250505b9250929050565b60008060008314156180d35760016000809050915091506180e4565b60008385816180de57fe5b04915091505b9250929050565b6000806000600560009054906101000a900473ffffffffffffffffffffffffffffffffffffffff1673ffffffffffffffffffffffffffffffffffffffff16634ef4c3e13087876040518463ffffffff1660e01b8152600401808473ffffffffffffffffffffffffffffffffffffffff1673ffffffffffffffffffffffffffffffffffffffff1681526020018373ffffffffffffffffffffffffffffffffffffffff1673ffffffffffffffffffffffffffffffffffffffff1681526020018281526020019350505050602060405180830381600087803b1580156181cd57600080fd5b505af11580156181e1573d6000803e3d6000fd5b505050506040513d60208110156181f757600080fd5b810190808051906020019092919050505090506000811461822e5761821f6003601f83616ab0565b600080905092509250506187b2565b618236614fcb565b600954146182595761824a600a60226145c6565b600080905092509250506187b2565b618261619a55565b618269613a0a565b82602001836040018281525082600381111561828157fe5b600381111561828c57fe5b81525050506000600381111561829e57fe5b816020015160038111156182ae57fe5b146182df576182cf60096021836020015160038111156182ca57fe5b616ab0565b60008090509350935050506187b2565b6182e98686616e00565b8160c00181815250506183128160c0015160405180602001604052808460400151815250619835565b82602001836060018281525082600381111561832a57fe5b600381111561833557fe5b81525050506000600381111561834757fe5b8160200151600381111561835757fe5b146183ca576040517f08c379a00000000000000000000000000000000000000000000000000000000081526004018080602001828103825260208152602001807f4d494e545f45584348414e47455f43414c43554c4154494f4e5f4641494c454481525060200191505060405180910390fd5b6183da600d548260600151616b4f565b8260200183608001828152508260038111156183f257fe5b60038111156183fd57fe5b81525050506000600381111561840f57fe5b8160200151600381111561841f57fe5b14618475576040517f08c379a0000000000000000000000000000000000000000000000000000000008152600401808060200182810382526028815260200180619d726028913960400191505060405180910390fd5b6184c2600e60008873ffffffffffffffffffffffffffffffffffffffff1673ffffffffffffffffffffffffffffffffffffffff168152602001908152602001600020548260600151616b4f565b826020018360a001828152508260038111156184da57fe5b60038111156184e557fe5b8152505050600060038111156184f757fe5b8160200151600381111561850757fe5b1461855d576040517f08c379a000000000000000000000000000000000000000000000000000000000815260040180806020018281038252602b815260200180619bf7602b913960400191505060405180910390fd5b8060800151600d819055508060a00151600e60008873ffffffffffffffffffffffffffffffffffffffff1673ffffffffffffffffffffffffffffffffffffffff168152602001908152602001600020819055507f4c209b5fc8ad50758f13e2e1088ba56a560dff690a1c6fef26394f4c03821c4f868260c001518360600151604051808473ffffffffffffffffffffffffffffffffffffffff1673ffffffffffffffffffffffffffffffffffffffff168152602001838152602001828152602001935050505060405180910390a18573ffffffffffffffffffffffffffffffffffffffff163073ffffffffffffffffffffffffffffffffffffffff167fddf252ad1be2c89b69c2b068fc378daa952ba7f163c4a11628f55a4df523b3ef83606001516040518082815260200191505060405180910390a3600560009054906101000a900473ffffffffffffffffffffffffffffffffffffffff1673ffffffffffffffffffffffffffffffffffffffff166341c728b930888460c0015185606001516040518563ffffffff1660e01b8152600401808573ffffffffffffffffffffffffffffffffffffffff1673ffffffffffffffffffffffffffffffffffffffff1681526020018473ffffffffffffffffffffffffffffffffffffffff1673ffffffffffffffffffffffffffffffffffffffff168152602001838152602001828152602001945050505050600060405180830381600087803b15801561878157600080fd5b505af1158015618795573d6000803e3d6000fd5b50505050600060118111156187a657fe5b8160c001519350935050505b9250929050565b60008060006187c6619914565b6187d08787616b81565b91509150600060038111156187e157fe5b8260038111156187ed57fe5b146188035781600080905093509350505061881c565b61881561880f82616bff565b86616b4f565b9350935050505b935093915050565b600080600560009054906101000a900473ffffffffffffffffffffffffffffffffffffffff1673ffffffffffffffffffffffffffffffffffffffff1663da3d454c3086866040518463ffffffff1660e01b8152600401808473ffffffffffffffffffffffffffffffffffffffff1673ffffffffffffffffffffffffffffffffffffffff1681526020018373ffffffffffffffffffffffffffffffffffffffff1673ffffffffffffffffffffffffffffffffffffffff1681526020018281526020019350505050602060405180830381600087803b15801561890457600080fd5b505af1158015618918573d6000803e3d6000fd5b505050506040513d602081101561892e57600080fd5b810190808051906020019092919050505090506000811461895e576189566003600e83616ab0565b915050618d4f565b618966614fcb565b6009541461898157618979600a806145c6565b915050618d4f565b8261898a614330565b10156189a45761899c600e60096145c6565b915050618d4f565b6189ac619aa8565b6189b585614ec0565b8260000183602001828152508260038111156189cd57fe5b60038111156189d857fe5b8152505050600060038111156189ea57fe5b816000015160038111156189fa57fe5b14618a2457618a1b6009600783600001516003811115618a1657fe5b616ab0565b92505050618d4f565b618a32816020015185616b4f565b826000018360400182815250826003811115618a4a57fe5b6003811115618a5557fe5b815250505060006003811115618a6757fe5b81600001516003811115618a7757fe5b14618aa157618a986009600c83600001516003811115618a9357fe5b616ab0565b92505050618d4f565b618aad600b5485616b4f565b826000018360600182815250826003811115618ac557fe5b6003811115618ad057fe5b815250505060006003811115618ae257fe5b81600001516003811115618af257fe5b14618b1c57618b136009600b83600001516003811115618b0e57fe5b616ab0565b92505050618d4f565b618b26858561732a565b8060400151601060008773ffffffffffffffffffffffffffffffffffffffff1673ffffffffffffffffffffffffffffffffffffffff16815260200190815260200160002060000181905550600a54601060008773ffffffffffffffffffffffffffffffffffffffff1673ffffffffffffffffffffffffffffffffffffffff168152602001908152602001600020600101819055508060600151600b819055507f13ed6866d4e1ee6da46f845c46d7e54120883d75c5ea9a2dacc1c4ca8984ab80858583604001518460600151604051808573ffffffffffffffffffffffffffffffffffffffff1673ffffffffffffffffffffffffffffffffffffffff16815260200184815260200183815260200182815260200194505050505060405180910390a1600560009054906101000a900473ffffffffffffffffffffffffffffffffffffffff1673ffffffffffffffffffffffffffffffffffffffff16635c7786053087876040518463ffffffff1660e01b8152600401808473ffffffffffffffffffffffffffffffffffffffff1673ffffffffffffffffffffffffffffffffffffffff1681526020018373ffffffffffffffffffffffffffffffffffffffff1673ffffffffffffffffffffffffffffffffffffffff1681526020018281526020019350505050600060405180830381600087803b158015618d2557600080fd5b505af1158015618d39573d6000803e3d6000fd5b5050505060006011811115618d4a57fe5b925050505b92915050565b6000806000600560009054906101000a900473ffffffffffffffffffffffffffffffffffffffff1673ffffffffffffffffffffffffffffffffffffffff16635fc7e71e30868a8a8a6040518663ffffffff1660e01b8152600401808673ffffffffffffffffffffffffffffffffffffffff1673ffffffffffffffffffffffffffffffffffffffff1681526020018573ffffffffffffffffffffffffffffffffffffffff1673ffffffffffffffffffffffffffffffffffffffff1681526020018473ffffffffffffffffffffffffffffffffffffffff1673ffffffffffffffffffffffffffffffffffffffff1681526020018373ffffffffffffffffffffffffffffffffffffffff1673ffffffffffffffffffffffffffffffffffffffff16815260200182815260200195505050505050602060405180830381600087803b158015618e9f57600080fd5b505af1158015618eb3573d6000803e3d6000fd5b505050506040513d6020811015618ec957600080fd5b8101908080519060200190929190505050905060008114618f0057618ef16003601283616ab0565b600080905092509250506197a9565b618f08614fcb565b60095414618f2b57618f1c600a60166145c6565b600080905092509250506197a9565b618f33614fcb565b8473ffffffffffffffffffffffffffffffffffffffff16636c540baf6040518163ffffffff1660e01b815260040160206040518083038186803b158015618f7957600080fd5b505afa158015618f8d573d6000803e3d6000fd5b505050506040513d6020811015618fa357600080fd5b810190808051906020019092919050505014618fd457618fc5600a60116145c6565b600080905092509250506197a9565b8673ffffffffffffffffffffffffffffffffffffffff168673ffffffffffffffffffffffffffffffffffffffff16141561902357619014600660176145c6565b600080905092509250506197a9565b600085141561904757619038600760156145c6565b600080905092509250506197a9565b7fffffffffffffffffffffffffffffffffffffffffffffffffffffffffffffffff85141561908a5761907b600760146145c6565b600080905092509250506197a9565b6000806190988989896162a2565b91509150600060118111156190a957fe5b82146190d6576190c58260118111156190be57fe5b60186145c6565b6000809050945094505050506197a9565b600080600560009054906101000a900473ffffffffffffffffffffffffffffffffffffffff1673ffffffffffffffffffffffffffffffffffffffff1663c488847b308a866040518463ffffffff1660e01b8152600401808473ffffffffffffffffffffffffffffffffffffffff1673ffffffffffffffffffffffffffffffffffffffff1681526020018373ffffffffffffffffffffffffffffffffffffffff1673ffffffffffffffffffffffffffffffffffffffff1681526020018281526020019350505050604080518083038186803b1580156191b357600080fd5b505afa1580156191c7573d6000803e3d6000fd5b505050506040513d60408110156191dd57600080fd5b810190808051906020019092919080519060200190929190505050915091506000601181111561920957fe5b8214619260576040517f08c379a0000000000000000000000000000000000000000000000000000000008152600401808060200182810382526033815260200180619ce66033913960400191505060405180910390fd5b808873ffffffffffffffffffffffffffffffffffffffff166370a082318c6040518263ffffffff1660e01b8152600401808273ffffffffffffffffffffffffffffffffffffffff1673ffffffffffffffffffffffffffffffffffffffff16815260200191505060206040518083038186803b1580156192de57600080fd5b505afa1580156192f2573d6000803e3d6000fd5b505050506040513d602081101561930857600080fd5b8101908080519060200190929190505050101561938d576040517f08c379a00000000000000000000000000000000000000000000000000000000081526004018080602001828103825260188152602001807f4c49515549444154455f5345495a455f544f4f5f4d554348000000000000000081525060200191505060405180910390fd5b60003073ffffffffffffffffffffffffffffffffffffffff168973ffffffffffffffffffffffffffffffffffffffff1614156193d6576193cf308d8d85615833565b90506194cf565b8873ffffffffffffffffffffffffffffffffffffffff1663b2a02ff18d8d856040518463ffffffff1660e01b8152600401808473ffffffffffffffffffffffffffffffffffffffff1673ffffffffffffffffffffffffffffffffffffffff1681526020018373ffffffffffffffffffffffffffffffffffffffff1673ffffffffffffffffffffffffffffffffffffffff1681526020018281526020019350505050602060405180830381600087803b15801561949157600080fd5b505af11580156194a5573d6000803e3d6000fd5b505050506040513d60208110156194bb57600080fd5b810190808051906020019092919050505090505b600060118111156194dc57fe5b8114619550576040517f08c379a00000000000000000000000000000000000000000000000000000000081526004018080602001828103825260148152602001807f746f6b656e207365697a757265206661696c656400000000000000000000000081525060200191505060405180910390fd5b7f298637f684da70674f26509b10f07ec2fbc77a335ab1e7d6215a4b2484d8bb528c8c868c86604051808673ffffffffffffffffffffffffffffffffffffffff1673ffffffffffffffffffffffffffffffffffffffff1681526020018573ffffffffffffffffffffffffffffffffffffffff1673ffffffffffffffffffffffffffffffffffffffff1681526020018481526020018373ffffffffffffffffffffffffffffffffffffffff1673ffffffffffffffffffffffffffffffffffffffff1681526020018281526020019550505050505060405180910390a1600560009054906101000a900473ffffffffffffffffffffffffffffffffffffffff1673ffffffffffffffffffffffffffffffffffffffff166347ef3b3b308b8f8f89886040518763ffffffff1660e01b8152600401808773ffffffffffffffffffffffffffffffffffffffff1673ffffffffffffffffffffffffffffffffffffffff1681526020018673ffffffffffffffffffffffffffffffffffffffff1673ffffffffffffffffffffffffffffffffffffffff1681526020018573ffffffffffffffffffffffffffffffffffffffff1673ffffffffffffffffffffffffffffffffffffffff1681526020018473ffffffffffffffffffffffffffffffffffffffff1673ffffffffffffffffffffffffffffffffffffffff1681526020018381526020018281526020019650505050505050600060405180830381600087803b15801561977857600080fd5b505af115801561978c573d6000803e3d6000fd5b505050506000601181111561979d57fe5b84975097505050505050505b94509492505050565b600082828401915081101561982f576040517f08c379a000000000000000000000000000000000000000000000000000000000815260040180806020018281038252600c8152602001807f6164642d6f766572666c6f77000000000000000000000000000000000000000081525060200191505060405180910390fd5b92915050565b6000806000619842619914565b61984c8686619898565b915091506000600381111561985d57fe5b82600381111561986957fe5b1461987f57816000809050935093505050619891565b600061988a82616bff565b9350935050505b9250929050565b60006198a2619914565b6000806198b7670de0b6b3a764000087618064565b91509150600060038111156198c857fe5b8260038111156198d457fe5b146198f857816040518060200160405280600081525080905093509350505061990d565b6199068186600001516169dc565b9350935050505b9250929050565b6040518060200160405280600081525090565b828054600181600116156101000203166002900490600052602060002090601f016020900481019282601f1061996857805160ff1916838001178555619996565b82800160010185558215619996579182015b8281111561999557825182559160200191906001019061997a565b5b5090506199a39190619adb565b5090565b604051806101000160405280600060118111156199c057fe5b8152602001600060038111156199d257fe5b81526020016000815260200160008152602001600081526020016000815260200160008152602001600081525090565b6040518060e0016040528060006011811115619a1a57fe5b815260200160006003811115619a2c57fe5b815260200160008152602001600081526020016000815260200160008152602001600081525090565b6040518060e0016040528060006011811115619a6d57fe5b815260200160006003811115619a7f57fe5b815260200160008152602001600081526020016000815260200160008152602001600081525090565b604051806080016040528060006003811115619ac057fe5b81526020016000815260200160008152602001600081525090565b619afd91905b80821115619af9576000816000905550600101619ae1565b5090565b9056fe6f6e6c792061646d696e206d617920696e697469616c697a6520746865206d61726b65746d61726b6574206d6179206f6e6c7920626520696e697469616c697a6564206f6e63656f6e6c79207468652061646d696e206d617920696e697469616c697a652074686520696d706c656d656e746174696f6e696e697469616c2065786368616e67652072617465206d7573742062652067726561746572207468616e207a65726f2e73657474696e6720696e7465726573742072617465206d6f64656c206661696c65646f6e6c79207468652061646d696e206d6179206162616e646f6e2074686520696d706c656d656e746174696f6e4d494e545f4e45575f4143434f554e545f42414c414e43455f43414c43554c4154494f4e5f4641494c4544626f72726f7742616c616e636553746f7265643a20626f72726f7742616c616e636553746f726564496e7465726e616c206661696c6564444149206d757374206265207468652073616d6520617320756e6465726c79696e6752455041595f424f52524f575f4e45575f4143434f554e545f424f52524f575f42414c414e43455f43414c43554c4154494f4e5f4641494c454452455041595f424f52524f575f4e45575f544f54414c5f42414c414e43455f43414c43554c4154494f4e5f4641494c45444c49515549444154455f434f4d5054524f4c4c45525f43414c43554c4154455f414d4f554e545f5345495a455f4641494c4544756e6578706563746564204549502d3230207472616e7366657220696e2072657475726e65786368616e67655261746553746f7265643a2065786368616e67655261746553746f726564496e7465726e616c206661696c65644d494e545f4e45575f544f54414c5f535550504c595f43414c43554c4154494f4e5f4641494c45446f6e65206f662072656465656d546f6b656e73496e206f722072656465656d416d6f756e74496e206d757374206265207a65726f72656475636520726573657276657320756e657870656374656420756e646572666c6f77a265627a7a7231582095f4ba8403c4f4b8d83f397ef5cbddaa9239f853b991fb45a7560a96d2bb59bf64736f6c63430005110032",
  "source": "pragma solidity ^0.5.16;\n\nimport \"./BBep20Delegate.sol\";\n\n/**\n * @title Btntex's ADai Contract\n * @notice BToken which wraps Multi-Collateral DAI\n * @author Btntex\n */\ncontract ADaiDelegate is BBep20Delegate {\n    /**\n     * @notice DAI adapter address\n     */\n    address public daiJoinAddress;\n\n    /**\n     * @notice DAI Savings Rate (DSR) pot address\n     */\n    address public potAddress;\n\n    /**\n     * @notice DAI vat address\n     */\n    address public vatAddress;\n\n    /**\n     * @notice Delegate interface to become the implementation\n     * @param data The encoded arguments for becoming\n     */\n    function _becomeImplementation(bytes memory data) public {\n        require(msg.sender == admin, \"only the admin may initialize the implementation\");\n\n        (address daiJoinAddress_, address potAddress_) = abi.decode(data, (address, address));\n        return _becomeImplementation(daiJoinAddress_, potAddress_);\n    }\n\n    /**\n     * @notice Explicit interface to become the implementation\n     * @param daiJoinAddress_ DAI adapter address\n     * @param potAddress_ DAI Savings Rate (DSR) pot address\n     */\n    function _becomeImplementation(address daiJoinAddress_, address potAddress_) internal {\n        // Get dai and vat and sanity check the underlying\n        DaiJoinLike daiJoin = DaiJoinLike(daiJoinAddress_);\n        PotLike pot = PotLike(potAddress_);\n        GemLike dai = daiJoin.dai();\n        VatLike vat = daiJoin.vat();\n        require(address(dai) == underlying, \"DAI must be the same as underlying\");\n\n        // Remember the relevant addresses\n        daiJoinAddress = daiJoinAddress_;\n        potAddress = potAddress_;\n        vatAddress = address(vat);\n\n        // Approve moving our DAI into the vat through daiJoin\n        dai.approve(daiJoinAddress, uint(-1));\n\n        // Approve the pot to transfer our funds within the vat\n        vat.hope(potAddress);\n        vat.hope(daiJoinAddress);\n\n        // Accumulate DSR interest -- must do this in order to doTransferIn\n        pot.drip();\n\n        // Transfer all cash in (doTransferIn does this regardless of amount)\n        doTransferIn(address(this), 0);\n    }\n\n    /**\n     * @notice Delegate interface to resign the implementation\n     */\n    function _resignImplementation() public {\n        require(msg.sender == admin, \"only the admin may abandon the implementation\");\n\n        // Transfer all cash out of the DSR - note that this relies on self-transfer\n        DaiJoinLike daiJoin = DaiJoinLike(daiJoinAddress);\n        PotLike pot = PotLike(potAddress);\n        VatLike vat = VatLike(vatAddress);\n\n        // Accumulate interest\n        pot.drip();\n\n        // Calculate the total amount in the pot, and move it out\n        uint pie = pot.pie(address(this));\n        pot.exit(pie);\n\n        // Checks the actual balance of DAI in the vat after the pot exit\n        uint bal = vat.dai(address(this));\n\n        // Remove our whole balance\n        daiJoin.exit(address(this), bal / RAY);\n    }\n\n    /*** BToken Overrides ***/\n\n    /**\n      * @notice Accrues DSR then applies accrued interest to total borrows and reserves\n      * @dev This calculates interest accrued from the last checkpointed block\n      *      up to the current block and writes new checkpoint to storage.\n      */\n    function accrueInterest() public returns (uint) {\n        // Accumulate DSR interest\n        PotLike(potAddress).drip();\n\n        // Accumulate BToken interest\n        return super.accrueInterest();\n    }\n\n    /*** Safe Token ***/\n\n    /**\n     * @notice Gets balance of this contract in terms of the underlying\n     * @dev This excludes the value of the current message, if any\n     * @return The quantity of underlying tokens owned by this contract\n     */\n    function getCashPrior() internal view returns (uint) {\n        PotLike pot = PotLike(potAddress);\n        uint pie = pot.pie(address(this));\n        return mul(pot.chi(), pie) / RAY;\n    }\n\n    /**\n     * @notice Transfer the underlying to this contract and sweep into DSR pot\n     * @param from Address to transfer funds from\n     * @param amount Amount of underlying to transfer\n     * @return The actual amount that is transferred\n     */\n    function doTransferIn(address from, uint amount) internal returns (uint) {\n        // Perform the EIP-20 transfer in\n        EIP20Interface token = EIP20Interface(underlying);\n        require(token.transferFrom(from, address(this), amount), \"unexpected EIP-20 transfer in return\");\n\n        DaiJoinLike daiJoin = DaiJoinLike(daiJoinAddress);\n        GemLike dai = GemLike(underlying);\n        PotLike pot = PotLike(potAddress);\n        VatLike vat = VatLike(vatAddress);\n\n        // Convert all our DAI to internal DAI in the vat\n        daiJoin.join(address(this), dai.balanceOf(address(this)));\n\n        // Checks the actual balance of DAI in the vat after the join\n        uint bal = vat.dai(address(this));\n\n        // Calculate the percentage increase to th pot for the entire vat, and move it in\n        // Note: We may leave a tiny bit of DAI in the vat...but we do the whole thing every time\n        uint pie = bal / pot.chi();\n        pot.join(pie);\n\n        return amount;\n    }\n\n    /**\n     * @notice Transfer the underlying from this contract, after sweeping out of DSR pot\n     * @param to Address to transfer funds to\n     * @param amount Amount of underlying to transfer\n     */\n    function doTransferOut(address payable to, uint amount) internal {\n        DaiJoinLike daiJoin = DaiJoinLike(daiJoinAddress);\n        PotLike pot = PotLike(potAddress);\n\n        // Calculate the percentage decrease from the pot, and move that much out\n        // Note: Use a slightly larger pie size to ensure that we get at least amount in the vat\n        uint pie = add(mul(amount, RAY) / pot.chi(), 1);\n        pot.exit(pie);\n\n        daiJoin.exit(to, amount);\n    }\n\n    /*** Maker Internals ***/\n\n    uint256 constant RAY = 10 ** 27;\n\n    function add(uint x, uint y) internal pure returns (uint z) {\n        require((z = x + y) >= x, \"add-overflow\");\n    }\n\n    function mul(uint x, uint y) internal pure returns (uint z) {\n        require(y == 0 || (z = x * y) / y == x, \"mul-overflow\");\n    }\n}\n\n/*** Maker Interfaces ***/\n\ninterface PotLike {\n    function chi() external view returns (uint);\n    function pie(address) external view returns (uint);\n    function drip() external returns (uint);\n    function join(uint) external;\n    function exit(uint) external;\n}\n\ninterface GemLike {\n    function approve(address, uint) external;\n    function balanceOf(address) external view returns (uint);\n    function transferFrom(address, address, uint) external returns (bool);\n}\n\ninterface VatLike {\n    function dai(address) external view returns (uint);\n    function hope(address) external;\n}\n\ninterface DaiJoinLike {\n    function vat() external returns (VatLike);\n    function dai() external returns (GemLike);\n    function join(address, uint) external payable;\n    function exit(address, uint) external;\n}\n",
  "sourcePath": "/home/aliwisam/AliWisamData/Personal/Orders/Sir Junaid/Gist/TruffleFlat/contracts/BDaiDelegate.sol",
  "compiler": {
    "name": "solc",
    "version": "0.5.17+commit.d19bba13.Emscripten.clang"
  },
  "schemaVersion": "3.4.0",
  "updatedAt": "2021-06-16T15:51:17.683Z",
  "devdoc": {
    "author": "Btntex",
    "methods": {
      "_acceptAdmin()": {
        "details": "Admin function for pending admin to accept role and update admin",
        "return": "uint 0=success, otherwise a failure (see ErrorReporter.sol for details)"
      },
      "_addReserves(uint256)": {
        "params": {
          "addAmount": "The amount fo underlying token to add as reserves"
        },
        "return": "uint 0=success, otherwise a failure (see ErrorReporter.sol for details)"
      },
      "_becomeImplementation(bytes)": {
        "params": {
          "data": "The encoded arguments for becoming"
        }
      },
      "_reduceReserves(uint256)": {
        "params": {
          "reduceAmount": "Amount of reduction to reserves"
        },
        "return": "uint 0=success, otherwise a failure (see ErrorReporter.sol for details)"
      },
      "_setComptroller(address)": {
        "details": "Admin function to set a new comptroller",
        "return": "uint 0=success, otherwise a failure (see ErrorReporter.sol for details)"
      },
      "_setInterestRateModel(address)": {
        "details": "Admin function to accrue interest and update the interest rate model",
        "params": {
          "newInterestRateModel": "the new interest rate model to use"
        },
        "return": "uint 0=success, otherwise a failure (see ErrorReporter.sol for details)"
      },
      "_setPendingAdmin(address)": {
        "details": "Admin function to begin change of admin. The newPendingAdmin must call `_acceptAdmin` to finalize the transfer.",
        "params": {
          "newPendingAdmin": "New pending admin."
        },
        "return": "uint 0=success, otherwise a failure (see ErrorReporter.sol for details)"
      },
      "_setReserveFactor(uint256)": {
        "details": "Admin function to accrue interest and set a new reserve factor",
        "return": "uint 0=success, otherwise a failure (see ErrorReporter.sol for details)"
      },
      "accrueInterest()": {
        "details": "This calculates interest accrued from the last checkpointed block     up to the current block and writes new checkpoint to storage."
      },
      "allowance(address,address)": {
        "params": {
          "owner": "The address of the account which owns the tokens to be spent",
          "spender": "The address of the account which may transfer tokens"
        },
        "return": "The number of tokens allowed to be spent (-1 means infinite)"
      },
      "approve(address,uint256)": {
        "details": "This will overwrite the approval amount for `spender` and is subject to issues noted [here](https://eips.ethereum.org/EIPS/eip-20#approve)",
        "params": {
          "amount": "The number of tokens that are approved (-1 means infinite)",
          "spender": "The address of the account which may transfer tokens"
        },
        "return": "Whether or not the approval succeeded"
      },
      "balanceOf(address)": {
        "params": {
          "owner": "The address of the account to query"
        },
        "return": "The number of tokens owned by `owner`"
      },
      "balanceOfUnderlying(address)": {
        "details": "This also accrues interest in a transaction",
        "params": {
          "owner": "The address of the account to query"
        },
        "return": "The amount of underlying owned by `owner`"
      },
      "borrow(uint256)": {
        "params": {
          "borrowAmount": "The amount of the underlying asset to borrow"
        },
        "return": "uint 0=success, otherwise a failure (see ErrorReporter.sol for details)"
      },
      "borrowBalanceCurrent(address)": {
        "params": {
          "account": "The address whose balance should be calculated after updating borrowIndex"
        },
        "return": "The calculated balance"
      },
      "borrowBalanceStored(address)": {
        "params": {
          "account": "The address whose balance should be calculated"
        },
        "return": "The calculated balance"
      },
      "borrowRatePerBlock()": {
        "return": "The borrow interest rate per block, scaled by 1e18"
      },
      "exchangeRateCurrent()": {
        "return": "Calculated exchange rate scaled by 1e18"
      },
      "exchangeRateStored()": {
        "details": "This function does not accrue interest before calculating the exchange rate",
        "return": "Calculated exchange rate scaled by 1e18"
      },
      "getAccountSnapshot(address)": {
        "details": "This is used by comptroller to more efficiently perform liquidity checks.",
        "params": {
          "account": "Address of the account to snapshot"
        },
        "return": "(possible error, token balance, borrow balance, exchange rate mantissa)"
      },
      "getCash()": {
        "return": "The quantity of underlying asset owned by this contract"
      },
      "initialize(address,address,address,uint256,string,string,uint8)": {
        "params": {
          "comptroller_": "The address of the Comptroller",
          "decimals_": "BEP-20 decimal precision of this token",
          "initialExchangeRateMantissa_": "The initial exchange rate, scaled by 1e18",
          "interestRateModel_": "The address of the interest rate model",
          "name_": "BEP-20 name of this token",
          "symbol_": "BEP-20 symbol of this token",
          "underlying_": "The address of the underlying asset"
        }
      },
      "initialize(address,address,uint256,string,string,uint8)": {
        "params": {
          "comptroller_": "The address of the Comptroller",
          "decimals_": "EIP-20 decimal precision of this token",
          "initialExchangeRateMantissa_": "The initial exchange rate, scaled by 1e18",
          "interestRateModel_": "The address of the interest rate model",
          "name_": "EIP-20 name of this token",
          "symbol_": "EIP-20 symbol of this token"
        }
      },
      "liquidateBorrow(address,uint256,address)": {
        "params": {
          "bTokenCollateral": "The market in which to seize collateral from the borrower",
          "borrower": "The borrower of this bToken to be liquidated",
          "repayAmount": "The amount of the underlying borrowed asset to repay"
        },
        "return": "uint 0=success, otherwise a failure (see ErrorReporter.sol for details)"
      },
      "mint(uint256)": {
        "details": "Accrues interest whether or not the operation succeeds, unless reverted",
        "params": {
          "mintAmount": "The amount of the underlying asset to supply"
        },
        "return": "uint 0=success, otherwise a failure (see ErrorReporter.sol for details)"
      },
      "redeem(uint256)": {
        "details": "Accrues interest whether or not the operation succeeds, unless reverted",
        "params": {
          "redeemTokens": "The number of bTokens to redeem into underlying"
        },
        "return": "uint 0=success, otherwise a failure (see ErrorReporter.sol for details)"
      },
      "redeemUnderlying(uint256)": {
        "details": "Accrues interest whether or not the operation succeeds, unless reverted",
        "params": {
          "redeemAmount": "The amount of underlying to redeem"
        },
        "return": "uint 0=success, otherwise a failure (see ErrorReporter.sol for details)"
      },
      "repayBorrow(uint256)": {
        "params": {
          "repayAmount": "The amount to repay"
        },
        "return": "uint 0=success, otherwise a failure (see ErrorReporter.sol for details)"
      },
      "repayBorrowBehalf(address,uint256)": {
        "params": {
          "borrower": "the account with the debt being payed off",
          "repayAmount": "The amount to repay"
        },
        "return": "uint 0=success, otherwise a failure (see ErrorReporter.sol for details)"
      },
      "seize(address,address,uint256)": {
        "details": "Will fail unless called by another bToken during the process of liquidation. Its absolutely critical to use msg.sender as the borrowed bToken and not a parameter.",
        "params": {
          "borrower": "The account having collateral seized",
          "liquidator": "The account receiving seized collateral",
          "seizeTokens": "The number of bTokens to seize"
        },
        "return": "uint 0=success, otherwise a failure (see ErrorReporter.sol for details)"
      },
      "supplyRatePerBlock()": {
        "return": "The supply interest rate per block, scaled by 1e18"
      },
      "totalBorrowsCurrent()": {
        "return": "The total borrows with interest"
      },
      "transfer(address,uint256)": {
        "params": {
          "amount": "The number of tokens to transfer",
          "dst": "The address of the destination account"
        },
        "return": "Whether or not the transfer succeeded"
      },
      "transferFrom(address,address,uint256)": {
        "params": {
          "amount": "The number of tokens to transfer",
          "dst": "The address of the destination account",
          "src": "The address of the source account"
        },
        "return": "Whether or not the transfer succeeded"
      }
    },
    "title": "Btntex's ADai Contract"
  },
  "userdoc": {
    "methods": {
      "_acceptAdmin()": {
        "notice": "Accepts transfer of admin rights. msg.sender must be pendingAdmin"
      },
      "_addReserves(uint256)": {
        "notice": "The sender adds to reserves."
      },
      "_becomeImplementation(bytes)": {
        "notice": "Delegate interface to become the implementation"
      },
      "_reduceReserves(uint256)": {
        "notice": "Accrues interest and reduces reserves by transferring to admin"
      },
      "_resignImplementation()": {
        "notice": "Delegate interface to resign the implementation"
      },
      "_setComptroller(address)": {
        "notice": "Sets a new comptroller for the market"
      },
      "_setInterestRateModel(address)": {
        "notice": "accrues interest and updates the interest rate model using _setInterestRateModelFresh"
      },
      "_setPendingAdmin(address)": {
        "notice": "Begins transfer of admin rights. The newPendingAdmin must call `_acceptAdmin` to finalize the transfer."
      },
      "_setReserveFactor(uint256)": {
        "notice": "accrues interest and sets a new reserve factor for the protocol using _setReserveFactorFresh"
      },
      "accrueInterest()": {
        "notice": "Accrues DSR then applies accrued interest to total borrows and reserves"
      },
      "allowance(address,address)": {
        "notice": "Get the current allowance from `owner` for `spender`"
      },
      "approve(address,uint256)": {
        "notice": "Approve `spender` to transfer up to `amount` from `src`"
      },
      "balanceOf(address)": {
        "notice": "Get the token balance of the `owner`"
      },
      "balanceOfUnderlying(address)": {
        "notice": "Get the underlying balance of the `owner`"
      },
      "borrow(uint256)": {
        "notice": "Sender borrows assets from the protocol to their own address"
      },
      "borrowBalanceCurrent(address)": {
        "notice": "Accrue interest to updated borrowIndex and then calculate account's borrow balance using the updated borrowIndex"
      },
      "borrowBalanceStored(address)": {
        "notice": "Return the borrow balance of account based on stored data"
      },
      "borrowRatePerBlock()": {
        "notice": "Returns the current per-block borrow interest rate for this bToken"
      },
      "exchangeRateCurrent()": {
        "notice": "Accrue interest then return the up-to-date exchange rate"
      },
      "exchangeRateStored()": {
        "notice": "Calculates the exchange rate from the underlying to the BToken"
      },
      "getAccountSnapshot(address)": {
        "notice": "Get a snapshot of the account's balances, and the cached exchange rate"
      },
      "getCash()": {
        "notice": "Get cash balance of this bToken in the underlying asset"
      },
      "initialize(address,address,address,uint256,string,string,uint8)": {
        "notice": "Initialize the new money market"
      },
      "initialize(address,address,uint256,string,string,uint8)": {
        "notice": "Initialize the money market"
      },
      "liquidateBorrow(address,uint256,address)": {
        "notice": "The sender liquidates the borrowers collateral. The collateral seized is transferred to the liquidator."
      },
      "mint(uint256)": {
        "notice": "Sender supplies assets into the market and receives bTokens in exchange"
      },
      "redeem(uint256)": {
        "notice": "Sender redeems bTokens in exchange for the underlying asset"
      },
      "redeemUnderlying(uint256)": {
        "notice": "Sender redeems bTokens in exchange for a specified amount of underlying asset"
      },
      "repayBorrow(uint256)": {
        "notice": "Sender repays their own borrow"
      },
      "repayBorrowBehalf(address,uint256)": {
        "notice": "Sender repays a borrow belonging to borrower"
      },
      "seize(address,address,uint256)": {
        "notice": "Transfers collateral tokens (this market) to the liquidator."
      },
      "supplyRatePerBlock()": {
        "notice": "Returns the current per-block supply interest rate for this bToken"
      },
      "totalBorrowsCurrent()": {
        "notice": "Returns the current total borrows plus accrued interest"
      },
      "transfer(address,uint256)": {
        "notice": "Transfer `amount` tokens from `msg.sender` to `dst`"
      },
      "transferFrom(address,address,uint256)": {
        "notice": "Transfer `amount` tokens from `src` to `dst`"
      }
    },
    "notice": "BToken which wraps Multi-Collateral DAI"
  }
}