{
  "contractName": "ATreasury",
  "abi": [
    {
      "anonymous": false,
      "inputs": [
        {
          "indexed": true,
          "internalType": "address",
          "name": "previousOwner",
          "type": "address"
        },
        {
          "indexed": true,
          "internalType": "address",
          "name": "newOwner",
          "type": "address"
        }
      ],
      "name": "OwnershipTransferred",
      "type": "event"
    },
    {
      "anonymous": false,
      "inputs": [
        {
          "indexed": false,
          "internalType": "address",
          "name": "tokenAddress",
          "type": "address"
        },
        {
          "indexed": false,
          "internalType": "uint256",
          "name": "withdrawAmount",
          "type": "uint256"
        },
        {
          "indexed": false,
          "internalType": "address",
          "name": "withdrawAddress",
          "type": "address"
        }
      ],
      "name": "WithdrawTreasuryBEP20",
      "type": "event"
    },
    {
      "anonymous": false,
      "inputs": [
        {
          "indexed": false,
          "internalType": "uint256",
          "name": "withdrawAmount",
          "type": "uint256"
        },
        {
          "indexed": false,
          "internalType": "address",
          "name": "withdrawAddress",
          "type": "address"
        }
      ],
      "name": "WithdrawTreasuryBNB",
      "type": "event"
    },
    {
      "payable": true,
      "stateMutability": "payable",
      "type": "fallback"
    },
    {
      "constant": true,
      "inputs": [],
      "name": "owner",
      "outputs": [
        {
          "internalType": "address",
          "name": "",
          "type": "address"
        }
      ],
      "payable": false,
      "stateMutability": "view",
      "type": "function"
    },
    {
      "constant": false,
      "inputs": [],
      "name": "renounceOwnership",
      "outputs": [],
      "payable": false,
      "stateMutability": "nonpayable",
      "type": "function"
    },
    {
      "constant": false,
      "inputs": [
        {
          "internalType": "address",
          "name": "newOwner",
          "type": "address"
        }
      ],
      "name": "transferOwnership",
      "outputs": [],
      "payable": false,
      "stateMutability": "nonpayable",
      "type": "function"
    },
    {
      "constant": false,
      "inputs": [
        {
          "internalType": "address",
          "name": "tokenAddress",
          "type": "address"
        },
        {
          "internalType": "uint256",
          "name": "withdrawAmount",
          "type": "uint256"
        },
        {
          "internalType": "address",
          "name": "withdrawAddress",
          "type": "address"
        }
      ],
      "name": "withdrawTreasuryBEP20",
      "outputs": [],
      "payable": false,
      "stateMutability": "nonpayable",
      "type": "function"
    },
    {
      "constant": false,
      "inputs": [
        {
          "internalType": "uint256",
          "name": "withdrawAmount",
          "type": "uint256"
        },
        {
          "internalType": "address payable",
          "name": "withdrawAddress",
          "type": "address"
        }
      ],
      "name": "withdrawTreasuryBNB",
      "outputs": [],
      "payable": true,
      "stateMutability": "payable",
      "type": "function"
    }
  ],
  "bytecode": "0x608060405260006100146100b760201b60201c565b9050806000806101000a81548173ffffffffffffffffffffffffffffffffffffffff021916908373ffffffffffffffffffffffffffffffffffffffff1602179055508073ffffffffffffffffffffffffffffffffffffffff16600073ffffffffffffffffffffffffffffffffffffffff167f8be0079c531659141344cd1fd0a4f28419497f9722a3daafe3b4186f6b6457e060405160405180910390a3506100bf565b600033905090565b610a97806100ce6000396000f3fe60806040526004361061004a5760003560e01c8063715018a61461004c5780638da5cb5b14610063578063b38d5d8b146100ba578063f2fde38b14610135578063fb9e6b8e14610186575b005b34801561005857600080fd5b506100616101d4565b005b34801561006f57600080fd5b5061007861035c565b604051808273ffffffffffffffffffffffffffffffffffffffff1673ffffffffffffffffffffffffffffffffffffffff16815260200191505060405180910390f35b3480156100c657600080fd5b50610133600480360360608110156100dd57600080fd5b81019080803573ffffffffffffffffffffffffffffffffffffffff16906020019092919080359060200190929190803573ffffffffffffffffffffffffffffffffffffffff169060200190929190505050610385565b005b34801561014157600080fd5b506101846004803603602081101561015857600080fd5b81019080803573ffffffffffffffffffffffffffffffffffffffff169060200190929190505050610684565b005b6101d26004803603604081101561019c57600080fd5b8101908080359060200190929190803573ffffffffffffffffffffffffffffffffffffffff169060200190929190505050610759565b005b6101dc6108f0565b73ffffffffffffffffffffffffffffffffffffffff166000809054906101000a900473ffffffffffffffffffffffffffffffffffffffff1673ffffffffffffffffffffffffffffffffffffffff161461029d576040517f08c379a00000000000000000000000000000000000000000000000000000000081526004018080602001828103825260208152602001807f4f776e61626c653a2063616c6c6572206973206e6f7420746865206f776e657281525060200191505060405180910390fd5b600073ffffffffffffffffffffffffffffffffffffffff166000809054906101000a900473ffffffffffffffffffffffffffffffffffffffff1673ffffffffffffffffffffffffffffffffffffffff167f8be0079c531659141344cd1fd0a4f28419497f9722a3daafe3b4186f6b6457e060405160405180910390a360008060006101000a81548173ffffffffffffffffffffffffffffffffffffffff021916908373ffffffffffffffffffffffffffffffffffffffff160217905550565b60008060009054906101000a900473ffffffffffffffffffffffffffffffffffffffff16905090565b61038d6108f0565b73ffffffffffffffffffffffffffffffffffffffff166000809054906101000a900473ffffffffffffffffffffffffffffffffffffffff1673ffffffffffffffffffffffffffffffffffffffff161461044e576040517f08c379a00000000000000000000000000000000000000000000000000000000081526004018080602001828103825260208152602001807f4f776e61626c653a2063616c6c6572206973206e6f7420746865206f776e657281525060200191505060405180910390fd5b600082905060008473ffffffffffffffffffffffffffffffffffffffff166370a08231306040518263ffffffff1660e01b8152600401808273ffffffffffffffffffffffffffffffffffffffff1673ffffffffffffffffffffffffffffffffffffffff16815260200191505060206040518083038186803b1580156104d257600080fd5b505afa1580156104e6573d6000803e3d6000fd5b505050506040513d60208110156104fc57600080fd5b810190808051906020019092919050505090508084111561051b578091505b8473ffffffffffffffffffffffffffffffffffffffff1663a9059cbb84846040518363ffffffff1660e01b8152600401808373ffffffffffffffffffffffffffffffffffffffff1673ffffffffffffffffffffffffffffffffffffffff16815260200182815260200192505050602060405180830381600087803b1580156105a257600080fd5b505af11580156105b6573d6000803e3d6000fd5b505050506040513d60208110156105cc57600080fd5b8101908080519060200190929190505050507fbaa29435fcbb0a4fbf05d1a0c62e83956a0652d287540f94f1f8188352e4722a858385604051808473ffffffffffffffffffffffffffffffffffffffff1673ffffffffffffffffffffffffffffffffffffffff1681526020018381526020018273ffffffffffffffffffffffffffffffffffffffff1673ffffffffffffffffffffffffffffffffffffffff168152602001935050505060405180910390a15050505050565b61068c6108f0565b73ffffffffffffffffffffffffffffffffffffffff166000809054906101000a900473ffffffffffffffffffffffffffffffffffffffff1673ffffffffffffffffffffffffffffffffffffffff161461074d576040517f08c379a00000000000000000000000000000000000000000000000000000000081526004018080602001828103825260208152602001807f4f776e61626c653a2063616c6c6572206973206e6f7420746865206f776e657281525060200191505060405180910390fd5b610756816108f8565b50565b6107616108f0565b73ffffffffffffffffffffffffffffffffffffffff166000809054906101000a900473ffffffffffffffffffffffffffffffffffffffff1673ffffffffffffffffffffffffffffffffffffffff1614610822576040517f08c379a00000000000000000000000000000000000000000000000000000000081526004018080602001828103825260208152602001807f4f776e61626c653a2063616c6c6572206973206e6f7420746865206f776e657281525060200191505060405180910390fd5b6000829050600047905080841115610838578091505b8273ffffffffffffffffffffffffffffffffffffffff166108fc839081150290604051600060405180830381858888f1935050505015801561087e573d6000803e3d6000fd5b507f0d2b7d10254463c7f440553256de09db44772bbaa752720e51f018d33b9102528284604051808381526020018273ffffffffffffffffffffffffffffffffffffffff1673ffffffffffffffffffffffffffffffffffffffff1681526020019250505060405180910390a150505050565b600033905090565b600073ffffffffffffffffffffffffffffffffffffffff168173ffffffffffffffffffffffffffffffffffffffff16141561097e576040517f08c379a0000000000000000000000000000000000000000000000000000000008152600401808060200182810382526026815260200180610a3d6026913960400191505060405180910390fd5b8073ffffffffffffffffffffffffffffffffffffffff166000809054906101000a900473ffffffffffffffffffffffffffffffffffffffff1673ffffffffffffffffffffffffffffffffffffffff167f8be0079c531659141344cd1fd0a4f28419497f9722a3daafe3b4186f6b6457e060405160405180910390a3806000806101000a81548173ffffffffffffffffffffffffffffffffffffffff021916908373ffffffffffffffffffffffffffffffffffffffff1602179055505056fe4f776e61626c653a206e6577206f776e657220697320746865207a65726f2061646472657373a265627a7a72315820e7f09981daf397ed8e2c3d0803cd5375cda497861b67a20534e30988cb47849264736f6c63430005110032",
  "source": "pragma solidity ^0.5.16;\n\nimport \"./SafeMath.sol\";\nimport \"./BEP20Interface.sol\";\nimport \"./Ownable.sol\";\n\n/**\n * @dev Contract for treasury all tokens as fee and transfer to governance\n */\ncontract ATreasury is Ownable {\n    using SafeMath for uint256;\n\n    // WithdrawTreasuryBEP20 Event\n    event WithdrawTreasuryBEP20(address tokenAddress, uint256 withdrawAmount, address withdrawAddress);\n\n    // WithdrawTreasuryBNB Event\n    event WithdrawTreasuryBNB(uint256 withdrawAmount, address withdrawAddress);\n\n    /**\n     * @notice To receive BNB\n     */\n    function () external payable {}\n\n    /**\n    * @notice Withdraw Treasury BEP20 Tokens, Only owner call it\n    * @param tokenAddress The address of treasury token\n    * @param withdrawAmount The withdraw amount to owner\n    * @param withdrawAddress The withdraw address\n    */\n    function withdrawTreasuryBEP20(\n      address tokenAddress,\n      uint256 withdrawAmount,\n      address withdrawAddress\n    ) external onlyOwner {\n        uint256 actualWithdrawAmount = withdrawAmount;\n        // Get Treasury Token Balance\n        uint256 treasuryBalance = BEP20Interface(tokenAddress).balanceOf(address(this));\n\n        // Check Withdraw Amount\n        if (withdrawAmount > treasuryBalance) {\n            // Update actualWithdrawAmount\n            actualWithdrawAmount = treasuryBalance;\n        }\n\n        // Transfer BEP20 Token to withdrawAddress\n        BEP20Interface(tokenAddress).transfer(withdrawAddress, actualWithdrawAmount);\n\n        emit WithdrawTreasuryBEP20(tokenAddress, actualWithdrawAmount, withdrawAddress);\n    }\n\n    /**\n    * @notice Withdraw Treasury BNB, Only owner call it\n    * @param withdrawAmount The withdraw amount to owner\n    * @param withdrawAddress The withdraw address\n    */\n    function withdrawTreasuryBNB(\n      uint256 withdrawAmount,\n      address payable withdrawAddress\n    ) external payable onlyOwner {\n        uint256 actualWithdrawAmount = withdrawAmount;\n        // Get Treasury BNB Balance\n        uint256 bnbBalance = address(this).balance;\n\n        // Check Withdraw Amount\n        if (withdrawAmount > bnbBalance) {\n            // Update actualWithdrawAmount\n            actualWithdrawAmount = bnbBalance;\n        }\n        // Transfer BNB to withdrawAddress\n        withdrawAddress.transfer(actualWithdrawAmount);\n\n        emit WithdrawTreasuryBNB(actualWithdrawAmount, withdrawAddress);\n    }\n}\n",
  "sourcePath": "/home/aliwisam/AliWisamData/Personal/Orders/Sir Junaid/Gist/TruffleFlat/contracts/BTreasury.sol",
  "compiler": {
    "name": "solc",
    "version": "0.5.17+commit.d19bba13.Emscripten.clang"
  },
  "schemaVersion": "3.4.0",
  "updatedAt": "2021-06-16T15:51:17.807Z",
  "devdoc": {
    "details": "Contract for treasury all tokens as fee and transfer to governance",
    "methods": {
      "owner()": {
        "details": "Returns the address of the current owner."
      },
      "renounceOwnership()": {
        "details": "Leaves the contract without owner. It will not be possible to call `onlyOwner` functions anymore. Can only be called by the current owner.   * NOTE: Renouncing ownership will leave the contract without an owner, thereby removing any functionality that is only available to the owner."
      },
      "transferOwnership(address)": {
        "details": "Transfers ownership of the contract to a new account (`newOwner`). Can only be called by the current owner."
      },
      "withdrawTreasuryBEP20(address,uint256,address)": {
        "params": {
          "tokenAddress": "The address of treasury token",
          "withdrawAddress": "The withdraw address",
          "withdrawAmount": "The withdraw amount to owner"
        }
      },
      "withdrawTreasuryBNB(uint256,address)": {
        "params": {
          "withdrawAddress": "The withdraw address",
          "withdrawAmount": "The withdraw amount to owner"
        }
      }
    }
  },
  "userdoc": {
    "methods": {
      "withdrawTreasuryBEP20(address,uint256,address)": {
        "notice": "Withdraw Treasury BEP20 Tokens, Only owner call it"
      },
      "withdrawTreasuryBNB(uint256,address)": {
        "notice": "Withdraw Treasury BNB, Only owner call it"
      }
    }
  }
}