{
  "contractName": "BAIControllerG1",
  "abi": [
    {
      "anonymous": false,
      "inputs": [
        {
          "indexed": false,
          "internalType": "uint256",
          "name": "error",
          "type": "uint256"
        },
        {
          "indexed": false,
          "internalType": "uint256",
          "name": "info",
          "type": "uint256"
        },
        {
          "indexed": false,
          "internalType": "uint256",
          "name": "detail",
          "type": "uint256"
        }
      ],
      "name": "Failure",
      "type": "event"
    },
    {
      "anonymous": false,
      "inputs": [
        {
          "indexed": false,
          "internalType": "address",
          "name": "minter",
          "type": "address"
        },
        {
          "indexed": false,
          "internalType": "uint256",
          "name": "mintBAIAmount",
          "type": "uint256"
        }
      ],
      "name": "MintBAI",
      "type": "event"
    },
    {
      "anonymous": false,
      "inputs": [
        {
          "indexed": false,
          "internalType": "contract ComptrollerInterface",
          "name": "oldComptroller",
          "type": "address"
        },
        {
          "indexed": false,
          "internalType": "contract ComptrollerInterface",
          "name": "newComptroller",
          "type": "address"
        }
      ],
      "name": "NewComptroller",
      "type": "event"
    },
    {
      "anonymous": false,
      "inputs": [
        {
          "indexed": false,
          "internalType": "address",
          "name": "repayer",
          "type": "address"
        },
        {
          "indexed": false,
          "internalType": "uint256",
          "name": "repayBAIAmount",
          "type": "uint256"
        }
      ],
      "name": "RepayBAI",
      "type": "event"
    },
    {
      "constant": true,
      "inputs": [],
      "name": "admin",
      "outputs": [
        {
          "internalType": "address",
          "name": "",
          "type": "address"
        }
      ],
      "payable": false,
      "stateMutability": "view",
      "type": "function"
    },
    {
      "constant": true,
      "inputs": [],
      "name": "baiControllerImplementation",
      "outputs": [
        {
          "internalType": "address",
          "name": "",
          "type": "address"
        }
      ],
      "payable": false,
      "stateMutability": "view",
      "type": "function"
    },
    {
      "constant": true,
      "inputs": [
        {
          "internalType": "address",
          "name": "",
          "type": "address"
        }
      ],
      "name": "btntexBAIMinterIndex",
      "outputs": [
        {
          "internalType": "uint256",
          "name": "",
          "type": "uint256"
        }
      ],
      "payable": false,
      "stateMutability": "view",
      "type": "function"
    },
    {
      "constant": true,
      "inputs": [],
      "name": "btntexBAIState",
      "outputs": [
        {
          "internalType": "uint224",
          "name": "index",
          "type": "uint224"
        },
        {
          "internalType": "uint32",
          "name": "block",
          "type": "uint32"
        }
      ],
      "payable": false,
      "stateMutability": "view",
      "type": "function"
    },
    {
      "constant": true,
      "inputs": [],
      "name": "btntexInitialIndex",
      "outputs": [
        {
          "internalType": "uint224",
          "name": "",
          "type": "uint224"
        }
      ],
      "payable": false,
      "stateMutability": "view",
      "type": "function"
    },
    {
      "constant": true,
      "inputs": [],
      "name": "comptroller",
      "outputs": [
        {
          "internalType": "contract ComptrollerInterface",
          "name": "",
          "type": "address"
        }
      ],
      "payable": false,
      "stateMutability": "view",
      "type": "function"
    },
    {
      "constant": true,
      "inputs": [],
      "name": "isBtntexBAIInitialized",
      "outputs": [
        {
          "internalType": "bool",
          "name": "",
          "type": "bool"
        }
      ],
      "payable": false,
      "stateMutability": "view",
      "type": "function"
    },
    {
      "constant": true,
      "inputs": [],
      "name": "pendingAdmin",
      "outputs": [
        {
          "internalType": "address",
          "name": "",
          "type": "address"
        }
      ],
      "payable": false,
      "stateMutability": "view",
      "type": "function"
    },
    {
      "constant": true,
      "inputs": [],
      "name": "pendingBAIControllerImplementation",
      "outputs": [
        {
          "internalType": "address",
          "name": "",
          "type": "address"
        }
      ],
      "payable": false,
      "stateMutability": "view",
      "type": "function"
    },
    {
      "constant": false,
      "inputs": [
        {
          "internalType": "uint256",
          "name": "mintBAIAmount",
          "type": "uint256"
        }
      ],
      "name": "mintBAI",
      "outputs": [
        {
          "internalType": "uint256",
          "name": "",
          "type": "uint256"
        }
      ],
      "payable": false,
      "stateMutability": "nonpayable",
      "type": "function"
    },
    {
      "constant": false,
      "inputs": [
        {
          "internalType": "uint256",
          "name": "repayBAIAmount",
          "type": "uint256"
        }
      ],
      "name": "repayBAI",
      "outputs": [
        {
          "internalType": "uint256",
          "name": "",
          "type": "uint256"
        }
      ],
      "payable": false,
      "stateMutability": "nonpayable",
      "type": "function"
    },
    {
      "constant": false,
      "inputs": [
        {
          "internalType": "uint256",
          "name": "blockNumber",
          "type": "uint256"
        }
      ],
      "name": "_initializeBtntexBAIState",
      "outputs": [
        {
          "internalType": "uint256",
          "name": "",
          "type": "uint256"
        }
      ],
      "payable": false,
      "stateMutability": "nonpayable",
      "type": "function"
    },
    {
      "constant": false,
      "inputs": [],
      "name": "updateBtntexBAIMintIndex",
      "outputs": [
        {
          "internalType": "uint256",
          "name": "",
          "type": "uint256"
        }
      ],
      "payable": false,
      "stateMutability": "nonpayable",
      "type": "function"
    },
    {
      "constant": false,
      "inputs": [
        {
          "internalType": "address",
          "name": "baiMinter",
          "type": "address"
        }
      ],
      "name": "calcDistributeBAIMinterBtntex",
      "outputs": [
        {
          "internalType": "uint256",
          "name": "",
          "type": "uint256"
        },
        {
          "internalType": "uint256",
          "name": "",
          "type": "uint256"
        },
        {
          "internalType": "uint256",
          "name": "",
          "type": "uint256"
        },
        {
          "internalType": "uint256",
          "name": "",
          "type": "uint256"
        }
      ],
      "payable": false,
      "stateMutability": "nonpayable",
      "type": "function"
    },
    {
      "constant": false,
      "inputs": [
        {
          "internalType": "contract ComptrollerInterface",
          "name": "comptroller_",
          "type": "address"
        }
      ],
      "name": "_setComptroller",
      "outputs": [
        {
          "internalType": "uint256",
          "name": "",
          "type": "uint256"
        }
      ],
      "payable": false,
      "stateMutability": "nonpayable",
      "type": "function"
    },
    {
      "constant": false,
      "inputs": [
        {
          "internalType": "contract BAIUnitroller",
          "name": "unitroller",
          "type": "address"
        }
      ],
      "name": "_become",
      "outputs": [],
      "payable": false,
      "stateMutability": "nonpayable",
      "type": "function"
    },
    {
      "constant": true,
      "inputs": [
        {
          "internalType": "address",
          "name": "minter",
          "type": "address"
        }
      ],
      "name": "getMintableBAI",
      "outputs": [
        {
          "internalType": "uint256",
          "name": "",
          "type": "uint256"
        },
        {
          "internalType": "uint256",
          "name": "",
          "type": "uint256"
        }
      ],
      "payable": false,
      "stateMutability": "view",
      "type": "function"
    },
    {
      "constant": true,
      "inputs": [],
      "name": "getBlockNumber",
      "outputs": [
        {
          "internalType": "uint256",
          "name": "",
          "type": "uint256"
        }
      ],
      "payable": false,
      "stateMutability": "view",
      "type": "function"
    },
    {
      "constant": true,
      "inputs": [],
      "name": "getBAIAddress",
      "outputs": [
        {
          "internalType": "address",
          "name": "",
          "type": "address"
        }
      ],
      "payable": false,
      "stateMutability": "view",
      "type": "function"
    }
  ],
  "bytecode": "0x608060405234801561001057600080fd5b50613522806100206000396000f3fe608060405234801561001057600080fd5b50600436106101215760003560e01c80635fe3b567116100ad578063da1d162111610071578063da1d16211461050e578063ea23669f14610558578063ec811984146105b7578063ee2dccd9146105f9578063f851a4401461064357610121565b80635fe3b567146103995780637637b7c7146103e35780639a43817e1461043d5780639a76a05b1461045f578063b320f972146104a157610121565b80633363380f116100f45780633363380f1461027957806342cbb15c146102975780634576b5db146102b55780634f47b6041461030d5780635769247d1461034f57610121565b806316c8af97146101265780631d504dc61461017e57806325e07375146101c2578063267822471461022f575b600080fd5b6101686004803603602081101561013c57600080fd5b81019080803573ffffffffffffffffffffffffffffffffffffffff16906020019092919050505061068d565b6040518082815260200191505060405180910390f35b6101c06004803603602081101561019457600080fd5b81019080803573ffffffffffffffffffffffffffffffffffffffff1690602001909291905050506106a5565b005b6101ca6108a4565b60405180837bffffffffffffffffffffffffffffffffffffffffffffffffffffffff167bffffffffffffffffffffffffffffffffffffffffffffffffffffffff1681526020018263ffffffff1663ffffffff1681526020019250505060405180910390f35b6102376108ee565b604051808273ffffffffffffffffffffffffffffffffffffffff1673ffffffffffffffffffffffffffffffffffffffff16815260200191505060405180910390f35b610281610914565b6040518082815260200191505060405180910390f35b61029f610cf7565b6040518082815260200191505060405180910390f35b6102f7600480360360208110156102cb57600080fd5b81019080803573ffffffffffffffffffffffffffffffffffffffff169060200190929190505050610cff565b6040518082815260200191505060405180910390f35b6103396004803603602081101561032357600080fd5b8101908080359060200190929190505050610e7d565b6040518082815260200191505060405180910390f35b6103576113de565b604051808273ffffffffffffffffffffffffffffffffffffffff1673ffffffffffffffffffffffffffffffffffffffff16815260200191505060405180910390f35b6103a1611404565b604051808273ffffffffffffffffffffffffffffffffffffffff1673ffffffffffffffffffffffffffffffffffffffff16815260200191505060405180910390f35b6103eb61142a565b60405180827bffffffffffffffffffffffffffffffffffffffffffffffffffffffff167bffffffffffffffffffffffffffffffffffffffffffffffffffffffff16815260200191505060405180910390f35b61044561143d565b604051808215151515815260200191505060405180910390f35b61048b6004803603602081101561047557600080fd5b8101908080359060200190929190505050611450565b6040518082815260200191505060405180910390f35b6104e3600480360360208110156104b757600080fd5b81019080803573ffffffffffffffffffffffffffffffffffffffff169060200190929190505050611a7d565b6040518085815260200184815260200183815260200182815260200194505050505060405180910390f35b610516611e69565b604051808273ffffffffffffffffffffffffffffffffffffffff1673ffffffffffffffffffffffffffffffffffffffff16815260200191505060405180910390f35b61059a6004803603602081101561056e57600080fd5b81019080803573ffffffffffffffffffffffffffffffffffffffff169060200190929190505050611e85565b604051808381526020018281526020019250505060405180910390f35b6105e3600480360360208110156105cd57600080fd5b81019080803590602001909291905050506127be565b6040518082815260200191505060405180910390f35b610601612989565b604051808273ffffffffffffffffffffffffffffffffffffffff1673ffffffffffffffffffffffffffffffffffffffff16815260200191505060405180910390f35b61064b6129af565b604051808273ffffffffffffffffffffffffffffffffffffffff1673ffffffffffffffffffffffffffffffffffffffff16815260200191505060405180910390f35b60076020528060005260406000206000915090505481565b8073ffffffffffffffffffffffffffffffffffffffff1663f851a4406040518163ffffffff1660e01b815260040160206040518083038186803b1580156106eb57600080fd5b505afa1580156106ff573d6000803e3d6000fd5b505050506040513d602081101561071557600080fd5b810190808051906020019092919050505073ffffffffffffffffffffffffffffffffffffffff163373ffffffffffffffffffffffffffffffffffffffff16146107a9576040517f08c379a00000000000000000000000000000000000000000000000000000000081526004018080602001828103825260278152602001806134c76027913960400191505060405180910390fd5b60008173ffffffffffffffffffffffffffffffffffffffff1663c1e803346040518163ffffffff1660e01b8152600401602060405180830381600087803b1580156107f357600080fd5b505af1158015610807573d6000803e3d6000fd5b505050506040513d602081101561081d57600080fd5b8101908080519060200190929190505050146108a1576040517f08c379a00000000000000000000000000000000000000000000000000000000081526004018080602001828103825260158152602001807f6368616e6765206e6f7420617574686f72697a6564000000000000000000000081525060200191505060405180910390fd5b50565b60058060000160009054906101000a90047bffffffffffffffffffffffffffffffffffffffffffffffffffffffff169080600001601c9054906101000a900463ffffffff16905082565b600160009054906101000a900473ffffffffffffffffffffffffffffffffffffffff1681565b600080600460009054906101000a900473ffffffffffffffffffffffffffffffffffffffff1673ffffffffffffffffffffffffffffffffffffffff1663eb224d2a6040518163ffffffff1660e01b815260040160206040518083038186803b15801561097f57600080fd5b505afa158015610993573d6000803e3d6000fd5b505050506040513d60208110156109a957600080fd5b8101908080519060200190929190505050905060006109c6610cf7565b905060006109ef826005600001601c9054906101000a900463ffffffff1663ffffffff166129d4565b9050600081118015610a015750600083115b15610c84576000610a10611e69565b73ffffffffffffffffffffffffffffffffffffffff166318160ddd6040518163ffffffff1660e01b815260040160206040518083038186803b158015610a5557600080fd5b505afa158015610a69573d6000803e3d6000fd5b505050506040513d6020811015610a7f57600080fd5b810190808051906020019092919050505090506000610a9e8386612a1e565b9050610aa86133f9565b60008311610ac55760405180602001604052806000815250610ad0565b610acf8284612a68565b5b9050610ada6133f9565b610b3d6040518060200160405280600560000160009054906101000a90047bffffffffffffffffffffffffffffffffffffffffffffffffffffffff167bffffffffffffffffffffffffffffffffffffffffffffffffffffffff1681525083612aa8565b90506040518060400160405280610b8d83600001516040518060400160405280601381526020017f6e657720696e646578206f766572666c6f777300000000000000000000000000815250612ad8565b7bffffffffffffffffffffffffffffffffffffffffffffffffffffffff168152602001610bef886040518060400160405280601681526020017f626c6f636b206e756d626572206f766572666c6f777300000000000000000000815250612bab565b63ffffffff16815250600560008201518160000160006101000a8154817bffffffffffffffffffffffffffffffffffffffffffffffffffffffff02191690837bffffffffffffffffffffffffffffffffffffffffffffffffffffffff160217905550602082015181600001601c6101000a81548163ffffffff021916908363ffffffff16021790555090505050505050610cf1565b6000811115610cf057610ccc826040518060400160405280601681526020017f626c6f636b206e756d626572206f766572666c6f777300000000000000000000815250612bab565b6005600001601c6101000a81548163ffffffff021916908363ffffffff1602179055505b5b50505090565b600043905090565b60008060009054906101000a900473ffffffffffffffffffffffffffffffffffffffff1673ffffffffffffffffffffffffffffffffffffffff163373ffffffffffffffffffffffffffffffffffffffff1614610d6857610d6160016002612c66565b9050610e78565b6000600460009054906101000a900473ffffffffffffffffffffffffffffffffffffffff16905082600460006101000a81548173ffffffffffffffffffffffffffffffffffffffff021916908373ffffffffffffffffffffffffffffffffffffffff1602179055507f7ac369dbd14fa5ea3f473ed67cc9d598964a77501540ba6751eb0b3decf5870d8184604051808373ffffffffffffffffffffffffffffffffffffffff1673ffffffffffffffffffffffffffffffffffffffff1681526020018273ffffffffffffffffffffffffffffffffffffffff1673ffffffffffffffffffffffffffffffffffffffff1681526020019250505060405180910390a160006006811115610e7457fe5b9150505b919050565b60008073ffffffffffffffffffffffffffffffffffffffff16600460009054906101000a900473ffffffffffffffffffffffffffffffffffffffff1673ffffffffffffffffffffffffffffffffffffffff16146113d857600460009054906101000a900473ffffffffffffffffffffffffffffffffffffffff1673ffffffffffffffffffffffffffffffffffffffff1663425fad586040518163ffffffff1660e01b815260040160206040518083038186803b158015610f3c57600080fd5b505afa158015610f50573d6000803e3d6000fd5b505050506040513d6020811015610f6657600080fd5b810190808051906020019092919050505015610fea576040517f08c379a00000000000000000000000000000000000000000000000000000000081526004018080602001828103825260128152602001807f70726f746f636f6c20697320706175736564000000000000000000000000000081525060200191505060405180910390fd5b6000339050610ff7610914565b50600460009054906101000a900473ffffffffffffffffffffffffffffffffffffffff1673ffffffffffffffffffffffffffffffffffffffff1663ff4fd9c98260006040518363ffffffff1660e01b8152600401808373ffffffffffffffffffffffffffffffffffffffff1673ffffffffffffffffffffffffffffffffffffffff1681526020018215151515815260200192505050600060405180830381600087803b1580156110a657600080fd5b505af11580156110ba573d6000803e3d6000fd5b50505050600080600460009054906101000a900473ffffffffffffffffffffffffffffffffffffffff1673ffffffffffffffffffffffffffffffffffffffff16633d67eb21846040518263ffffffff1660e01b8152600401808273ffffffffffffffffffffffffffffffffffffffff1673ffffffffffffffffffffffffffffffffffffffff16815260200191505060206040518083038186803b15801561116057600080fd5b505afa158015611174573d6000803e3d6000fd5b505050506040513d602081101561118a57600080fd5b81019080805190602001909291905050509050848111156111ad578491506111b1565b8091505b6000600460009054906101000a900473ffffffffffffffffffffffffffffffffffffffff1673ffffffffffffffffffffffffffffffffffffffff1663394555fe858585036040518363ffffffff1660e01b8152600401808373ffffffffffffffffffffffffffffffffffffffff1673ffffffffffffffffffffffffffffffffffffffff16815260200182815260200192505050602060405180830381600087803b15801561125e57600080fd5b505af1158015611272573d6000803e3d6000fd5b505050506040513d602081101561128857600080fd5b81019080805190602001909291905050509050600081146112af57809450505050506113d9565b6112b7611e69565b73ffffffffffffffffffffffffffffffffffffffff16639dc29fac85856040518363ffffffff1660e01b8152600401808373ffffffffffffffffffffffffffffffffffffffff1673ffffffffffffffffffffffffffffffffffffffff16815260200182815260200192505050600060405180830381600087803b15801561133d57600080fd5b505af1158015611351573d6000803e3d6000fd5b505050507fec9106832dc4ffc9f01f9057bf5f3503d5f4c8ac3168f294698d5f35629cb4ff8484604051808373ffffffffffffffffffffffffffffffffffffffff1673ffffffffffffffffffffffffffffffffffffffff1681526020018281526020019250505060405180910390a1600060068111156113cd57fe5b9450505050506113d9565b5b919050565b600260009054906101000a900473ffffffffffffffffffffffffffffffffffffffff1681565b600460009054906101000a900473ffffffffffffffffffffffffffffffffffffffff1681565b6ec097ce7bc90715b34b9f100000000081565b600660009054906101000a900460ff1681565b60008073ffffffffffffffffffffffffffffffffffffffff16600460009054906101000a900473ffffffffffffffffffffffffffffffffffffffff1673ffffffffffffffffffffffffffffffffffffffff1614611a7757600460009054906101000a900473ffffffffffffffffffffffffffffffffffffffff1673ffffffffffffffffffffffffffffffffffffffff1663425fad586040518163ffffffff1660e01b815260040160206040518083038186803b15801561150f57600080fd5b505afa158015611523573d6000803e3d6000fd5b505050506040513d602081101561153957600080fd5b8101908080519060200190929190505050156115bd576040517f08c379a00000000000000000000000000000000000000000000000000000000081526004018080602001828103825260128152602001807f70726f746f636f6c20697320706175736564000000000000000000000000000081525060200191505060405180910390fd5b60003390506115ca610914565b50600460009054906101000a900473ffffffffffffffffffffffffffffffffffffffff1673ffffffffffffffffffffffffffffffffffffffff1663ff4fd9c98260006040518363ffffffff1660e01b8152600401808373ffffffffffffffffffffffffffffffffffffffff1673ffffffffffffffffffffffffffffffffffffffff1681526020018215151515815260200192505050600060405180830381600087803b15801561167957600080fd5b505af115801561168d573d6000803e3d6000fd5b505050506000806000806116a085611e85565b8092508195505050600060068111156116b557fe5b84146116d457600260068111156116c857fe5b95505050505050611a78565b808711156116f4576116e860026005612c66565b95505050505050611a78565b6117d7600460009054906101000a900473ffffffffffffffffffffffffffffffffffffffff1673ffffffffffffffffffffffffffffffffffffffff16633d67eb21876040518263ffffffff1660e01b8152600401808273ffffffffffffffffffffffffffffffffffffffff1673ffffffffffffffffffffffffffffffffffffffff16815260200191505060206040518083038186803b15801561179657600080fd5b505afa1580156117aa573d6000803e3d6000fd5b505050506040513d60208110156117c057600080fd5b810190808051906020019092919050505088612cda565b8093508194505050600060038111156117ec57fe5b8360038111156117f857fe5b1461184e576040517f08c379a00000000000000000000000000000000000000000000000000000000081526004018080602001828103825260228152602001806134a56022913960400191505060405180910390fd5b6000600460009054906101000a900473ffffffffffffffffffffffffffffffffffffffff1673ffffffffffffffffffffffffffffffffffffffff1663394555fe87856040518363ffffffff1660e01b8152600401808373ffffffffffffffffffffffffffffffffffffffff1673ffffffffffffffffffffffffffffffffffffffff16815260200182815260200192505050602060405180830381600087803b1580156118f957600080fd5b505af115801561190d573d6000803e3d6000fd5b505050506040513d602081101561192357600080fd5b810190808051906020019092919050505090506000811461194c57809650505050505050611a78565b611954611e69565b73ffffffffffffffffffffffffffffffffffffffff166340c10f19878a6040518363ffffffff1660e01b8152600401808373ffffffffffffffffffffffffffffffffffffffff1673ffffffffffffffffffffffffffffffffffffffff16815260200182815260200192505050600060405180830381600087803b1580156119da57600080fd5b505af11580156119ee573d6000803e3d6000fd5b505050507f5335f2c08452e5a6476a4e546ddf6edf111fd4f94a3b97cd710426bea7373f4a8689604051808373ffffffffffffffffffffffffffffffffffffffff1673ffffffffffffffffffffffffffffffffffffffff1681526020018281526020019250505060405180910390a160006006811115611a6a57fe5b9650505050505050611a78565b5b919050565b600080600080600460009054906101000a900473ffffffffffffffffffffffffffffffffffffffff1673ffffffffffffffffffffffffffffffffffffffff163373ffffffffffffffffffffffffffffffffffffffff1614611aff57611ae460016002612c66565b60008060008292508191508090509350935093509350611e62565b611b076133f9565b6040518060200160405280600560000160009054906101000a90047bffffffffffffffffffffffffffffffffffffffffffffffffffffffff167bffffffffffffffffffffffffffffffffffffffffffffffffffffffff168152509050611b6b6133f9565b6040518060200160405280600760008a73ffffffffffffffffffffffffffffffffffffffff1673ffffffffffffffffffffffffffffffffffffffff1681526020019081526020016000205481525090508160000151600760008973ffffffffffffffffffffffffffffffffffffffff1673ffffffffffffffffffffffffffffffffffffffff1681526020019081526020016000208190555060008160000151148015611c1b575060008260000151115b15611c58576ec097ce7bc90715b34b9f10000000007bffffffffffffffffffffffffffffffffffffffffffffffffffffffff168160000181815250505b611c606133f9565b611c6a8383612d0c565b90506000600460009054906101000a900473ffffffffffffffffffffffffffffffffffffffff1673ffffffffffffffffffffffffffffffffffffffff16633d67eb218a6040518263ffffffff1660e01b8152600401808273ffffffffffffffffffffffffffffffffffffffff1673ffffffffffffffffffffffffffffffffffffffff16815260200191505060206040518083038186803b158015611d0d57600080fd5b505afa158015611d21573d6000803e3d6000fd5b505050506040513d6020811015611d3757600080fd5b810190808051906020019092919050505090506000611d568284612d3c565b90506000611e3d600460009054906101000a900473ffffffffffffffffffffffffffffffffffffffff1673ffffffffffffffffffffffffffffffffffffffff1663fd6e75708d6040518263ffffffff1660e01b8152600401808273ffffffffffffffffffffffffffffffffffffffff1673ffffffffffffffffffffffffffffffffffffffff16815260200191505060206040518083038186803b158015611dfc57600080fd5b505afa158015611e10573d6000803e3d6000fd5b505050506040513d6020811015611e2657600080fd5b810190808051906020019092919050505083612d6c565b905060006006811115611e4c57fe5b8183886000015199509950995099505050505050505b9193509193565b6000734bd17003473389a42daf6a0a729f6fdb328bbbd7905090565b6000806000600460009054906101000a900473ffffffffffffffffffffffffffffffffffffffff1673ffffffffffffffffffffffffffffffffffffffff16637dc0d1d06040518163ffffffff1660e01b815260040160206040518083038186803b158015611ef257600080fd5b505afa158015611f06573d6000803e3d6000fd5b505050506040513d6020811015611f1c57600080fd5b810190808051906020019092919050505090506060600460009054906101000a900473ffffffffffffffffffffffffffffffffffffffff1673ffffffffffffffffffffffffffffffffffffffff1663abfceffc866040518263ffffffff1660e01b8152600401808273ffffffffffffffffffffffffffffffffffffffff1673ffffffffffffffffffffffffffffffffffffffff16815260200191505060006040518083038186803b158015611fd057600080fd5b505afa158015611fe4573d6000803e3d6000fd5b505050506040513d6000823e3d601f19601f82011682018060405250602081101561200e57600080fd5b810190808051604051939291908464010000000082111561202e57600080fd5b8382019150602082018581111561204457600080fd5b825186602082028301116401000000008211171561206157600080fd5b8083526020830192505050908051906020019060200280838360005b8381101561209857808201518184015260208101905061207d565b5050505090500160405250505090506120af61340c565b600080600080600090505b855181101561246b578581815181106120cf57fe5b602002602001015173ffffffffffffffffffffffffffffffffffffffff1663c37f68e28b6040518263ffffffff1660e01b8152600401808273ffffffffffffffffffffffffffffffffffffffff1673ffffffffffffffffffffffffffffffffffffffff16815260200191505060806040518083038186803b15801561215357600080fd5b505afa158015612167573d6000803e3d6000fd5b505050506040513d608081101561217d57600080fd5b810190808051906020019092919080519060200190929190805190602001909291908051906020019092919050505088606001896080018a60a00183815250838152508381525083975050505050600084146121f557600360068111156121e057fe5b600080905098509850505050505050506127b9565b60405180602001604052808660a001518152508561010001819052508673ffffffffffffffffffffffffffffffffffffffff1663fc57d4df87838151811061223957fe5b60200260200101516040518263ffffffff1660e01b8152600401808273ffffffffffffffffffffffffffffffffffffffff1673ffffffffffffffffffffffffffffffffffffffff16815260200191505060206040518083038186803b1580156122a157600080fd5b505afa1580156122b5573d6000803e3d6000fd5b505050506040513d60208110156122cb57600080fd5b81019080805190602001909291905050508560c001818152505060008560c00151141561231457600460068111156122ff57fe5b600080905098509850505050505050506127b9565b60405180602001604052808660c00151815250856101200181905250612344856101000151866101200151612db6565b809050866101400181905281945050506000600381111561236157fe5b83600381111561236d57fe5b14612394576005600681111561237f57fe5b600080905098509850505050505050506127b9565b6123ac85610140015186606001518760200151612ed7565b86602001818152508194505050600060038111156123c657fe5b8360038111156123d257fe5b146123f957600560068111156123e457fe5b600080905098509850505050505050506127b9565b61241185610120015186608001518760400151612ed7565b866040018181525081945050506000600381111561242b57fe5b83600381111561243757fe5b1461245e576005600681111561244957fe5b600080905098509850505050505050506127b9565b80806001019150506120ba565b6125528560400151600460009054906101000a900473ffffffffffffffffffffffffffffffffffffffff1673ffffffffffffffffffffffffffffffffffffffff16633d67eb218d6040518263ffffffff1660e01b8152600401808273ffffffffffffffffffffffffffffffffffffffff1673ffffffffffffffffffffffffffffffffffffffff16815260200191505060206040518083038186803b15801561251257600080fd5b505afa158015612526573d6000803e3d6000fd5b505050506040513d602081101561253c57600080fd5b8101908080519060200190929190505050612cda565b866040018181525081945050506000600381111561256c57fe5b83600381111561257857fe5b1461259f576005600681111561258a57fe5b600080905098509850505050505050506127b9565b61264f8560200151600460009054906101000a900473ffffffffffffffffffffffffffffffffffffffff1673ffffffffffffffffffffffffffffffffffffffff1663de93f1866040518163ffffffff1660e01b815260040160206040518083038186803b15801561260f57600080fd5b505afa158015612623573d6000803e3d6000fd5b505050506040513d602081101561263957600080fd5b8101908080519060200190929190505050612f42565b80935081945050506000600381111561266457fe5b83600381111561267057fe5b146126c6576040517f08c379a00000000000000000000000000000000000000000000000000000000081526004018080602001828103825260228152602001806134a56022913960400191505060405180910390fd5b6126d282612710612f95565b8093508194505050600060038111156126e757fe5b8360038111156126f357fe5b14612749576040517f08c379a00000000000000000000000000000000000000000000000000000000081526004018080602001828103825260228152602001806134a56022913960400191505060405180910390fd5b612757828660400151612fc9565b80935081945050506000600381111561276c57fe5b83600381111561277857fe5b1461279f576002600681111561278a57fe5b600080905098509850505050505050506127b9565b600060068111156127ac57fe5b8298509850505050505050505b915091565b60008060009054906101000a900473ffffffffffffffffffffffffffffffffffffffff1673ffffffffffffffffffffffffffffffffffffffff163373ffffffffffffffffffffffffffffffffffffffff16146128275761282060016002612c66565b9050612984565b60001515600660009054906101000a900460ff1615151415612983576001600660006101000a81548160ff021916908315150217905550600080831461286d5782612876565b612875610cf7565b5b905060405180604001604052806ec097ce7bc90715b34b9f10000000007bffffffffffffffffffffffffffffffffffffffffffffffffffffffff1681526020016128f5836040518060400160405280601681526020017f626c6f636b206e756d626572206f766572666c6f777300000000000000000000815250612bab565b63ffffffff16815250600560008201518160000160006101000a8154817bffffffffffffffffffffffffffffffffffffffffffffffffffffffff02191690837bffffffffffffffffffffffffffffffffffffffffffffffffffffffff160217905550602082015181600001601c6101000a81548163ffffffff021916908363ffffffff160217905550905050505b5b919050565b600360009054906101000a900473ffffffffffffffffffffffffffffffffffffffff1681565b6000809054906101000a900473ffffffffffffffffffffffffffffffffffffffff1681565b6000612a1683836040518060400160405280601581526020017f7375627472616374696f6e20756e646572666c6f770000000000000000000000815250612ff4565b905092915050565b6000612a6083836040518060400160405280601781526020017f6d756c7469706c69636174696f6e206f766572666c6f770000000000000000008152506130ae565b905092915050565b612a706133f9565b6040518060200160405280612a9d612a97866ec097ce7bc90715b34b9f1000000000612a1e565b85613193565b815250905092915050565b612ab06133f9565b6040518060200160405280612acd85600001518560000151612d6c565b815250905092915050565b60007c010000000000000000000000000000000000000000000000000000000083108290612ba1576040517f08c379a00000000000000000000000000000000000000000000000000000000081526004018080602001828103825283818151815260200191508051906020019080838360005b83811015612b66578082015181840152602081019050612b4b565b50505050905090810190601f168015612b935780820380516001836020036101000a031916815260200191505b509250505060405180910390fd5b5082905092915050565b600064010000000083108290612c5c576040517f08c379a00000000000000000000000000000000000000000000000000000000081526004018080602001828103825283818151815260200191508051906020019080838360005b83811015612c21578082015181840152602081019050612c06565b50505050905090810190601f168015612c4e5780820380516001836020036101000a031916815260200191505b509250505060405180910390fd5b5082905092915050565b60007f45b96fe442630264581b197e84bbada861235052c5a1aadfff9ea4e40a969aa0836006811115612c9557fe5b836017811115612ca157fe5b600060405180848152602001838152602001828152602001935050505060405180910390a1826006811115612cd257fe5b905092915050565b60008060008385019050848110612cf8576000819250925050612d05565b6002600080905092509250505b9250929050565b612d146133f9565b6040518060200160405280612d31856000015185600001516129d4565b815250905092915050565b60006ec097ce7bc90715b34b9f1000000000612d5c848460000151612a1e565b81612d6357fe5b04905092915050565b6000612dae83836040518060400160405280601181526020017f6164646974696f6e206f766572666c6f770000000000000000000000000000008152506131dd565b905092915050565b6000612dc061347e565b600080612dd586600001518660000151612f42565b9150915060006003811115612de657fe5b826003811115612df257fe5b14612e16578160405180602001604052806000815250809050935093505050612ed0565b600080612e356002670de0b6b3a764000081612e2e57fe5b0484612cda565b9150915060006003811115612e4657fe5b826003811115612e5257fe5b14612e785781604051806020016040528060008152508090509550955050505050612ed0565b600080612e8d83670de0b6b3a7640000612f95565b9150915060006003811115612e9e57fe5b826003811115612eaa57fe5b14612eb157fe5b6000604051806020016040528083815250809050975097505050505050505b9250929050565b6000806000612ee461347e565b612eee878761329c565b9150915060006003811115612eff57fe5b826003811115612f0b57fe5b14612f2157816000809050935093505050612f3a565b612f33612f2d8261331a565b86612cda565b9350935050505b935093915050565b6000806000841415612f5d5760008080905091509150612f8e565b6000838502905083858281612f6e57fe5b0414612f8557600260008090509250925050612f8e565b60008192509250505b9250929050565b6000806000831415612fb1576001600080905091509150612fc2565b6000838581612fbc57fe5b04915091505b9250929050565b600080838311612fe157600083850391509150612fed565b60036000809050915091505b9250929050565b60008383111582906130a1576040517f08c379a00000000000000000000000000000000000000000000000000000000081526004018080602001828103825283818151815260200191508051906020019080838360005b8381101561306657808201518184015260208101905061304b565b50505050905090810190601f1680156130935780820380516001836020036101000a031916815260200191505b509250505060405180910390fd5b5082840390509392505050565b6000808414806130be5750600083145b156130cc576000905061318c565b60008385029050838582816130dd57fe5b04148390613186576040517f08c379a00000000000000000000000000000000000000000000000000000000081526004018080602001828103825283818151815260200191508051906020019080838360005b8381101561314b578082015181840152602081019050613130565b50505050905090810190601f1680156131785780820380516001836020036101000a031916815260200191505b509250505060405180910390fd5b50809150505b9392505050565b60006131d583836040518060400160405280600e81526020017f646976696465206279207a65726f000000000000000000000000000000000000815250613339565b905092915050565b6000808385019050848110158390613290576040517f08c379a00000000000000000000000000000000000000000000000000000000081526004018080602001828103825283818151815260200191508051906020019080838360005b8381101561325557808201518184015260208101905061323a565b50505050905090810190601f1680156132825780820380516001836020036101000a031916815260200191505b509250505060405180910390fd5b50809150509392505050565b60006132a661347e565b6000806132b7866000015186612f42565b91509150600060038111156132c857fe5b8260038111156132d457fe5b146132f8578160405180602001604052806000815250809050935093505050613313565b60006040518060200160405280838152508090509350935050505b9250929050565b6000670de0b6b3a764000082600001518161333157fe5b049050919050565b600080831182906133e5576040517f08c379a00000000000000000000000000000000000000000000000000000000081526004018080602001828103825283818151815260200191508051906020019080838360005b838110156133aa57808201518184015260208101905061338f565b50505050905090810190601f1680156133d75780820380516001836020036101000a031916815260200191505b509250505060405180910390fd5b508284816133ef57fe5b0490509392505050565b6040518060200160405280600081525090565b60405180610160016040528060008152602001600081526020016000815260200160008152602001600081526020016000815260200160008152602001613451613491565b815260200161345e613491565b815260200161346b613491565b8152602001613478613491565b81525090565b6040518060200160405280600081525090565b604051806020016040528060008152509056fe4241495f4d494e545f414d4f554e545f43414c43554c4154494f4e5f4641494c45446f6e6c7920756e6974726f6c6c65722061646d696e2063616e206368616e676520627261696e73a265627a7a72315820e984743b02bf0d12ff78be4ded335b5a353b4f58f1ecd3d0821fcb0d237823e464736f6c63430005110032",
  "source": "pragma solidity ^0.5.16;\n\nimport \"./BToken.sol\";\nimport \"./PriceOracle.sol\";\nimport \"./ErrorReporter.sol\";\nimport \"./Exponential.sol\";\nimport \"./BAIControllerStorage.sol\";\nimport \"./BAIUnitroller.sol\";\nimport \"./BAI.sol\";\n\ninterface ComptrollerLensInterface {\n    function protocolPaused() external view returns (bool);\n    function mintedBAIs(address account) external view returns (uint);\n    function baiMintRate() external view returns (uint);\n    function btntexBAIRate() external view returns (uint);\n    function btntexAccrued(address account) external view returns(uint);\n    function getAssetsIn(address account) external view returns (BToken[] memory);\n    function oracle() external view returns (PriceOracle);\n\n    function distributeBAIMinterBtntex(address baiMinter, bool distributeAll) external;\n}\n\n/**\n * @title Btntex's BAI Comptroller Contract\n * @author Btntex\n */\ncontract BAIControllerG1 is BAIControllerStorageG1, BAIControllerErrorReporter, Exponential {\n\n    /// @notice Emitted when Comptroller is changed\n    event NewComptroller(ComptrollerInterface oldComptroller, ComptrollerInterface newComptroller);\n\n    /**\n     * @notice Event emitted when BAI is minted\n     */\n    event MintBAI(address minter, uint mintBAIAmount);\n\n    /**\n     * @notice Event emitted when BAI is repaid\n     */\n    event RepayBAI(address repayer, uint repayBAIAmount);\n\n    /// @notice The initial Btntex index for a market\n    uint224 public constant btntexInitialIndex = 1e36;\n\n    /*** Main Actions ***/\n\n    function mintBAI(uint mintBAIAmount) external returns (uint) {\n        if(address(comptroller) != address(0)) {\n            require(!ComptrollerLensInterface(address(comptroller)).protocolPaused(), \"protocol is paused\");\n\n            address minter = msg.sender;\n\n            // Keep the flywheel moving\n            updateBtntexBAIMintIndex();\n            ComptrollerLensInterface(address(comptroller)).distributeBAIMinterBtntex(minter, false);\n\n            uint oErr;\n            MathError mErr;\n            uint accountMintBAINew;\n            uint accountMintableBAI;\n\n            (oErr, accountMintableBAI) = getMintableBAI(minter);\n            if (oErr != uint(Error.NO_ERROR)) {\n                return uint(Error.REJECTION);\n            }\n\n            // check that user have sufficient mintableBAI balance\n            if (mintBAIAmount > accountMintableBAI) {\n                return fail(Error.REJECTION, FailureInfo.BAI_MINT_REJECTION);\n            }\n\n            (mErr, accountMintBAINew) = addUInt(ComptrollerLensInterface(address(comptroller)).mintedBAIs(minter), mintBAIAmount);\n            require(mErr == MathError.NO_ERROR, \"BAI_MINT_AMOUNT_CALCULATION_FAILED\");\n            uint error = comptroller.setMintedBAIOf(minter, accountMintBAINew);\n            if (error != 0 ) {\n                return error;\n            }\n\n            BAI(getBAIAddress()).mint(minter, mintBAIAmount);\n            emit MintBAI(minter, mintBAIAmount);\n\n            return uint(Error.NO_ERROR);\n        }\n    }\n\n    /**\n     * @notice Repay BAI\n     */\n    function repayBAI(uint repayBAIAmount) external returns (uint) {\n        if(address(comptroller) != address(0)) {\n            require(!ComptrollerLensInterface(address(comptroller)).protocolPaused(), \"protocol is paused\");\n\n            address repayer = msg.sender;\n\n            updateBtntexBAIMintIndex();\n            ComptrollerLensInterface(address(comptroller)).distributeBAIMinterBtntex(repayer, false);\n\n            uint actualBurnAmount;\n\n            uint baiBalance = ComptrollerLensInterface(address(comptroller)).mintedBAIs(repayer);\n\n            if(baiBalance > repayBAIAmount) {\n                actualBurnAmount = repayBAIAmount;\n            } else {\n                actualBurnAmount = baiBalance;\n            }\n\n            uint error = comptroller.setMintedBAIOf(repayer, baiBalance - actualBurnAmount);\n            if (error != 0) {\n                return error;\n            }\n\n            BAI(getBAIAddress()).burn(repayer, actualBurnAmount);\n            emit RepayBAI(repayer, actualBurnAmount);\n\n            return uint(Error.NO_ERROR);\n        }\n    }\n\n    /**\n     * @notice Initialize the BtntexBAIState\n     */\n    function _initializeBtntexBAIState(uint blockNumber) external returns (uint) {\n        // Check caller is admin\n        if (msg.sender != admin) {\n            return fail(Error.UNAUTHORIZED, FailureInfo.SET_COMPTROLLER_OWNER_CHECK);\n        }\n\n        if (isBtntexBAIInitialized == false) {\n            isBtntexBAIInitialized = true;\n            uint baiBlockNumber = blockNumber == 0 ? getBlockNumber() : blockNumber;\n            btntexBAIState = BtntexBAIState({\n                index: btntexInitialIndex,\n                block: safe32(baiBlockNumber, \"block number overflows\")\n            });\n        }\n    }\n\n    /**\n     * @notice Accrue BTNT to by updating the BAI minter index\n     */\n    function updateBtntexBAIMintIndex() public returns (uint) {\n        uint baiMinterSpeed = ComptrollerLensInterface(address(comptroller)).btntexBAIRate();\n        uint blockNumber = getBlockNumber();\n        uint deltaBlocks = sub_(blockNumber, uint(btntexBAIState.block));\n        if (deltaBlocks > 0 && baiMinterSpeed > 0) {\n            uint baiAmount = BAI(getBAIAddress()).totalSupply();\n            uint btntexAccrued = mul_(deltaBlocks, baiMinterSpeed);\n            Double memory ratio = baiAmount > 0 ? fraction(btntexAccrued, baiAmount) : Double({mantissa: 0});\n            Double memory index = add_(Double({mantissa: btntexBAIState.index}), ratio);\n            btntexBAIState = BtntexBAIState({\n                index: safe224(index.mantissa, \"new index overflows\"),\n                block: safe32(blockNumber, \"block number overflows\")\n            });\n        } else if (deltaBlocks > 0) {\n            btntexBAIState.block = safe32(blockNumber, \"block number overflows\");\n        }\n    }\n\n    /**\n     * @notice Calculate BTNT accrued by a BAI minter\n     * @param baiMinter The address of the BAI minter to distribute BTNT to\n     */\n    function calcDistributeBAIMinterBtntex(address baiMinter) public returns(uint, uint, uint, uint) {\n        // Check caller is comptroller\n        if (msg.sender != address(comptroller)) {\n            return (fail(Error.UNAUTHORIZED, FailureInfo.SET_COMPTROLLER_OWNER_CHECK), 0, 0, 0);\n        }\n\n        Double memory baiMintIndex = Double({mantissa: btntexBAIState.index});\n        Double memory baiMinterIndex = Double({mantissa: btntexBAIMinterIndex[baiMinter]});\n        btntexBAIMinterIndex[baiMinter] = baiMintIndex.mantissa;\n\n        if (baiMinterIndex.mantissa == 0 && baiMintIndex.mantissa > 0) {\n            baiMinterIndex.mantissa = btntexInitialIndex;\n        }\n\n        Double memory deltaIndex = sub_(baiMintIndex, baiMinterIndex);\n        uint baiMinterAmount = ComptrollerLensInterface(address(comptroller)).mintedBAIs(baiMinter);\n        uint baiMinterDelta = mul_(baiMinterAmount, deltaIndex);\n        uint baiMinterAccrued = add_(ComptrollerLensInterface(address(comptroller)).btntexAccrued(baiMinter), baiMinterDelta);\n        return (uint(Error.NO_ERROR), baiMinterAccrued, baiMinterDelta, baiMintIndex.mantissa);\n    }\n\n    /*** Admin Functions ***/\n\n    /**\n      * @notice Sets a new comptroller\n      * @dev Admin function to set a new comptroller\n      * @return uint 0=success, otherwise a failure (see ErrorReporter.sol for details)\n      */\n    function _setComptroller(ComptrollerInterface comptroller_) public returns (uint) {\n        // Check caller is admin\n        if (msg.sender != admin) {\n            return fail(Error.UNAUTHORIZED, FailureInfo.SET_COMPTROLLER_OWNER_CHECK);\n        }\n\n        ComptrollerInterface oldComptroller = comptroller;\n        comptroller = comptroller_;\n        emit NewComptroller(oldComptroller, comptroller_);\n\n        return uint(Error.NO_ERROR);\n    }\n\n    function _become(BAIUnitroller unitroller) public {\n        require(msg.sender == unitroller.admin(), \"only unitroller admin can change brains\");\n        require(unitroller._acceptImplementation() == 0, \"change not authorized\");\n    }\n\n    /**\n     * @dev Local vars for avoiding stack-depth limits in calculating account total supply balance.\n     *  Note that `bTokenBalance` is the number of bTokens the account owns in the market,\n     *  whereas `borrowBalance` is the amount of underlying that the account has borrowed.\n     */\n    struct AccountAmountLocalVars {\n        uint totalSupplyAmount;\n        uint sumSupply;\n        uint sumBorrowPlusEffects;\n        uint bTokenBalance;\n        uint borrowBalance;\n        uint exchangeRateMantissa;\n        uint oraclePriceMantissa;\n        Exp collateralFactor;\n        Exp exchangeRate;\n        Exp oraclePrice;\n        Exp tokensToDenom;\n    }\n\n    function getMintableBAI(address minter) public view returns (uint, uint) {\n        PriceOracle oracle = ComptrollerLensInterface(address(comptroller)).oracle();\n        BToken[] memory enteredMarkets = ComptrollerLensInterface(address(comptroller)).getAssetsIn(minter);\n\n        AccountAmountLocalVars memory vars; // Holds all our calculation results\n\n        uint oErr;\n        MathError mErr;\n\n        uint accountMintableBAI;\n        uint i;\n\n        /**\n         * We use this formula to calculate mintable BAI amount.\n         * totalSupplyAmount * BAIMintRate - (totalBorrowAmount + mintedBAIOf)\n         */\n        for (i = 0; i < enteredMarkets.length; i++) {\n            (oErr, vars.bTokenBalance, vars.borrowBalance, vars.exchangeRateMantissa) = enteredMarkets[i].getAccountSnapshot(minter);\n            if (oErr != 0) { // semi-opaque error code, we assume NO_ERROR == 0 is invariant between upgrades\n                return (uint(Error.SNAPSHOT_ERROR), 0);\n            }\n            vars.exchangeRate = Exp({mantissa: vars.exchangeRateMantissa});\n\n            // Get the normalized price of the asset\n            vars.oraclePriceMantissa = oracle.getUnderlyingPrice(enteredMarkets[i]);\n            if (vars.oraclePriceMantissa == 0) {\n                return (uint(Error.PRICE_ERROR), 0);\n            }\n            vars.oraclePrice = Exp({mantissa: vars.oraclePriceMantissa});\n\n            (mErr, vars.tokensToDenom) = mulExp(vars.exchangeRate, vars.oraclePrice);\n            if (mErr != MathError.NO_ERROR) {\n                return (uint(Error.MATH_ERROR), 0);\n            }\n\n            // sumSupply += tokensToDenom * bTokenBalance\n            (mErr, vars.sumSupply) = mulScalarTruncateAddUInt(vars.tokensToDenom, vars.bTokenBalance, vars.sumSupply);\n            if (mErr != MathError.NO_ERROR) {\n                return (uint(Error.MATH_ERROR), 0);\n            }\n\n            // sumBorrowPlusEffects += oraclePrice * borrowBalance\n            (mErr, vars.sumBorrowPlusEffects) = mulScalarTruncateAddUInt(vars.oraclePrice, vars.borrowBalance, vars.sumBorrowPlusEffects);\n            if (mErr != MathError.NO_ERROR) {\n                return (uint(Error.MATH_ERROR), 0);\n            }\n        }\n\n        (mErr, vars.sumBorrowPlusEffects) = addUInt(vars.sumBorrowPlusEffects, ComptrollerLensInterface(address(comptroller)).mintedBAIs(minter));\n        if (mErr != MathError.NO_ERROR) {\n            return (uint(Error.MATH_ERROR), 0);\n        }\n\n        (mErr, accountMintableBAI) = mulUInt(vars.sumSupply, ComptrollerLensInterface(address(comptroller)).baiMintRate());\n        require(mErr == MathError.NO_ERROR, \"BAI_MINT_AMOUNT_CALCULATION_FAILED\");\n\n        (mErr, accountMintableBAI) = divUInt(accountMintableBAI, 10000);\n        require(mErr == MathError.NO_ERROR, \"BAI_MINT_AMOUNT_CALCULATION_FAILED\");\n\n\n        (mErr, accountMintableBAI) = subUInt(accountMintableBAI, vars.sumBorrowPlusEffects);\n        if (mErr != MathError.NO_ERROR) {\n            return (uint(Error.REJECTION), 0);\n        }\n\n        return (uint(Error.NO_ERROR), accountMintableBAI);\n    }\n\n    function getBlockNumber() public view returns (uint) {\n        return block.number;\n    }\n\n    /**\n     * @notice Return the address of the BAI token\n     * @return The address of BAI\n     */\n    function getBAIAddress() public view returns (address) {\n        return 0x4BD17003473389A42DAF6a0a729f6Fdb328BbBd7;\n    }\n}\n",
  "sourcePath": "/home/aliwisam/AliWisamData/Personal/Orders/Sir Junaid/Gist/TruffleFlat/contracts/BAIControllerG1.sol",
  "compiler": {
    "name": "solc",
    "version": "0.5.17+commit.d19bba13.Emscripten.clang"
  },
  "schemaVersion": "3.4.0",
  "updatedAt": "2021-06-16T15:51:17.615Z",
  "devdoc": {
    "author": "Btntex",
    "methods": {
      "_setComptroller(address)": {
        "details": "Admin function to set a new comptroller",
        "return": "uint 0=success, otherwise a failure (see ErrorReporter.sol for details)"
      },
      "calcDistributeBAIMinterBtntex(address)": {
        "params": {
          "baiMinter": "The address of the BAI minter to distribute BTNT to"
        }
      },
      "getBAIAddress()": {
        "return": "The address of BAI"
      }
    },
    "title": "Btntex's BAI Comptroller Contract"
  },
  "userdoc": {
    "methods": {
      "_initializeBtntexBAIState(uint256)": {
        "notice": "Initialize the BtntexBAIState"
      },
      "_setComptroller(address)": {
        "notice": "Sets a new comptroller"
      },
      "calcDistributeBAIMinterBtntex(address)": {
        "notice": "Calculate BTNT accrued by a BAI minter"
      },
      "getBAIAddress()": {
        "notice": "Return the address of the BAI token"
      },
      "mintBAI(uint256)": {
        "notice": "* Main Actions **"
      },
      "repayBAI(uint256)": {
        "notice": "Repay BAI"
      },
      "updateBtntexBAIMintIndex()": {
        "notice": "Accrue BTNT to by updating the BAI minter index"
      }
    }
  }
}