{
  "contractName": "BAIVaultAdminStorage",
  "abi": [
    {
      "constant": true,
      "inputs": [],
      "name": "admin",
      "outputs": [
        {
          "internalType": "address",
          "name": "",
          "type": "address"
        }
      ],
      "payable": false,
      "stateMutability": "view",
      "type": "function"
    },
    {
      "constant": true,
      "inputs": [],
      "name": "baiVaultImplementation",
      "outputs": [
        {
          "internalType": "address",
          "name": "",
          "type": "address"
        }
      ],
      "payable": false,
      "stateMutability": "view",
      "type": "function"
    },
    {
      "constant": true,
      "inputs": [],
      "name": "pendingAdmin",
      "outputs": [
        {
          "internalType": "address",
          "name": "",
          "type": "address"
        }
      ],
      "payable": false,
      "stateMutability": "view",
      "type": "function"
    },
    {
      "constant": true,
      "inputs": [],
      "name": "pendingBAIVaultImplementation",
      "outputs": [
        {
          "internalType": "address",
          "name": "",
          "type": "address"
        }
      ],
      "payable": false,
      "stateMutability": "view",
      "type": "function"
    }
  ],
  "bytecode": "0x608060405234801561001057600080fd5b50610245806100206000396000f3fe608060405234801561001057600080fd5b506004361061004c5760003560e01c8063267822471461005157806373e8444d1461009b578063a9d7cf37146100e5578063f851a4401461012f575b600080fd5b610059610179565b604051808273ffffffffffffffffffffffffffffffffffffffff1673ffffffffffffffffffffffffffffffffffffffff16815260200191505060405180910390f35b6100a361019f565b604051808273ffffffffffffffffffffffffffffffffffffffff1673ffffffffffffffffffffffffffffffffffffffff16815260200191505060405180910390f35b6100ed6101c5565b604051808273ffffffffffffffffffffffffffffffffffffffff1673ffffffffffffffffffffffffffffffffffffffff16815260200191505060405180910390f35b6101376101eb565b604051808273ffffffffffffffffffffffffffffffffffffffff1673ffffffffffffffffffffffffffffffffffffffff16815260200191505060405180910390f35b600160009054906101000a900473ffffffffffffffffffffffffffffffffffffffff1681565b600360009054906101000a900473ffffffffffffffffffffffffffffffffffffffff1681565b600260009054906101000a900473ffffffffffffffffffffffffffffffffffffffff1681565b6000809054906101000a900473ffffffffffffffffffffffffffffffffffffffff168156fea265627a7a72315820b7721b941da5c1f0b3b6687cea38e1caaeab476d3e0fa4daaee4a8ac3d3114f864736f6c63430005110032",
  "source": "pragma solidity ^0.5.16;\nimport \"./SafeMath.sol\";\nimport \"./IBEP20.sol\";\n\ncontract BAIVaultAdminStorage {\n    /**\n    * @notice Administrator for this contract\n    */\n    address public admin;\n\n    /**\n    * @notice Pending administrator for this contract\n    */\n    address public pendingAdmin;\n\n    /**\n    * @notice Active brains of BAI Vault\n    */\n    address public baiVaultImplementation;\n\n    /**\n    * @notice Pending brains of BAI Vault\n    */\n    address public pendingBAIVaultImplementation;\n}\n\ncontract BAIVaultStorage is BAIVaultAdminStorage {\n    /// @notice The BTNT TOKEN!\n    IBEP20 public btnt;\n\n    /// @notice The BAI TOKEN!\n    IBEP20 public bai;\n\n    /// @notice Guard variable for re-entrancy checks\n    bool internal _notEntered;\n\n    /// @notice BTNT balance of vault\n    uint256 public btntBalance;\n\n    /// @notice Accumulated BTNT per share\n    uint256 public accBTNTPerShare;\n\n    //// pending rewards awaiting anyone to update\n    uint256 public pendingRewards;\n\n    /// @notice Info of each user.\n    struct UserInfo {\n        uint256 amount;\n        uint256 rewardDebt;\n    }\n\n    // Info of each user that stakes tokens.\n    mapping(address => UserInfo) public userInfo;\n}\n",
  "sourcePath": "/home/aliwisam/AliWisamData/Personal/Orders/Sir Junaid/Gist/TruffleFlat/contracts/BAIVaultStorage.sol",
  "compiler": {
    "name": "solc",
    "version": "0.5.17+commit.d19bba13.Emscripten.clang"
  },
  "schemaVersion": "3.4.0",
  "updatedAt": "2021-06-16T15:51:17.650Z",
  "devdoc": {
    "methods": {}
  },
  "userdoc": {
    "methods": {}
  }
}