{
  "contractName": "BAIVault",
  "abi": [
    {
      "inputs": [],
      "payable": false,
      "stateMutability": "nonpayable",
      "type": "constructor"
    },
    {
      "anonymous": false,
      "inputs": [
        {
          "indexed": true,
          "internalType": "address",
          "name": "oldAdmin",
          "type": "address"
        },
        {
          "indexed": true,
          "internalType": "address",
          "name": "newAdmin",
          "type": "address"
        }
      ],
      "name": "AdminTransfered",
      "type": "event"
    },
    {
      "anonymous": false,
      "inputs": [
        {
          "indexed": true,
          "internalType": "address",
          "name": "user",
          "type": "address"
        },
        {
          "indexed": false,
          "internalType": "uint256",
          "name": "amount",
          "type": "uint256"
        }
      ],
      "name": "Deposit",
      "type": "event"
    },
    {
      "anonymous": false,
      "inputs": [
        {
          "indexed": true,
          "internalType": "address",
          "name": "user",
          "type": "address"
        },
        {
          "indexed": false,
          "internalType": "uint256",
          "name": "amount",
          "type": "uint256"
        }
      ],
      "name": "Withdraw",
      "type": "event"
    },
    {
      "constant": true,
      "inputs": [],
      "name": "accBTNTPerShare",
      "outputs": [
        {
          "internalType": "uint256",
          "name": "",
          "type": "uint256"
        }
      ],
      "payable": false,
      "stateMutability": "view",
      "type": "function"
    },
    {
      "constant": true,
      "inputs": [],
      "name": "admin",
      "outputs": [
        {
          "internalType": "address",
          "name": "",
          "type": "address"
        }
      ],
      "payable": false,
      "stateMutability": "view",
      "type": "function"
    },
    {
      "constant": true,
      "inputs": [],
      "name": "bai",
      "outputs": [
        {
          "internalType": "contract IBEP20",
          "name": "",
          "type": "address"
        }
      ],
      "payable": false,
      "stateMutability": "view",
      "type": "function"
    },
    {
      "constant": true,
      "inputs": [],
      "name": "baiVaultImplementation",
      "outputs": [
        {
          "internalType": "address",
          "name": "",
          "type": "address"
        }
      ],
      "payable": false,
      "stateMutability": "view",
      "type": "function"
    },
    {
      "constant": true,
      "inputs": [],
      "name": "btnt",
      "outputs": [
        {
          "internalType": "contract IBEP20",
          "name": "",
          "type": "address"
        }
      ],
      "payable": false,
      "stateMutability": "view",
      "type": "function"
    },
    {
      "constant": true,
      "inputs": [],
      "name": "btntBalance",
      "outputs": [
        {
          "internalType": "uint256",
          "name": "",
          "type": "uint256"
        }
      ],
      "payable": false,
      "stateMutability": "view",
      "type": "function"
    },
    {
      "constant": true,
      "inputs": [],
      "name": "pendingAdmin",
      "outputs": [
        {
          "internalType": "address",
          "name": "",
          "type": "address"
        }
      ],
      "payable": false,
      "stateMutability": "view",
      "type": "function"
    },
    {
      "constant": true,
      "inputs": [],
      "name": "pendingBAIVaultImplementation",
      "outputs": [
        {
          "internalType": "address",
          "name": "",
          "type": "address"
        }
      ],
      "payable": false,
      "stateMutability": "view",
      "type": "function"
    },
    {
      "constant": true,
      "inputs": [],
      "name": "pendingRewards",
      "outputs": [
        {
          "internalType": "uint256",
          "name": "",
          "type": "uint256"
        }
      ],
      "payable": false,
      "stateMutability": "view",
      "type": "function"
    },
    {
      "constant": true,
      "inputs": [
        {
          "internalType": "address",
          "name": "",
          "type": "address"
        }
      ],
      "name": "userInfo",
      "outputs": [
        {
          "internalType": "uint256",
          "name": "amount",
          "type": "uint256"
        },
        {
          "internalType": "uint256",
          "name": "rewardDebt",
          "type": "uint256"
        }
      ],
      "payable": false,
      "stateMutability": "view",
      "type": "function"
    },
    {
      "constant": false,
      "inputs": [
        {
          "internalType": "uint256",
          "name": "_amount",
          "type": "uint256"
        }
      ],
      "name": "deposit",
      "outputs": [],
      "payable": false,
      "stateMutability": "nonpayable",
      "type": "function"
    },
    {
      "constant": false,
      "inputs": [
        {
          "internalType": "uint256",
          "name": "_amount",
          "type": "uint256"
        }
      ],
      "name": "withdraw",
      "outputs": [],
      "payable": false,
      "stateMutability": "nonpayable",
      "type": "function"
    },
    {
      "constant": false,
      "inputs": [],
      "name": "claim",
      "outputs": [],
      "payable": false,
      "stateMutability": "nonpayable",
      "type": "function"
    },
    {
      "constant": true,
      "inputs": [
        {
          "internalType": "address",
          "name": "_user",
          "type": "address"
        }
      ],
      "name": "pendingBTNT",
      "outputs": [
        {
          "internalType": "uint256",
          "name": "",
          "type": "uint256"
        }
      ],
      "payable": false,
      "stateMutability": "view",
      "type": "function"
    },
    {
      "constant": false,
      "inputs": [],
      "name": "updatePendingRewards",
      "outputs": [],
      "payable": false,
      "stateMutability": "nonpayable",
      "type": "function"
    },
    {
      "constant": true,
      "inputs": [],
      "name": "getAdmin",
      "outputs": [
        {
          "internalType": "address",
          "name": "",
          "type": "address"
        }
      ],
      "payable": false,
      "stateMutability": "view",
      "type": "function"
    },
    {
      "constant": false,
      "inputs": [],
      "name": "burnAdmin",
      "outputs": [],
      "payable": false,
      "stateMutability": "nonpayable",
      "type": "function"
    },
    {
      "constant": false,
      "inputs": [
        {
          "internalType": "address",
          "name": "newAdmin",
          "type": "address"
        }
      ],
      "name": "setNewAdmin",
      "outputs": [],
      "payable": false,
      "stateMutability": "nonpayable",
      "type": "function"
    },
    {
      "constant": false,
      "inputs": [
        {
          "internalType": "contract BAIVaultProxy",
          "name": "baiVaultProxy",
          "type": "address"
        }
      ],
      "name": "_become",
      "outputs": [],
      "payable": false,
      "stateMutability": "nonpayable",
      "type": "function"
    },
    {
      "constant": false,
      "inputs": [
        {
          "internalType": "address",
          "name": "_btnt",
          "type": "address"
        },
        {
          "internalType": "address",
          "name": "_bai",
          "type": "address"
        }
      ],
      "name": "setBtntexInfo",
      "outputs": [],
      "payable": false,
      "stateMutability": "nonpayable",
      "type": "function"
    }
  ],
  "bytecode": "0x608060405234801561001057600080fd5b50336000806101000a81548173ffffffffffffffffffffffffffffffffffffffff021916908373ffffffffffffffffffffffffffffffffffffffff16021790555061248c806100606000396000f3fe608060405234801561001057600080fd5b506004361061012c5760003560e01c806373e8444d116100ad578063b6b55f2511610071578063b6b55f25146104aa578063d8e0156f146104d8578063eded3fda1461053c578063f851a4401461055a578063faa1809e146105a45761012c565b806373e8444d1461037e57806381bdf98c146103c85780638e5c38da146103d25780638eec99c81461041c578063a9d7cf37146104605761012c565b8063300deada116100f4578063300deada1461026a5780634a86198b146102885780634e71d92d146102d257806364f3771b146102dc5780636e9960c3146103345761012c565b80631959a002146101315780631d504dc61461019057806326782247146101d4578063283df7ca1461021e5780632e1a7d4d1461023c575b600080fd5b6101736004803603602081101561014757600080fd5b81019080803573ffffffffffffffffffffffffffffffffffffffff1690602001909291905050506105ae565b604051808381526020018281526020019250505060405180910390f35b6101d2600480360360208110156101a657600080fd5b81019080803573ffffffffffffffffffffffffffffffffffffffff1690602001909291905050506105d2565b005b6101dc6107d1565b604051808273ffffffffffffffffffffffffffffffffffffffff1673ffffffffffffffffffffffffffffffffffffffff16815260200191505060405180910390f35b6102266107f7565b6040518082815260200191505060405180910390f35b6102686004803603602081101561025257600080fd5b81019080803590602001909291905050506107fd565b005b6102726108c2565b6040518082815260200191505060405180910390f35b6102906108c8565b604051808273ffffffffffffffffffffffffffffffffffffffff1673ffffffffffffffffffffffffffffffffffffffff16815260200191505060405180910390f35b6102da6108ee565b005b61031e600480360360208110156102f257600080fd5b81019080803573ffffffffffffffffffffffffffffffffffffffff1690602001909291905050506109b3565b6040518082815260200191505060405180910390f35b61033c610a48565b604051808273ffffffffffffffffffffffffffffffffffffffff1673ffffffffffffffffffffffffffffffffffffffff16815260200191505060405180910390f35b610386610a71565b604051808273ffffffffffffffffffffffffffffffffffffffff1673ffffffffffffffffffffffffffffffffffffffff16815260200191505060405180910390f35b6103d0610a97565b005b6103da610c18565b604051808273ffffffffffffffffffffffffffffffffffffffff1673ffffffffffffffffffffffffffffffffffffffff16815260200191505060405180910390f35b61045e6004803603602081101561043257600080fd5b81019080803573ffffffffffffffffffffffffffffffffffffffff169060200190929190505050610c3e565b005b610468610e61565b604051808273ffffffffffffffffffffffffffffffffffffffff1673ffffffffffffffffffffffffffffffffffffffff16815260200191505060405180910390f35b6104d6600480360360208110156104c057600080fd5b8101908080359060200190929190505050610e87565b005b61053a600480360360408110156104ee57600080fd5b81019080803573ffffffffffffffffffffffffffffffffffffffff169060200190929190803573ffffffffffffffffffffffffffffffffffffffff169060200190929190505050611098565b005b6105446111fb565b6040518082815260200191505060405180910390f35b610562611201565b604051808273ffffffffffffffffffffffffffffffffffffffff1673ffffffffffffffffffffffffffffffffffffffff16815260200191505060405180910390f35b6105ac611226565b005b60096020528060005260406000206000915090508060000154908060010154905082565b8073ffffffffffffffffffffffffffffffffffffffff1663f851a4406040518163ffffffff1660e01b815260040160206040518083038186803b15801561061857600080fd5b505afa15801561062c573d6000803e3d6000fd5b505050506040513d602081101561064257600080fd5b810190808051906020019092919050505073ffffffffffffffffffffffffffffffffffffffff163373ffffffffffffffffffffffffffffffffffffffff16146106d6576040517f08c379a00000000000000000000000000000000000000000000000000000000081526004018080602001828103825260228152602001806124366022913960400191505060405180910390fd5b60008173ffffffffffffffffffffffffffffffffffffffff1663c1e803346040518163ffffffff1660e01b8152600401602060405180830381600087803b15801561072057600080fd5b505af1158015610734573d6000803e3d6000fd5b505050506040513d602081101561074a57600080fd5b8101908080519060200190929190505050146107ce576040517f08c379a00000000000000000000000000000000000000000000000000000000081526004018080602001828103825260158152602001807f6368616e6765206e6f7420617574686f72697a6564000000000000000000000081525060200191505060405180910390fd5b50565b600160009054906101000a900473ffffffffffffffffffffffffffffffffffffffff1681565b60075481565b600560149054906101000a900460ff1661087f576040517f08c379a000000000000000000000000000000000000000000000000000000000815260040180806020018281038252600a8152602001807f72652d656e74657265640000000000000000000000000000000000000000000081525060200191505060405180910390fd5b6000600560146101000a81548160ff0219169083151502179055506108a43382611420565b6001600560146101000a81548160ff02191690831515021790555050565b60065481565b600560009054906101000a900473ffffffffffffffffffffffffffffffffffffffff1681565b600560149054906101000a900460ff16610970576040517f08c379a000000000000000000000000000000000000000000000000000000000815260040180806020018281038252600a8152602001807f72652d656e74657265640000000000000000000000000000000000000000000081525060200191505060405180910390fd5b6000600560146101000a81548160ff021916908315150217905550610996336000611420565b6001600560146101000a81548160ff021916908315150217905550565b600080600960008473ffffffffffffffffffffffffffffffffffffffff1673ffffffffffffffffffffffffffffffffffffffff1681526020019081526020016000209050610a408160010154610a32670de0b6b3a7640000610a2460075486600001546115f290919063ffffffff16565b61167890919063ffffffff16565b6116c290919063ffffffff16565b915050919050565b60008060009054906101000a900473ffffffffffffffffffffffffffffffffffffffff16905090565b600360009054906101000a900473ffffffffffffffffffffffffffffffffffffffff1681565b6000809054906101000a900473ffffffffffffffffffffffffffffffffffffffff1673ffffffffffffffffffffffffffffffffffffffff163373ffffffffffffffffffffffffffffffffffffffff1614610b59576040517f08c379a000000000000000000000000000000000000000000000000000000000815260040180806020018281038252600e8152602001807f6f6e6c792061646d696e2063616e00000000000000000000000000000000000081525060200191505060405180910390fd5b600073ffffffffffffffffffffffffffffffffffffffff166000809054906101000a900473ffffffffffffffffffffffffffffffffffffffff1673ffffffffffffffffffffffffffffffffffffffff167f173de3514d8508f36ce8c81d509adcd8c8c76098400f685d3042b36f9a4160c360405160405180910390a360008060006101000a81548173ffffffffffffffffffffffffffffffffffffffff021916908373ffffffffffffffffffffffffffffffffffffffff160217905550565b600460009054906101000a900473ffffffffffffffffffffffffffffffffffffffff1681565b6000809054906101000a900473ffffffffffffffffffffffffffffffffffffffff1673ffffffffffffffffffffffffffffffffffffffff163373ffffffffffffffffffffffffffffffffffffffff1614610d00576040517f08c379a000000000000000000000000000000000000000000000000000000000815260040180806020018281038252600e8152602001807f6f6e6c792061646d696e2063616e00000000000000000000000000000000000081525060200191505060405180910390fd5b600073ffffffffffffffffffffffffffffffffffffffff168173ffffffffffffffffffffffffffffffffffffffff161415610da3576040517f08c379a000000000000000000000000000000000000000000000000000000000815260040180806020018281038252601d8152602001807f6e6577206f776e657220697320746865207a65726f206164647265737300000081525060200191505060405180910390fd5b8073ffffffffffffffffffffffffffffffffffffffff166000809054906101000a900473ffffffffffffffffffffffffffffffffffffffff1673ffffffffffffffffffffffffffffffffffffffff167f173de3514d8508f36ce8c81d509adcd8c8c76098400f685d3042b36f9a4160c360405160405180910390a3806000806101000a81548173ffffffffffffffffffffffffffffffffffffffff021916908373ffffffffffffffffffffffffffffffffffffffff16021790555050565b600260009054906101000a900473ffffffffffffffffffffffffffffffffffffffff1681565b600560149054906101000a900460ff16610f09576040517f08c379a000000000000000000000000000000000000000000000000000000000815260040180806020018281038252600a8152602001807f72652d656e74657265640000000000000000000000000000000000000000000081525060200191505060405180910390fd5b6000600560146101000a81548160ff0219169083151502179055506000600960003373ffffffffffffffffffffffffffffffffffffffff1673ffffffffffffffffffffffffffffffffffffffff1681526020019081526020016000209050610f6f61170c565b610f783361184e565b6000821115610ff057610fd0333084600560009054906101000a900473ffffffffffffffffffffffffffffffffffffffff1673ffffffffffffffffffffffffffffffffffffffff16611873909392919063ffffffff16565b610fe782826000015461197990919063ffffffff16565b81600001819055505b611023670de0b6b3a764000061101560075484600001546115f290919063ffffffff16565b61167890919063ffffffff16565b81600101819055503373ffffffffffffffffffffffffffffffffffffffff167fe1fffcc4923d04b559f4d29a8bfc6cda04eb5b0d3c460751c2402c5c5cc9109c836040518082815260200191505060405180910390a2506001600560146101000a81548160ff02191690831515021790555050565b6000809054906101000a900473ffffffffffffffffffffffffffffffffffffffff1673ffffffffffffffffffffffffffffffffffffffff163373ffffffffffffffffffffffffffffffffffffffff161461115a576040517f08c379a000000000000000000000000000000000000000000000000000000000815260040180806020018281038252600e8152602001807f6f6e6c792061646d696e2063616e00000000000000000000000000000000000081525060200191505060405180910390fd5b81600460006101000a81548173ffffffffffffffffffffffffffffffffffffffff021916908373ffffffffffffffffffffffffffffffffffffffff16021790555080600560006101000a81548173ffffffffffffffffffffffffffffffffffffffff021916908373ffffffffffffffffffffffffffffffffffffffff1602179055506001600560146101000a81548160ff0219169083151502179055505050565b60085481565b6000809054906101000a900473ffffffffffffffffffffffffffffffffffffffff1681565b6000611316600654600460009054906101000a900473ffffffffffffffffffffffffffffffffffffffff1673ffffffffffffffffffffffffffffffffffffffff166370a08231306040518263ffffffff1660e01b8152600401808273ffffffffffffffffffffffffffffffffffffffff1673ffffffffffffffffffffffffffffffffffffffff16815260200191505060206040518083038186803b1580156112cd57600080fd5b505afa1580156112e1573d6000803e3d6000fd5b505050506040513d60208110156112f757600080fd5b81019080805190602001909291905050506116c290919063ffffffff16565b9050600081111561141d57600460009054906101000a900473ffffffffffffffffffffffffffffffffffffffff1673ffffffffffffffffffffffffffffffffffffffff166370a08231306040518263ffffffff1660e01b8152600401808273ffffffffffffffffffffffffffffffffffffffff1673ffffffffffffffffffffffffffffffffffffffff16815260200191505060206040518083038186803b1580156113c057600080fd5b505afa1580156113d4573d6000803e3d6000fd5b505050506040513d60208110156113ea57600080fd5b81019080805190602001909291905050506006819055506114168160085461197990919063ffffffff16565b6008819055505b50565b6000600960008473ffffffffffffffffffffffffffffffffffffffff1673ffffffffffffffffffffffffffffffffffffffff168152602001908152602001600020905081816000015410156114dd576040517f08c379a00000000000000000000000000000000000000000000000000000000081526004018080602001828103825260128152602001807f77697468647261773a206e6f7420676f6f64000000000000000000000000000081525060200191505060405180910390fd5b6114e561170c565b6114ee8361184e565b60008211156115645761150e8282600001546116c290919063ffffffff16565b81600001819055506115638383600560009054906101000a900473ffffffffffffffffffffffffffffffffffffffff1673ffffffffffffffffffffffffffffffffffffffff166119c39092919063ffffffff16565b5b611597670de0b6b3a764000061158960075484600001546115f290919063ffffffff16565b61167890919063ffffffff16565b81600101819055508273ffffffffffffffffffffffffffffffffffffffff167f884edad9ce6fa2440d8a54cc123490eb96d2768479d49ff9c7366125a9424364836040518082815260200191505060405180910390a2505050565b6000808314156116055760009050611672565b600082840290508284828161161657fe5b041461166d576040517f08c379a00000000000000000000000000000000000000000000000000000000081526004018080602001828103825260218152602001806124156021913960400191505060405180910390fd5b809150505b92915050565b60006116ba83836040518060400160405280601a81526020017f536166654d6174683a206469766973696f6e206279207a65726f000000000000815250611a94565b905092915050565b600061170483836040518060400160405280601e81526020017f536166654d6174683a207375627472616374696f6e206f766572666c6f770000815250611b5a565b905092915050565b6000600560009054906101000a900473ffffffffffffffffffffffffffffffffffffffff1673ffffffffffffffffffffffffffffffffffffffff166370a08231306040518263ffffffff1660e01b8152600401808273ffffffffffffffffffffffffffffffffffffffff1673ffffffffffffffffffffffffffffffffffffffff16815260200191505060206040518083038186803b1580156117ad57600080fd5b505afa1580156117c1573d6000803e3d6000fd5b505050506040513d60208110156117d757600080fd5b8101908080519060200190929190505050905060008114156117f9575061184c565b61183c61182b8261181d670de0b6b3a76400006008546115f290919063ffffffff16565b61167890919063ffffffff16565b60075461197990919063ffffffff16565b6007819055506000600881905550505b565b6000611859826109b3565b9050600081111561186f5761186e8282611c1a565b5b5050565b611973848573ffffffffffffffffffffffffffffffffffffffff166323b872dd905060e01b858585604051602401808473ffffffffffffffffffffffffffffffffffffffff1673ffffffffffffffffffffffffffffffffffffffff1681526020018373ffffffffffffffffffffffffffffffffffffffff1673ffffffffffffffffffffffffffffffffffffffff1681526020018281526020019350505050604051602081830303815290604052907bffffffffffffffffffffffffffffffffffffffffffffffffffffffff19166020820180517bffffffffffffffffffffffffffffffffffffffffffffffffffffffff8381831617835250505050612095565b50505050565b60006119bb83836040518060400160405280601b81526020017f536166654d6174683a206164646974696f6e206f766572666c6f7700000000008152506122e0565b905092915050565b611a8f838473ffffffffffffffffffffffffffffffffffffffff1663a9059cbb905060e01b8484604051602401808373ffffffffffffffffffffffffffffffffffffffff1673ffffffffffffffffffffffffffffffffffffffff16815260200182815260200192505050604051602081830303815290604052907bffffffffffffffffffffffffffffffffffffffffffffffffffffffff19166020820180517bffffffffffffffffffffffffffffffffffffffffffffffffffffffff8381831617835250505050612095565b505050565b60008083118290611b40576040517f08c379a00000000000000000000000000000000000000000000000000000000081526004018080602001828103825283818151815260200191508051906020019080838360005b83811015611b05578082015181840152602081019050611aea565b50505050905090810190601f168015611b325780820380516001836020036101000a031916815260200191505b509250505060405180910390fd5b506000838581611b4c57fe5b049050809150509392505050565b6000838311158290611c07576040517f08c379a00000000000000000000000000000000000000000000000000000000081526004018080602001828103825283818151815260200191508051906020019080838360005b83811015611bcc578082015181840152602081019050611bb1565b50505050905090810190601f168015611bf95780820380516001836020036101000a031916815260200191505b509250505060405180910390fd5b5060008385039050809150509392505050565b6000600460009054906101000a900473ffffffffffffffffffffffffffffffffffffffff1673ffffffffffffffffffffffffffffffffffffffff166370a08231306040518263ffffffff1660e01b8152600401808273ffffffffffffffffffffffffffffffffffffffff1673ffffffffffffffffffffffffffffffffffffffff16815260200191505060206040518083038186803b158015611cbb57600080fd5b505afa158015611ccf573d6000803e3d6000fd5b505050506040513d6020811015611ce557600080fd5b8101908080519060200190929190505050905080821115611eca57600460009054906101000a900473ffffffffffffffffffffffffffffffffffffffff1673ffffffffffffffffffffffffffffffffffffffff1663a9059cbb84836040518363ffffffff1660e01b8152600401808373ffffffffffffffffffffffffffffffffffffffff1673ffffffffffffffffffffffffffffffffffffffff16815260200182815260200192505050602060405180830381600087803b158015611da957600080fd5b505af1158015611dbd573d6000803e3d6000fd5b505050506040513d6020811015611dd357600080fd5b810190808051906020019092919050505050600460009054906101000a900473ffffffffffffffffffffffffffffffffffffffff1673ffffffffffffffffffffffffffffffffffffffff166370a08231306040518263ffffffff1660e01b8152600401808273ffffffffffffffffffffffffffffffffffffffff1673ffffffffffffffffffffffffffffffffffffffff16815260200191505060206040518083038186803b158015611e8457600080fd5b505afa158015611e98573d6000803e3d6000fd5b505050506040513d6020811015611eae57600080fd5b8101908080519060200190929190505050600681905550612090565b600460009054906101000a900473ffffffffffffffffffffffffffffffffffffffff1673ffffffffffffffffffffffffffffffffffffffff1663a9059cbb84846040518363ffffffff1660e01b8152600401808373ffffffffffffffffffffffffffffffffffffffff1673ffffffffffffffffffffffffffffffffffffffff16815260200182815260200192505050602060405180830381600087803b158015611f7357600080fd5b505af1158015611f87573d6000803e3d6000fd5b505050506040513d6020811015611f9d57600080fd5b810190808051906020019092919050505050600460009054906101000a900473ffffffffffffffffffffffffffffffffffffffff1673ffffffffffffffffffffffffffffffffffffffff166370a08231306040518263ffffffff1660e01b8152600401808273ffffffffffffffffffffffffffffffffffffffff1673ffffffffffffffffffffffffffffffffffffffff16815260200191505060206040518083038186803b15801561204e57600080fd5b505afa158015612062573d6000803e3d6000fd5b505050506040513d602081101561207857600080fd5b81019080805190602001909291905050506006819055505b505050565b6120b48273ffffffffffffffffffffffffffffffffffffffff1661239f565b612126576040517f08c379a000000000000000000000000000000000000000000000000000000000815260040180806020018281038252601f8152602001807f5361666542455032303a2063616c6c20746f206e6f6e2d636f6e74726163740081525060200191505060405180910390fd5b600060608373ffffffffffffffffffffffffffffffffffffffff16836040518082805190602001908083835b602083106121755780518252602082019150602081019050602083039250612152565b6001836020036101000a0380198251168184511680821785525050505050509050019150506000604051808303816000865af19150503d80600081146121d7576040519150601f19603f3d011682016040523d82523d6000602084013e6121dc565b606091505b509150915081612254576040517f08c379a00000000000000000000000000000000000000000000000000000000081526004018080602001828103825260208152602001807f5361666542455032303a206c6f772d6c6576656c2063616c6c206661696c656481525060200191505060405180910390fd5b6000815111156122da5780806020019051602081101561227357600080fd5b81019080805190602001909291905050506122d9576040517f08c379a000000000000000000000000000000000000000000000000000000000815260040180806020018281038252602a8152602001806123eb602a913960400191505060405180910390fd5b5b50505050565b6000808385019050848110158390612393576040517f08c379a00000000000000000000000000000000000000000000000000000000081526004018080602001828103825283818151815260200191508051906020019080838360005b8381101561235857808201518184015260208101905061233d565b50505050905090810190601f1680156123855780820380516001836020036101000a031916815260200191505b509250505060405180910390fd5b50809150509392505050565b60008060007fc5d2460186f7233c927e7db2dcc703c0e500b653ca82273b7bfad8045d85a47060001b9050833f91508082141580156123e157506000801b8214155b9250505091905056fe5361666542455032303a204245503230206f7065726174696f6e20646964206e6f742073756363656564536166654d6174683a206d756c7469706c69636174696f6e206f766572666c6f776f6e6c792070726f78792061646d696e2063616e206368616e676520627261696e73a265627a7a723158205db3098ce528f76bfd9d131a525d9c64c3a829102bffbb67ce7c6ada6acd5fe264736f6c63430005110032",
  "source": "pragma solidity ^0.5.16;\nimport \"./SafeBEP20.sol\";\nimport \"./IBEP20.sol\";\nimport \"./BAIVaultProxy.sol\";\nimport \"./BAIVaultStorage.sol\";\nimport \"./BAIVaultErrorReporter.sol\";\n\ncontract BAIVault is BAIVaultStorage {\n    using SafeMath for uint256;\n    using SafeBEP20 for IBEP20;\n\n    /// @notice Event emitted when BAI deposit\n    event Deposit(address indexed user, uint256 amount);\n\n    /// @notice Event emitted when BAI withrawal\n    event Withdraw(address indexed user, uint256 amount);\n\n    /// @notice Event emitted when admin changed\n    event AdminTransfered(address indexed oldAdmin, address indexed newAdmin);\n\n    constructor() public {\n        admin = msg.sender;\n    }\n\n    modifier onlyAdmin() {\n        require(msg.sender == admin, \"only admin can\");\n        _;\n    }\n\n    /*** Reentrancy Guard ***/\n\n    /**\n     * @dev Prevents a contract from calling itself, directly or indirectly.\n     */\n    modifier nonReentrant() {\n        require(_notEntered, \"re-entered\");\n        _notEntered = false;\n        _;\n        _notEntered = true; // get a gas-refund post-Istanbul\n    }\n\n    /**\n     * @notice Deposit BAI to BAIVault for BTNT allocation\n     * @param _amount The amount to deposit to vault\n     */\n    function deposit(uint256 _amount) public nonReentrant {\n        UserInfo storage user = userInfo[msg.sender];\n\n        updateVault();\n\n        // Transfer pending tokens to user\n        updateAndPayOutPending(msg.sender);\n\n        // Transfer in the amounts from user\n        if(_amount > 0) {\n            bai.safeTransferFrom(address(msg.sender), address(this), _amount);\n            user.amount = user.amount.add(_amount);\n        }\n\n        user.rewardDebt = user.amount.mul(accBTNTPerShare).div(1e18);\n        emit Deposit(msg.sender, _amount);\n    }\n\n    /**\n     * @notice Withdraw BAI from BAIVault\n     * @param _amount The amount to withdraw from vault\n     */\n    function withdraw(uint256 _amount) public nonReentrant {\n        _withdraw(msg.sender, _amount);\n    }\n\n    /**\n     * @notice Claim BTNT from BAIVault\n     */\n    function claim() public nonReentrant {\n        _withdraw(msg.sender, 0);\n    }\n\n    /**\n     * @notice Low level withdraw function\n     * @param account The account to withdraw from vault\n     * @param _amount The amount to withdraw from vault\n     */\n    function _withdraw(address account, uint256 _amount) internal {\n        UserInfo storage user = userInfo[account];\n        require(user.amount >= _amount, \"withdraw: not good\");\n\n        updateVault();\n        updateAndPayOutPending(account); // Update balances of account this is not withdrawal but claiming BTNT farmed\n\n        if(_amount > 0) {\n            user.amount = user.amount.sub(_amount);\n            bai.safeTransfer(address(account), _amount);\n        }\n        user.rewardDebt = user.amount.mul(accBTNTPerShare).div(1e18);\n\n        emit Withdraw(account, _amount);\n    }\n\n    /**\n     * @notice View function to see pending BTNT on frontend\n     * @param _user The user to see pending BTNT\n     */\n    function pendingBTNT(address _user) public view returns (uint256)\n    {\n        UserInfo storage user = userInfo[_user];\n\n        return user.amount.mul(accBTNTPerShare).div(1e18).sub(user.rewardDebt);\n    }\n\n    /**\n     * @notice Update and pay out pending BTNT to user\n     * @param account The user to pay out\n     */\n    function updateAndPayOutPending(address account) internal {\n        uint256 pending = pendingBTNT(account);\n\n        if(pending > 0) {\n            safeBTNTTransfer(account, pending);\n        }\n    }\n\n    /**\n     * @notice Safe BTNT transfer function, just in case if rounding error causes pool to not have enough BTNT\n     * @param _to The address that BTNT to be transfered\n     * @param _amount The amount that BTNT to be transfered\n     */\n    function safeBTNTTransfer(address _to, uint256 _amount) internal {\n        uint256 btntBal = btnt.balanceOf(address(this));\n\n        if (_amount > btntBal) {\n            btnt.transfer(_to, btntBal);\n            btntBalance = btnt.balanceOf(address(this));\n        } else {\n            btnt.transfer(_to, _amount);\n            btntBalance = btnt.balanceOf(address(this));\n        }\n    }\n\n    /**\n     * @notice Function that updates pending rewards\n     */\n    function updatePendingRewards() public {\n        uint256 newRewards = btnt.balanceOf(address(this)).sub(btntBalance);\n\n        if(newRewards > 0) {\n            btntBalance = btnt.balanceOf(address(this)); // If there is no change the balance didn't change\n            pendingRewards = pendingRewards.add(newRewards);\n        }\n    }\n\n    /**\n     * @notice Update reward variables to be up-to-date\n     */\n    function updateVault() internal {\n        uint256 baiBalance = bai.balanceOf(address(this));\n        if (baiBalance == 0) { // avoids division by 0 errors\n            return;\n        }\n\n        accBTNTPerShare = accBTNTPerShare.add(pendingRewards.mul(1e18).div(baiBalance));\n        pendingRewards = 0;\n    }\n\n    /**\n     * @dev Returns the address of the current admin\n     */\n    function getAdmin() public view returns (address) {\n        return admin;\n    }\n\n    /**\n     * @dev Burn the current admin\n     */\n    function burnAdmin() public onlyAdmin {\n        emit AdminTransfered(admin, address(0));\n        admin = address(0);\n    }\n\n    /**\n     * @dev Set the current admin to new address\n     */\n    function setNewAdmin(address newAdmin) public onlyAdmin {\n        require(newAdmin != address(0), \"new owner is the zero address\");\n        emit AdminTransfered(admin, newAdmin);\n        admin = newAdmin;\n    }\n\n    /*** Admin Functions ***/\n\n    function _become(BAIVaultProxy baiVaultProxy) public {\n        require(msg.sender == baiVaultProxy.admin(), \"only proxy admin can change brains\");\n        require(baiVaultProxy._acceptImplementation() == 0, \"change not authorized\");\n    }\n\n    function setBtntexInfo(address _btnt, address _bai) public onlyAdmin {\n        btnt = IBEP20(_btnt);\n        bai = IBEP20(_bai);\n\n        _notEntered = true;\n    }\n}\n",
  "sourcePath": "/home/aliwisam/AliWisamData/Personal/Orders/Sir Junaid/Gist/TruffleFlat/contracts/BAIVault.sol",
  "compiler": {
    "name": "solc",
    "version": "0.5.17+commit.d19bba13.Emscripten.clang"
  },
  "schemaVersion": "3.4.0",
  "updatedAt": "2021-06-16T15:51:17.641Z",
  "devdoc": {
    "methods": {
      "burnAdmin()": {
        "details": "Burn the current admin"
      },
      "deposit(uint256)": {
        "params": {
          "_amount": "The amount to deposit to vault"
        }
      },
      "getAdmin()": {
        "details": "Returns the address of the current admin"
      },
      "pendingBTNT(address)": {
        "params": {
          "_user": "The user to see pending BTNT"
        }
      },
      "setNewAdmin(address)": {
        "details": "Set the current admin to new address"
      },
      "withdraw(uint256)": {
        "params": {
          "_amount": "The amount to withdraw from vault"
        }
      }
    }
  },
  "userdoc": {
    "methods": {
      "_become(address)": {
        "notice": "* Admin Functions **"
      },
      "claim()": {
        "notice": "Claim BTNT from BAIVault"
      },
      "deposit(uint256)": {
        "notice": "Deposit BAI to BAIVault for BTNT allocation"
      },
      "pendingBTNT(address)": {
        "notice": "View function to see pending BTNT on frontend"
      },
      "updatePendingRewards()": {
        "notice": "Function that updates pending rewards"
      },
      "withdraw(uint256)": {
        "notice": "Withdraw BAI from BAIVault"
      }
    }
  }
}