{
  "contractName": "BBep20Delegator",
  "abi": [
    {
      "inputs": [
        {
          "internalType": "address",
          "name": "underlying_",
          "type": "address"
        },
        {
          "internalType": "contract ComptrollerInterface",
          "name": "comptroller_",
          "type": "address"
        },
        {
          "internalType": "contract InterestRateModel",
          "name": "interestRateModel_",
          "type": "address"
        },
        {
          "internalType": "uint256",
          "name": "initialExchangeRateMantissa_",
          "type": "uint256"
        },
        {
          "internalType": "string",
          "name": "name_",
          "type": "string"
        },
        {
          "internalType": "string",
          "name": "symbol_",
          "type": "string"
        },
        {
          "internalType": "uint8",
          "name": "decimals_",
          "type": "uint8"
        },
        {
          "internalType": "address payable",
          "name": "admin_",
          "type": "address"
        },
        {
          "internalType": "address",
          "name": "implementation_",
          "type": "address"
        },
        {
          "internalType": "bytes",
          "name": "becomeImplementationData",
          "type": "bytes"
        }
      ],
      "payable": false,
      "stateMutability": "nonpayable",
      "type": "constructor"
    },
    {
      "anonymous": false,
      "inputs": [
        {
          "indexed": false,
          "internalType": "uint256",
          "name": "cashPrior",
          "type": "uint256"
        },
        {
          "indexed": false,
          "internalType": "uint256",
          "name": "interestAccumulated",
          "type": "uint256"
        },
        {
          "indexed": false,
          "internalType": "uint256",
          "name": "borrowIndex",
          "type": "uint256"
        },
        {
          "indexed": false,
          "internalType": "uint256",
          "name": "totalBorrows",
          "type": "uint256"
        }
      ],
      "name": "AccrueInterest",
      "type": "event"
    },
    {
      "anonymous": false,
      "inputs": [
        {
          "indexed": true,
          "internalType": "address",
          "name": "owner",
          "type": "address"
        },
        {
          "indexed": true,
          "internalType": "address",
          "name": "spender",
          "type": "address"
        },
        {
          "indexed": false,
          "internalType": "uint256",
          "name": "amount",
          "type": "uint256"
        }
      ],
      "name": "Approval",
      "type": "event"
    },
    {
      "anonymous": false,
      "inputs": [
        {
          "indexed": false,
          "internalType": "address",
          "name": "borrower",
          "type": "address"
        },
        {
          "indexed": false,
          "internalType": "uint256",
          "name": "borrowAmount",
          "type": "uint256"
        },
        {
          "indexed": false,
          "internalType": "uint256",
          "name": "accountBorrows",
          "type": "uint256"
        },
        {
          "indexed": false,
          "internalType": "uint256",
          "name": "totalBorrows",
          "type": "uint256"
        }
      ],
      "name": "Borrow",
      "type": "event"
    },
    {
      "anonymous": false,
      "inputs": [
        {
          "indexed": false,
          "internalType": "uint256",
          "name": "error",
          "type": "uint256"
        },
        {
          "indexed": false,
          "internalType": "uint256",
          "name": "info",
          "type": "uint256"
        },
        {
          "indexed": false,
          "internalType": "uint256",
          "name": "detail",
          "type": "uint256"
        }
      ],
      "name": "Failure",
      "type": "event"
    },
    {
      "anonymous": false,
      "inputs": [
        {
          "indexed": false,
          "internalType": "address",
          "name": "liquidator",
          "type": "address"
        },
        {
          "indexed": false,
          "internalType": "address",
          "name": "borrower",
          "type": "address"
        },
        {
          "indexed": false,
          "internalType": "uint256",
          "name": "repayAmount",
          "type": "uint256"
        },
        {
          "indexed": false,
          "internalType": "address",
          "name": "bTokenCollateral",
          "type": "address"
        },
        {
          "indexed": false,
          "internalType": "uint256",
          "name": "seizeTokens",
          "type": "uint256"
        }
      ],
      "name": "LiquidateBorrow",
      "type": "event"
    },
    {
      "anonymous": false,
      "inputs": [
        {
          "indexed": false,
          "internalType": "address",
          "name": "minter",
          "type": "address"
        },
        {
          "indexed": false,
          "internalType": "uint256",
          "name": "mintAmount",
          "type": "uint256"
        },
        {
          "indexed": false,
          "internalType": "uint256",
          "name": "mintTokens",
          "type": "uint256"
        }
      ],
      "name": "Mint",
      "type": "event"
    },
    {
      "anonymous": false,
      "inputs": [
        {
          "indexed": false,
          "internalType": "address",
          "name": "oldAdmin",
          "type": "address"
        },
        {
          "indexed": false,
          "internalType": "address",
          "name": "newAdmin",
          "type": "address"
        }
      ],
      "name": "NewAdmin",
      "type": "event"
    },
    {
      "anonymous": false,
      "inputs": [
        {
          "indexed": false,
          "internalType": "contract ComptrollerInterface",
          "name": "oldComptroller",
          "type": "address"
        },
        {
          "indexed": false,
          "internalType": "contract ComptrollerInterface",
          "name": "newComptroller",
          "type": "address"
        }
      ],
      "name": "NewComptroller",
      "type": "event"
    },
    {
      "anonymous": false,
      "inputs": [
        {
          "indexed": false,
          "internalType": "address",
          "name": "oldImplementation",
          "type": "address"
        },
        {
          "indexed": false,
          "internalType": "address",
          "name": "newImplementation",
          "type": "address"
        }
      ],
      "name": "NewImplementation",
      "type": "event"
    },
    {
      "anonymous": false,
      "inputs": [
        {
          "indexed": false,
          "internalType": "contract InterestRateModel",
          "name": "oldInterestRateModel",
          "type": "address"
        },
        {
          "indexed": false,
          "internalType": "contract InterestRateModel",
          "name": "newInterestRateModel",
          "type": "address"
        }
      ],
      "name": "NewMarketInterestRateModel",
      "type": "event"
    },
    {
      "anonymous": false,
      "inputs": [
        {
          "indexed": false,
          "internalType": "address",
          "name": "oldPendingAdmin",
          "type": "address"
        },
        {
          "indexed": false,
          "internalType": "address",
          "name": "newPendingAdmin",
          "type": "address"
        }
      ],
      "name": "NewPendingAdmin",
      "type": "event"
    },
    {
      "anonymous": false,
      "inputs": [
        {
          "indexed": false,
          "internalType": "uint256",
          "name": "oldReserveFactorMantissa",
          "type": "uint256"
        },
        {
          "indexed": false,
          "internalType": "uint256",
          "name": "newReserveFactorMantissa",
          "type": "uint256"
        }
      ],
      "name": "NewReserveFactor",
      "type": "event"
    },
    {
      "anonymous": false,
      "inputs": [
        {
          "indexed": false,
          "internalType": "address",
          "name": "redeemer",
          "type": "address"
        },
        {
          "indexed": false,
          "internalType": "uint256",
          "name": "redeemAmount",
          "type": "uint256"
        },
        {
          "indexed": false,
          "internalType": "uint256",
          "name": "redeemTokens",
          "type": "uint256"
        }
      ],
      "name": "Redeem",
      "type": "event"
    },
    {
      "anonymous": false,
      "inputs": [
        {
          "indexed": false,
          "internalType": "address",
          "name": "redeemer",
          "type": "address"
        },
        {
          "indexed": false,
          "internalType": "uint256",
          "name": "feeAmount",
          "type": "uint256"
        },
        {
          "indexed": false,
          "internalType": "uint256",
          "name": "redeemTokens",
          "type": "uint256"
        }
      ],
      "name": "RedeemFee",
      "type": "event"
    },
    {
      "anonymous": false,
      "inputs": [
        {
          "indexed": false,
          "internalType": "address",
          "name": "payer",
          "type": "address"
        },
        {
          "indexed": false,
          "internalType": "address",
          "name": "borrower",
          "type": "address"
        },
        {
          "indexed": false,
          "internalType": "uint256",
          "name": "repayAmount",
          "type": "uint256"
        },
        {
          "indexed": false,
          "internalType": "uint256",
          "name": "accountBorrows",
          "type": "uint256"
        },
        {
          "indexed": false,
          "internalType": "uint256",
          "name": "totalBorrows",
          "type": "uint256"
        }
      ],
      "name": "RepayBorrow",
      "type": "event"
    },
    {
      "anonymous": false,
      "inputs": [
        {
          "indexed": false,
          "internalType": "address",
          "name": "benefactor",
          "type": "address"
        },
        {
          "indexed": false,
          "internalType": "uint256",
          "name": "addAmount",
          "type": "uint256"
        },
        {
          "indexed": false,
          "internalType": "uint256",
          "name": "newTotalReserves",
          "type": "uint256"
        }
      ],
      "name": "ReservesAdded",
      "type": "event"
    },
    {
      "anonymous": false,
      "inputs": [
        {
          "indexed": false,
          "internalType": "address",
          "name": "admin",
          "type": "address"
        },
        {
          "indexed": false,
          "internalType": "uint256",
          "name": "reduceAmount",
          "type": "uint256"
        },
        {
          "indexed": false,
          "internalType": "uint256",
          "name": "newTotalReserves",
          "type": "uint256"
        }
      ],
      "name": "ReservesReduced",
      "type": "event"
    },
    {
      "anonymous": false,
      "inputs": [
        {
          "indexed": true,
          "internalType": "address",
          "name": "from",
          "type": "address"
        },
        {
          "indexed": true,
          "internalType": "address",
          "name": "to",
          "type": "address"
        },
        {
          "indexed": false,
          "internalType": "uint256",
          "name": "amount",
          "type": "uint256"
        }
      ],
      "name": "Transfer",
      "type": "event"
    },
    {
      "payable": true,
      "stateMutability": "payable",
      "type": "fallback"
    },
    {
      "constant": true,
      "inputs": [],
      "name": "accrualBlockNumber",
      "outputs": [
        {
          "internalType": "uint256",
          "name": "",
          "type": "uint256"
        }
      ],
      "payable": false,
      "stateMutability": "view",
      "type": "function"
    },
    {
      "constant": true,
      "inputs": [],
      "name": "admin",
      "outputs": [
        {
          "internalType": "address payable",
          "name": "",
          "type": "address"
        }
      ],
      "payable": false,
      "stateMutability": "view",
      "type": "function"
    },
    {
      "constant": true,
      "inputs": [],
      "name": "borrowIndex",
      "outputs": [
        {
          "internalType": "uint256",
          "name": "",
          "type": "uint256"
        }
      ],
      "payable": false,
      "stateMutability": "view",
      "type": "function"
    },
    {
      "constant": true,
      "inputs": [],
      "name": "comptroller",
      "outputs": [
        {
          "internalType": "contract ComptrollerInterface",
          "name": "",
          "type": "address"
        }
      ],
      "payable": false,
      "stateMutability": "view",
      "type": "function"
    },
    {
      "constant": true,
      "inputs": [],
      "name": "decimals",
      "outputs": [
        {
          "internalType": "uint8",
          "name": "",
          "type": "uint8"
        }
      ],
      "payable": false,
      "stateMutability": "view",
      "type": "function"
    },
    {
      "constant": true,
      "inputs": [],
      "name": "implementation",
      "outputs": [
        {
          "internalType": "address",
          "name": "",
          "type": "address"
        }
      ],
      "payable": false,
      "stateMutability": "view",
      "type": "function"
    },
    {
      "constant": true,
      "inputs": [],
      "name": "interestRateModel",
      "outputs": [
        {
          "internalType": "contract InterestRateModel",
          "name": "",
          "type": "address"
        }
      ],
      "payable": false,
      "stateMutability": "view",
      "type": "function"
    },
    {
      "constant": true,
      "inputs": [],
      "name": "isBToken",
      "outputs": [
        {
          "internalType": "bool",
          "name": "",
          "type": "bool"
        }
      ],
      "payable": false,
      "stateMutability": "view",
      "type": "function"
    },
    {
      "constant": true,
      "inputs": [],
      "name": "name",
      "outputs": [
        {
          "internalType": "string",
          "name": "",
          "type": "string"
        }
      ],
      "payable": false,
      "stateMutability": "view",
      "type": "function"
    },
    {
      "constant": true,
      "inputs": [],
      "name": "pendingAdmin",
      "outputs": [
        {
          "internalType": "address payable",
          "name": "",
          "type": "address"
        }
      ],
      "payable": false,
      "stateMutability": "view",
      "type": "function"
    },
    {
      "constant": true,
      "inputs": [],
      "name": "reserveFactorMantissa",
      "outputs": [
        {
          "internalType": "uint256",
          "name": "",
          "type": "uint256"
        }
      ],
      "payable": false,
      "stateMutability": "view",
      "type": "function"
    },
    {
      "constant": true,
      "inputs": [],
      "name": "symbol",
      "outputs": [
        {
          "internalType": "string",
          "name": "",
          "type": "string"
        }
      ],
      "payable": false,
      "stateMutability": "view",
      "type": "function"
    },
    {
      "constant": true,
      "inputs": [],
      "name": "totalBorrows",
      "outputs": [
        {
          "internalType": "uint256",
          "name": "",
          "type": "uint256"
        }
      ],
      "payable": false,
      "stateMutability": "view",
      "type": "function"
    },
    {
      "constant": true,
      "inputs": [],
      "name": "totalReserves",
      "outputs": [
        {
          "internalType": "uint256",
          "name": "",
          "type": "uint256"
        }
      ],
      "payable": false,
      "stateMutability": "view",
      "type": "function"
    },
    {
      "constant": true,
      "inputs": [],
      "name": "totalSupply",
      "outputs": [
        {
          "internalType": "uint256",
          "name": "",
          "type": "uint256"
        }
      ],
      "payable": false,
      "stateMutability": "view",
      "type": "function"
    },
    {
      "constant": true,
      "inputs": [],
      "name": "underlying",
      "outputs": [
        {
          "internalType": "address",
          "name": "",
          "type": "address"
        }
      ],
      "payable": false,
      "stateMutability": "view",
      "type": "function"
    },
    {
      "constant": false,
      "inputs": [
        {
          "internalType": "address",
          "name": "implementation_",
          "type": "address"
        },
        {
          "internalType": "bool",
          "name": "allowResign",
          "type": "bool"
        },
        {
          "internalType": "bytes",
          "name": "becomeImplementationData",
          "type": "bytes"
        }
      ],
      "name": "_setImplementation",
      "outputs": [],
      "payable": false,
      "stateMutability": "nonpayable",
      "type": "function"
    },
    {
      "constant": false,
      "inputs": [
        {
          "internalType": "uint256",
          "name": "mintAmount",
          "type": "uint256"
        }
      ],
      "name": "mint",
      "outputs": [
        {
          "internalType": "uint256",
          "name": "",
          "type": "uint256"
        }
      ],
      "payable": false,
      "stateMutability": "nonpayable",
      "type": "function"
    },
    {
      "constant": false,
      "inputs": [
        {
          "internalType": "uint256",
          "name": "redeemTokens",
          "type": "uint256"
        }
      ],
      "name": "redeem",
      "outputs": [
        {
          "internalType": "uint256",
          "name": "",
          "type": "uint256"
        }
      ],
      "payable": false,
      "stateMutability": "nonpayable",
      "type": "function"
    },
    {
      "constant": false,
      "inputs": [
        {
          "internalType": "uint256",
          "name": "redeemAmount",
          "type": "uint256"
        }
      ],
      "name": "redeemUnderlying",
      "outputs": [
        {
          "internalType": "uint256",
          "name": "",
          "type": "uint256"
        }
      ],
      "payable": false,
      "stateMutability": "nonpayable",
      "type": "function"
    },
    {
      "constant": false,
      "inputs": [
        {
          "internalType": "uint256",
          "name": "borrowAmount",
          "type": "uint256"
        }
      ],
      "name": "borrow",
      "outputs": [
        {
          "internalType": "uint256",
          "name": "",
          "type": "uint256"
        }
      ],
      "payable": false,
      "stateMutability": "nonpayable",
      "type": "function"
    },
    {
      "constant": false,
      "inputs": [
        {
          "internalType": "uint256",
          "name": "repayAmount",
          "type": "uint256"
        }
      ],
      "name": "repayBorrow",
      "outputs": [
        {
          "internalType": "uint256",
          "name": "",
          "type": "uint256"
        }
      ],
      "payable": false,
      "stateMutability": "nonpayable",
      "type": "function"
    },
    {
      "constant": false,
      "inputs": [
        {
          "internalType": "address",
          "name": "borrower",
          "type": "address"
        },
        {
          "internalType": "uint256",
          "name": "repayAmount",
          "type": "uint256"
        }
      ],
      "name": "repayBorrowBehalf",
      "outputs": [
        {
          "internalType": "uint256",
          "name": "",
          "type": "uint256"
        }
      ],
      "payable": false,
      "stateMutability": "nonpayable",
      "type": "function"
    },
    {
      "constant": false,
      "inputs": [
        {
          "internalType": "address",
          "name": "borrower",
          "type": "address"
        },
        {
          "internalType": "uint256",
          "name": "repayAmount",
          "type": "uint256"
        },
        {
          "internalType": "contract BTokenInterface",
          "name": "bTokenCollateral",
          "type": "address"
        }
      ],
      "name": "liquidateBorrow",
      "outputs": [
        {
          "internalType": "uint256",
          "name": "",
          "type": "uint256"
        }
      ],
      "payable": false,
      "stateMutability": "nonpayable",
      "type": "function"
    },
    {
      "constant": false,
      "inputs": [
        {
          "internalType": "address",
          "name": "dst",
          "type": "address"
        },
        {
          "internalType": "uint256",
          "name": "amount",
          "type": "uint256"
        }
      ],
      "name": "transfer",
      "outputs": [
        {
          "internalType": "bool",
          "name": "",
          "type": "bool"
        }
      ],
      "payable": false,
      "stateMutability": "nonpayable",
      "type": "function"
    },
    {
      "constant": false,
      "inputs": [
        {
          "internalType": "address",
          "name": "src",
          "type": "address"
        },
        {
          "internalType": "address",
          "name": "dst",
          "type": "address"
        },
        {
          "internalType": "uint256",
          "name": "amount",
          "type": "uint256"
        }
      ],
      "name": "transferFrom",
      "outputs": [
        {
          "internalType": "bool",
          "name": "",
          "type": "bool"
        }
      ],
      "payable": false,
      "stateMutability": "nonpayable",
      "type": "function"
    },
    {
      "constant": false,
      "inputs": [
        {
          "internalType": "address",
          "name": "spender",
          "type": "address"
        },
        {
          "internalType": "uint256",
          "name": "amount",
          "type": "uint256"
        }
      ],
      "name": "approve",
      "outputs": [
        {
          "internalType": "bool",
          "name": "",
          "type": "bool"
        }
      ],
      "payable": false,
      "stateMutability": "nonpayable",
      "type": "function"
    },
    {
      "constant": true,
      "inputs": [
        {
          "internalType": "address",
          "name": "owner",
          "type": "address"
        },
        {
          "internalType": "address",
          "name": "spender",
          "type": "address"
        }
      ],
      "name": "allowance",
      "outputs": [
        {
          "internalType": "uint256",
          "name": "",
          "type": "uint256"
        }
      ],
      "payable": false,
      "stateMutability": "view",
      "type": "function"
    },
    {
      "constant": true,
      "inputs": [
        {
          "internalType": "address",
          "name": "owner",
          "type": "address"
        }
      ],
      "name": "balanceOf",
      "outputs": [
        {
          "internalType": "uint256",
          "name": "",
          "type": "uint256"
        }
      ],
      "payable": false,
      "stateMutability": "view",
      "type": "function"
    },
    {
      "constant": false,
      "inputs": [
        {
          "internalType": "address",
          "name": "owner",
          "type": "address"
        }
      ],
      "name": "balanceOfUnderlying",
      "outputs": [
        {
          "internalType": "uint256",
          "name": "",
          "type": "uint256"
        }
      ],
      "payable": false,
      "stateMutability": "nonpayable",
      "type": "function"
    },
    {
      "constant": true,
      "inputs": [
        {
          "internalType": "address",
          "name": "account",
          "type": "address"
        }
      ],
      "name": "getAccountSnapshot",
      "outputs": [
        {
          "internalType": "uint256",
          "name": "",
          "type": "uint256"
        },
        {
          "internalType": "uint256",
          "name": "",
          "type": "uint256"
        },
        {
          "internalType": "uint256",
          "name": "",
          "type": "uint256"
        },
        {
          "internalType": "uint256",
          "name": "",
          "type": "uint256"
        }
      ],
      "payable": false,
      "stateMutability": "view",
      "type": "function"
    },
    {
      "constant": true,
      "inputs": [],
      "name": "borrowRatePerBlock",
      "outputs": [
        {
          "internalType": "uint256",
          "name": "",
          "type": "uint256"
        }
      ],
      "payable": false,
      "stateMutability": "view",
      "type": "function"
    },
    {
      "constant": true,
      "inputs": [],
      "name": "supplyRatePerBlock",
      "outputs": [
        {
          "internalType": "uint256",
          "name": "",
          "type": "uint256"
        }
      ],
      "payable": false,
      "stateMutability": "view",
      "type": "function"
    },
    {
      "constant": false,
      "inputs": [],
      "name": "totalBorrowsCurrent",
      "outputs": [
        {
          "internalType": "uint256",
          "name": "",
          "type": "uint256"
        }
      ],
      "payable": false,
      "stateMutability": "nonpayable",
      "type": "function"
    },
    {
      "constant": false,
      "inputs": [
        {
          "internalType": "address",
          "name": "account",
          "type": "address"
        }
      ],
      "name": "borrowBalanceCurrent",
      "outputs": [
        {
          "internalType": "uint256",
          "name": "",
          "type": "uint256"
        }
      ],
      "payable": false,
      "stateMutability": "nonpayable",
      "type": "function"
    },
    {
      "constant": true,
      "inputs": [
        {
          "internalType": "address",
          "name": "account",
          "type": "address"
        }
      ],
      "name": "borrowBalanceStored",
      "outputs": [
        {
          "internalType": "uint256",
          "name": "",
          "type": "uint256"
        }
      ],
      "payable": false,
      "stateMutability": "view",
      "type": "function"
    },
    {
      "constant": false,
      "inputs": [],
      "name": "exchangeRateCurrent",
      "outputs": [
        {
          "internalType": "uint256",
          "name": "",
          "type": "uint256"
        }
      ],
      "payable": false,
      "stateMutability": "nonpayable",
      "type": "function"
    },
    {
      "constant": true,
      "inputs": [],
      "name": "exchangeRateStored",
      "outputs": [
        {
          "internalType": "uint256",
          "name": "",
          "type": "uint256"
        }
      ],
      "payable": false,
      "stateMutability": "view",
      "type": "function"
    },
    {
      "constant": true,
      "inputs": [],
      "name": "getCash",
      "outputs": [
        {
          "internalType": "uint256",
          "name": "",
          "type": "uint256"
        }
      ],
      "payable": false,
      "stateMutability": "view",
      "type": "function"
    },
    {
      "constant": false,
      "inputs": [],
      "name": "accrueInterest",
      "outputs": [
        {
          "internalType": "uint256",
          "name": "",
          "type": "uint256"
        }
      ],
      "payable": false,
      "stateMutability": "nonpayable",
      "type": "function"
    },
    {
      "constant": false,
      "inputs": [
        {
          "internalType": "address",
          "name": "liquidator",
          "type": "address"
        },
        {
          "internalType": "address",
          "name": "borrower",
          "type": "address"
        },
        {
          "internalType": "uint256",
          "name": "seizeTokens",
          "type": "uint256"
        }
      ],
      "name": "seize",
      "outputs": [
        {
          "internalType": "uint256",
          "name": "",
          "type": "uint256"
        }
      ],
      "payable": false,
      "stateMutability": "nonpayable",
      "type": "function"
    },
    {
      "constant": false,
      "inputs": [
        {
          "internalType": "address payable",
          "name": "newPendingAdmin",
          "type": "address"
        }
      ],
      "name": "_setPendingAdmin",
      "outputs": [
        {
          "internalType": "uint256",
          "name": "",
          "type": "uint256"
        }
      ],
      "payable": false,
      "stateMutability": "nonpayable",
      "type": "function"
    },
    {
      "constant": false,
      "inputs": [
        {
          "internalType": "contract ComptrollerInterface",
          "name": "newComptroller",
          "type": "address"
        }
      ],
      "name": "_setComptroller",
      "outputs": [
        {
          "internalType": "uint256",
          "name": "",
          "type": "uint256"
        }
      ],
      "payable": false,
      "stateMutability": "nonpayable",
      "type": "function"
    },
    {
      "constant": false,
      "inputs": [
        {
          "internalType": "uint256",
          "name": "newReserveFactorMantissa",
          "type": "uint256"
        }
      ],
      "name": "_setReserveFactor",
      "outputs": [
        {
          "internalType": "uint256",
          "name": "",
          "type": "uint256"
        }
      ],
      "payable": false,
      "stateMutability": "nonpayable",
      "type": "function"
    },
    {
      "constant": false,
      "inputs": [],
      "name": "_acceptAdmin",
      "outputs": [
        {
          "internalType": "uint256",
          "name": "",
          "type": "uint256"
        }
      ],
      "payable": false,
      "stateMutability": "nonpayable",
      "type": "function"
    },
    {
      "constant": false,
      "inputs": [
        {
          "internalType": "uint256",
          "name": "addAmount",
          "type": "uint256"
        }
      ],
      "name": "_addReserves",
      "outputs": [
        {
          "internalType": "uint256",
          "name": "",
          "type": "uint256"
        }
      ],
      "payable": false,
      "stateMutability": "nonpayable",
      "type": "function"
    },
    {
      "constant": false,
      "inputs": [
        {
          "internalType": "uint256",
          "name": "reduceAmount",
          "type": "uint256"
        }
      ],
      "name": "_reduceReserves",
      "outputs": [
        {
          "internalType": "uint256",
          "name": "",
          "type": "uint256"
        }
      ],
      "payable": false,
      "stateMutability": "nonpayable",
      "type": "function"
    },
    {
      "constant": false,
      "inputs": [
        {
          "internalType": "contract InterestRateModel",
          "name": "newInterestRateModel",
          "type": "address"
        }
      ],
      "name": "_setInterestRateModel",
      "outputs": [
        {
          "internalType": "uint256",
          "name": "",
          "type": "uint256"
        }
      ],
      "payable": false,
      "stateMutability": "nonpayable",
      "type": "function"
    },
    {
      "constant": false,
      "inputs": [
        {
          "internalType": "bytes",
          "name": "data",
          "type": "bytes"
        }
      ],
      "name": "delegateToImplementation",
      "outputs": [
        {
          "internalType": "bytes",
          "name": "",
          "type": "bytes"
        }
      ],
      "payable": false,
      "stateMutability": "nonpayable",
      "type": "function"
    },
    {
      "constant": true,
      "inputs": [
        {
          "internalType": "bytes",
          "name": "data",
          "type": "bytes"
        }
      ],
      "name": "delegateToViewImplementation",
      "outputs": [
        {
          "internalType": "bytes",
          "name": "",
          "type": "bytes"
        }
      ],
      "payable": false,
      "stateMutability": "view",
      "type": "function"
    }
  ],
  "bytecode": "0x60806040523480156200001157600080fd5b506040516200469d3803806200469d83398181016040526101408110156200003857600080fd5b8101908080519060200190929190805190602001909291908051906020019092919080519060200190929190805160405193929190846401000000008211156200008157600080fd5b838201915060208201858111156200009857600080fd5b8251866001820283011164010000000082111715620000b657600080fd5b8083526020830192505050908051906020019080838360005b83811015620000ec578082015181840152602081019050620000cf565b50505050905090810190601f1680156200011a5780820380516001836020036101000a031916815260200191505b50604052602001805160405193929190846401000000008211156200013e57600080fd5b838201915060208201858111156200015557600080fd5b82518660018202830111640100000000821117156200017357600080fd5b8083526020830192505050908051906020019080838360005b83811015620001a95780820151818401526020810190506200018c565b50505050905090810190601f168015620001d75780820380516001836020036101000a031916815260200191505b50604052602001805190602001909291908051906020019092919080519060200190929190805160405193929190846401000000008211156200021957600080fd5b838201915060208201858111156200023057600080fd5b82518660018202830111640100000000821117156200024e57600080fd5b8083526020830192505050908051906020019080838360005b838110156200028457808201518184015260208101905062000267565b50505050905090810190601f168015620002b25780820380516001836020036101000a031916815260200191505b5060405250505033600360016101000a81548173ffffffffffffffffffffffffffffffffffffffff021916908373ffffffffffffffffffffffffffffffffffffffff16021790555062000523828b8b8b8b8b8b8b604051602401808873ffffffffffffffffffffffffffffffffffffffff1673ffffffffffffffffffffffffffffffffffffffff1681526020018773ffffffffffffffffffffffffffffffffffffffff1673ffffffffffffffffffffffffffffffffffffffff1681526020018673ffffffffffffffffffffffffffffffffffffffff1673ffffffffffffffffffffffffffffffffffffffff16815260200185815260200180602001806020018460ff1660ff168152602001838103835286818151815260200191508051906020019080838360005b83811015620003f7578082015181840152602081019050620003da565b50505050905090810190601f168015620004255780820380516001836020036101000a031916815260200191505b50838103825285818151815260200191508051906020019080838360005b838110156200046057808201518184015260208101905062000443565b50505050905090810190601f1680156200048e5780820380516001836020036101000a031916815260200191505b5099505050505050505050506040516020818303038152906040527f1a31d465000000000000000000000000000000000000000000000000000000007bffffffffffffffffffffffffffffffffffffffffffffffffffffffff19166020820180517bffffffffffffffffffffffffffffffffffffffffffffffffffffffff83818316178352505050506200058960201b60201c565b5062000538826000836200066460201b60201c565b82600360016101000a81548173ffffffffffffffffffffffffffffffffffffffff021916908373ffffffffffffffffffffffffffffffffffffffff1602179055505050505050505050505062000a13565b6060600060608473ffffffffffffffffffffffffffffffffffffffff16846040518082805190602001908083835b60208310620005dc5780518252602082019150602081019050602083039250620005b7565b6001836020036101000a038019825116818451168082178552505050505050905001915050600060405180830381855af49150503d80600081146200063e576040519150601f19603f3d011682016040523d82523d6000602084013e62000643565b606091505b5091509150600082141562000659573d60208201fd5b809250505092915050565b600360019054906101000a900473ffffffffffffffffffffffffffffffffffffffff1673ffffffffffffffffffffffffffffffffffffffff163373ffffffffffffffffffffffffffffffffffffffff16146200070c576040517f08c379a0000000000000000000000000000000000000000000000000000000008152600401808060200182810382526039815260200180620046646039913960400191505060405180910390fd5b8115620007a857620007a66040516024016040516020818303038152906040527f153ab505000000000000000000000000000000000000000000000000000000007bffffffffffffffffffffffffffffffffffffffffffffffffffffffff19166020820180517bffffffffffffffffffffffffffffffffffffffffffffffffffffffff8381831617835250505050620009d660201b60201c565b505b6000601260009054906101000a900473ffffffffffffffffffffffffffffffffffffffff16905083601260006101000a81548173ffffffffffffffffffffffffffffffffffffffff021916908373ffffffffffffffffffffffffffffffffffffffff16021790555062000916826040516024018080602001828103825283818151815260200191508051906020019080838360005b838110156200085a5780820151818401526020810190506200083d565b50505050905090810190601f168015620008885780820380516001836020036101000a031916815260200191505b50925050506040516020818303038152906040527f56e67728000000000000000000000000000000000000000000000000000000007bffffffffffffffffffffffffffffffffffffffffffffffffffffffff19166020820180517bffffffffffffffffffffffffffffffffffffffffffffffffffffffff8381831617835250505050620009d660201b60201c565b507fd604de94d45953f9138079ec1b82d533cb2160c906d1076d1f7ed54befbca97a81601260009054906101000a900473ffffffffffffffffffffffffffffffffffffffff16604051808373ffffffffffffffffffffffffffffffffffffffff1673ffffffffffffffffffffffffffffffffffffffff1681526020018273ffffffffffffffffffffffffffffffffffffffff1673ffffffffffffffffffffffffffffffffffffffff1681526020019250505060405180910390a150505050565b606062000a0c601260009054906101000a900473ffffffffffffffffffffffffffffffffffffffff16836200058960201b60201c565b9050919050565b613c418062000a236000396000f3fe6080604052600436106102c95760003560e01c806373acee9811610175578063bd6d894d116100dc578063f2b3abbd11610095578063f851a4401161006f578063f851a4401461156c578063f8f9da28146115c3578063fbb62337146115ee578063fca7820b1461161d576102c9565b8063f2b3abbd14611421578063f3fdb15a14611486578063f5e3c462146114dd576102c9565b8063bd6d894d1461122e578063c37f68e214611259578063c5ebeaec146112d3578063db006a7514611322578063dd62ed3e14611371578063e9c714f2146113f6576102c9565b8063a6afed951161012e578063a6afed9514611046578063a9059cbb14611071578063aa5af0fd146110e4578063ae9d70b01461110f578063b2a02ff11461113a578063b71d1a0c146111c9576102c9565b806373acee9814610e5d578063852a12e314610e885780638f840ddd14610ed757806395d89b4114610f0257806395dd919314610f92578063a0712d6814610ff7576102c9565b80633af9e66911610234578063555bcc40116101ed578063601a0bf1116101c7578063601a0bf114610d275780636c540baf14610d765780636f307dc314610da157806370a0823114610df8576102c9565b8063555bcc4014610b855780635c60da1b14610c795780635fe3b56714610cd0576102c9565b80633af9e669146108d55780633b1d21a21461093a5780633e941010146109655780634487152f146109b45780634576b5db14610af557806347bd371814610b5a576102c9565b806318160ddd1161028657806318160ddd146106f5578063182df0f51461072057806323b872dd1461074b5780632608f818146107de578063267822471461084d578063313ce567146108a4576102c9565b806306fdde03146103d25780630933c1ed14610462578063095ea7b3146105a35780630e75270214610616578063173b99041461066557806317bfdfbc14610690575b60003414610322576040517f08c379a0000000000000000000000000000000000000000000000000000000008152600401808060200182810382526038815260200180613bd56038913960400191505060405180910390fd5b6000601260009054906101000a900473ffffffffffffffffffffffffffffffffffffffff1673ffffffffffffffffffffffffffffffffffffffff16600036604051808383808284378083019250505092505050600060405180830381855af49150503d80600081146103b0576040519150601f19603f3d011682016040523d82523d6000602084013e6103b5565b606091505b505090506040513d6000823e81600081146103ce573d82f35b3d82fd5b3480156103de57600080fd5b506103e761166c565b6040518080602001828103825283818151815260200191508051906020019080838360005b8381101561042757808201518184015260208101905061040c565b50505050905090810190601f1680156104545780820380516001836020036101000a031916815260200191505b509250505060405180910390f35b34801561046e57600080fd5b506105286004803603602081101561048557600080fd5b81019080803590602001906401000000008111156104a257600080fd5b8201836020820111156104b457600080fd5b803590602001918460018302840111640100000000831117156104d657600080fd5b91908080601f016020809104026020016040519081016040528093929190818152602001838380828437600081840152601f19601f82011690508083019250505050505050919291929050505061170a565b6040518080602001828103825283818151815260200191508051906020019080838360005b8381101561056857808201518184015260208101905061054d565b50505050905090810190601f1680156105955780820380516001836020036101000a031916815260200191505b509250505060405180910390f35b3480156105af57600080fd5b506105fc600480360360408110156105c657600080fd5b81019080803573ffffffffffffffffffffffffffffffffffffffff1690602001909291908035906020019092919050505061173f565b604051808215151515815260200191505060405180910390f35b34801561062257600080fd5b5061064f6004803603602081101561063957600080fd5b810190808035906020019092919050505061183e565b6040518082815260200191505060405180910390f35b34801561067157600080fd5b5061067a611908565b6040518082815260200191505060405180910390f35b34801561069c57600080fd5b506106df600480360360208110156106b357600080fd5b81019080803573ffffffffffffffffffffffffffffffffffffffff16906020019092919050505061190e565b6040518082815260200191505060405180910390f35b34801561070157600080fd5b5061070a611a04565b6040518082815260200191505060405180910390f35b34801561072c57600080fd5b50610735611a0a565b6040518082815260200191505060405180910390f35b34801561075757600080fd5b506107c46004803603606081101561076e57600080fd5b81019080803573ffffffffffffffffffffffffffffffffffffffff169060200190929190803573ffffffffffffffffffffffffffffffffffffffff16906020019092919080359060200190929190505050611ac7565b604051808215151515815260200191505060405180910390f35b3480156107ea57600080fd5b506108376004803603604081101561080157600080fd5b81019080803573ffffffffffffffffffffffffffffffffffffffff16906020019092919080359060200190929190505050611bfb565b6040518082815260200191505060405180910390f35b34801561085957600080fd5b50610862611cfa565b604051808273ffffffffffffffffffffffffffffffffffffffff1673ffffffffffffffffffffffffffffffffffffffff16815260200191505060405180910390f35b3480156108b057600080fd5b506108b9611d20565b604051808260ff1660ff16815260200191505060405180910390f35b3480156108e157600080fd5b50610924600480360360208110156108f857600080fd5b81019080803573ffffffffffffffffffffffffffffffffffffffff169060200190929190505050611d33565b6040518082815260200191505060405180910390f35b34801561094657600080fd5b5061094f611e29565b6040518082815260200191505060405180910390f35b34801561097157600080fd5b5061099e6004803603602081101561098857600080fd5b8101908080359060200190929190505050611ee6565b6040518082815260200191505060405180910390f35b3480156109c057600080fd5b50610a7a600480360360208110156109d757600080fd5b81019080803590602001906401000000008111156109f457600080fd5b820183602082011115610a0657600080fd5b80359060200191846001830284011164010000000083111715610a2857600080fd5b91908080601f016020809104026020016040519081016040528093929190818152602001838380828437600081840152601f19601f820116905080830192505050505050509192919290505050611fb0565b6040518080602001828103825283818151815260200191508051906020019080838360005b83811015610aba578082015181840152602081019050610a9f565b50505050905090810190601f168015610ae75780820380516001836020036101000a031916815260200191505b509250505060405180910390f35b348015610b0157600080fd5b50610b4460048036036020811015610b1857600080fd5b81019080803573ffffffffffffffffffffffffffffffffffffffff169060200190929190505050612246565b6040518082815260200191505060405180910390f35b348015610b6657600080fd5b50610b6f61233c565b6040518082815260200191505060405180910390f35b348015610b9157600080fd5b50610c7760048036036060811015610ba857600080fd5b81019080803573ffffffffffffffffffffffffffffffffffffffff16906020019092919080351515906020019092919080359060200190640100000000811115610bf157600080fd5b820183602082011115610c0357600080fd5b80359060200191846001830284011164010000000083111715610c2557600080fd5b91908080601f016020809104026020016040519081016040528093929190818152602001838380828437600081840152601f19601f820116905080830192505050505050509192919290505050612342565b005b348015610c8557600080fd5b50610c8e61269e565b604051808273ffffffffffffffffffffffffffffffffffffffff1673ffffffffffffffffffffffffffffffffffffffff16815260200191505060405180910390f35b348015610cdc57600080fd5b50610ce56126c4565b604051808273ffffffffffffffffffffffffffffffffffffffff1673ffffffffffffffffffffffffffffffffffffffff16815260200191505060405180910390f35b348015610d3357600080fd5b50610d6060048036036020811015610d4a57600080fd5b81019080803590602001909291905050506126ea565b6040518082815260200191505060405180910390f35b348015610d8257600080fd5b50610d8b6127b4565b6040518082815260200191505060405180910390f35b348015610dad57600080fd5b50610db66127ba565b604051808273ffffffffffffffffffffffffffffffffffffffff1673ffffffffffffffffffffffffffffffffffffffff16815260200191505060405180910390f35b348015610e0457600080fd5b50610e4760048036036020811015610e1b57600080fd5b81019080803573ffffffffffffffffffffffffffffffffffffffff1690602001909291905050506127e0565b6040518082815260200191505060405180910390f35b348015610e6957600080fd5b50610e726128d6565b6040518082815260200191505060405180910390f35b348015610e9457600080fd5b50610ec160048036036020811015610eab57600080fd5b8101908080359060200190929190505050612993565b6040518082815260200191505060405180910390f35b348015610ee357600080fd5b50610eec612a5d565b6040518082815260200191505060405180910390f35b348015610f0e57600080fd5b50610f17612a63565b6040518080602001828103825283818151815260200191508051906020019080838360005b83811015610f57578082015181840152602081019050610f3c565b50505050905090810190601f168015610f845780820380516001836020036101000a031916815260200191505b509250505060405180910390f35b348015610f9e57600080fd5b50610fe160048036036020811015610fb557600080fd5b81019080803573ffffffffffffffffffffffffffffffffffffffff169060200190929190505050612b01565b6040518082815260200191505060405180910390f35b34801561100357600080fd5b506110306004803603602081101561101a57600080fd5b8101908080359060200190929190505050612bf7565b6040518082815260200191505060405180910390f35b34801561105257600080fd5b5061105b612cc1565b6040518082815260200191505060405180910390f35b34801561107d57600080fd5b506110ca6004803603604081101561109457600080fd5b81019080803573ffffffffffffffffffffffffffffffffffffffff16906020019092919080359060200190929190505050612d7e565b604051808215151515815260200191505060405180910390f35b3480156110f057600080fd5b506110f9612e7d565b6040518082815260200191505060405180910390f35b34801561111b57600080fd5b50611124612e83565b6040518082815260200191505060405180910390f35b34801561114657600080fd5b506111b36004803603606081101561115d57600080fd5b81019080803573ffffffffffffffffffffffffffffffffffffffff169060200190929190803573ffffffffffffffffffffffffffffffffffffffff16906020019092919080359060200190929190505050612f40565b6040518082815260200191505060405180910390f35b3480156111d557600080fd5b50611218600480360360208110156111ec57600080fd5b81019080803573ffffffffffffffffffffffffffffffffffffffff169060200190929190505050613074565b6040518082815260200191505060405180910390f35b34801561123a57600080fd5b5061124361316a565b6040518082815260200191505060405180910390f35b34801561126557600080fd5b506112a86004803603602081101561127c57600080fd5b81019080803573ffffffffffffffffffffffffffffffffffffffff169060200190929190505050613227565b6040518085815260200184815260200183815260200182815260200194505050505060405180910390f35b3480156112df57600080fd5b5061130c600480360360208110156112f657600080fd5b8101908080359060200190929190505050613347565b6040518082815260200191505060405180910390f35b34801561132e57600080fd5b5061135b6004803603602081101561134557600080fd5b8101908080359060200190929190505050613411565b6040518082815260200191505060405180910390f35b34801561137d57600080fd5b506113e06004803603604081101561139457600080fd5b81019080803573ffffffffffffffffffffffffffffffffffffffff169060200190929190803573ffffffffffffffffffffffffffffffffffffffff1690602001909291905050506134db565b6040518082815260200191505060405180910390f35b34801561140257600080fd5b5061140b613606565b6040518082815260200191505060405180910390f35b34801561142d57600080fd5b506114706004803603602081101561144457600080fd5b81019080803573ffffffffffffffffffffffffffffffffffffffff1690602001909291905050506136c3565b6040518082815260200191505060405180910390f35b34801561149257600080fd5b5061149b6137b9565b604051808273ffffffffffffffffffffffffffffffffffffffff1673ffffffffffffffffffffffffffffffffffffffff16815260200191505060405180910390f35b3480156114e957600080fd5b506115566004803603606081101561150057600080fd5b81019080803573ffffffffffffffffffffffffffffffffffffffff16906020019092919080359060200190929190803573ffffffffffffffffffffffffffffffffffffffff1690602001909291905050506137df565b6040518082815260200191505060405180910390f35b34801561157857600080fd5b50611581613913565b604051808273ffffffffffffffffffffffffffffffffffffffff1673ffffffffffffffffffffffffffffffffffffffff16815260200191505060405180910390f35b3480156115cf57600080fd5b506115d8613939565b6040518082815260200191505060405180910390f35b3480156115fa57600080fd5b506116036139f6565b604051808215151515815260200191505060405180910390f35b34801561162957600080fd5b506116566004803603602081101561164057600080fd5b81019080803590602001909291905050506139fb565b6040518082815260200191505060405180910390f35b60018054600181600116156101000203166002900480601f0160208091040260200160405190810160405280929190818152602001828054600181600116156101000203166002900480156117025780601f106116d757610100808354040283529160200191611702565b820191906000526020600020905b8154815290600101906020018083116116e557829003601f168201915b505050505081565b6060611738601260009054906101000a900473ffffffffffffffffffffffffffffffffffffffff1683613ac5565b9050919050565b6000606061180d8484604051602401808373ffffffffffffffffffffffffffffffffffffffff1673ffffffffffffffffffffffffffffffffffffffff168152602001828152602001925050506040516020818303038152906040527f095ea7b3000000000000000000000000000000000000000000000000000000007bffffffffffffffffffffffffffffffffffffffffffffffffffffffff19166020820180517bffffffffffffffffffffffffffffffffffffffffffffffffffffffff838183161783525050505061170a565b905080806020019051602081101561182457600080fd5b810190808051906020019092919050505091505092915050565b600060606118d883604051602401808281526020019150506040516020818303038152906040527f0e752702000000000000000000000000000000000000000000000000000000007bffffffffffffffffffffffffffffffffffffffffffffffffffffffff19166020820180517bffffffffffffffffffffffffffffffffffffffffffffffffffffffff838183161783525050505061170a565b90508080602001905160208110156118ef57600080fd5b8101908080519060200190929190505050915050919050565b60085481565b600060606119d483604051602401808273ffffffffffffffffffffffffffffffffffffffff1673ffffffffffffffffffffffffffffffffffffffff1681526020019150506040516020818303038152906040527f17bfdfbc000000000000000000000000000000000000000000000000000000007bffffffffffffffffffffffffffffffffffffffffffffffffffffffff19166020820180517bffffffffffffffffffffffffffffffffffffffffffffffffffffffff838183161783525050505061170a565b90508080602001905160208110156119eb57600080fd5b8101908080519060200190929190505050915050919050565b600d5481565b60006060611a996040516024016040516020818303038152906040527f182df0f5000000000000000000000000000000000000000000000000000000007bffffffffffffffffffffffffffffffffffffffffffffffffffffffff19166020820180517bffffffffffffffffffffffffffffffffffffffffffffffffffffffff8381831617835250505050611fb0565b9050808060200190516020811015611ab057600080fd5b810190808051906020019092919050505091505090565b60006060611bc9858585604051602401808473ffffffffffffffffffffffffffffffffffffffff1673ffffffffffffffffffffffffffffffffffffffff1681526020018373ffffffffffffffffffffffffffffffffffffffff1673ffffffffffffffffffffffffffffffffffffffff16815260200182815260200193505050506040516020818303038152906040527f23b872dd000000000000000000000000000000000000000000000000000000007bffffffffffffffffffffffffffffffffffffffffffffffffffffffff19166020820180517bffffffffffffffffffffffffffffffffffffffffffffffffffffffff838183161783525050505061170a565b9050808060200190516020811015611be057600080fd5b81019080805190602001909291905050509150509392505050565b60006060611cc98484604051602401808373ffffffffffffffffffffffffffffffffffffffff1673ffffffffffffffffffffffffffffffffffffffff168152602001828152602001925050506040516020818303038152906040527f2608f818000000000000000000000000000000000000000000000000000000007bffffffffffffffffffffffffffffffffffffffffffffffffffffffff19166020820180517bffffffffffffffffffffffffffffffffffffffffffffffffffffffff838183161783525050505061170a565b9050808060200190516020811015611ce057600080fd5b810190808051906020019092919050505091505092915050565b600460009054906101000a900473ffffffffffffffffffffffffffffffffffffffff1681565b600360009054906101000a900460ff1681565b60006060611df983604051602401808273ffffffffffffffffffffffffffffffffffffffff1673ffffffffffffffffffffffffffffffffffffffff1681526020019150506040516020818303038152906040527f3af9e669000000000000000000000000000000000000000000000000000000007bffffffffffffffffffffffffffffffffffffffffffffffffffffffff19166020820180517bffffffffffffffffffffffffffffffffffffffffffffffffffffffff838183161783525050505061170a565b9050808060200190516020811015611e1057600080fd5b8101908080519060200190929190505050915050919050565b60006060611eb86040516024016040516020818303038152906040527f3b1d21a2000000000000000000000000000000000000000000000000000000007bffffffffffffffffffffffffffffffffffffffffffffffffffffffff19166020820180517bffffffffffffffffffffffffffffffffffffffffffffffffffffffff8381831617835250505050611fb0565b9050808060200190516020811015611ecf57600080fd5b810190808051906020019092919050505091505090565b60006060611f8083604051602401808281526020019150506040516020818303038152906040527f3e941010000000000000000000000000000000000000000000000000000000007bffffffffffffffffffffffffffffffffffffffffffffffffffffffff19166020820180517bffffffffffffffffffffffffffffffffffffffffffffffffffffffff838183161783525050505061170a565b9050808060200190516020811015611f9757600080fd5b8101908080519060200190929190505050915050919050565b6060600060603073ffffffffffffffffffffffffffffffffffffffff16846040516024018080602001828103825283818151815260200191508051906020019080838360005b83811015612011578082015181840152602081019050611ff6565b50505050905090810190601f16801561203e5780820380516001836020036101000a031916815260200191505b50925050506040516020818303038152906040527f0933c1ed000000000000000000000000000000000000000000000000000000007bffffffffffffffffffffffffffffffffffffffffffffffffffffffff19166020820180517bffffffffffffffffffffffffffffffffffffffffffffffffffffffff83818316178352505050506040518082805190602001908083835b602083106120f357805182526020820191506020810190506020830392506120d0565b6001836020036101000a038019825116818451168082178552505050505050905001915050600060405180830381855afa9150503d8060008114612153576040519150601f19603f3d011682016040523d82523d6000602084013e612158565b606091505b5091509150600082141561216d573d60208201fd5b80806020019051602081101561218257600080fd5b81019080805160405193929190846401000000008211156121a257600080fd5b838201915060208201858111156121b857600080fd5b82518660018202830111640100000000821117156121d557600080fd5b8083526020830192505050908051906020019080838360005b838110156122095780820151818401526020810190506121ee565b50505050905090810190601f1680156122365780820380516001836020036101000a031916815260200191505b5060405250505092505050919050565b6000606061230c83604051602401808273ffffffffffffffffffffffffffffffffffffffff1673ffffffffffffffffffffffffffffffffffffffff1681526020019150506040516020818303038152906040527f4576b5db000000000000000000000000000000000000000000000000000000007bffffffffffffffffffffffffffffffffffffffffffffffffffffffff19166020820180517bffffffffffffffffffffffffffffffffffffffffffffffffffffffff838183161783525050505061170a565b905080806020019051602081101561232357600080fd5b8101908080519060200190929190505050915050919050565b600b5481565b600360019054906101000a900473ffffffffffffffffffffffffffffffffffffffff1673ffffffffffffffffffffffffffffffffffffffff163373ffffffffffffffffffffffffffffffffffffffff16146123e8576040517f08c379a0000000000000000000000000000000000000000000000000000000008152600401808060200182810382526039815260200180613b9c6039913960400191505060405180910390fd5b811561247b576124796040516024016040516020818303038152906040527f153ab505000000000000000000000000000000000000000000000000000000007bffffffffffffffffffffffffffffffffffffffffffffffffffffffff19166020820180517bffffffffffffffffffffffffffffffffffffffffffffffffffffffff838183161783525050505061170a565b505b6000601260009054906101000a900473ffffffffffffffffffffffffffffffffffffffff16905083601260006101000a81548173ffffffffffffffffffffffffffffffffffffffff021916908373ffffffffffffffffffffffffffffffffffffffff1602179055506125de826040516024018080602001828103825283818151815260200191508051906020019080838360005b8381101561252a57808201518184015260208101905061250f565b50505050905090810190601f1680156125575780820380516001836020036101000a031916815260200191505b50925050506040516020818303038152906040527f56e67728000000000000000000000000000000000000000000000000000000007bffffffffffffffffffffffffffffffffffffffffffffffffffffffff19166020820180517bffffffffffffffffffffffffffffffffffffffffffffffffffffffff838183161783525050505061170a565b507fd604de94d45953f9138079ec1b82d533cb2160c906d1076d1f7ed54befbca97a81601260009054906101000a900473ffffffffffffffffffffffffffffffffffffffff16604051808373ffffffffffffffffffffffffffffffffffffffff1673ffffffffffffffffffffffffffffffffffffffff1681526020018273ffffffffffffffffffffffffffffffffffffffff1673ffffffffffffffffffffffffffffffffffffffff1681526020019250505060405180910390a150505050565b601260009054906101000a900473ffffffffffffffffffffffffffffffffffffffff1681565b600560009054906101000a900473ffffffffffffffffffffffffffffffffffffffff1681565b6000606061278483604051602401808281526020019150506040516020818303038152906040527f601a0bf1000000000000000000000000000000000000000000000000000000007bffffffffffffffffffffffffffffffffffffffffffffffffffffffff19166020820180517bffffffffffffffffffffffffffffffffffffffffffffffffffffffff838183161783525050505061170a565b905080806020019051602081101561279b57600080fd5b8101908080519060200190929190505050915050919050565b60095481565b601160009054906101000a900473ffffffffffffffffffffffffffffffffffffffff1681565b600060606128a683604051602401808273ffffffffffffffffffffffffffffffffffffffff1673ffffffffffffffffffffffffffffffffffffffff1681526020019150506040516020818303038152906040527f70a08231000000000000000000000000000000000000000000000000000000007bffffffffffffffffffffffffffffffffffffffffffffffffffffffff19166020820180517bffffffffffffffffffffffffffffffffffffffffffffffffffffffff8381831617835250505050611fb0565b90508080602001905160208110156128bd57600080fd5b8101908080519060200190929190505050915050919050565b600060606129656040516024016040516020818303038152906040527f73acee98000000000000000000000000000000000000000000000000000000007bffffffffffffffffffffffffffffffffffffffffffffffffffffffff19166020820180517bffffffffffffffffffffffffffffffffffffffffffffffffffffffff838183161783525050505061170a565b905080806020019051602081101561297c57600080fd5b810190808051906020019092919050505091505090565b60006060612a2d83604051602401808281526020019150506040516020818303038152906040527f852a12e3000000000000000000000000000000000000000000000000000000007bffffffffffffffffffffffffffffffffffffffffffffffffffffffff19166020820180517bffffffffffffffffffffffffffffffffffffffffffffffffffffffff838183161783525050505061170a565b9050808060200190516020811015612a4457600080fd5b8101908080519060200190929190505050915050919050565b600c5481565b60028054600181600116156101000203166002900480601f016020809104026020016040519081016040528092919081815260200182805460018160011615610100020316600290048015612af95780601f10612ace57610100808354040283529160200191612af9565b820191906000526020600020905b815481529060010190602001808311612adc57829003601f168201915b505050505081565b60006060612bc783604051602401808273ffffffffffffffffffffffffffffffffffffffff1673ffffffffffffffffffffffffffffffffffffffff1681526020019150506040516020818303038152906040527f95dd9193000000000000000000000000000000000000000000000000000000007bffffffffffffffffffffffffffffffffffffffffffffffffffffffff19166020820180517bffffffffffffffffffffffffffffffffffffffffffffffffffffffff8381831617835250505050611fb0565b9050808060200190516020811015612bde57600080fd5b8101908080519060200190929190505050915050919050565b60006060612c9183604051602401808281526020019150506040516020818303038152906040527fa0712d68000000000000000000000000000000000000000000000000000000007bffffffffffffffffffffffffffffffffffffffffffffffffffffffff19166020820180517bffffffffffffffffffffffffffffffffffffffffffffffffffffffff838183161783525050505061170a565b9050808060200190516020811015612ca857600080fd5b8101908080519060200190929190505050915050919050565b60006060612d506040516024016040516020818303038152906040527fa6afed95000000000000000000000000000000000000000000000000000000007bffffffffffffffffffffffffffffffffffffffffffffffffffffffff19166020820180517bffffffffffffffffffffffffffffffffffffffffffffffffffffffff838183161783525050505061170a565b9050808060200190516020811015612d6757600080fd5b810190808051906020019092919050505091505090565b60006060612e4c8484604051602401808373ffffffffffffffffffffffffffffffffffffffff1673ffffffffffffffffffffffffffffffffffffffff168152602001828152602001925050506040516020818303038152906040527fa9059cbb000000000000000000000000000000000000000000000000000000007bffffffffffffffffffffffffffffffffffffffffffffffffffffffff19166020820180517bffffffffffffffffffffffffffffffffffffffffffffffffffffffff838183161783525050505061170a565b9050808060200190516020811015612e6357600080fd5b810190808051906020019092919050505091505092915050565b600a5481565b60006060612f126040516024016040516020818303038152906040527fae9d70b0000000000000000000000000000000000000000000000000000000007bffffffffffffffffffffffffffffffffffffffffffffffffffffffff19166020820180517bffffffffffffffffffffffffffffffffffffffffffffffffffffffff8381831617835250505050611fb0565b9050808060200190516020811015612f2957600080fd5b810190808051906020019092919050505091505090565b60006060613042858585604051602401808473ffffffffffffffffffffffffffffffffffffffff1673ffffffffffffffffffffffffffffffffffffffff1681526020018373ffffffffffffffffffffffffffffffffffffffff1673ffffffffffffffffffffffffffffffffffffffff16815260200182815260200193505050506040516020818303038152906040527fb2a02ff1000000000000000000000000000000000000000000000000000000007bffffffffffffffffffffffffffffffffffffffffffffffffffffffff19166020820180517bffffffffffffffffffffffffffffffffffffffffffffffffffffffff838183161783525050505061170a565b905080806020019051602081101561305957600080fd5b81019080805190602001909291905050509150509392505050565b6000606061313a83604051602401808273ffffffffffffffffffffffffffffffffffffffff1673ffffffffffffffffffffffffffffffffffffffff1681526020019150506040516020818303038152906040527fb71d1a0c000000000000000000000000000000000000000000000000000000007bffffffffffffffffffffffffffffffffffffffffffffffffffffffff19166020820180517bffffffffffffffffffffffffffffffffffffffffffffffffffffffff838183161783525050505061170a565b905080806020019051602081101561315157600080fd5b8101908080519060200190929190505050915050919050565b600060606131f96040516024016040516020818303038152906040527fbd6d894d000000000000000000000000000000000000000000000000000000007bffffffffffffffffffffffffffffffffffffffffffffffffffffffff19166020820180517bffffffffffffffffffffffffffffffffffffffffffffffffffffffff838183161783525050505061170a565b905080806020019051602081101561321057600080fd5b810190808051906020019092919050505091505090565b60008060008060606132f186604051602401808273ffffffffffffffffffffffffffffffffffffffff1673ffffffffffffffffffffffffffffffffffffffff1681526020019150506040516020818303038152906040527fc37f68e2000000000000000000000000000000000000000000000000000000007bffffffffffffffffffffffffffffffffffffffffffffffffffffffff19166020820180517bffffffffffffffffffffffffffffffffffffffffffffffffffffffff8381831617835250505050611fb0565b905080806020019051608081101561330857600080fd5b81019080805190602001909291908051906020019092919080519060200190929190805190602001909291905050509450945094509450509193509193565b600060606133e183604051602401808281526020019150506040516020818303038152906040527fc5ebeaec000000000000000000000000000000000000000000000000000000007bffffffffffffffffffffffffffffffffffffffffffffffffffffffff19166020820180517bffffffffffffffffffffffffffffffffffffffffffffffffffffffff838183161783525050505061170a565b90508080602001905160208110156133f857600080fd5b8101908080519060200190929190505050915050919050565b600060606134ab83604051602401808281526020019150506040516020818303038152906040527fdb006a75000000000000000000000000000000000000000000000000000000007bffffffffffffffffffffffffffffffffffffffffffffffffffffffff19166020820180517bffffffffffffffffffffffffffffffffffffffffffffffffffffffff838183161783525050505061170a565b90508080602001905160208110156134c257600080fd5b8101908080519060200190929190505050915050919050565b600060606135d58484604051602401808373ffffffffffffffffffffffffffffffffffffffff1673ffffffffffffffffffffffffffffffffffffffff1681526020018273ffffffffffffffffffffffffffffffffffffffff1673ffffffffffffffffffffffffffffffffffffffff168152602001925050506040516020818303038152906040527fdd62ed3e000000000000000000000000000000000000000000000000000000007bffffffffffffffffffffffffffffffffffffffffffffffffffffffff19166020820180517bffffffffffffffffffffffffffffffffffffffffffffffffffffffff8381831617835250505050611fb0565b90508080602001905160208110156135ec57600080fd5b810190808051906020019092919050505091505092915050565b600060606136956040516024016040516020818303038152906040527fe9c714f2000000000000000000000000000000000000000000000000000000007bffffffffffffffffffffffffffffffffffffffffffffffffffffffff19166020820180517bffffffffffffffffffffffffffffffffffffffffffffffffffffffff838183161783525050505061170a565b90508080602001905160208110156136ac57600080fd5b810190808051906020019092919050505091505090565b6000606061378983604051602401808273ffffffffffffffffffffffffffffffffffffffff1673ffffffffffffffffffffffffffffffffffffffff1681526020019150506040516020818303038152906040527ff2b3abbd000000000000000000000000000000000000000000000000000000007bffffffffffffffffffffffffffffffffffffffffffffffffffffffff19166020820180517bffffffffffffffffffffffffffffffffffffffffffffffffffffffff838183161783525050505061170a565b90508080602001905160208110156137a057600080fd5b8101908080519060200190929190505050915050919050565b600660009054906101000a900473ffffffffffffffffffffffffffffffffffffffff1681565b600060606138e1858585604051602401808473ffffffffffffffffffffffffffffffffffffffff1673ffffffffffffffffffffffffffffffffffffffff1681526020018381526020018273ffffffffffffffffffffffffffffffffffffffff1673ffffffffffffffffffffffffffffffffffffffff16815260200193505050506040516020818303038152906040527ff5e3c462000000000000000000000000000000000000000000000000000000007bffffffffffffffffffffffffffffffffffffffffffffffffffffffff19166020820180517bffffffffffffffffffffffffffffffffffffffffffffffffffffffff838183161783525050505061170a565b90508080602001905160208110156138f857600080fd5b81019080805190602001909291905050509150509392505050565b600360019054906101000a900473ffffffffffffffffffffffffffffffffffffffff1681565b600060606139c86040516024016040516020818303038152906040527ff8f9da28000000000000000000000000000000000000000000000000000000007bffffffffffffffffffffffffffffffffffffffffffffffffffffffff19166020820180517bffffffffffffffffffffffffffffffffffffffffffffffffffffffff8381831617835250505050611fb0565b90508080602001905160208110156139df57600080fd5b810190808051906020019092919050505091505090565b600181565b60006060613a9583604051602401808281526020019150506040516020818303038152906040527ffca7820b000000000000000000000000000000000000000000000000000000007bffffffffffffffffffffffffffffffffffffffffffffffffffffffff19166020820180517bffffffffffffffffffffffffffffffffffffffffffffffffffffffff838183161783525050505061170a565b9050808060200190516020811015613aac57600080fd5b8101908080519060200190929190505050915050919050565b6060600060608473ffffffffffffffffffffffffffffffffffffffff16846040518082805190602001908083835b60208310613b165780518252602082019150602081019050602083039250613af3565b6001836020036101000a038019825116818451168082178552505050505050905001915050600060405180830381855af49150503d8060008114613b76576040519150601f19603f3d011682016040523d82523d6000602084013e613b7b565b606091505b50915091506000821415613b90573d60208201fd5b80925050509291505056fe42426570323044656c656761746f723a3a5f736574496d706c656d656e746174696f6e3a2043616c6c6572206d7573742062652061646d696e42426570323044656c656761746f723a66616c6c6261636b3a206362746e746f742073656e642076616c756520746f2066616c6c6261636ba265627a7a723158202064de4aa034db79de12cb9cdd0ff7e189088231109bd7acadaf50c4e885241d64736f6c6343000511003242426570323044656c656761746f723a3a5f736574496d706c656d656e746174696f6e3a2043616c6c6572206d7573742062652061646d696e",
  "source": "pragma solidity ^0.5.16;\n\nimport \"./BTokenInterfaces.sol\";\n\n/**\n * @title Btntex's BBep20Delegator Contract\n * @notice BTokens which wrap an EIP-20 underlying and delegate to an implementation\n * @author Btntex\n */\ncontract BBep20Delegator is BTokenInterface, BBep20Interface, ADelegatorInterface {\n    /**\n     * @notice Construct a new money market\n     * @param underlying_ The address of the underlying asset\n     * @param comptroller_ The address of the Comptroller\n     * @param interestRateModel_ The address of the interest rate model\n     * @param initialExchangeRateMantissa_ The initial exchange rate, scaled by 1e18\n     * @param name_ BEP-20 name of this token\n     * @param symbol_ BEP-20 symbol of this token\n     * @param decimals_ BEP-20 decimal precision of this token\n     * @param admin_ Address of the administrator of this token\n     * @param implementation_ The address of the implementation the contract delegates to\n     * @param becomeImplementationData The encoded args for becomeImplementation\n     */\n    constructor(address underlying_,\n                ComptrollerInterface comptroller_,\n                InterestRateModel interestRateModel_,\n                uint initialExchangeRateMantissa_,\n                string memory name_,\n                string memory symbol_,\n                uint8 decimals_,\n                address payable admin_,\n                address implementation_,\n                bytes memory becomeImplementationData) public {\n        // Creator of the contract is admin during initialization\n        admin = msg.sender;\n\n        // First delegate gets to initialize the delegator (i.e. storage contract)\n        delegateTo(implementation_, abi.encodeWithSignature(\"initialize(address,address,address,uint256,string,string,uint8)\",\n                                                            underlying_,\n                                                            comptroller_,\n                                                            interestRateModel_,\n                                                            initialExchangeRateMantissa_,\n                                                            name_,\n                                                            symbol_,\n                                                            decimals_));\n\n        // New implementations always get set via the settor (post-initialize)\n        _setImplementation(implementation_, false, becomeImplementationData);\n\n        // Set the proper admin now that initialization is done\n        admin = admin_;\n    }\n\n    /**\n     * @notice Called by the admin to update the implementation of the delegator\n     * @param implementation_ The address of the new implementation for delegation\n     * @param allowResign Flag to indicate whether to call _resignImplementation on the old implementation\n     * @param becomeImplementationData The encoded bytes data to be passed to _becomeImplementation\n     */\n    function _setImplementation(address implementation_, bool allowResign, bytes memory becomeImplementationData) public {\n        require(msg.sender == admin, \"BBep20Delegator::_setImplementation: Caller must be admin\");\n\n        if (allowResign) {\n            delegateToImplementation(abi.encodeWithSignature(\"_resignImplementation()\"));\n        }\n\n        address oldImplementation = implementation;\n        implementation = implementation_;\n\n        delegateToImplementation(abi.encodeWithSignature(\"_becomeImplementation(bytes)\", becomeImplementationData));\n\n        emit NewImplementation(oldImplementation, implementation);\n    }\n\n    /**\n     * @notice Sender supplies assets into the market and receives bTokens in exchange\n     * @dev Accrues interest whether or not the operation succeeds, unless reverted\n     * @param mintAmount The amount of the underlying asset to supply\n     * @return uint 0=success, otherwise a failure (see ErrorReporter.sol for details)\n     */\n    function mint(uint mintAmount) external returns (uint) {\n        bytes memory data = delegateToImplementation(abi.encodeWithSignature(\"mint(uint256)\", mintAmount));\n        return abi.decode(data, (uint));\n    }\n\n    /**\n     * @notice Sender redeems bTokens in exchange for the underlying asset\n     * @dev Accrues interest whether or not the operation succeeds, unless reverted\n     * @param redeemTokens The number of bTokens to redeem into underlying\n     * @return uint 0=success, otherwise a failure (see ErrorReporter.sol for details)\n     */\n    function redeem(uint redeemTokens) external returns (uint) {\n        bytes memory data = delegateToImplementation(abi.encodeWithSignature(\"redeem(uint256)\", redeemTokens));\n        return abi.decode(data, (uint));\n    }\n\n    /**\n     * @notice Sender redeems bTokens in exchange for a specified amount of underlying asset\n     * @dev Accrues interest whether or not the operation succeeds, unless reverted\n     * @param redeemAmount The amount of underlying to redeem\n     * @return uint 0=success, otherwise a failure (see ErrorReporter.sol for details)\n     */\n    function redeemUnderlying(uint redeemAmount) external returns (uint) {\n        bytes memory data = delegateToImplementation(abi.encodeWithSignature(\"redeemUnderlying(uint256)\", redeemAmount));\n        return abi.decode(data, (uint));\n    }\n\n    /**\n      * @notice Sender borrows assets from the protocol to their own address\n      * @param borrowAmount The amount of the underlying asset to borrow\n      * @return uint 0=success, otherwise a failure (see ErrorReporter.sol for details)\n      */\n    function borrow(uint borrowAmount) external returns (uint) {\n        bytes memory data = delegateToImplementation(abi.encodeWithSignature(\"borrow(uint256)\", borrowAmount));\n        return abi.decode(data, (uint));\n    }\n\n    /**\n     * @notice Sender repays their own borrow\n     * @param repayAmount The amount to repay\n     * @return uint 0=success, otherwise a failure (see ErrorReporter.sol for details)\n     */\n    function repayBorrow(uint repayAmount) external returns (uint) {\n        bytes memory data = delegateToImplementation(abi.encodeWithSignature(\"repayBorrow(uint256)\", repayAmount));\n        return abi.decode(data, (uint));\n    }\n\n    /**\n     * @notice Sender repays a borrow belonging to borrower\n     * @param borrower the account with the debt being payed off\n     * @param repayAmount The amount to repay\n     * @return uint 0=success, otherwise a failure (see ErrorReporter.sol for details)\n     */\n    function repayBorrowBehalf(address borrower, uint repayAmount) external returns (uint) {\n        bytes memory data = delegateToImplementation(abi.encodeWithSignature(\"repayBorrowBehalf(address,uint256)\", borrower, repayAmount));\n        return abi.decode(data, (uint));\n    }\n\n    /**\n     * @notice The sender liquidates the borrowers collateral.\n     *  The collateral seized is transferred to the liquidator.\n     * @param borrower The borrower of this bToken to be liquidated\n     * @param bTokenCollateral The market in which to seize collateral from the borrower\n     * @param repayAmount The amount of the underlying borrowed asset to repay\n     * @return uint 0=success, otherwise a failure (see ErrorReporter.sol for details)\n     */\n    function liquidateBorrow(address borrower, uint repayAmount, BTokenInterface bTokenCollateral) external returns (uint) {\n        bytes memory data = delegateToImplementation(abi.encodeWithSignature(\"liquidateBorrow(address,uint256,address)\", borrower, repayAmount, bTokenCollateral));\n        return abi.decode(data, (uint));\n    }\n\n    /**\n     * @notice Transfer `amount` tokens from `msg.sender` to `dst`\n     * @param dst The address of the destination account\n     * @param amount The number of tokens to transfer\n     * @return Whether or not the transfer succeeded\n     */\n    function transfer(address dst, uint amount) external returns (bool) {\n        bytes memory data = delegateToImplementation(abi.encodeWithSignature(\"transfer(address,uint256)\", dst, amount));\n        return abi.decode(data, (bool));\n    }\n\n    /**\n     * @notice Transfer `amount` tokens from `src` to `dst`\n     * @param src The address of the source account\n     * @param dst The address of the destination account\n     * @param amount The number of tokens to transfer\n     * @return Whether or not the transfer succeeded\n     */\n    function transferFrom(address src, address dst, uint256 amount) external returns (bool) {\n        bytes memory data = delegateToImplementation(abi.encodeWithSignature(\"transferFrom(address,address,uint256)\", src, dst, amount));\n        return abi.decode(data, (bool));\n    }\n\n    /**\n     * @notice Approve `spender` to transfer up to `amount` from `src`\n     * @dev This will overwrite the approval amount for `spender`\n     *  and is subject to issues noted [here](https://eips.ethereum.org/EIPS/eip-20#approve)\n     * @param spender The address of the account which may transfer tokens\n     * @param amount The number of tokens that are approved (-1 means infinite)\n     * @return Whether or not the approval succeeded\n     */\n    function approve(address spender, uint256 amount) external returns (bool) {\n        bytes memory data = delegateToImplementation(abi.encodeWithSignature(\"approve(address,uint256)\", spender, amount));\n        return abi.decode(data, (bool));\n    }\n\n    /**\n     * @notice Get the current allowance from `owner` for `spender`\n     * @param owner The address of the account which owns the tokens to be spent\n     * @param spender The address of the account which may transfer tokens\n     * @return The number of tokens allowed to be spent (-1 means infinite)\n     */\n    function allowance(address owner, address spender) external view returns (uint) {\n        bytes memory data = delegateToViewImplementation(abi.encodeWithSignature(\"allowance(address,address)\", owner, spender));\n        return abi.decode(data, (uint));\n    }\n\n    /**\n     * @notice Get the token balance of the `owner`\n     * @param owner The address of the account to query\n     * @return The number of tokens owned by `owner`\n     */\n    function balanceOf(address owner) external view returns (uint) {\n        bytes memory data = delegateToViewImplementation(abi.encodeWithSignature(\"balanceOf(address)\", owner));\n        return abi.decode(data, (uint));\n    }\n\n    /**\n     * @notice Get the underlying balance of the `owner`\n     * @dev This also accrues interest in a transaction\n     * @param owner The address of the account to query\n     * @return The amount of underlying owned by `owner`\n     */\n    function balanceOfUnderlying(address owner) external returns (uint) {\n        bytes memory data = delegateToImplementation(abi.encodeWithSignature(\"balanceOfUnderlying(address)\", owner));\n        return abi.decode(data, (uint));\n    }\n\n    /**\n     * @notice Get a snapshot of the account's balances, and the cached exchange rate\n     * @dev This is used by comptroller to more efficiently perform liquidity checks.\n     * @param account Address of the account to snapshot\n     * @return (possible error, token balance, borrow balance, exchange rate mantissa)\n     */\n    function getAccountSnapshot(address account) external view returns (uint, uint, uint, uint) {\n        bytes memory data = delegateToViewImplementation(abi.encodeWithSignature(\"getAccountSnapshot(address)\", account));\n        return abi.decode(data, (uint, uint, uint, uint));\n    }\n\n    /**\n     * @notice Returns the current per-block borrow interest rate for this bToken\n     * @return The borrow interest rate per block, scaled by 1e18\n     */\n    function borrowRatePerBlock() external view returns (uint) {\n        bytes memory data = delegateToViewImplementation(abi.encodeWithSignature(\"borrowRatePerBlock()\"));\n        return abi.decode(data, (uint));\n    }\n\n    /**\n     * @notice Returns the current per-block supply interest rate for this bToken\n     * @return The supply interest rate per block, scaled by 1e18\n     */\n    function supplyRatePerBlock() external view returns (uint) {\n        bytes memory data = delegateToViewImplementation(abi.encodeWithSignature(\"supplyRatePerBlock()\"));\n        return abi.decode(data, (uint));\n    }\n\n    /**\n     * @notice Returns the current total borrows plus accrued interest\n     * @return The total borrows with interest\n     */\n    function totalBorrowsCurrent() external returns (uint) {\n        bytes memory data = delegateToImplementation(abi.encodeWithSignature(\"totalBorrowsCurrent()\"));\n        return abi.decode(data, (uint));\n    }\n\n    /**\n     * @notice Accrue interest to updated borrowIndex and then calculate account's borrow balance using the updated borrowIndex\n     * @param account The address whose balance should be calculated after updating borrowIndex\n     * @return The calculated balance\n     */\n    function borrowBalanceCurrent(address account) external returns (uint) {\n        bytes memory data = delegateToImplementation(abi.encodeWithSignature(\"borrowBalanceCurrent(address)\", account));\n        return abi.decode(data, (uint));\n    }\n\n    /**\n     * @notice Return the borrow balance of account based on stored data\n     * @param account The address whose balance should be calculated\n     * @return The calculated balance\n     */\n    function borrowBalanceStored(address account) public view returns (uint) {\n        bytes memory data = delegateToViewImplementation(abi.encodeWithSignature(\"borrowBalanceStored(address)\", account));\n        return abi.decode(data, (uint));\n    }\n\n   /**\n     * @notice Accrue interest then return the up-to-date exchange rate\n     * @return Calculated exchange rate scaled by 1e18\n     */\n    function exchangeRateCurrent() public returns (uint) {\n        bytes memory data = delegateToImplementation(abi.encodeWithSignature(\"exchangeRateCurrent()\"));\n        return abi.decode(data, (uint));\n    }\n\n    /**\n     * @notice Calculates the exchange rate from the underlying to the BToken\n     * @dev This function does not accrue interest before calculating the exchange rate\n     * @return Calculated exchange rate scaled by 1e18\n     */\n    function exchangeRateStored() public view returns (uint) {\n        bytes memory data = delegateToViewImplementation(abi.encodeWithSignature(\"exchangeRateStored()\"));\n        return abi.decode(data, (uint));\n    }\n\n    /**\n     * @notice Get cash balance of this bToken in the underlying asset\n     * @return The quantity of underlying asset owned by this contract\n     */\n    function getCash() external view returns (uint) {\n        bytes memory data = delegateToViewImplementation(abi.encodeWithSignature(\"getCash()\"));\n        return abi.decode(data, (uint));\n    }\n\n    /**\n      * @notice Applies accrued interest to total borrows and reserves.\n      * @dev This calculates interest accrued from the last checkpointed block\n      *      up to the current block and writes new checkpoint to storage.\n      */\n    function accrueInterest() public returns (uint) {\n        bytes memory data = delegateToImplementation(abi.encodeWithSignature(\"accrueInterest()\"));\n        return abi.decode(data, (uint));\n    }\n\n    /**\n     * @notice Transfers collateral tokens (this market) to the liquidator.\n     * @dev Will fail unless called by another bToken during the process of liquidation.\n     *  Its absolutely critical to use msg.sender as the borrowed bToken and not a parameter.\n     * @param liquidator The account receiving seized collateral\n     * @param borrower The account having collateral seized\n     * @param seizeTokens The number of bTokens to seize\n     * @return uint 0=success, otherwise a failure (see ErrorReporter.sol for details)\n     */\n    function seize(address liquidator, address borrower, uint seizeTokens) external returns (uint) {\n        bytes memory data = delegateToImplementation(abi.encodeWithSignature(\"seize(address,address,uint256)\", liquidator, borrower, seizeTokens));\n        return abi.decode(data, (uint));\n    }\n\n    /*** Admin Functions ***/\n\n    /**\n      * @notice Begins transfer of admin rights. The newPendingAdmin must call `_acceptAdmin` to finalize the transfer.\n      * @dev Admin function to begin change of admin. The newPendingAdmin must call `_acceptAdmin` to finalize the transfer.\n      * @param newPendingAdmin New pending admin.\n      * @return uint 0=success, otherwise a failure (see ErrorReporter.sol for details)\n      */\n    function _setPendingAdmin(address payable newPendingAdmin) external returns (uint) {\n        bytes memory data = delegateToImplementation(abi.encodeWithSignature(\"_setPendingAdmin(address)\", newPendingAdmin));\n        return abi.decode(data, (uint));\n    }\n\n    /**\n      * @notice Sets a new comptroller for the market\n      * @dev Admin function to set a new comptroller\n      * @return uint 0=success, otherwise a failure (see ErrorReporter.sol for details)\n      */\n    function _setComptroller(ComptrollerInterface newComptroller) public returns (uint) {\n        bytes memory data = delegateToImplementation(abi.encodeWithSignature(\"_setComptroller(address)\", newComptroller));\n        return abi.decode(data, (uint));\n    }\n\n    /**\n      * @notice accrues interest and sets a new reserve factor for the protocol using _setReserveFactorFresh\n      * @dev Admin function to accrue interest and set a new reserve factor\n      * @return uint 0=success, otherwise a failure (see ErrorReporter.sol for details)\n      */\n    function _setReserveFactor(uint newReserveFactorMantissa) external returns (uint) {\n        bytes memory data = delegateToImplementation(abi.encodeWithSignature(\"_setReserveFactor(uint256)\", newReserveFactorMantissa));\n        return abi.decode(data, (uint));\n    }\n\n    /**\n      * @notice Accepts transfer of admin rights. msg.sender must be pendingAdmin\n      * @dev Admin function for pending admin to accept role and update admin\n      * @return uint 0=success, otherwise a failure (see ErrorReporter.sol for details)\n      */\n    function _acceptAdmin() external returns (uint) {\n        bytes memory data = delegateToImplementation(abi.encodeWithSignature(\"_acceptAdmin()\"));\n        return abi.decode(data, (uint));\n    }\n\n    /**\n     * @notice Accrues interest and adds reserves by transferring from admin\n     * @param addAmount Amount of reserves to add\n     * @return uint 0=success, otherwise a failure (see ErrorReporter.sol for details)\n     */\n    function _addReserves(uint addAmount) external returns (uint) {\n        bytes memory data = delegateToImplementation(abi.encodeWithSignature(\"_addReserves(uint256)\", addAmount));\n        return abi.decode(data, (uint));\n    }\n\n    /**\n     * @notice Accrues interest and reduces reserves by transferring to admin\n     * @param reduceAmount Amount of reduction to reserves\n     * @return uint 0=success, otherwise a failure (see ErrorReporter.sol for details)\n     */\n    function _reduceReserves(uint reduceAmount) external returns (uint) {\n        bytes memory data = delegateToImplementation(abi.encodeWithSignature(\"_reduceReserves(uint256)\", reduceAmount));\n        return abi.decode(data, (uint));\n    }\n\n    /**\n     * @notice Accrues interest and updates the interest rate model using _setInterestRateModelFresh\n     * @dev Admin function to accrue interest and update the interest rate model\n     * @param newInterestRateModel the new interest rate model to use\n     * @return uint 0=success, otherwise a failure (see ErrorReporter.sol for details)\n     */\n    function _setInterestRateModel(InterestRateModel newInterestRateModel) public returns (uint) {\n        bytes memory data = delegateToImplementation(abi.encodeWithSignature(\"_setInterestRateModel(address)\", newInterestRateModel));\n        return abi.decode(data, (uint));\n    }\n\n    /**\n     * @notice Internal method to delegate execution to another contract\n     * @dev It returns to the external caller whatever the implementation returns or forwards reverts\n     * @param callee The contract to delegatecall\n     * @param data The raw data to delegatecall\n     * @return The returned bytes from the delegatecall\n     */\n    function delegateTo(address callee, bytes memory data) internal returns (bytes memory) {\n        (bool success, bytes memory returnData) = callee.delegatecall(data);\n        assembly {\n            if eq(success, 0) {\n                revert(add(returnData, 0x20), returndatasize)\n            }\n        }\n        return returnData;\n    }\n\n    /**\n     * @notice Delegates execution to the implementation contract\n     * @dev It returns to the external caller whatever the implementation returns or forwards reverts\n     * @param data The raw data to delegatecall\n     * @return The returned bytes from the delegatecall\n     */\n    function delegateToImplementation(bytes memory data) public returns (bytes memory) {\n        return delegateTo(implementation, data);\n    }\n\n    /**\n     * @notice Delegates execution to an implementation contract\n     * @dev It returns to the external caller whatever the implementation returns or forwards reverts\n     *  There are an additional 2 prefix uints from the wrapper returndata, which we ignore since we make an extra hop.\n     * @param data The raw data to delegatecall\n     * @return The returned bytes from the delegatecall\n     */\n    function delegateToViewImplementation(bytes memory data) public view returns (bytes memory) {\n        (bool success, bytes memory returnData) = address(this).staticcall(abi.encodeWithSignature(\"delegateToImplementation(bytes)\", data));\n        assembly {\n            if eq(success, 0) {\n                revert(add(returnData, 0x20), returndatasize)\n            }\n        }\n        return abi.decode(returnData, (bytes));\n    }\n\n    /**\n     * @notice Delegates execution to an implementation contract\n     * @dev It returns to the external caller whatever the implementation returns or forwards reverts\n     */\n    function () external payable {\n        require(msg.value == 0,\"BBep20Delegator:fallback: cbtntot send value to fallback\");\n\n        // delegate all other functions to current implementation\n        (bool success, ) = implementation.delegatecall(msg.data);\n\n        assembly {\n            let free_mem_ptr := mload(0x40)\n            returndatacopy(free_mem_ptr, 0, returndatasize)\n\n            switch success\n            case 0 { revert(free_mem_ptr, returndatasize) }\n            default { return(free_mem_ptr, returndatasize) }\n        }\n    }\n}\n",
  "sourcePath": "/home/aliwisam/AliWisamData/Personal/Orders/Sir Junaid/Gist/TruffleFlat/contracts/BBep20Delegator.sol",
  "compiler": {
    "name": "solc",
    "version": "0.5.17+commit.d19bba13.Emscripten.clang"
  },
  "schemaVersion": "3.4.0",
  "updatedAt": "2021-06-16T15:51:17.666Z",
  "devdoc": {
    "author": "Btntex",
    "methods": {
      "_acceptAdmin()": {
        "details": "Admin function for pending admin to accept role and update admin",
        "return": "uint 0=success, otherwise a failure (see ErrorReporter.sol for details)"
      },
      "_addReserves(uint256)": {
        "params": {
          "addAmount": "Amount of reserves to add"
        },
        "return": "uint 0=success, otherwise a failure (see ErrorReporter.sol for details)"
      },
      "_reduceReserves(uint256)": {
        "params": {
          "reduceAmount": "Amount of reduction to reserves"
        },
        "return": "uint 0=success, otherwise a failure (see ErrorReporter.sol for details)"
      },
      "_setComptroller(address)": {
        "details": "Admin function to set a new comptroller",
        "return": "uint 0=success, otherwise a failure (see ErrorReporter.sol for details)"
      },
      "_setImplementation(address,bool,bytes)": {
        "params": {
          "allowResign": "Flag to indicate whether to call _resignImplementation on the old implementation",
          "becomeImplementationData": "The encoded bytes data to be passed to _becomeImplementation",
          "implementation_": "The address of the new implementation for delegation"
        }
      },
      "_setInterestRateModel(address)": {
        "details": "Admin function to accrue interest and update the interest rate model",
        "params": {
          "newInterestRateModel": "the new interest rate model to use"
        },
        "return": "uint 0=success, otherwise a failure (see ErrorReporter.sol for details)"
      },
      "_setPendingAdmin(address)": {
        "details": "Admin function to begin change of admin. The newPendingAdmin must call `_acceptAdmin` to finalize the transfer.",
        "params": {
          "newPendingAdmin": "New pending admin."
        },
        "return": "uint 0=success, otherwise a failure (see ErrorReporter.sol for details)"
      },
      "_setReserveFactor(uint256)": {
        "details": "Admin function to accrue interest and set a new reserve factor",
        "return": "uint 0=success, otherwise a failure (see ErrorReporter.sol for details)"
      },
      "accrueInterest()": {
        "details": "This calculates interest accrued from the last checkpointed block     up to the current block and writes new checkpoint to storage."
      },
      "allowance(address,address)": {
        "params": {
          "owner": "The address of the account which owns the tokens to be spent",
          "spender": "The address of the account which may transfer tokens"
        },
        "return": "The number of tokens allowed to be spent (-1 means infinite)"
      },
      "approve(address,uint256)": {
        "details": "This will overwrite the approval amount for `spender` and is subject to issues noted [here](https://eips.ethereum.org/EIPS/eip-20#approve)",
        "params": {
          "amount": "The number of tokens that are approved (-1 means infinite)",
          "spender": "The address of the account which may transfer tokens"
        },
        "return": "Whether or not the approval succeeded"
      },
      "balanceOf(address)": {
        "params": {
          "owner": "The address of the account to query"
        },
        "return": "The number of tokens owned by `owner`"
      },
      "balanceOfUnderlying(address)": {
        "details": "This also accrues interest in a transaction",
        "params": {
          "owner": "The address of the account to query"
        },
        "return": "The amount of underlying owned by `owner`"
      },
      "borrow(uint256)": {
        "params": {
          "borrowAmount": "The amount of the underlying asset to borrow"
        },
        "return": "uint 0=success, otherwise a failure (see ErrorReporter.sol for details)"
      },
      "borrowBalanceCurrent(address)": {
        "params": {
          "account": "The address whose balance should be calculated after updating borrowIndex"
        },
        "return": "The calculated balance"
      },
      "borrowBalanceStored(address)": {
        "params": {
          "account": "The address whose balance should be calculated"
        },
        "return": "The calculated balance"
      },
      "borrowRatePerBlock()": {
        "return": "The borrow interest rate per block, scaled by 1e18"
      },
      "constructor": {
        "params": {
          "admin_": "Address of the administrator of this token",
          "becomeImplementationData": "The encoded args for becomeImplementation",
          "comptroller_": "The address of the Comptroller",
          "decimals_": "BEP-20 decimal precision of this token",
          "implementation_": "The address of the implementation the contract delegates to",
          "initialExchangeRateMantissa_": "The initial exchange rate, scaled by 1e18",
          "interestRateModel_": "The address of the interest rate model",
          "name_": "BEP-20 name of this token",
          "symbol_": "BEP-20 symbol of this token",
          "underlying_": "The address of the underlying asset"
        }
      },
      "delegateToImplementation(bytes)": {
        "details": "It returns to the external caller whatever the implementation returns or forwards reverts",
        "params": {
          "data": "The raw data to delegatecall"
        },
        "return": "The returned bytes from the delegatecall"
      },
      "delegateToViewImplementation(bytes)": {
        "details": "It returns to the external caller whatever the implementation returns or forwards reverts There are an additional 2 prefix uints from the wrapper returndata, which we ignore since we make an extra hop.",
        "params": {
          "data": "The raw data to delegatecall"
        },
        "return": "The returned bytes from the delegatecall"
      },
      "exchangeRateCurrent()": {
        "return": "Calculated exchange rate scaled by 1e18"
      },
      "exchangeRateStored()": {
        "details": "This function does not accrue interest before calculating the exchange rate",
        "return": "Calculated exchange rate scaled by 1e18"
      },
      "getAccountSnapshot(address)": {
        "details": "This is used by comptroller to more efficiently perform liquidity checks.",
        "params": {
          "account": "Address of the account to snapshot"
        },
        "return": "(possible error, token balance, borrow balance, exchange rate mantissa)"
      },
      "getCash()": {
        "return": "The quantity of underlying asset owned by this contract"
      },
      "liquidateBorrow(address,uint256,address)": {
        "params": {
          "bTokenCollateral": "The market in which to seize collateral from the borrower",
          "borrower": "The borrower of this bToken to be liquidated",
          "repayAmount": "The amount of the underlying borrowed asset to repay"
        },
        "return": "uint 0=success, otherwise a failure (see ErrorReporter.sol for details)"
      },
      "mint(uint256)": {
        "details": "Accrues interest whether or not the operation succeeds, unless reverted",
        "params": {
          "mintAmount": "The amount of the underlying asset to supply"
        },
        "return": "uint 0=success, otherwise a failure (see ErrorReporter.sol for details)"
      },
      "redeem(uint256)": {
        "details": "Accrues interest whether or not the operation succeeds, unless reverted",
        "params": {
          "redeemTokens": "The number of bTokens to redeem into underlying"
        },
        "return": "uint 0=success, otherwise a failure (see ErrorReporter.sol for details)"
      },
      "redeemUnderlying(uint256)": {
        "details": "Accrues interest whether or not the operation succeeds, unless reverted",
        "params": {
          "redeemAmount": "The amount of underlying to redeem"
        },
        "return": "uint 0=success, otherwise a failure (see ErrorReporter.sol for details)"
      },
      "repayBorrow(uint256)": {
        "params": {
          "repayAmount": "The amount to repay"
        },
        "return": "uint 0=success, otherwise a failure (see ErrorReporter.sol for details)"
      },
      "repayBorrowBehalf(address,uint256)": {
        "params": {
          "borrower": "the account with the debt being payed off",
          "repayAmount": "The amount to repay"
        },
        "return": "uint 0=success, otherwise a failure (see ErrorReporter.sol for details)"
      },
      "seize(address,address,uint256)": {
        "details": "Will fail unless called by another bToken during the process of liquidation. Its absolutely critical to use msg.sender as the borrowed bToken and not a parameter.",
        "params": {
          "borrower": "The account having collateral seized",
          "liquidator": "The account receiving seized collateral",
          "seizeTokens": "The number of bTokens to seize"
        },
        "return": "uint 0=success, otherwise a failure (see ErrorReporter.sol for details)"
      },
      "supplyRatePerBlock()": {
        "return": "The supply interest rate per block, scaled by 1e18"
      },
      "totalBorrowsCurrent()": {
        "return": "The total borrows with interest"
      },
      "transfer(address,uint256)": {
        "params": {
          "amount": "The number of tokens to transfer",
          "dst": "The address of the destination account"
        },
        "return": "Whether or not the transfer succeeded"
      },
      "transferFrom(address,address,uint256)": {
        "params": {
          "amount": "The number of tokens to transfer",
          "dst": "The address of the destination account",
          "src": "The address of the source account"
        },
        "return": "Whether or not the transfer succeeded"
      }
    },
    "title": "Btntex's BBep20Delegator Contract"
  },
  "userdoc": {
    "methods": {
      "_acceptAdmin()": {
        "notice": "Accepts transfer of admin rights. msg.sender must be pendingAdmin"
      },
      "_addReserves(uint256)": {
        "notice": "Accrues interest and adds reserves by transferring from admin"
      },
      "_reduceReserves(uint256)": {
        "notice": "Accrues interest and reduces reserves by transferring to admin"
      },
      "_setComptroller(address)": {
        "notice": "Sets a new comptroller for the market"
      },
      "_setImplementation(address,bool,bytes)": {
        "notice": "Called by the admin to update the implementation of the delegator"
      },
      "_setInterestRateModel(address)": {
        "notice": "Accrues interest and updates the interest rate model using _setInterestRateModelFresh"
      },
      "_setPendingAdmin(address)": {
        "notice": "Begins transfer of admin rights. The newPendingAdmin must call `_acceptAdmin` to finalize the transfer."
      },
      "_setReserveFactor(uint256)": {
        "notice": "accrues interest and sets a new reserve factor for the protocol using _setReserveFactorFresh"
      },
      "accrueInterest()": {
        "notice": "Applies accrued interest to total borrows and reserves."
      },
      "allowance(address,address)": {
        "notice": "Get the current allowance from `owner` for `spender`"
      },
      "approve(address,uint256)": {
        "notice": "Approve `spender` to transfer up to `amount` from `src`"
      },
      "balanceOf(address)": {
        "notice": "Get the token balance of the `owner`"
      },
      "balanceOfUnderlying(address)": {
        "notice": "Get the underlying balance of the `owner`"
      },
      "borrow(uint256)": {
        "notice": "Sender borrows assets from the protocol to their own address"
      },
      "borrowBalanceCurrent(address)": {
        "notice": "Accrue interest to updated borrowIndex and then calculate account's borrow balance using the updated borrowIndex"
      },
      "borrowBalanceStored(address)": {
        "notice": "Return the borrow balance of account based on stored data"
      },
      "borrowRatePerBlock()": {
        "notice": "Returns the current per-block borrow interest rate for this bToken"
      },
      "constructor": "Construct a new money market",
      "delegateToImplementation(bytes)": {
        "notice": "Delegates execution to the implementation contract"
      },
      "delegateToViewImplementation(bytes)": {
        "notice": "Delegates execution to an implementation contract"
      },
      "exchangeRateCurrent()": {
        "notice": "Accrue interest then return the up-to-date exchange rate"
      },
      "exchangeRateStored()": {
        "notice": "Calculates the exchange rate from the underlying to the BToken"
      },
      "getAccountSnapshot(address)": {
        "notice": "Get a snapshot of the account's balances, and the cached exchange rate"
      },
      "getCash()": {
        "notice": "Get cash balance of this bToken in the underlying asset"
      },
      "liquidateBorrow(address,uint256,address)": {
        "notice": "The sender liquidates the borrowers collateral. The collateral seized is transferred to the liquidator."
      },
      "mint(uint256)": {
        "notice": "Sender supplies assets into the market and receives bTokens in exchange"
      },
      "redeem(uint256)": {
        "notice": "Sender redeems bTokens in exchange for the underlying asset"
      },
      "redeemUnderlying(uint256)": {
        "notice": "Sender redeems bTokens in exchange for a specified amount of underlying asset"
      },
      "repayBorrow(uint256)": {
        "notice": "Sender repays their own borrow"
      },
      "repayBorrowBehalf(address,uint256)": {
        "notice": "Sender repays a borrow belonging to borrower"
      },
      "seize(address,address,uint256)": {
        "notice": "Transfers collateral tokens (this market) to the liquidator."
      },
      "supplyRatePerBlock()": {
        "notice": "Returns the current per-block supply interest rate for this bToken"
      },
      "totalBorrowsCurrent()": {
        "notice": "Returns the current total borrows plus accrued interest"
      },
      "transfer(address,uint256)": {
        "notice": "Transfer `amount` tokens from `msg.sender` to `dst`"
      },
      "transferFrom(address,address,uint256)": {
        "notice": "Transfer `amount` tokens from `src` to `dst`"
      }
    },
    "notice": "BTokens which wrap an EIP-20 underlying and delegate to an implementation"
  }
}