{
  "contractName": "BBtntLikeDelegate",
  "abi": [
    {
      "inputs": [],
      "payable": false,
      "stateMutability": "nonpayable",
      "type": "constructor"
    },
    {
      "anonymous": false,
      "inputs": [
        {
          "indexed": false,
          "internalType": "uint256",
          "name": "cashPrior",
          "type": "uint256"
        },
        {
          "indexed": false,
          "internalType": "uint256",
          "name": "interestAccumulated",
          "type": "uint256"
        },
        {
          "indexed": false,
          "internalType": "uint256",
          "name": "borrowIndex",
          "type": "uint256"
        },
        {
          "indexed": false,
          "internalType": "uint256",
          "name": "totalBorrows",
          "type": "uint256"
        }
      ],
      "name": "AccrueInterest",
      "type": "event"
    },
    {
      "anonymous": false,
      "inputs": [
        {
          "indexed": true,
          "internalType": "address",
          "name": "owner",
          "type": "address"
        },
        {
          "indexed": true,
          "internalType": "address",
          "name": "spender",
          "type": "address"
        },
        {
          "indexed": false,
          "internalType": "uint256",
          "name": "amount",
          "type": "uint256"
        }
      ],
      "name": "Approval",
      "type": "event"
    },
    {
      "anonymous": false,
      "inputs": [
        {
          "indexed": false,
          "internalType": "address",
          "name": "borrower",
          "type": "address"
        },
        {
          "indexed": false,
          "internalType": "uint256",
          "name": "borrowAmount",
          "type": "uint256"
        },
        {
          "indexed": false,
          "internalType": "uint256",
          "name": "accountBorrows",
          "type": "uint256"
        },
        {
          "indexed": false,
          "internalType": "uint256",
          "name": "totalBorrows",
          "type": "uint256"
        }
      ],
      "name": "Borrow",
      "type": "event"
    },
    {
      "anonymous": false,
      "inputs": [
        {
          "indexed": false,
          "internalType": "uint256",
          "name": "error",
          "type": "uint256"
        },
        {
          "indexed": false,
          "internalType": "uint256",
          "name": "info",
          "type": "uint256"
        },
        {
          "indexed": false,
          "internalType": "uint256",
          "name": "detail",
          "type": "uint256"
        }
      ],
      "name": "Failure",
      "type": "event"
    },
    {
      "anonymous": false,
      "inputs": [
        {
          "indexed": false,
          "internalType": "address",
          "name": "liquidator",
          "type": "address"
        },
        {
          "indexed": false,
          "internalType": "address",
          "name": "borrower",
          "type": "address"
        },
        {
          "indexed": false,
          "internalType": "uint256",
          "name": "repayAmount",
          "type": "uint256"
        },
        {
          "indexed": false,
          "internalType": "address",
          "name": "bTokenCollateral",
          "type": "address"
        },
        {
          "indexed": false,
          "internalType": "uint256",
          "name": "seizeTokens",
          "type": "uint256"
        }
      ],
      "name": "LiquidateBorrow",
      "type": "event"
    },
    {
      "anonymous": false,
      "inputs": [
        {
          "indexed": false,
          "internalType": "address",
          "name": "minter",
          "type": "address"
        },
        {
          "indexed": false,
          "internalType": "uint256",
          "name": "mintAmount",
          "type": "uint256"
        },
        {
          "indexed": false,
          "internalType": "uint256",
          "name": "mintTokens",
          "type": "uint256"
        }
      ],
      "name": "Mint",
      "type": "event"
    },
    {
      "anonymous": false,
      "inputs": [
        {
          "indexed": false,
          "internalType": "address",
          "name": "oldAdmin",
          "type": "address"
        },
        {
          "indexed": false,
          "internalType": "address",
          "name": "newAdmin",
          "type": "address"
        }
      ],
      "name": "NewAdmin",
      "type": "event"
    },
    {
      "anonymous": false,
      "inputs": [
        {
          "indexed": false,
          "internalType": "contract ComptrollerInterface",
          "name": "oldComptroller",
          "type": "address"
        },
        {
          "indexed": false,
          "internalType": "contract ComptrollerInterface",
          "name": "newComptroller",
          "type": "address"
        }
      ],
      "name": "NewComptroller",
      "type": "event"
    },
    {
      "anonymous": false,
      "inputs": [
        {
          "indexed": false,
          "internalType": "contract InterestRateModel",
          "name": "oldInterestRateModel",
          "type": "address"
        },
        {
          "indexed": false,
          "internalType": "contract InterestRateModel",
          "name": "newInterestRateModel",
          "type": "address"
        }
      ],
      "name": "NewMarketInterestRateModel",
      "type": "event"
    },
    {
      "anonymous": false,
      "inputs": [
        {
          "indexed": false,
          "internalType": "address",
          "name": "oldPendingAdmin",
          "type": "address"
        },
        {
          "indexed": false,
          "internalType": "address",
          "name": "newPendingAdmin",
          "type": "address"
        }
      ],
      "name": "NewPendingAdmin",
      "type": "event"
    },
    {
      "anonymous": false,
      "inputs": [
        {
          "indexed": false,
          "internalType": "uint256",
          "name": "oldReserveFactorMantissa",
          "type": "uint256"
        },
        {
          "indexed": false,
          "internalType": "uint256",
          "name": "newReserveFactorMantissa",
          "type": "uint256"
        }
      ],
      "name": "NewReserveFactor",
      "type": "event"
    },
    {
      "anonymous": false,
      "inputs": [
        {
          "indexed": false,
          "internalType": "address",
          "name": "redeemer",
          "type": "address"
        },
        {
          "indexed": false,
          "internalType": "uint256",
          "name": "redeemAmount",
          "type": "uint256"
        },
        {
          "indexed": false,
          "internalType": "uint256",
          "name": "redeemTokens",
          "type": "uint256"
        }
      ],
      "name": "Redeem",
      "type": "event"
    },
    {
      "anonymous": false,
      "inputs": [
        {
          "indexed": false,
          "internalType": "address",
          "name": "redeemer",
          "type": "address"
        },
        {
          "indexed": false,
          "internalType": "uint256",
          "name": "feeAmount",
          "type": "uint256"
        },
        {
          "indexed": false,
          "internalType": "uint256",
          "name": "redeemTokens",
          "type": "uint256"
        }
      ],
      "name": "RedeemFee",
      "type": "event"
    },
    {
      "anonymous": false,
      "inputs": [
        {
          "indexed": false,
          "internalType": "address",
          "name": "payer",
          "type": "address"
        },
        {
          "indexed": false,
          "internalType": "address",
          "name": "borrower",
          "type": "address"
        },
        {
          "indexed": false,
          "internalType": "uint256",
          "name": "repayAmount",
          "type": "uint256"
        },
        {
          "indexed": false,
          "internalType": "uint256",
          "name": "accountBorrows",
          "type": "uint256"
        },
        {
          "indexed": false,
          "internalType": "uint256",
          "name": "totalBorrows",
          "type": "uint256"
        }
      ],
      "name": "RepayBorrow",
      "type": "event"
    },
    {
      "anonymous": false,
      "inputs": [
        {
          "indexed": false,
          "internalType": "address",
          "name": "benefactor",
          "type": "address"
        },
        {
          "indexed": false,
          "internalType": "uint256",
          "name": "addAmount",
          "type": "uint256"
        },
        {
          "indexed": false,
          "internalType": "uint256",
          "name": "newTotalReserves",
          "type": "uint256"
        }
      ],
      "name": "ReservesAdded",
      "type": "event"
    },
    {
      "anonymous": false,
      "inputs": [
        {
          "indexed": false,
          "internalType": "address",
          "name": "admin",
          "type": "address"
        },
        {
          "indexed": false,
          "internalType": "uint256",
          "name": "reduceAmount",
          "type": "uint256"
        },
        {
          "indexed": false,
          "internalType": "uint256",
          "name": "newTotalReserves",
          "type": "uint256"
        }
      ],
      "name": "ReservesReduced",
      "type": "event"
    },
    {
      "anonymous": false,
      "inputs": [
        {
          "indexed": true,
          "internalType": "address",
          "name": "from",
          "type": "address"
        },
        {
          "indexed": true,
          "internalType": "address",
          "name": "to",
          "type": "address"
        },
        {
          "indexed": false,
          "internalType": "uint256",
          "name": "amount",
          "type": "uint256"
        }
      ],
      "name": "Transfer",
      "type": "event"
    },
    {
      "constant": false,
      "inputs": [],
      "name": "_acceptAdmin",
      "outputs": [
        {
          "internalType": "uint256",
          "name": "",
          "type": "uint256"
        }
      ],
      "payable": false,
      "stateMutability": "nonpayable",
      "type": "function"
    },
    {
      "constant": false,
      "inputs": [
        {
          "internalType": "uint256",
          "name": "addAmount",
          "type": "uint256"
        }
      ],
      "name": "_addReserves",
      "outputs": [
        {
          "internalType": "uint256",
          "name": "",
          "type": "uint256"
        }
      ],
      "payable": false,
      "stateMutability": "nonpayable",
      "type": "function"
    },
    {
      "constant": false,
      "inputs": [
        {
          "internalType": "bytes",
          "name": "data",
          "type": "bytes"
        }
      ],
      "name": "_becomeImplementation",
      "outputs": [],
      "payable": false,
      "stateMutability": "nonpayable",
      "type": "function"
    },
    {
      "constant": false,
      "inputs": [
        {
          "internalType": "uint256",
          "name": "reduceAmount",
          "type": "uint256"
        }
      ],
      "name": "_reduceReserves",
      "outputs": [
        {
          "internalType": "uint256",
          "name": "",
          "type": "uint256"
        }
      ],
      "payable": false,
      "stateMutability": "nonpayable",
      "type": "function"
    },
    {
      "constant": false,
      "inputs": [],
      "name": "_resignImplementation",
      "outputs": [],
      "payable": false,
      "stateMutability": "nonpayable",
      "type": "function"
    },
    {
      "constant": false,
      "inputs": [
        {
          "internalType": "contract ComptrollerInterface",
          "name": "newComptroller",
          "type": "address"
        }
      ],
      "name": "_setComptroller",
      "outputs": [
        {
          "internalType": "uint256",
          "name": "",
          "type": "uint256"
        }
      ],
      "payable": false,
      "stateMutability": "nonpayable",
      "type": "function"
    },
    {
      "constant": false,
      "inputs": [
        {
          "internalType": "contract InterestRateModel",
          "name": "newInterestRateModel",
          "type": "address"
        }
      ],
      "name": "_setInterestRateModel",
      "outputs": [
        {
          "internalType": "uint256",
          "name": "",
          "type": "uint256"
        }
      ],
      "payable": false,
      "stateMutability": "nonpayable",
      "type": "function"
    },
    {
      "constant": false,
      "inputs": [
        {
          "internalType": "address payable",
          "name": "newPendingAdmin",
          "type": "address"
        }
      ],
      "name": "_setPendingAdmin",
      "outputs": [
        {
          "internalType": "uint256",
          "name": "",
          "type": "uint256"
        }
      ],
      "payable": false,
      "stateMutability": "nonpayable",
      "type": "function"
    },
    {
      "constant": false,
      "inputs": [
        {
          "internalType": "uint256",
          "name": "newReserveFactorMantissa",
          "type": "uint256"
        }
      ],
      "name": "_setReserveFactor",
      "outputs": [
        {
          "internalType": "uint256",
          "name": "",
          "type": "uint256"
        }
      ],
      "payable": false,
      "stateMutability": "nonpayable",
      "type": "function"
    },
    {
      "constant": true,
      "inputs": [],
      "name": "accrualBlockNumber",
      "outputs": [
        {
          "internalType": "uint256",
          "name": "",
          "type": "uint256"
        }
      ],
      "payable": false,
      "stateMutability": "view",
      "type": "function"
    },
    {
      "constant": false,
      "inputs": [],
      "name": "accrueInterest",
      "outputs": [
        {
          "internalType": "uint256",
          "name": "",
          "type": "uint256"
        }
      ],
      "payable": false,
      "stateMutability": "nonpayable",
      "type": "function"
    },
    {
      "constant": true,
      "inputs": [],
      "name": "admin",
      "outputs": [
        {
          "internalType": "address payable",
          "name": "",
          "type": "address"
        }
      ],
      "payable": false,
      "stateMutability": "view",
      "type": "function"
    },
    {
      "constant": true,
      "inputs": [
        {
          "internalType": "address",
          "name": "owner",
          "type": "address"
        },
        {
          "internalType": "address",
          "name": "spender",
          "type": "address"
        }
      ],
      "name": "allowance",
      "outputs": [
        {
          "internalType": "uint256",
          "name": "",
          "type": "uint256"
        }
      ],
      "payable": false,
      "stateMutability": "view",
      "type": "function"
    },
    {
      "constant": false,
      "inputs": [
        {
          "internalType": "address",
          "name": "spender",
          "type": "address"
        },
        {
          "internalType": "uint256",
          "name": "amount",
          "type": "uint256"
        }
      ],
      "name": "approve",
      "outputs": [
        {
          "internalType": "bool",
          "name": "",
          "type": "bool"
        }
      ],
      "payable": false,
      "stateMutability": "nonpayable",
      "type": "function"
    },
    {
      "constant": true,
      "inputs": [
        {
          "internalType": "address",
          "name": "owner",
          "type": "address"
        }
      ],
      "name": "balanceOf",
      "outputs": [
        {
          "internalType": "uint256",
          "name": "",
          "type": "uint256"
        }
      ],
      "payable": false,
      "stateMutability": "view",
      "type": "function"
    },
    {
      "constant": false,
      "inputs": [
        {
          "internalType": "address",
          "name": "owner",
          "type": "address"
        }
      ],
      "name": "balanceOfUnderlying",
      "outputs": [
        {
          "internalType": "uint256",
          "name": "",
          "type": "uint256"
        }
      ],
      "payable": false,
      "stateMutability": "nonpayable",
      "type": "function"
    },
    {
      "constant": false,
      "inputs": [
        {
          "internalType": "uint256",
          "name": "borrowAmount",
          "type": "uint256"
        }
      ],
      "name": "borrow",
      "outputs": [
        {
          "internalType": "uint256",
          "name": "",
          "type": "uint256"
        }
      ],
      "payable": false,
      "stateMutability": "nonpayable",
      "type": "function"
    },
    {
      "constant": false,
      "inputs": [
        {
          "internalType": "address",
          "name": "account",
          "type": "address"
        }
      ],
      "name": "borrowBalanceCurrent",
      "outputs": [
        {
          "internalType": "uint256",
          "name": "",
          "type": "uint256"
        }
      ],
      "payable": false,
      "stateMutability": "nonpayable",
      "type": "function"
    },
    {
      "constant": true,
      "inputs": [
        {
          "internalType": "address",
          "name": "account",
          "type": "address"
        }
      ],
      "name": "borrowBalanceStored",
      "outputs": [
        {
          "internalType": "uint256",
          "name": "",
          "type": "uint256"
        }
      ],
      "payable": false,
      "stateMutability": "view",
      "type": "function"
    },
    {
      "constant": true,
      "inputs": [],
      "name": "borrowIndex",
      "outputs": [
        {
          "internalType": "uint256",
          "name": "",
          "type": "uint256"
        }
      ],
      "payable": false,
      "stateMutability": "view",
      "type": "function"
    },
    {
      "constant": true,
      "inputs": [],
      "name": "borrowRatePerBlock",
      "outputs": [
        {
          "internalType": "uint256",
          "name": "",
          "type": "uint256"
        }
      ],
      "payable": false,
      "stateMutability": "view",
      "type": "function"
    },
    {
      "constant": true,
      "inputs": [],
      "name": "comptroller",
      "outputs": [
        {
          "internalType": "contract ComptrollerInterface",
          "name": "",
          "type": "address"
        }
      ],
      "payable": false,
      "stateMutability": "view",
      "type": "function"
    },
    {
      "constant": true,
      "inputs": [],
      "name": "decimals",
      "outputs": [
        {
          "internalType": "uint8",
          "name": "",
          "type": "uint8"
        }
      ],
      "payable": false,
      "stateMutability": "view",
      "type": "function"
    },
    {
      "constant": false,
      "inputs": [],
      "name": "exchangeRateCurrent",
      "outputs": [
        {
          "internalType": "uint256",
          "name": "",
          "type": "uint256"
        }
      ],
      "payable": false,
      "stateMutability": "nonpayable",
      "type": "function"
    },
    {
      "constant": true,
      "inputs": [],
      "name": "exchangeRateStored",
      "outputs": [
        {
          "internalType": "uint256",
          "name": "",
          "type": "uint256"
        }
      ],
      "payable": false,
      "stateMutability": "view",
      "type": "function"
    },
    {
      "constant": true,
      "inputs": [
        {
          "internalType": "address",
          "name": "account",
          "type": "address"
        }
      ],
      "name": "getAccountSnapshot",
      "outputs": [
        {
          "internalType": "uint256",
          "name": "",
          "type": "uint256"
        },
        {
          "internalType": "uint256",
          "name": "",
          "type": "uint256"
        },
        {
          "internalType": "uint256",
          "name": "",
          "type": "uint256"
        },
        {
          "internalType": "uint256",
          "name": "",
          "type": "uint256"
        }
      ],
      "payable": false,
      "stateMutability": "view",
      "type": "function"
    },
    {
      "constant": true,
      "inputs": [],
      "name": "getCash",
      "outputs": [
        {
          "internalType": "uint256",
          "name": "",
          "type": "uint256"
        }
      ],
      "payable": false,
      "stateMutability": "view",
      "type": "function"
    },
    {
      "constant": true,
      "inputs": [],
      "name": "implementation",
      "outputs": [
        {
          "internalType": "address",
          "name": "",
          "type": "address"
        }
      ],
      "payable": false,
      "stateMutability": "view",
      "type": "function"
    },
    {
      "constant": false,
      "inputs": [
        {
          "internalType": "address",
          "name": "underlying_",
          "type": "address"
        },
        {
          "internalType": "contract ComptrollerInterface",
          "name": "comptroller_",
          "type": "address"
        },
        {
          "internalType": "contract InterestRateModel",
          "name": "interestRateModel_",
          "type": "address"
        },
        {
          "internalType": "uint256",
          "name": "initialExchangeRateMantissa_",
          "type": "uint256"
        },
        {
          "internalType": "string",
          "name": "name_",
          "type": "string"
        },
        {
          "internalType": "string",
          "name": "symbol_",
          "type": "string"
        },
        {
          "internalType": "uint8",
          "name": "decimals_",
          "type": "uint8"
        }
      ],
      "name": "initialize",
      "outputs": [],
      "payable": false,
      "stateMutability": "nonpayable",
      "type": "function"
    },
    {
      "constant": false,
      "inputs": [
        {
          "internalType": "contract ComptrollerInterface",
          "name": "comptroller_",
          "type": "address"
        },
        {
          "internalType": "contract InterestRateModel",
          "name": "interestRateModel_",
          "type": "address"
        },
        {
          "internalType": "uint256",
          "name": "initialExchangeRateMantissa_",
          "type": "uint256"
        },
        {
          "internalType": "string",
          "name": "name_",
          "type": "string"
        },
        {
          "internalType": "string",
          "name": "symbol_",
          "type": "string"
        },
        {
          "internalType": "uint8",
          "name": "decimals_",
          "type": "uint8"
        }
      ],
      "name": "initialize",
      "outputs": [],
      "payable": false,
      "stateMutability": "nonpayable",
      "type": "function"
    },
    {
      "constant": true,
      "inputs": [],
      "name": "interestRateModel",
      "outputs": [
        {
          "internalType": "contract InterestRateModel",
          "name": "",
          "type": "address"
        }
      ],
      "payable": false,
      "stateMutability": "view",
      "type": "function"
    },
    {
      "constant": true,
      "inputs": [],
      "name": "isBToken",
      "outputs": [
        {
          "internalType": "bool",
          "name": "",
          "type": "bool"
        }
      ],
      "payable": false,
      "stateMutability": "view",
      "type": "function"
    },
    {
      "constant": false,
      "inputs": [
        {
          "internalType": "address",
          "name": "borrower",
          "type": "address"
        },
        {
          "internalType": "uint256",
          "name": "repayAmount",
          "type": "uint256"
        },
        {
          "internalType": "contract BTokenInterface",
          "name": "bTokenCollateral",
          "type": "address"
        }
      ],
      "name": "liquidateBorrow",
      "outputs": [
        {
          "internalType": "uint256",
          "name": "",
          "type": "uint256"
        }
      ],
      "payable": false,
      "stateMutability": "nonpayable",
      "type": "function"
    },
    {
      "constant": false,
      "inputs": [
        {
          "internalType": "uint256",
          "name": "mintAmount",
          "type": "uint256"
        }
      ],
      "name": "mint",
      "outputs": [
        {
          "internalType": "uint256",
          "name": "",
          "type": "uint256"
        }
      ],
      "payable": false,
      "stateMutability": "nonpayable",
      "type": "function"
    },
    {
      "constant": true,
      "inputs": [],
      "name": "name",
      "outputs": [
        {
          "internalType": "string",
          "name": "",
          "type": "string"
        }
      ],
      "payable": false,
      "stateMutability": "view",
      "type": "function"
    },
    {
      "constant": true,
      "inputs": [],
      "name": "pendingAdmin",
      "outputs": [
        {
          "internalType": "address payable",
          "name": "",
          "type": "address"
        }
      ],
      "payable": false,
      "stateMutability": "view",
      "type": "function"
    },
    {
      "constant": false,
      "inputs": [
        {
          "internalType": "uint256",
          "name": "redeemTokens",
          "type": "uint256"
        }
      ],
      "name": "redeem",
      "outputs": [
        {
          "internalType": "uint256",
          "name": "",
          "type": "uint256"
        }
      ],
      "payable": false,
      "stateMutability": "nonpayable",
      "type": "function"
    },
    {
      "constant": false,
      "inputs": [
        {
          "internalType": "uint256",
          "name": "redeemAmount",
          "type": "uint256"
        }
      ],
      "name": "redeemUnderlying",
      "outputs": [
        {
          "internalType": "uint256",
          "name": "",
          "type": "uint256"
        }
      ],
      "payable": false,
      "stateMutability": "nonpayable",
      "type": "function"
    },
    {
      "constant": false,
      "inputs": [
        {
          "internalType": "uint256",
          "name": "repayAmount",
          "type": "uint256"
        }
      ],
      "name": "repayBorrow",
      "outputs": [
        {
          "internalType": "uint256",
          "name": "",
          "type": "uint256"
        }
      ],
      "payable": false,
      "stateMutability": "nonpayable",
      "type": "function"
    },
    {
      "constant": false,
      "inputs": [
        {
          "internalType": "address",
          "name": "borrower",
          "type": "address"
        },
        {
          "internalType": "uint256",
          "name": "repayAmount",
          "type": "uint256"
        }
      ],
      "name": "repayBorrowBehalf",
      "outputs": [
        {
          "internalType": "uint256",
          "name": "",
          "type": "uint256"
        }
      ],
      "payable": false,
      "stateMutability": "nonpayable",
      "type": "function"
    },
    {
      "constant": true,
      "inputs": [],
      "name": "reserveFactorMantissa",
      "outputs": [
        {
          "internalType": "uint256",
          "name": "",
          "type": "uint256"
        }
      ],
      "payable": false,
      "stateMutability": "view",
      "type": "function"
    },
    {
      "constant": false,
      "inputs": [
        {
          "internalType": "address",
          "name": "liquidator",
          "type": "address"
        },
        {
          "internalType": "address",
          "name": "borrower",
          "type": "address"
        },
        {
          "internalType": "uint256",
          "name": "seizeTokens",
          "type": "uint256"
        }
      ],
      "name": "seize",
      "outputs": [
        {
          "internalType": "uint256",
          "name": "",
          "type": "uint256"
        }
      ],
      "payable": false,
      "stateMutability": "nonpayable",
      "type": "function"
    },
    {
      "constant": true,
      "inputs": [],
      "name": "supplyRatePerBlock",
      "outputs": [
        {
          "internalType": "uint256",
          "name": "",
          "type": "uint256"
        }
      ],
      "payable": false,
      "stateMutability": "view",
      "type": "function"
    },
    {
      "constant": true,
      "inputs": [],
      "name": "symbol",
      "outputs": [
        {
          "internalType": "string",
          "name": "",
          "type": "string"
        }
      ],
      "payable": false,
      "stateMutability": "view",
      "type": "function"
    },
    {
      "constant": true,
      "inputs": [],
      "name": "totalBorrows",
      "outputs": [
        {
          "internalType": "uint256",
          "name": "",
          "type": "uint256"
        }
      ],
      "payable": false,
      "stateMutability": "view",
      "type": "function"
    },
    {
      "constant": false,
      "inputs": [],
      "name": "totalBorrowsCurrent",
      "outputs": [
        {
          "internalType": "uint256",
          "name": "",
          "type": "uint256"
        }
      ],
      "payable": false,
      "stateMutability": "nonpayable",
      "type": "function"
    },
    {
      "constant": true,
      "inputs": [],
      "name": "totalReserves",
      "outputs": [
        {
          "internalType": "uint256",
          "name": "",
          "type": "uint256"
        }
      ],
      "payable": false,
      "stateMutability": "view",
      "type": "function"
    },
    {
      "constant": true,
      "inputs": [],
      "name": "totalSupply",
      "outputs": [
        {
          "internalType": "uint256",
          "name": "",
          "type": "uint256"
        }
      ],
      "payable": false,
      "stateMutability": "view",
      "type": "function"
    },
    {
      "constant": false,
      "inputs": [
        {
          "internalType": "address",
          "name": "dst",
          "type": "address"
        },
        {
          "internalType": "uint256",
          "name": "amount",
          "type": "uint256"
        }
      ],
      "name": "transfer",
      "outputs": [
        {
          "internalType": "bool",
          "name": "",
          "type": "bool"
        }
      ],
      "payable": false,
      "stateMutability": "nonpayable",
      "type": "function"
    },
    {
      "constant": false,
      "inputs": [
        {
          "internalType": "address",
          "name": "src",
          "type": "address"
        },
        {
          "internalType": "address",
          "name": "dst",
          "type": "address"
        },
        {
          "internalType": "uint256",
          "name": "amount",
          "type": "uint256"
        }
      ],
      "name": "transferFrom",
      "outputs": [
        {
          "internalType": "bool",
          "name": "",
          "type": "bool"
        }
      ],
      "payable": false,
      "stateMutability": "nonpayable",
      "type": "function"
    },
    {
      "constant": true,
      "inputs": [],
      "name": "underlying",
      "outputs": [
        {
          "internalType": "address",
          "name": "",
          "type": "address"
        }
      ],
      "payable": false,
      "stateMutability": "view",
      "type": "function"
    },
    {
      "constant": false,
      "inputs": [
        {
          "internalType": "address",
          "name": "btntLikeDelegatee",
          "type": "address"
        }
      ],
      "name": "_delegateBtntLikeTo",
      "outputs": [],
      "payable": false,
      "stateMutability": "nonpayable",
      "type": "function"
    }
  ],
  "bytecode": "0x60806040523480156200001157600080fd5b5061911f80620000226000396000f3fe608060405234801561001057600080fd5b506004361061030c5760003560e01c8063852a12e31161019d578063c04599a8116100e9578063f2b3abbd116100a2578063f851a4401161007c578063f851a44014611381578063f8f9da28146113cb578063fbb62337146113e9578063fca7820b1461140b5761030c565b8063f2b3abbd1461125d578063f3fdb15a146112b5578063f5e3c462146112ff5761030c565b8063c04599a814611092578063c37f68e2146110d6578063c5ebeaec14611143578063db006a7514611185578063dd62ed3e146111c7578063e9c714f21461123f5761030c565b8063a6afed9511610156578063ae9d70b011610130578063ae9d70b014610f7c578063b2a02ff114610f9a578063b71d1a0c1461101c578063bd6d894d146110745761030c565b8063a6afed9514610eda578063a9059cbb14610ef8578063aa5af0fd14610f5e5761030c565b8063852a12e314610bb45780638f840ddd14610bf657806395d89b4114610c1457806395dd919314610c9757806399d8c1b414610cef578063a0712d6814610e985761030c565b80633af9e6691161025c5780635c60da1b116102155780636c540baf116101ef5780636c540baf14610ad65780636f307dc314610af457806370a0823114610b3e57806373acee9814610b965761030c565b80635c60da1b14610a005780635fe3b56714610a4a578063601a0bf114610a945761030c565b80633af9e669146108175780633b1d21a21461086f5780633e9410101461088d5780634576b5db146108cf57806347bd37181461092757806356e67728146109455761030c565b806318160ddd116102c957806323b872dd116102a357806323b872dd146106c15780632608f8181461074757806326782247146107a9578063313ce567146107f35761030c565b806318160ddd146104bc578063182df0f5146104da5780631a31d465146104f85761030c565b806306fdde0314610311578063095ea7b3146103945780630e752702146103fa578063153ab5051461043c578063173b99041461044657806317bfdfbc14610464575b600080fd5b61031961144d565b6040518080602001828103825283818151815260200191508051906020019080838360005b8381101561035957808201518184015260208101905061033e565b50505050905090810190601f1680156103865780820380516001836020036101000a031916815260200191505b509250505060405180910390f35b6103e0600480360360408110156103aa57600080fd5b81019080803573ffffffffffffffffffffffffffffffffffffffff169060200190929190803590602001909291905050506114eb565b604051808215151515815260200191505060405180910390f35b6104266004803603602081101561041057600080fd5b81019080803590602001909291905050506115e2565b6040518082815260200191505060405180910390f35b6104446115fa565b005b61044e6116ec565b6040518082815260200191505060405180910390f35b6104a66004803603602081101561047a57600080fd5b81019080803573ffffffffffffffffffffffffffffffffffffffff1690602001909291905050506116f2565b6040518082815260200191505060405180910390f35b6104c4611841565b6040518082815260200191505060405180910390f35b6104e2611847565b6040518082815260200191505060405180910390f35b6106bf600480360360e081101561050e57600080fd5b81019080803573ffffffffffffffffffffffffffffffffffffffff169060200190929190803573ffffffffffffffffffffffffffffffffffffffff169060200190929190803573ffffffffffffffffffffffffffffffffffffffff169060200190929190803590602001909291908035906020019064010000000081111561059557600080fd5b8201836020820111156105a757600080fd5b803590602001918460018302840111640100000000831117156105c957600080fd5b91908080601f016020809104026020016040519081016040528093929190818152602001838380828437600081840152601f19601f8201169050808301925050505050505091929192908035906020019064010000000081111561062c57600080fd5b82018360208201111561063e57600080fd5b8035906020019184600183028401116401000000008311171561066057600080fd5b91908080601f016020809104026020016040519081016040528093929190818152602001838380828437600081840152601f19601f820116905080830192505050505050509192919290803560ff1690602001909291905050506118cf565b005b61072d600480360360608110156106d757600080fd5b81019080803573ffffffffffffffffffffffffffffffffffffffff169060200190929190803573ffffffffffffffffffffffffffffffffffffffff169060200190929190803590602001909291905050506119cb565b604051808215151515815260200191505060405180910390f35b6107936004803603604081101561075d57600080fd5b81019080803573ffffffffffffffffffffffffffffffffffffffff16906020019092919080359060200190929190505050611aa5565b6040518082815260200191505060405180910390f35b6107b1611abf565b604051808273ffffffffffffffffffffffffffffffffffffffff1673ffffffffffffffffffffffffffffffffffffffff16815260200191505060405180910390f35b6107fb611ae5565b604051808260ff1660ff16815260200191505060405180910390f35b6108596004803603602081101561082d57600080fd5b81019080803573ffffffffffffffffffffffffffffffffffffffff169060200190929190505050611af8565b6040518082815260200191505060405180910390f35b610877611c01565b6040518082815260200191505060405180910390f35b6108b9600480360360208110156108a357600080fd5b8101908080359060200190929190505050611c10565b6040518082815260200191505060405180910390f35b610911600480360360208110156108e557600080fd5b81019080803573ffffffffffffffffffffffffffffffffffffffff169060200190929190505050611c22565b6040518082815260200191505060405180910390f35b61092f611e93565b6040518082815260200191505060405180910390f35b6109fe6004803603602081101561095b57600080fd5b810190808035906020019064010000000081111561097857600080fd5b82018360208201111561098a57600080fd5b803590602001918460018302840111640100000000831117156109ac57600080fd5b91908080601f016020809104026020016040519081016040528093929190818152602001838380828437600081840152601f19601f820116905080830192505050505050509192919290505050611e99565b005b610a08611f8c565b604051808273ffffffffffffffffffffffffffffffffffffffff1673ffffffffffffffffffffffffffffffffffffffff16815260200191505060405180910390f35b610a52611fb2565b604051808273ffffffffffffffffffffffffffffffffffffffff1673ffffffffffffffffffffffffffffffffffffffff16815260200191505060405180910390f35b610ac060048036036020811015610aaa57600080fd5b8101908080359060200190929190505050611fd8565b6040518082815260200191505060405180910390f35b610ade6120de565b6040518082815260200191505060405180910390f35b610afc6120e4565b604051808273ffffffffffffffffffffffffffffffffffffffff1673ffffffffffffffffffffffffffffffffffffffff16815260200191505060405180910390f35b610b8060048036036020811015610b5457600080fd5b81019080803573ffffffffffffffffffffffffffffffffffffffff16906020019092919050505061210a565b6040518082815260200191505060405180910390f35b610b9e612153565b6040518082815260200191505060405180910390f35b610be060048036036020811015610bca57600080fd5b810190808035906020019092919050505061229a565b6040518082815260200191505060405180910390f35b610bfe6122ac565b6040518082815260200191505060405180910390f35b610c1c6122b2565b6040518080602001828103825283818151815260200191508051906020019080838360005b83811015610c5c578082015181840152602081019050610c41565b50505050905090810190601f168015610c895780820380516001836020036101000a031916815260200191505b509250505060405180910390f35b610cd960048036036020811015610cad57600080fd5b81019080803573ffffffffffffffffffffffffffffffffffffffff169060200190929190505050612350565b6040518082815260200191505060405180910390f35b610e96600480360360c0811015610d0557600080fd5b81019080803573ffffffffffffffffffffffffffffffffffffffff169060200190929190803573ffffffffffffffffffffffffffffffffffffffff1690602001909291908035906020019092919080359060200190640100000000811115610d6c57600080fd5b820183602082011115610d7e57600080fd5b80359060200191846001830284011164010000000083111715610da057600080fd5b91908080601f016020809104026020016040519081016040528093929190818152602001838380828437600081840152601f19601f82011690508083019250505050505050919291929080359060200190640100000000811115610e0357600080fd5b820183602082011115610e1557600080fd5b80359060200191846001830284011164010000000083111715610e3757600080fd5b91908080601f016020809104026020016040519081016040528093929190818152602001838380828437600081840152601f19601f820116905080830192505050505050509192919290803560ff1690602001909291905050506123db565b005b610ec460048036036020811015610eae57600080fd5b81019080803590602001909291905050506126d2565b6040518082815260200191505060405180910390f35b610ee26126ea565b6040518082815260200191505060405180910390f35b610f4460048036036040811015610f0e57600080fd5b81019080803573ffffffffffffffffffffffffffffffffffffffff16906020019092919080359060200190929190505050612ba3565b604051808215151515815260200191505060405180910390f35b610f66612c7c565b6040518082815260200191505060405180910390f35b610f84612c82565b6040518082815260200191505060405180910390f35b61100660048036036060811015610fb057600080fd5b81019080803573ffffffffffffffffffffffffffffffffffffffff169060200190929190803573ffffffffffffffffffffffffffffffffffffffff16906020019092919080359060200190929190505050612d5c565b6040518082815260200191505060405180910390f35b61105e6004803603602081101561103257600080fd5b81019080803573ffffffffffffffffffffffffffffffffffffffff169060200190929190505050612e28565b6040518082815260200191505060405180910390f35b61107c612fa7565b6040518082815260200191505060405180910390f35b6110d4600480360360208110156110a857600080fd5b81019080803573ffffffffffffffffffffffffffffffffffffffff1690602001909291905050506130f3565b005b611118600480360360208110156110ec57600080fd5b81019080803573ffffffffffffffffffffffffffffffffffffffff169060200190929190505050613255565b6040518085815260200184815260200183815260200182815260200194505050505060405180910390f35b61116f6004803603602081101561115957600080fd5b810190808035906020019092919050505061337d565b6040518082815260200191505060405180910390f35b6111b16004803603602081101561119b57600080fd5b810190808035906020019092919050505061338f565b6040518082815260200191505060405180910390f35b611229600480360360408110156111dd57600080fd5b81019080803573ffffffffffffffffffffffffffffffffffffffff169060200190929190803573ffffffffffffffffffffffffffffffffffffffff1690602001909291905050506133a1565b6040518082815260200191505060405180910390f35b611247613428565b6040518082815260200191505060405180910390f35b61129f6004803603602081101561127357600080fd5b81019080803573ffffffffffffffffffffffffffffffffffffffff169060200190929190505050613745565b6040518082815260200191505060405180910390f35b6112bd613795565b604051808273ffffffffffffffffffffffffffffffffffffffff1673ffffffffffffffffffffffffffffffffffffffff16815260200191505060405180910390f35b61136b6004803603606081101561131557600080fd5b81019080803573ffffffffffffffffffffffffffffffffffffffff16906020019092919080359060200190929190803573ffffffffffffffffffffffffffffffffffffffff1690602001909291905050506137bb565b6040518082815260200191505060405180910390f35b6113896137d7565b604051808273ffffffffffffffffffffffffffffffffffffffff1673ffffffffffffffffffffffffffffffffffffffff16815260200191505060405180910390f35b6113d36137fd565b6040518082815260200191505060405180910390f35b6113f16138cd565b604051808215151515815260200191505060405180910390f35b6114376004803603602081101561142157600080fd5b81019080803590602001909291905050506138d2565b6040518082815260200191505060405180910390f35b60018054600181600116156101000203166002900480601f0160208091040260200160405190810160405280929190818152602001828054600181600116156101000203166002900480156114e35780601f106114b8576101008083540402835291602001916114e3565b820191906000526020600020905b8154815290600101906020018083116114c657829003601f168201915b505050505081565b60008033905082600f60008373ffffffffffffffffffffffffffffffffffffffff1673ffffffffffffffffffffffffffffffffffffffff16815260200190815260200160002060008673ffffffffffffffffffffffffffffffffffffffff1673ffffffffffffffffffffffffffffffffffffffff168152602001908152602001600020819055508373ffffffffffffffffffffffffffffffffffffffff168173ffffffffffffffffffffffffffffffffffffffff167f8c5be1e5ebec7d5bd14f71427d1e84f3dd0314c0f7b2291e5b200ac8c7c3b925856040518082815260200191505060405180910390a3600191505092915050565b6000806115ee836139d8565b50905080915050919050565b600015611644576000601260006101000a81548173ffffffffffffffffffffffffffffffffffffffff021916908373ffffffffffffffffffffffffffffffffffffffff1602179055505b600360019054906101000a900473ffffffffffffffffffffffffffffffffffffffff1673ffffffffffffffffffffffffffffffffffffffff163373ffffffffffffffffffffffffffffffffffffffff16146116ea576040517f08c379a000000000000000000000000000000000000000000000000000000000815260040180806020018281038252602d815260200180618eaf602d913960400191505060405180910390fd5b565b60085481565b60008060009054906101000a900460ff16611775576040517f08c379a000000000000000000000000000000000000000000000000000000000815260040180806020018281038252600a8152602001807f72652d656e74657265640000000000000000000000000000000000000000000081525060200191505060405180910390fd5b60008060006101000a81548160ff0219169083151502179055506000601181111561179c57fe5b6117a46126ea565b14611817576040517f08c379a00000000000000000000000000000000000000000000000000000000081526004018080602001828103825260168152602001807f61636372756520696e746572657374206661696c65640000000000000000000081525060200191505060405180910390fd5b61182082612350565b905060016000806101000a81548160ff021916908315150217905550919050565b600d5481565b6000806000611854613aea565b915091506000600381111561186557fe5b82600381111561187157fe5b146118c7576040517f08c379a00000000000000000000000000000000000000000000000000000000081526004018080602001828103825260358152602001806190096035913960400191505060405180910390fd5b809250505090565b6118dd8686868686866123db565b86601160006101000a81548173ffffffffffffffffffffffffffffffffffffffff021916908373ffffffffffffffffffffffffffffffffffffffff160217905550601160009054906101000a900473ffffffffffffffffffffffffffffffffffffffff1673ffffffffffffffffffffffffffffffffffffffff166318160ddd6040518163ffffffff1660e01b815260040160206040518083038186803b15801561198657600080fd5b505afa15801561199a573d6000803e3d6000fd5b505050506040513d60208110156119b057600080fd5b81019080805190602001909291905050505050505050505050565b60008060009054906101000a900460ff16611a4e576040517f08c379a000000000000000000000000000000000000000000000000000000000815260040180806020018281038252600a8152602001807f72652d656e74657265640000000000000000000000000000000000000000000081525060200191505060405180910390fd5b60008060006101000a81548160ff02191690831515021790555060006011811115611a7557fe5b611a8133868686613bc6565b14905060016000806101000a81548160ff0219169083151502179055509392505050565b600080611ab28484614299565b5090508091505092915050565b600460009054906101000a900473ffffffffffffffffffffffffffffffffffffffff1681565b600360009054906101000a900460ff1681565b6000611b02618c29565b6040518060200160405280611b15612fa7565b8152509050600080611b6683600e60008873ffffffffffffffffffffffffffffffffffffffff1673ffffffffffffffffffffffffffffffffffffffff168152602001908152602001600020546143ad565b9150915060006003811115611b7757fe5b826003811115611b8357fe5b14611bf6576040517f08c379a000000000000000000000000000000000000000000000000000000000815260040180806020018281038252601f8152602001807f62616c616e636520636f756c64206e6f742062652063616c63756c617465640081525060200191505060405180910390fd5b809350505050919050565b6000611c0b614410565b905090565b6000611c1b826144f6565b9050919050565b6000600360019054906101000a900473ffffffffffffffffffffffffffffffffffffffff1673ffffffffffffffffffffffffffffffffffffffff163373ffffffffffffffffffffffffffffffffffffffff1614611c8c57611c856001603f614602565b9050611e8e565b6000600560009054906101000a900473ffffffffffffffffffffffffffffffffffffffff1690508273ffffffffffffffffffffffffffffffffffffffff16627e3dd26040518163ffffffff1660e01b815260040160206040518083038186803b158015611cf857600080fd5b505afa158015611d0c573d6000803e3d6000fd5b505050506040513d6020811015611d2257600080fd5b8101908080519060200190929190505050611da5576040517f08c379a000000000000000000000000000000000000000000000000000000000815260040180806020018281038252601c8152602001807f6d61726b6572206d6574686f642072657475726e65642066616c73650000000081525060200191505060405180910390fd5b82600560006101000a81548173ffffffffffffffffffffffffffffffffffffffff021916908373ffffffffffffffffffffffffffffffffffffffff1602179055507f7ac369dbd14fa5ea3f473ed67cc9d598964a77501540ba6751eb0b3decf5870d8184604051808373ffffffffffffffffffffffffffffffffffffffff1673ffffffffffffffffffffffffffffffffffffffff1681526020018273ffffffffffffffffffffffffffffffffffffffff1673ffffffffffffffffffffffffffffffffffffffff1681526020019250505060405180910390a160006011811115611e8a57fe5b9150505b919050565b600b5481565b600015611ee3576000601260006101000a81548173ffffffffffffffffffffffffffffffffffffffff021916908373ffffffffffffffffffffffffffffffffffffffff1602179055505b600360019054906101000a900473ffffffffffffffffffffffffffffffffffffffff1673ffffffffffffffffffffffffffffffffffffffff163373ffffffffffffffffffffffffffffffffffffffff1614611f89576040517f08c379a000000000000000000000000000000000000000000000000000000000815260040180806020018281038252602d8152602001806190be602d913960400191505060405180910390fd5b50565b601260009054906101000a900473ffffffffffffffffffffffffffffffffffffffff1681565b600560009054906101000a900473ffffffffffffffffffffffffffffffffffffffff1681565b60008060009054906101000a900460ff1661205b576040517f08c379a000000000000000000000000000000000000000000000000000000000815260040180806020018281038252600a8152602001807f72652d656e74657265640000000000000000000000000000000000000000000081525060200191505060405180910390fd5b60008060006101000a81548160ff021916908315150217905550600061207f6126ea565b90506000601181111561208e57fe5b81146120b2576120aa8160118111156120a357fe5b6030614602565b9150506120bf565b6120bb83614676565b9150505b60016000806101000a81548160ff021916908315150217905550919050565b60095481565b601160009054906101000a900473ffffffffffffffffffffffffffffffffffffffff1681565b6000600e60008373ffffffffffffffffffffffffffffffffffffffff1673ffffffffffffffffffffffffffffffffffffffff168152602001908152602001600020549050919050565b60008060009054906101000a900460ff166121d6576040517f08c379a000000000000000000000000000000000000000000000000000000000815260040180806020018281038252600a8152602001807f72652d656e74657265640000000000000000000000000000000000000000000081525060200191505060405180910390fd5b60008060006101000a81548160ff021916908315150217905550600060118111156121fd57fe5b6122056126ea565b14612278576040517f08c379a00000000000000000000000000000000000000000000000000000000081526004018080602001828103825260168152602001807f61636372756520696e746572657374206661696c65640000000000000000000081525060200191505060405180910390fd5b600b54905060016000806101000a81548160ff02191690831515021790555090565b60006122a582614887565b9050919050565b600c5481565b60028054600181600116156101000203166002900480601f0160208091040260200160405190810160405280929190818152602001828054600181600116156101000203166002900480156123485780601f1061231d57610100808354040283529160200191612348565b820191906000526020600020905b81548152906001019060200180831161232b57829003601f168201915b505050505081565b600080600061235e84614990565b915091506000600381111561236f57fe5b82600381111561237b57fe5b146123d1576040517f08c379a0000000000000000000000000000000000000000000000000000000008152600401808060200182810382526037815260200180618f076037913960400191505060405180910390fd5b8092505050919050565b600360019054906101000a900473ffffffffffffffffffffffffffffffffffffffff1673ffffffffffffffffffffffffffffffffffffffff163373ffffffffffffffffffffffffffffffffffffffff1614612481576040517f08c379a0000000000000000000000000000000000000000000000000000000008152600401808060200182810382526024815260200180618e166024913960400191505060405180910390fd5b600060095414801561249557506000600a54145b6124ea576040517f08c379a0000000000000000000000000000000000000000000000000000000008152600401808060200182810382526023815260200180618e3a6023913960400191505060405180910390fd5b8360078190555060006007541161254c576040517f08c379a0000000000000000000000000000000000000000000000000000000008152600401808060200182810382526030815260200180618e5d6030913960400191505060405180910390fd5b600061255787611c22565b90506000601181111561256657fe5b81146125da576040517f08c379a000000000000000000000000000000000000000000000000000000000815260040180806020018281038252601a8152602001807f73657474696e6720636f6d7074726f6c6c6572206661696c656400000000000081525060200191505060405180910390fd5b6125e2614a9b565b600981905550670de0b6b3a7640000600a8190555061260086614aa3565b90506000601181111561260f57fe5b8114612666576040517f08c379a0000000000000000000000000000000000000000000000000000000008152600401808060200182810382526022815260200180618e8d6022913960400191505060405180910390fd5b836001908051906020019061267c929190618c3c565b508260029080519060200190612693929190618c3c565b5081600360006101000a81548160ff021916908360ff16021790555060016000806101000a81548160ff02191690831515021790555050505050505050565b6000806126de83614d39565b50905080915050919050565b6000806126f5614a9b565b9050600060095490508181141561271c576000601181111561271357fe5b92505050612ba0565b6000612726614410565b90506000600b5490506000600c5490506000600a5490506000600660009054906101000a900473ffffffffffffffffffffffffffffffffffffffff1673ffffffffffffffffffffffffffffffffffffffff166315f240538686866040518463ffffffff1660e01b815260040180848152602001838152602001828152602001935050505060206040518083038186803b1580156127c257600080fd5b505afa1580156127d6573d6000803e3d6000fd5b505050506040513d60208110156127ec57600080fd5b8101908080519060200190929190505050905065048c2739500081111561287b576040517f08c379a000000000000000000000000000000000000000000000000000000000815260040180806020018281038252601c8152602001807f626f72726f772072617465206973206162737572646c7920686967680000000081525060200191505060405180910390fd5b6000806128888989614e4a565b915091506000600381111561289957fe5b8260038111156128a557fe5b14612918576040517f08c379a000000000000000000000000000000000000000000000000000000000815260040180806020018281038252601f8152602001807f636f756c64206e6f742063616c63756c61746520626c6f636b2064656c74610081525060200191505060405180910390fd5b612920618c29565b60008060008061293e60405180602001604052808a81525087614e75565b80965081985050506000600381111561295357fe5b87600381111561295f57fe5b146129915761297c6009600689600381111561297757fe5b614ef3565b9e505050505050505050505050505050612ba0565b61299b858c6143ad565b8095508198505050600060038111156129b057fe5b8760038111156129bc57fe5b146129ee576129d9600960018960038111156129d457fe5b614ef3565b9e505050505050505050505050505050612ba0565b6129f8848c614f67565b809450819850505060006003811115612a0d57fe5b876003811115612a1957fe5b14612a4b57612a3660096004896003811115612a3157fe5b614ef3565b9e505050505050505050505050505050612ba0565b612a666040518060200160405280600854815250858c614f99565b809350819850505060006003811115612a7b57fe5b876003811115612a8757fe5b14612ab957612aa460096005896003811115612a9f57fe5b614ef3565b9e505050505050505050505050505050612ba0565b612ac4858a8b614f99565b809250819850505060006003811115612ad957fe5b876003811115612ae557fe5b14612b1757612b0260096003896003811115612afd57fe5b614ef3565b9e505050505050505050505050505050612ba0565b8d60098190555080600a8190555082600b8190555081600c819055507f4dec04e750ca11537cabcd8a9eab06494de08da3735bc8871cd41250e190bc048c8583866040518085815260200184815260200183815260200182815260200194505050505060405180910390a160006011811115612b8f57fe5b9e5050505050505050505050505050505b90565b60008060009054906101000a900460ff16612c26576040517f08c379a000000000000000000000000000000000000000000000000000000000815260040180806020018281038252600a8152602001807f72652d656e74657265640000000000000000000000000000000000000000000081525060200191505060405180910390fd5b60008060006101000a81548160ff02191690831515021790555060006011811115612c4d57fe5b612c5933338686613bc6565b14905060016000806101000a81548160ff02191690831515021790555092915050565b600a5481565b6000600660009054906101000a900473ffffffffffffffffffffffffffffffffffffffff1673ffffffffffffffffffffffffffffffffffffffff1663b8168816612cca614410565b600b54600c546008546040518563ffffffff1660e01b81526004018085815260200184815260200183815260200182815260200194505050505060206040518083038186803b158015612d1c57600080fd5b505afa158015612d30573d6000803e3d6000fd5b505050506040513d6020811015612d4657600080fd5b8101908080519060200190929190505050905090565b60008060009054906101000a900460ff16612ddf576040517f08c379a000000000000000000000000000000000000000000000000000000000815260040180806020018281038252600a8152602001807f72652d656e74657265640000000000000000000000000000000000000000000081525060200191505060405180910390fd5b60008060006101000a81548160ff021916908315150217905550612e0533858585615004565b905060016000806101000a81548160ff0219169083151502179055509392505050565b6000600360019054906101000a900473ffffffffffffffffffffffffffffffffffffffff1673ffffffffffffffffffffffffffffffffffffffff163373ffffffffffffffffffffffffffffffffffffffff1614612e9257612e8b60016045614602565b9050612fa2565b6000600460009054906101000a900473ffffffffffffffffffffffffffffffffffffffff16905082600460006101000a81548173ffffffffffffffffffffffffffffffffffffffff021916908373ffffffffffffffffffffffffffffffffffffffff1602179055507fca4f2f25d0898edd99413412fb94012f9e54ec8142f9b093e7720646a95b16a98184604051808373ffffffffffffffffffffffffffffffffffffffff1673ffffffffffffffffffffffffffffffffffffffff1681526020018273ffffffffffffffffffffffffffffffffffffffff1673ffffffffffffffffffffffffffffffffffffffff1681526020019250505060405180910390a160006011811115612f9e57fe5b9150505b919050565b60008060009054906101000a900460ff1661302a576040517f08c379a000000000000000000000000000000000000000000000000000000000815260040180806020018281038252600a8152602001807f72652d656e74657265640000000000000000000000000000000000000000000081525060200191505060405180910390fd5b60008060006101000a81548160ff0219169083151502179055506000601181111561305157fe5b6130596126ea565b146130cc576040517f08c379a00000000000000000000000000000000000000000000000000000000081526004018080602001828103825260168152602001807f61636372756520696e746572657374206661696c65640000000000000000000081525060200191505060405180910390fd5b6130d4611847565b905060016000806101000a81548160ff02191690831515021790555090565b600360019054906101000a900473ffffffffffffffffffffffffffffffffffffffff1673ffffffffffffffffffffffffffffffffffffffff163373ffffffffffffffffffffffffffffffffffffffff1614613199576040517f08c379a000000000000000000000000000000000000000000000000000000000815260040180806020018281038252602d815260200180618fdc602d913960400191505060405180910390fd5b601160009054906101000a900473ffffffffffffffffffffffffffffffffffffffff1673ffffffffffffffffffffffffffffffffffffffff16635c19a95c826040518263ffffffff1660e01b8152600401808273ffffffffffffffffffffffffffffffffffffffff1673ffffffffffffffffffffffffffffffffffffffff168152602001915050600060405180830381600087803b15801561323a57600080fd5b505af115801561324e573d6000803e3d6000fd5b5050505050565b6000806000806000600e60008773ffffffffffffffffffffffffffffffffffffffff1673ffffffffffffffffffffffffffffffffffffffff16815260200190815260200160002054905060008060006132ad89614990565b8094508192505050600060038111156132c257fe5b8160038111156132ce57fe5b146132ff57600960118111156132e057fe5b6000806000829250819150809050975097509750975050505050613376565b613307613aea565b80935081925050506000600381111561331c57fe5b81600381111561332857fe5b14613359576009601181111561333a57fe5b6000806000829250819150809050975097509750975050505050613376565b6000601181111561336657fe5b8484849750975097509750505050505b9193509193565b60006133888261557d565b9050919050565b600061339a82615684565b9050919050565b6000600f60008473ffffffffffffffffffffffffffffffffffffffff1673ffffffffffffffffffffffffffffffffffffffff16815260200190815260200160002060008373ffffffffffffffffffffffffffffffffffffffff1673ffffffffffffffffffffffffffffffffffffffff16815260200190815260200160002054905092915050565b6000600460009054906101000a900473ffffffffffffffffffffffffffffffffffffffff1673ffffffffffffffffffffffffffffffffffffffff163373ffffffffffffffffffffffffffffffffffffffff161415806134b35750600073ffffffffffffffffffffffffffffffffffffffff163373ffffffffffffffffffffffffffffffffffffffff16145b156134cb576134c460016000614602565b9050613742565b6000600360019054906101000a900473ffffffffffffffffffffffffffffffffffffffff1690506000600460009054906101000a900473ffffffffffffffffffffffffffffffffffffffff169050600460009054906101000a900473ffffffffffffffffffffffffffffffffffffffff16600360016101000a81548173ffffffffffffffffffffffffffffffffffffffff021916908373ffffffffffffffffffffffffffffffffffffffff1602179055506000600460006101000a81548173ffffffffffffffffffffffffffffffffffffffff021916908373ffffffffffffffffffffffffffffffffffffffff1602179055507ff9ffabca9c8276e99321725bcb43fb076a6c66a54b7f21c4e8146d8519b417dc82600360019054906101000a900473ffffffffffffffffffffffffffffffffffffffff16604051808373ffffffffffffffffffffffffffffffffffffffff1673ffffffffffffffffffffffffffffffffffffffff1681526020018273ffffffffffffffffffffffffffffffffffffffff1673ffffffffffffffffffffffffffffffffffffffff1681526020019250505060405180910390a17fca4f2f25d0898edd99413412fb94012f9e54ec8142f9b093e7720646a95b16a981600460009054906101000a900473ffffffffffffffffffffffffffffffffffffffff16604051808373ffffffffffffffffffffffffffffffffffffffff1673ffffffffffffffffffffffffffffffffffffffff1681526020018273ffffffffffffffffffffffffffffffffffffffff1673ffffffffffffffffffffffffffffffffffffffff1681526020019250505060405180910390a16000601181111561373d57fe5b925050505b90565b6000806137506126ea565b90506000601181111561375f57fe5b81146137835761377b81601181111561377457fe5b6040614602565b915050613790565b61378c83614aa3565b9150505b919050565b600660009054906101000a900473ffffffffffffffffffffffffffffffffffffffff1681565b6000806137c985858561578d565b509050809150509392505050565b600360019054906101000a900473ffffffffffffffffffffffffffffffffffffffff1681565b6000600660009054906101000a900473ffffffffffffffffffffffffffffffffffffffff1673ffffffffffffffffffffffffffffffffffffffff166315f24053613845614410565b600b54600c546040518463ffffffff1660e01b815260040180848152602001838152602001828152602001935050505060206040518083038186803b15801561388d57600080fd5b505afa1580156138a1573d6000803e3d6000fd5b505050506040513d60208110156138b757600080fd5b8101908080519060200190929190505050905090565b600181565b60008060009054906101000a900460ff16613955576040517f08c379a000000000000000000000000000000000000000000000000000000000815260040180806020018281038252600a8152602001807f72652d656e74657265640000000000000000000000000000000000000000000081525060200191505060405180910390fd5b60008060006101000a81548160ff02191690831515021790555060006139796126ea565b90506000601181111561398857fe5b81146139ac576139a481601181111561399d57fe5b6046614602565b9150506139b9565b6139b583615960565b9150505b60016000806101000a81548160ff021916908315150217905550919050565b6000806000809054906101000a900460ff16613a5c576040517f08c379a000000000000000000000000000000000000000000000000000000000815260040180806020018281038252600a8152602001807f72652d656e74657265640000000000000000000000000000000000000000000081525060200191505060405180910390fd5b60008060006101000a81548160ff0219169083151502179055506000613a806126ea565b905060006011811115613a8f57fe5b8114613aba57613aab816011811115613aa457fe5b6036614602565b60008090509250925050613acb565b613ac5333386615a73565b92509250505b60016000806101000a81548160ff021916908315150217905550915091565b6000806000600d5490506000811415613b0c5760006007549250925050613bc2565b6000613b16614410565b90506000613b22618c29565b6000613b3384600b54600c54616151565b809450819250505060006003811115613b4857fe5b816003811115613b5457fe5b14613b6d57806000809050965096505050505050613bc2565b613b7783866161ad565b809350819250505060006003811115613b8c57fe5b816003811115613b9857fe5b14613bb157806000809050965096505050505050613bc2565b600082600001519650965050505050505b9091565b600080600560009054906101000a900473ffffffffffffffffffffffffffffffffffffffff1673ffffffffffffffffffffffffffffffffffffffff1663bdcdc258308787876040518563ffffffff1660e01b8152600401808573ffffffffffffffffffffffffffffffffffffffff1673ffffffffffffffffffffffffffffffffffffffff1681526020018473ffffffffffffffffffffffffffffffffffffffff1673ffffffffffffffffffffffffffffffffffffffff1681526020018373ffffffffffffffffffffffffffffffffffffffff1673ffffffffffffffffffffffffffffffffffffffff168152602001828152602001945050505050602060405180830381600087803b158015613cda57600080fd5b505af1158015613cee573d6000803e3d6000fd5b505050506040513d6020811015613d0457600080fd5b8101908080519060200190929190505050905060008114613d3457613d2c6003604a83614ef3565b915050614291565b8373ffffffffffffffffffffffffffffffffffffffff168573ffffffffffffffffffffffffffffffffffffffff161415613d7c57613d746002604b614602565b915050614291565b60008090508573ffffffffffffffffffffffffffffffffffffffff168773ffffffffffffffffffffffffffffffffffffffff161415613ddd577fffffffffffffffffffffffffffffffffffffffffffffffffffffffffffffffff9050613e5d565b600f60008773ffffffffffffffffffffffffffffffffffffffff1673ffffffffffffffffffffffffffffffffffffffff16815260200190815260200160002060008873ffffffffffffffffffffffffffffffffffffffff1673ffffffffffffffffffffffffffffffffffffffff1681526020019081526020016000205490505b600080600080613e6d8589614e4a565b809450819550505060006003811115613e8257fe5b846003811115613e8e57fe5b14613eac57613e9f6009604b614602565b9650505050505050614291565b613ef5600e60008c73ffffffffffffffffffffffffffffffffffffffff1673ffffffffffffffffffffffffffffffffffffffff1681526020019081526020016000205489614e4a565b809350819550505060006003811115613f0a57fe5b846003811115613f1657fe5b14613f3457613f276009604c614602565b9650505050505050614291565b613f7d600e60008b73ffffffffffffffffffffffffffffffffffffffff1673ffffffffffffffffffffffffffffffffffffffff1681526020019081526020016000205489614f67565b809250819550505060006003811115613f9257fe5b846003811115613f9e57fe5b14613fbc57613faf6009604d614602565b9650505050505050614291565b81600e60008c73ffffffffffffffffffffffffffffffffffffffff1673ffffffffffffffffffffffffffffffffffffffff1681526020019081526020016000208190555080600e60008b73ffffffffffffffffffffffffffffffffffffffff1673ffffffffffffffffffffffffffffffffffffffff168152602001908152602001600020819055507fffffffffffffffffffffffffffffffffffffffffffffffffffffffffffffffff85146140ed5782600f60008c73ffffffffffffffffffffffffffffffffffffffff1673ffffffffffffffffffffffffffffffffffffffff16815260200190815260200160002060008d73ffffffffffffffffffffffffffffffffffffffff1673ffffffffffffffffffffffffffffffffffffffff168152602001908152602001600020819055505b8873ffffffffffffffffffffffffffffffffffffffff168a73ffffffffffffffffffffffffffffffffffffffff167fddf252ad1be2c89b69c2b068fc378daa952ba7f163c4a11628f55a4df523b3ef8a6040518082815260200191505060405180910390a3600560009054906101000a900473ffffffffffffffffffffffffffffffffffffffff1673ffffffffffffffffffffffffffffffffffffffff16636a56947e308c8c8c6040518563ffffffff1660e01b8152600401808573ffffffffffffffffffffffffffffffffffffffff1673ffffffffffffffffffffffffffffffffffffffff1681526020018473ffffffffffffffffffffffffffffffffffffffff1673ffffffffffffffffffffffffffffffffffffffff1681526020018373ffffffffffffffffffffffffffffffffffffffff1673ffffffffffffffffffffffffffffffffffffffff168152602001828152602001945050505050600060405180830381600087803b15801561426357600080fd5b505af1158015614277573d6000803e3d6000fd5b505050506000601181111561428857fe5b96505050505050505b949350505050565b6000806000809054906101000a900460ff1661431d576040517f08c379a000000000000000000000000000000000000000000000000000000000815260040180806020018281038252600a8152602001807f72652d656e74657265640000000000000000000000000000000000000000000081525060200191505060405180910390fd5b60008060006101000a81548160ff02191690831515021790555060006143416126ea565b90506000601181111561435057fe5b811461437b5761436c81601181111561436557fe5b6035614602565b6000809050925092505061438c565b614386338686615a73565b92509250505b60016000806101000a81548160ff0219169083151502179055509250929050565b60008060006143ba618c29565b6143c48686614e75565b91509150600060038111156143d557fe5b8260038111156143e157fe5b146143f757816000809050935093505050614409565b600061440282616281565b9350935050505b9250929050565b600080601160009054906101000a900473ffffffffffffffffffffffffffffffffffffffff1690508073ffffffffffffffffffffffffffffffffffffffff166370a08231306040518263ffffffff1660e01b8152600401808273ffffffffffffffffffffffffffffffffffffffff1673ffffffffffffffffffffffffffffffffffffffff16815260200191505060206040518083038186803b1580156144b557600080fd5b505afa1580156144c9573d6000803e3d6000fd5b505050506040513d60208110156144df57600080fd5b810190808051906020019092919050505091505090565b60008060009054906101000a900460ff16614579576040517f08c379a000000000000000000000000000000000000000000000000000000000815260040180806020018281038252600a8152602001807f72652d656e74657265640000000000000000000000000000000000000000000081525060200191505060405180910390fd5b60008060006101000a81548160ff021916908315150217905550600061459d6126ea565b9050600060118111156145ac57fe5b81146145d0576145c88160118111156145c157fe5b604e614602565b9150506145e3565b6145d9836162a0565b5080915050809150505b60016000806101000a81548160ff021916908315150217905550919050565b60007f45b96fe442630264581b197e84bbada861235052c5a1aadfff9ea4e40a969aa083601181111561463157fe5b83605681111561463d57fe5b600060405180848152602001838152602001828152602001935050505060405180910390a182601181111561466e57fe5b905092915050565b600080600360019054906101000a900473ffffffffffffffffffffffffffffffffffffffff1673ffffffffffffffffffffffffffffffffffffffff163373ffffffffffffffffffffffffffffffffffffffff16146146e2576146da60016031614602565b915050614882565b6146ea614a9b565b60095414614706576146fe600a6033614602565b915050614882565b8261470f614410565b101561472957614721600e6032614602565b915050614882565b600c548311156147475761473f60026034614602565b915050614882565b82600c54039050600c548111156147a9576040517f08c379a000000000000000000000000000000000000000000000000000000000815260040180806020018281038252602481526020018061909a6024913960400191505060405180910390fd5b80600c819055506147dc600360019054906101000a900473ffffffffffffffffffffffffffffffffffffffff16846163ed565b7f3bad0c59cf2f06e7314077049f48a93578cd16f5ef92329f1dab1420a99c177e600360019054906101000a900473ffffffffffffffffffffffffffffffffffffffff168483604051808473ffffffffffffffffffffffffffffffffffffffff1673ffffffffffffffffffffffffffffffffffffffff168152602001838152602001828152602001935050505060405180910390a16000601181111561487e57fe5b9150505b919050565b60008060009054906101000a900460ff1661490a576040517f08c379a000000000000000000000000000000000000000000000000000000000815260040180806020018281038252600a8152602001807f72652d656e74657265640000000000000000000000000000000000000000000081525060200191505060405180910390fd5b60008060006101000a81548160ff021916908315150217905550600061492e6126ea565b90506000601181111561493d57fe5b81146149615761495981601181111561495257fe5b6027614602565b915050614971565b61496d3360008561655b565b9150505b60016000806101000a81548160ff021916908315150217905550919050565b600080600080600080601060008873ffffffffffffffffffffffffffffffffffffffff1673ffffffffffffffffffffffffffffffffffffffff16815260200190815260200160002090506000816000015414156149fa576000808090509550955050505050614a96565b614a0a8160000154600a54617089565b809450819550505060006003811115614a1f57fe5b846003811115614a2b57fe5b14614a43578360008090509550955050505050614a96565b614a518382600101546170dc565b809350819550505060006003811115614a6657fe5b846003811115614a7257fe5b14614a8a578360008090509550955050505050614a96565b60008295509550505050505b915091565b600043905090565b600080600360019054906101000a900473ffffffffffffffffffffffffffffffffffffffff1673ffffffffffffffffffffffffffffffffffffffff163373ffffffffffffffffffffffffffffffffffffffff1614614b0f57614b0760016042614602565b915050614d34565b614b17614a9b565b60095414614b3357614b2b600a6041614602565b915050614d34565b600660009054906101000a900473ffffffffffffffffffffffffffffffffffffffff1690508273ffffffffffffffffffffffffffffffffffffffff16632191f92a6040518163ffffffff1660e01b815260040160206040518083038186803b158015614b9e57600080fd5b505afa158015614bb2573d6000803e3d6000fd5b505050506040513d6020811015614bc857600080fd5b8101908080519060200190929190505050614c4b576040517f08c379a000000000000000000000000000000000000000000000000000000000815260040180806020018281038252601c8152602001807f6d61726b6572206d6574686f642072657475726e65642066616c73650000000081525060200191505060405180910390fd5b82600660006101000a81548173ffffffffffffffffffffffffffffffffffffffff021916908373ffffffffffffffffffffffffffffffffffffffff1602179055507fedffc32e068c7c95dfd4bdfd5c4d939a084d6b11c4199eac8436ed234d72f9268184604051808373ffffffffffffffffffffffffffffffffffffffff1673ffffffffffffffffffffffffffffffffffffffff1681526020018273ffffffffffffffffffffffffffffffffffffffff1673ffffffffffffffffffffffffffffffffffffffff1681526020019250505060405180910390a160006011811115614d3057fe5b9150505b919050565b6000806000809054906101000a900460ff16614dbd576040517f08c379a000000000000000000000000000000000000000000000000000000000815260040180806020018281038252600a8152602001807f72652d656e74657265640000000000000000000000000000000000000000000081525060200191505060405180910390fd5b60008060006101000a81548160ff0219169083151502179055506000614de16126ea565b905060006011811115614df057fe5b8114614e1b57614e0c816011811115614e0557fe5b601e614602565b60008090509250925050614e2b565b614e253385617110565b92509250505b60016000806101000a81548160ff021916908315150217905550915091565b600080838311614e6257600083850391509150614e6e565b60036000809050915091505b9250929050565b6000614e7f618c29565b600080614e90866000015186617089565b9150915060006003811115614ea157fe5b826003811115614ead57fe5b14614ed1578160405180602001604052806000815250809050935093505050614eec565b60006040518060200160405280838152508090509350935050505b9250929050565b60007f45b96fe442630264581b197e84bbada861235052c5a1aadfff9ea4e40a969aa0846011811115614f2257fe5b846056811115614f2e57fe5b8460405180848152602001838152602001828152602001935050505060405180910390a1836011811115614f5e57fe5b90509392505050565b60008060008385019050848110614f85576000819250925050614f92565b6002600080905092509250505b9250929050565b6000806000614fa6618c29565b614fb08787614e75565b9150915060006003811115614fc157fe5b826003811115614fcd57fe5b14614fe357816000809050935093505050614ffc565b614ff5614fef82616281565b86614f67565b9350935050505b935093915050565b600080600560009054906101000a900473ffffffffffffffffffffffffffffffffffffffff1673ffffffffffffffffffffffffffffffffffffffff1663d02f735130888888886040518663ffffffff1660e01b8152600401808673ffffffffffffffffffffffffffffffffffffffff1673ffffffffffffffffffffffffffffffffffffffff1681526020018573ffffffffffffffffffffffffffffffffffffffff1673ffffffffffffffffffffffffffffffffffffffff1681526020018473ffffffffffffffffffffffffffffffffffffffff1673ffffffffffffffffffffffffffffffffffffffff1681526020018373ffffffffffffffffffffffffffffffffffffffff1673ffffffffffffffffffffffffffffffffffffffff16815260200182815260200195505050505050602060405180830381600087803b15801561514c57600080fd5b505af1158015615160573d6000803e3d6000fd5b505050506040513d602081101561517657600080fd5b81019080805190602001909291905050509050600081146151a65761519e6003601b83614ef3565b915050615575565b8473ffffffffffffffffffffffffffffffffffffffff168473ffffffffffffffffffffffffffffffffffffffff1614156151ee576151e66006601c614602565b915050615575565b600080600061523c600e60008973ffffffffffffffffffffffffffffffffffffffff1673ffffffffffffffffffffffffffffffffffffffff1681526020019081526020016000205487614e4a565b80935081945050506000600381111561525157fe5b83600381111561525d57fe5b146152855761527a6009601a85600381111561527557fe5b614ef3565b945050505050615575565b6152ce600e60008a73ffffffffffffffffffffffffffffffffffffffff1673ffffffffffffffffffffffffffffffffffffffff1681526020019081526020016000205487614f67565b8092508194505050600060038111156152e357fe5b8360038111156152ef57fe5b146153175761530c6009601985600381111561530757fe5b614ef3565b945050505050615575565b81600e60008973ffffffffffffffffffffffffffffffffffffffff1673ffffffffffffffffffffffffffffffffffffffff1681526020019081526020016000208190555080600e60008a73ffffffffffffffffffffffffffffffffffffffff1673ffffffffffffffffffffffffffffffffffffffff168152602001908152602001600020819055508773ffffffffffffffffffffffffffffffffffffffff168773ffffffffffffffffffffffffffffffffffffffff167fddf252ad1be2c89b69c2b068fc378daa952ba7f163c4a11628f55a4df523b3ef886040518082815260200191505060405180910390a3600560009054906101000a900473ffffffffffffffffffffffffffffffffffffffff1673ffffffffffffffffffffffffffffffffffffffff16636d35bf91308b8b8b8b6040518663ffffffff1660e01b8152600401808673ffffffffffffffffffffffffffffffffffffffff1673ffffffffffffffffffffffffffffffffffffffff1681526020018573ffffffffffffffffffffffffffffffffffffffff1673ffffffffffffffffffffffffffffffffffffffff1681526020018473ffffffffffffffffffffffffffffffffffffffff1673ffffffffffffffffffffffffffffffffffffffff1681526020018373ffffffffffffffffffffffffffffffffffffffff1673ffffffffffffffffffffffffffffffffffffffff16815260200182815260200195505050505050600060405180830381600087803b15801561554957600080fd5b505af115801561555d573d6000803e3d6000fd5b505050506000601181111561556e57fe5b9450505050505b949350505050565b60008060009054906101000a900460ff16615600576040517f08c379a000000000000000000000000000000000000000000000000000000000815260040180806020018281038252600a8152602001807f72652d656e74657265640000000000000000000000000000000000000000000081525060200191505060405180910390fd5b60008060006101000a81548160ff02191690831515021790555060006156246126ea565b90506000601181111561563357fe5b81146156575761564f81601181111561564857fe5b6008614602565b915050615665565b61566133846177de565b9150505b60016000806101000a81548160ff021916908315150217905550919050565b60008060009054906101000a900460ff16615707576040517f08c379a000000000000000000000000000000000000000000000000000000000815260040180806020018281038252600a8152602001807f72652d656e74657265640000000000000000000000000000000000000000000081525060200191505060405180910390fd5b60008060006101000a81548160ff021916908315150217905550600061572b6126ea565b90506000601181111561573a57fe5b811461575e5761575681601181111561574f57fe5b6027614602565b91505061576e565b61576a3384600061655b565b9150505b60016000806101000a81548160ff021916908315150217905550919050565b6000806000809054906101000a900460ff16615811576040517f08c379a000000000000000000000000000000000000000000000000000000000815260040180806020018281038252600a8152602001807f72652d656e74657265640000000000000000000000000000000000000000000081525060200191505060405180910390fd5b60008060006101000a81548160ff02191690831515021790555060006158356126ea565b90506000601181111561584457fe5b811461586f5761586081601181111561585957fe5b600f614602565b6000809050925092505061593e565b8373ffffffffffffffffffffffffffffffffffffffff1663a6afed956040518163ffffffff1660e01b8152600401602060405180830381600087803b1580156158b757600080fd5b505af11580156158cb573d6000803e3d6000fd5b505050506040513d60208110156158e157600080fd5b810190808051906020019092919050505090506000601181111561590157fe5b811461592c5761591d81601181111561591657fe5b6010614602565b6000809050925092505061593e565b61593833878787617d0f565b92509250505b60016000806101000a81548160ff021916908315150217905550935093915050565b6000600360019054906101000a900473ffffffffffffffffffffffffffffffffffffffff1673ffffffffffffffffffffffffffffffffffffffff163373ffffffffffffffffffffffffffffffffffffffff16146159ca576159c360016047614602565b9050615a6e565b6159d2614a9b565b600954146159ed576159e6600a6048614602565b9050615a6e565b670de0b6b3a7640000821115615a1057615a0960026049614602565b9050615a6e565b60006008549050826008819055507faaa68312e2ea9d50e16af5068410ab56e1a1fd06037b1a35664812c30f8214608184604051808381526020018281526020019250505060405180910390a160006011811115615a6a57fe5b9150505b919050565b6000806000600560009054906101000a900473ffffffffffffffffffffffffffffffffffffffff1673ffffffffffffffffffffffffffffffffffffffff166324008a62308888886040518563ffffffff1660e01b8152600401808573ffffffffffffffffffffffffffffffffffffffff1673ffffffffffffffffffffffffffffffffffffffff1681526020018473ffffffffffffffffffffffffffffffffffffffff1673ffffffffffffffffffffffffffffffffffffffff1681526020018373ffffffffffffffffffffffffffffffffffffffff1673ffffffffffffffffffffffffffffffffffffffff168152602001828152602001945050505050602060405180830381600087803b158015615b8957600080fd5b505af1158015615b9d573d6000803e3d6000fd5b505050506040513d6020811015615bb357600080fd5b8101908080519060200190929190505050905060008114615bea57615bdb6003603883614ef3565b60008090509250925050616149565b615bf2614a9b565b60095414615c1557615c06600a6039614602565b60008090509250925050616149565b615c1d618cbc565b601060008773ffffffffffffffffffffffffffffffffffffffff1673ffffffffffffffffffffffffffffffffffffffff16815260200190815260200160002060010154816060018181525050615c7286614990565b826020018360800182815250826003811115615c8a57fe5b6003811115615c9557fe5b815250505060006003811115615ca757fe5b81602001516003811115615cb757fe5b14615ce857615cd86009603783602001516003811115615cd357fe5b614ef3565b6000809050935093505050616149565b7fffffffffffffffffffffffffffffffffffffffffffffffffffffffffffffffff851415615d23578060800151816040018181525050615d2e565b848160400181815250505b615d3c87826040015161876c565b8160e0018181525050615d5781608001518260e00151614e4a565b826020018360a00182815250826003811115615d6f57fe5b6003811115615d7a57fe5b815250505060006003811115615d8c57fe5b81602001516003811115615d9c57fe5b14615df2576040517f08c379a000000000000000000000000000000000000000000000000000000000815260040180806020018281038252603a815260200180618f3e603a913960400191505060405180910390fd5b615e02600b548260e00151614e4a565b826020018360c00182815250826003811115615e1a57fe5b6003811115615e2557fe5b815250505060006003811115615e3757fe5b81602001516003811115615e4757fe5b14615e9d576040517f08c379a0000000000000000000000000000000000000000000000000000000008152600401808060200182810382526031815260200180618f786031913960400191505060405180910390fd5b8060a00151601060008873ffffffffffffffffffffffffffffffffffffffff1673ffffffffffffffffffffffffffffffffffffffff16815260200190815260200160002060000181905550600a54601060008873ffffffffffffffffffffffffffffffffffffffff1673ffffffffffffffffffffffffffffffffffffffff168152602001908152602001600020600101819055508060c00151600b819055507f1a2a22cb034d26d1854bdc6666a5b91fe25efbbb5dcad3b0355478d6f5c362a187878360e001518460a001518560c00151604051808673ffffffffffffffffffffffffffffffffffffffff1673ffffffffffffffffffffffffffffffffffffffff1681526020018573ffffffffffffffffffffffffffffffffffffffff1673ffffffffffffffffffffffffffffffffffffffff1681526020018481526020018381526020018281526020019550505050505060405180910390a1600560009054906101000a900473ffffffffffffffffffffffffffffffffffffffff1673ffffffffffffffffffffffffffffffffffffffff16631ededc913089898560e0015186606001516040518663ffffffff1660e01b8152600401808673ffffffffffffffffffffffffffffffffffffffff1673ffffffffffffffffffffffffffffffffffffffff1681526020018573ffffffffffffffffffffffffffffffffffffffff1673ffffffffffffffffffffffffffffffffffffffff1681526020018473ffffffffffffffffffffffffffffffffffffffff1673ffffffffffffffffffffffffffffffffffffffff16815260200183815260200182815260200195505050505050600060405180830381600087803b15801561611857600080fd5b505af115801561612c573d6000803e3d6000fd5b505050506000601181111561613d57fe5b8160e001519350935050505b935093915050565b6000806000806161618787614f67565b915091506000600381111561617257fe5b82600381111561617e57fe5b14616194578160008090509350935050506161a5565b61619e8186614e4a565b9350935050505b935093915050565b60006161b7618c29565b6000806161cc86670de0b6b3a7640000617089565b91509150600060038111156161dd57fe5b8260038111156161e957fe5b1461620d57816040518060200160405280600081525080905093509350505061627a565b60008061621a83886170dc565b915091506000600381111561622b57fe5b82600381111561623757fe5b1461625d578160405180602001604052806000815250809050955095505050505061627a565b600060405180602001604052808381525080905095509550505050505b9250929050565b6000670de0b6b3a764000082600001518161629857fe5b049050919050565b6000806000806162ae614a9b565b600954146162ce576162c2600a604f614602565b819350935050506163e8565b6162d8338661876c565b905080600c54019150600c54821015616359576040517f08c379a00000000000000000000000000000000000000000000000000000000081526004018080602001828103825260208152602001807f61646420726573657276657320756e6578706563746564206f766572666c6f7781525060200191505060405180910390fd5b81600c819055507fa91e67c5ea634cd43a12c5a482724b03de01e85ca68702a53d0c2f45cb7c1dc5338284604051808473ffffffffffffffffffffffffffffffffffffffff1673ffffffffffffffffffffffffffffffffffffffff168152602001838152602001828152602001935050505060405180910390a1600060118111156163e057fe5b819350935050505b915091565b6000601160009054906101000a900473ffffffffffffffffffffffffffffffffffffffff1690508073ffffffffffffffffffffffffffffffffffffffff1663a9059cbb84846040518363ffffffff1660e01b8152600401808373ffffffffffffffffffffffffffffffffffffffff1673ffffffffffffffffffffffffffffffffffffffff16815260200182815260200192505050600060405180830381600087803b15801561649b57600080fd5b505af11580156164af573d6000803e3d6000fd5b5050505060003d600081146164cb57602081146164d557600080fd5b60001991506164e1565b60206000803e60005191505b5080616555576040517f08c379a00000000000000000000000000000000000000000000000000000000081526004018080602001828103825260198152602001807f544f4b454e5f5452414e534645525f4f55545f4641494c45440000000000000081525060200191505060405180910390fd5b50505050565b60008083148061656b5750600082145b6165c0576040517f08c379a00000000000000000000000000000000000000000000000000000000081526004018080602001828103825260348152602001806190666034913960400191505060405180910390fd5b6165c8618d17565b6165d0613aea565b8260200183604001828152508260038111156165e857fe5b60038111156165f357fe5b81525050506000600381111561660557fe5b8160200151600381111561661557fe5b1461663e576166366009602b8360200151600381111561663157fe5b614ef3565b915050617082565b60008411156166e0578381606001818152505061666d60405180602001604052808360400151815250856143ad565b82602001836080018281525082600381111561668557fe5b600381111561669057fe5b8152505050600060038111156166a257fe5b816020015160038111156166b257fe5b146166db576166d360096029836020015160038111156166ce57fe5b614ef3565b915050617082565b616775565b6166fc8360405180602001604052808460400151815250618b4a565b82602001836060018281525082600381111561671457fe5b600381111561671f57fe5b81525050506000600381111561673157fe5b8160200151600381111561674157fe5b1461676a576167626009602a8360200151600381111561675d57fe5b614ef3565b915050617082565b828160800181815250505b6000600560009054906101000a900473ffffffffffffffffffffffffffffffffffffffff1673ffffffffffffffffffffffffffffffffffffffff1663eabe7d91308885606001516040518463ffffffff1660e01b8152600401808473ffffffffffffffffffffffffffffffffffffffff1673ffffffffffffffffffffffffffffffffffffffff1681526020018373ffffffffffffffffffffffffffffffffffffffff1673ffffffffffffffffffffffffffffffffffffffff1681526020018281526020019350505050602060405180830381600087803b15801561685857600080fd5b505af115801561686c573d6000803e3d6000fd5b505050506040513d602081101561688257600080fd5b81019080805190602001909291905050509050600081146168b3576168aa6003602883614ef3565b92505050617082565b6168bb614a9b565b600954146168d8576168cf600a602c614602565b92505050617082565b6168e8600d548360600151614e4a565b836020018460a0018281525082600381111561690057fe5b600381111561690b57fe5b81525050506000600381111561691d57fe5b8260200151600381111561692d57fe5b146169575761694e6009602e8460200151600381111561694957fe5b614ef3565b92505050617082565b6169a4600e60008873ffffffffffffffffffffffffffffffffffffffff1673ffffffffffffffffffffffffffffffffffffffff168152602001908152602001600020548360600151614e4a565b836020018460c001828152508260038111156169bc57fe5b60038111156169c757fe5b8152505050600060038111156169d957fe5b826020015160038111156169e957fe5b14616a1357616a0a6009602d84602001516003811115616a0557fe5b614ef3565b92505050617082565b8160800151616a20614410565b1015616a3b57616a32600e602f614602565b92505050617082565b6000806000600560009054906101000a900473ffffffffffffffffffffffffffffffffffffffff1673ffffffffffffffffffffffffffffffffffffffff166304ef9d586040518163ffffffff1660e01b815260040160206040518083038186803b158015616aa857600080fd5b505afa158015616abc573d6000803e3d6000fd5b505050506040513d6020811015616ad257600080fd5b810190808051906020019092919050505014616e2457616b988460800151600560009054906101000a900473ffffffffffffffffffffffffffffffffffffffff1673ffffffffffffffffffffffffffffffffffffffff166304ef9d586040518163ffffffff1660e01b815260040160206040518083038186803b158015616b5857600080fd5b505afa158015616b6c573d6000803e3d6000fd5b505050506040513d6020811015616b8257600080fd5b8101908080519060200190929190505050617089565b85602001819450826003811115616bab57fe5b6003811115616bb657fe5b815250505060006003811115616bc857fe5b84602001516003811115616bd857fe5b14616c0457616bf96009605686602001516003811115616bf457fe5b614ef3565b945050505050617082565b616c1682670de0b6b3a76400006170dc565b85602001819450826003811115616c2957fe5b6003811115616c3457fe5b815250505060006003811115616c4657fe5b84602001516003811115616c5657fe5b14616c8257616c776009605686602001516003811115616c7257fe5b614ef3565b945050505050617082565b616c90846080015183614e4a565b85602001819350826003811115616ca357fe5b6003811115616cae57fe5b815250505060006003811115616cc057fe5b84602001516003811115616cd057fe5b14616cfc57616cf16009605686602001516003811115616cec57fe5b614ef3565b945050505050617082565b616da8600560009054906101000a900473ffffffffffffffffffffffffffffffffffffffff1673ffffffffffffffffffffffffffffffffffffffff1663c5f956af6040518163ffffffff1660e01b815260040160206040518083038186803b158015616d6757600080fd5b505afa158015616d7b573d6000803e3d6000fd5b505050506040513d6020811015616d9157600080fd5b8101908080519060200190929190505050836163ed565b7fccf8e53b86a99b7e9ecf796342c165764d66154780f638c08e6241d711fba6d488838660600151604051808473ffffffffffffffffffffffffffffffffffffffff1673ffffffffffffffffffffffffffffffffffffffff168152602001838152602001828152602001935050505060405180910390a1616e2c565b836080015190505b616e3688826163ed565b8360a00151600d819055508360c00151600e60008a73ffffffffffffffffffffffffffffffffffffffff1673ffffffffffffffffffffffffffffffffffffffff168152602001908152602001600020819055503073ffffffffffffffffffffffffffffffffffffffff168873ffffffffffffffffffffffffffffffffffffffff167fddf252ad1be2c89b69c2b068fc378daa952ba7f163c4a11628f55a4df523b3ef86606001516040518082815260200191505060405180910390a37fe5b754fb1abb7f01b499791d0b820ae3b6af3424ac1c59768edb53f4ec31a92988828660600151604051808473ffffffffffffffffffffffffffffffffffffffff1673ffffffffffffffffffffffffffffffffffffffff168152602001838152602001828152602001935050505060405180910390a1600560009054906101000a900473ffffffffffffffffffffffffffffffffffffffff1673ffffffffffffffffffffffffffffffffffffffff166351dff989308a876080015188606001516040518563ffffffff1660e01b8152600401808573ffffffffffffffffffffffffffffffffffffffff1673ffffffffffffffffffffffffffffffffffffffff1681526020018473ffffffffffffffffffffffffffffffffffffffff1673ffffffffffffffffffffffffffffffffffffffff168152602001838152602001828152602001945050505050600060405180830381600087803b15801561705657600080fd5b505af115801561706a573d6000803e3d6000fd5b505050506000601181111561707b57fe5b9450505050505b9392505050565b60008060008414156170a457600080809050915091506170d5565b60008385029050838582816170b557fe5b04146170cc576002600080905092509250506170d5565b60008192509250505b9250929050565b60008060008314156170f8576001600080905091509150617109565b600083858161710357fe5b04915091505b9250929050565b6000806000600560009054906101000a900473ffffffffffffffffffffffffffffffffffffffff1673ffffffffffffffffffffffffffffffffffffffff16634ef4c3e13087876040518463ffffffff1660e01b8152600401808473ffffffffffffffffffffffffffffffffffffffff1673ffffffffffffffffffffffffffffffffffffffff1681526020018373ffffffffffffffffffffffffffffffffffffffff1673ffffffffffffffffffffffffffffffffffffffff1681526020018281526020019350505050602060405180830381600087803b1580156171f257600080fd5b505af1158015617206573d6000803e3d6000fd5b505050506040513d602081101561721c57600080fd5b8101908080519060200190929190505050905060008114617253576172446003601f83614ef3565b600080905092509250506177d7565b61725b614a9b565b6009541461727e5761726f600a6022614602565b600080905092509250506177d7565b617286618d6a565b61728e613aea565b8260200183604001828152508260038111156172a657fe5b60038111156172b157fe5b8152505050600060038111156172c357fe5b816020015160038111156172d357fe5b14617304576172f460096021836020015160038111156172ef57fe5b614ef3565b60008090509350935050506177d7565b61730e868661876c565b8160c00181815250506173378160c0015160405180602001604052808460400151815250618b4a565b82602001836060018281525082600381111561734f57fe5b600381111561735a57fe5b81525050506000600381111561736c57fe5b8160200151600381111561737c57fe5b146173ef576040517f08c379a00000000000000000000000000000000000000000000000000000000081526004018080602001828103825260208152602001807f4d494e545f45584348414e47455f43414c43554c4154494f4e5f4641494c454481525060200191505060405180910390fd5b6173ff600d548260600151614f67565b82602001836080018281525082600381111561741757fe5b600381111561742257fe5b81525050506000600381111561743457fe5b8160200151600381111561744457fe5b1461749a576040517f08c379a000000000000000000000000000000000000000000000000000000000815260040180806020018281038252602881526020018061903e6028913960400191505060405180910390fd5b6174e7600e60008873ffffffffffffffffffffffffffffffffffffffff1673ffffffffffffffffffffffffffffffffffffffff168152602001908152602001600020548260600151614f67565b826020018360a001828152508260038111156174ff57fe5b600381111561750a57fe5b81525050506000600381111561751c57fe5b8160200151600381111561752c57fe5b14617582576040517f08c379a000000000000000000000000000000000000000000000000000000000815260040180806020018281038252602b815260200180618edc602b913960400191505060405180910390fd5b8060800151600d819055508060a00151600e60008873ffffffffffffffffffffffffffffffffffffffff1673ffffffffffffffffffffffffffffffffffffffff168152602001908152602001600020819055507f4c209b5fc8ad50758f13e2e1088ba56a560dff690a1c6fef26394f4c03821c4f868260c001518360600151604051808473ffffffffffffffffffffffffffffffffffffffff1673ffffffffffffffffffffffffffffffffffffffff168152602001838152602001828152602001935050505060405180910390a18573ffffffffffffffffffffffffffffffffffffffff163073ffffffffffffffffffffffffffffffffffffffff167fddf252ad1be2c89b69c2b068fc378daa952ba7f163c4a11628f55a4df523b3ef83606001516040518082815260200191505060405180910390a3600560009054906101000a900473ffffffffffffffffffffffffffffffffffffffff1673ffffffffffffffffffffffffffffffffffffffff166341c728b930888460c0015185606001516040518563ffffffff1660e01b8152600401808573ffffffffffffffffffffffffffffffffffffffff1673ffffffffffffffffffffffffffffffffffffffff1681526020018473ffffffffffffffffffffffffffffffffffffffff1673ffffffffffffffffffffffffffffffffffffffff168152602001838152602001828152602001945050505050600060405180830381600087803b1580156177a657600080fd5b505af11580156177ba573d6000803e3d6000fd5b50505050600060118111156177cb57fe5b8160c001519350935050505b9250929050565b600080600560009054906101000a900473ffffffffffffffffffffffffffffffffffffffff1673ffffffffffffffffffffffffffffffffffffffff1663da3d454c3086866040518463ffffffff1660e01b8152600401808473ffffffffffffffffffffffffffffffffffffffff1673ffffffffffffffffffffffffffffffffffffffff1681526020018373ffffffffffffffffffffffffffffffffffffffff1673ffffffffffffffffffffffffffffffffffffffff1681526020018281526020019350505050602060405180830381600087803b1580156178be57600080fd5b505af11580156178d2573d6000803e3d6000fd5b505050506040513d60208110156178e857600080fd5b8101908080519060200190929190505050905060008114617918576179106003600e83614ef3565b915050617d09565b617920614a9b565b6009541461793b57617933600a80614602565b915050617d09565b82617944614410565b101561795e57617956600e6009614602565b915050617d09565b617966618dbd565b61796f85614990565b82600001836020018281525082600381111561798757fe5b600381111561799257fe5b8152505050600060038111156179a457fe5b816000015160038111156179b457fe5b146179de576179d560096007836000015160038111156179d057fe5b614ef3565b92505050617d09565b6179ec816020015185614f67565b826000018360400182815250826003811115617a0457fe5b6003811115617a0f57fe5b815250505060006003811115617a2157fe5b81600001516003811115617a3157fe5b14617a5b57617a526009600c83600001516003811115617a4d57fe5b614ef3565b92505050617d09565b617a67600b5485614f67565b826000018360600182815250826003811115617a7f57fe5b6003811115617a8a57fe5b815250505060006003811115617a9c57fe5b81600001516003811115617aac57fe5b14617ad657617acd6009600b83600001516003811115617ac857fe5b614ef3565b92505050617d09565b617ae085856163ed565b8060400151601060008773ffffffffffffffffffffffffffffffffffffffff1673ffffffffffffffffffffffffffffffffffffffff16815260200190815260200160002060000181905550600a54601060008773ffffffffffffffffffffffffffffffffffffffff1673ffffffffffffffffffffffffffffffffffffffff168152602001908152602001600020600101819055508060600151600b819055507f13ed6866d4e1ee6da46f845c46d7e54120883d75c5ea9a2dacc1c4ca8984ab80858583604001518460600151604051808573ffffffffffffffffffffffffffffffffffffffff1673ffffffffffffffffffffffffffffffffffffffff16815260200184815260200183815260200182815260200194505050505060405180910390a1600560009054906101000a900473ffffffffffffffffffffffffffffffffffffffff1673ffffffffffffffffffffffffffffffffffffffff16635c7786053087876040518463ffffffff1660e01b8152600401808473ffffffffffffffffffffffffffffffffffffffff1673ffffffffffffffffffffffffffffffffffffffff1681526020018373ffffffffffffffffffffffffffffffffffffffff1673ffffffffffffffffffffffffffffffffffffffff1681526020018281526020019350505050600060405180830381600087803b158015617cdf57600080fd5b505af1158015617cf3573d6000803e3d6000fd5b5050505060006011811115617d0457fe5b925050505b92915050565b6000806000600560009054906101000a900473ffffffffffffffffffffffffffffffffffffffff1673ffffffffffffffffffffffffffffffffffffffff16635fc7e71e30868a8a8a6040518663ffffffff1660e01b8152600401808673ffffffffffffffffffffffffffffffffffffffff1673ffffffffffffffffffffffffffffffffffffffff1681526020018573ffffffffffffffffffffffffffffffffffffffff1673ffffffffffffffffffffffffffffffffffffffff1681526020018473ffffffffffffffffffffffffffffffffffffffff1673ffffffffffffffffffffffffffffffffffffffff1681526020018373ffffffffffffffffffffffffffffffffffffffff1673ffffffffffffffffffffffffffffffffffffffff16815260200182815260200195505050505050602060405180830381600087803b158015617e5957600080fd5b505af1158015617e6d573d6000803e3d6000fd5b505050506040513d6020811015617e8357600080fd5b8101908080519060200190929190505050905060008114617eba57617eab6003601283614ef3565b60008090509250925050618763565b617ec2614a9b565b60095414617ee557617ed6600a6016614602565b60008090509250925050618763565b617eed614a9b565b8473ffffffffffffffffffffffffffffffffffffffff16636c540baf6040518163ffffffff1660e01b815260040160206040518083038186803b158015617f3357600080fd5b505afa158015617f47573d6000803e3d6000fd5b505050506040513d6020811015617f5d57600080fd5b810190808051906020019092919050505014617f8e57617f7f600a6011614602565b60008090509250925050618763565b8673ffffffffffffffffffffffffffffffffffffffff168673ffffffffffffffffffffffffffffffffffffffff161415617fdd57617fce60066017614602565b60008090509250925050618763565b600085141561800157617ff260076015614602565b60008090509250925050618763565b7fffffffffffffffffffffffffffffffffffffffffffffffffffffffffffffffff8514156180445761803560076014614602565b60008090509250925050618763565b600080618052898989615a73565b915091506000601181111561806357fe5b82146180905761807f82601181111561807857fe5b6018614602565b600080905094509450505050618763565b600080600560009054906101000a900473ffffffffffffffffffffffffffffffffffffffff1673ffffffffffffffffffffffffffffffffffffffff1663c488847b308a866040518463ffffffff1660e01b8152600401808473ffffffffffffffffffffffffffffffffffffffff1673ffffffffffffffffffffffffffffffffffffffff1681526020018373ffffffffffffffffffffffffffffffffffffffff1673ffffffffffffffffffffffffffffffffffffffff1681526020018281526020019350505050604080518083038186803b15801561816d57600080fd5b505afa158015618181573d6000803e3d6000fd5b505050506040513d604081101561819757600080fd5b81019080805190602001909291908051906020019092919050505091509150600060118111156181c357fe5b821461821a576040517f08c379a0000000000000000000000000000000000000000000000000000000008152600401808060200182810382526033815260200180618fa96033913960400191505060405180910390fd5b808873ffffffffffffffffffffffffffffffffffffffff166370a082318c6040518263ffffffff1660e01b8152600401808273ffffffffffffffffffffffffffffffffffffffff1673ffffffffffffffffffffffffffffffffffffffff16815260200191505060206040518083038186803b15801561829857600080fd5b505afa1580156182ac573d6000803e3d6000fd5b505050506040513d60208110156182c257600080fd5b81019080805190602001909291905050501015618347576040517f08c379a00000000000000000000000000000000000000000000000000000000081526004018080602001828103825260188152602001807f4c49515549444154455f5345495a455f544f4f5f4d554348000000000000000081525060200191505060405180910390fd5b60003073ffffffffffffffffffffffffffffffffffffffff168973ffffffffffffffffffffffffffffffffffffffff16141561839057618389308d8d85615004565b9050618489565b8873ffffffffffffffffffffffffffffffffffffffff1663b2a02ff18d8d856040518463ffffffff1660e01b8152600401808473ffffffffffffffffffffffffffffffffffffffff1673ffffffffffffffffffffffffffffffffffffffff1681526020018373ffffffffffffffffffffffffffffffffffffffff1673ffffffffffffffffffffffffffffffffffffffff1681526020018281526020019350505050602060405180830381600087803b15801561844b57600080fd5b505af115801561845f573d6000803e3d6000fd5b505050506040513d602081101561847557600080fd5b810190808051906020019092919050505090505b6000601181111561849657fe5b811461850a576040517f08c379a00000000000000000000000000000000000000000000000000000000081526004018080602001828103825260148152602001807f746f6b656e207365697a757265206661696c656400000000000000000000000081525060200191505060405180910390fd5b7f298637f684da70674f26509b10f07ec2fbc77a335ab1e7d6215a4b2484d8bb528c8c868c86604051808673ffffffffffffffffffffffffffffffffffffffff1673ffffffffffffffffffffffffffffffffffffffff1681526020018573ffffffffffffffffffffffffffffffffffffffff1673ffffffffffffffffffffffffffffffffffffffff1681526020018481526020018373ffffffffffffffffffffffffffffffffffffffff1673ffffffffffffffffffffffffffffffffffffffff1681526020018281526020019550505050505060405180910390a1600560009054906101000a900473ffffffffffffffffffffffffffffffffffffffff1673ffffffffffffffffffffffffffffffffffffffff166347ef3b3b308b8f8f89886040518763ffffffff1660e01b8152600401808773ffffffffffffffffffffffffffffffffffffffff1673ffffffffffffffffffffffffffffffffffffffff1681526020018673ffffffffffffffffffffffffffffffffffffffff1673ffffffffffffffffffffffffffffffffffffffff1681526020018573ffffffffffffffffffffffffffffffffffffffff1673ffffffffffffffffffffffffffffffffffffffff1681526020018473ffffffffffffffffffffffffffffffffffffffff1673ffffffffffffffffffffffffffffffffffffffff1681526020018381526020018281526020019650505050505050600060405180830381600087803b15801561873257600080fd5b505af1158015618746573d6000803e3d6000fd5b505050506000601181111561875757fe5b84975097505050505050505b94509492505050565b600080601160009054906101000a900473ffffffffffffffffffffffffffffffffffffffff1690506000601160009054906101000a900473ffffffffffffffffffffffffffffffffffffffff1673ffffffffffffffffffffffffffffffffffffffff166370a08231306040518263ffffffff1660e01b8152600401808273ffffffffffffffffffffffffffffffffffffffff1673ffffffffffffffffffffffffffffffffffffffff16815260200191505060206040518083038186803b15801561883557600080fd5b505afa158015618849573d6000803e3d6000fd5b505050506040513d602081101561885f57600080fd5b810190808051906020019092919050505090508173ffffffffffffffffffffffffffffffffffffffff166323b872dd8630876040518463ffffffff1660e01b8152600401808473ffffffffffffffffffffffffffffffffffffffff1673ffffffffffffffffffffffffffffffffffffffff1681526020018373ffffffffffffffffffffffffffffffffffffffff1673ffffffffffffffffffffffffffffffffffffffff1681526020018281526020019350505050600060405180830381600087803b15801561892d57600080fd5b505af1158015618941573d6000803e3d6000fd5b5050505060003d6000811461895d576020811461896757600080fd5b6000199150618973565b60206000803e60005191505b50806189e7576040517f08c379a00000000000000000000000000000000000000000000000000000000081526004018080602001828103825260188152602001807f544f4b454e5f5452414e534645525f494e5f4641494c4544000000000000000081525060200191505060405180910390fd5b6000601160009054906101000a900473ffffffffffffffffffffffffffffffffffffffff1673ffffffffffffffffffffffffffffffffffffffff166370a08231306040518263ffffffff1660e01b8152600401808273ffffffffffffffffffffffffffffffffffffffff1673ffffffffffffffffffffffffffffffffffffffff16815260200191505060206040518083038186803b158015618a8857600080fd5b505afa158015618a9c573d6000803e3d6000fd5b505050506040513d6020811015618ab257600080fd5b8101908080519060200190929190505050905082811015618b3b576040517f08c379a000000000000000000000000000000000000000000000000000000000815260040180806020018281038252601a8152602001807f544f4b454e5f5452414e534645525f494e5f4f564552464c4f5700000000000081525060200191505060405180910390fd5b82810394505050505092915050565b6000806000618b57618c29565b618b618686618bad565b9150915060006003811115618b7257fe5b826003811115618b7e57fe5b14618b9457816000809050935093505050618ba6565b6000618b9f82616281565b9350935050505b9250929050565b6000618bb7618c29565b600080618bcc670de0b6b3a764000087617089565b9150915060006003811115618bdd57fe5b826003811115618be957fe5b14618c0d578160405180602001604052806000815250809050935093505050618c22565b618c1b8186600001516161ad565b9350935050505b9250929050565b6040518060200160405280600081525090565b828054600181600116156101000203166002900490600052602060002090601f016020900481019282601f10618c7d57805160ff1916838001178555618cab565b82800160010185558215618cab579182015b82811115618caa578251825591602001919060010190618c8f565b5b509050618cb89190618df0565b5090565b60405180610100016040528060006011811115618cd557fe5b815260200160006003811115618ce757fe5b81526020016000815260200160008152602001600081526020016000815260200160008152602001600081525090565b6040518060e0016040528060006011811115618d2f57fe5b815260200160006003811115618d4157fe5b815260200160008152602001600081526020016000815260200160008152602001600081525090565b6040518060e0016040528060006011811115618d8257fe5b815260200160006003811115618d9457fe5b815260200160008152602001600081526020016000815260200160008152602001600081525090565b604051806080016040528060006003811115618dd557fe5b81526020016000815260200160008152602001600081525090565b618e1291905b80821115618e0e576000816000905550600101618df6565b5090565b9056fe6f6e6c792061646d696e206d617920696e697469616c697a6520746865206d61726b65746d61726b6574206d6179206f6e6c7920626520696e697469616c697a6564206f6e6365696e697469616c2065786368616e67652072617465206d7573742062652067726561746572207468616e207a65726f2e73657474696e6720696e7465726573742072617465206d6f64656c206661696c65646f6e6c79207468652061646d696e206d61792063616c6c205f72657369676e496d706c656d656e746174696f6e4d494e545f4e45575f4143434f554e545f42414c414e43455f43414c43554c4154494f4e5f4641494c4544626f72726f7742616c616e636553746f7265643a20626f72726f7742616c616e636553746f726564496e7465726e616c206661696c656452455041595f424f52524f575f4e45575f4143434f554e545f424f52524f575f42414c414e43455f43414c43554c4154494f4e5f4641494c454452455041595f424f52524f575f4e45575f544f54414c5f42414c414e43455f43414c43554c4154494f4e5f4641494c45444c49515549444154455f434f4d5054524f4c4c45525f43414c43554c4154455f414d4f554e545f5345495a455f4641494c45446f6e6c79207468652061646d696e206d617920736574207468652062746e742d6c696b652064656c656761746565786368616e67655261746553746f7265643a2065786368616e67655261746553746f726564496e7465726e616c206661696c65644d494e545f4e45575f544f54414c5f535550504c595f43414c43554c4154494f4e5f4641494c45446f6e65206f662072656465656d546f6b656e73496e206f722072656465656d416d6f756e74496e206d757374206265207a65726f72656475636520726573657276657320756e657870656374656420756e646572666c6f776f6e6c79207468652061646d696e206d61792063616c6c205f6265636f6d65496d706c656d656e746174696f6ea265627a7a723158202cf862dd450cc062e440a8014dcd04218d71606973a41f89c529f005351eaee064736f6c63430005110032",
  "source": "pragma solidity ^0.5.16;\n\nimport \"./BBep20Delegate.sol\";\n\ninterface BtntLike {\n  function delegate(address delegatee) external;\n}\n\n/**\n * @title Btntex's BBtntLikeDelegate Contract\n * @notice BTokens which can 'delegate votes' of their underlying BEP-20\n * @author Btntex\n */\ncontract BBtntLikeDelegate is BBep20Delegate {\n  /**\n   * @notice Construct an empty delegate\n   */\n  constructor() public BBep20Delegate() {}\n\n  /**\n   * @notice Admin call to delegate the votes of the BTNT-like underlying\n   * @param btntLikeDelegatee The address to delegate votes to\n   */\n  function _delegateBtntLikeTo(address btntLikeDelegatee) external {\n    require(msg.sender == admin, \"only the admin may set the btnt-like delegate\");\n    BtntLike(underlying).delegate(btntLikeDelegatee);\n  }\n}",
  "sourcePath": "/home/aliwisam/AliWisamData/Personal/Orders/Sir Junaid/Gist/TruffleFlat/contracts/BBtntLikeDelegate.sol",
  "compiler": {
    "name": "solc",
    "version": "0.5.17+commit.d19bba13.Emscripten.clang"
  },
  "schemaVersion": "3.4.0",
  "updatedAt": "2021-06-16T15:51:17.681Z",
  "devdoc": {
    "author": "Btntex",
    "methods": {
      "_acceptAdmin()": {
        "details": "Admin function for pending admin to accept role and update admin",
        "return": "uint 0=success, otherwise a failure (see ErrorReporter.sol for details)"
      },
      "_addReserves(uint256)": {
        "params": {
          "addAmount": "The amount fo underlying token to add as reserves"
        },
        "return": "uint 0=success, otherwise a failure (see ErrorReporter.sol for details)"
      },
      "_becomeImplementation(bytes)": {
        "params": {
          "data": "The encoded bytes data for any initialization"
        }
      },
      "_delegateBtntLikeTo(address)": {
        "params": {
          "btntLikeDelegatee": "The address to delegate votes to"
        }
      },
      "_reduceReserves(uint256)": {
        "params": {
          "reduceAmount": "Amount of reduction to reserves"
        },
        "return": "uint 0=success, otherwise a failure (see ErrorReporter.sol for details)"
      },
      "_setComptroller(address)": {
        "details": "Admin function to set a new comptroller",
        "return": "uint 0=success, otherwise a failure (see ErrorReporter.sol for details)"
      },
      "_setInterestRateModel(address)": {
        "details": "Admin function to accrue interest and update the interest rate model",
        "params": {
          "newInterestRateModel": "the new interest rate model to use"
        },
        "return": "uint 0=success, otherwise a failure (see ErrorReporter.sol for details)"
      },
      "_setPendingAdmin(address)": {
        "details": "Admin function to begin change of admin. The newPendingAdmin must call `_acceptAdmin` to finalize the transfer.",
        "params": {
          "newPendingAdmin": "New pending admin."
        },
        "return": "uint 0=success, otherwise a failure (see ErrorReporter.sol for details)"
      },
      "_setReserveFactor(uint256)": {
        "details": "Admin function to accrue interest and set a new reserve factor",
        "return": "uint 0=success, otherwise a failure (see ErrorReporter.sol for details)"
      },
      "accrueInterest()": {
        "details": "This calculates interest accrued from the last checkpointed block  up to the current block and writes new checkpoint to storage."
      },
      "allowance(address,address)": {
        "params": {
          "owner": "The address of the account which owns the tokens to be spent",
          "spender": "The address of the account which may transfer tokens"
        },
        "return": "The number of tokens allowed to be spent (-1 means infinite)"
      },
      "approve(address,uint256)": {
        "details": "This will overwrite the approval amount for `spender` and is subject to issues noted [here](https://eips.ethereum.org/EIPS/eip-20#approve)",
        "params": {
          "amount": "The number of tokens that are approved (-1 means infinite)",
          "spender": "The address of the account which may transfer tokens"
        },
        "return": "Whether or not the approval succeeded"
      },
      "balanceOf(address)": {
        "params": {
          "owner": "The address of the account to query"
        },
        "return": "The number of tokens owned by `owner`"
      },
      "balanceOfUnderlying(address)": {
        "details": "This also accrues interest in a transaction",
        "params": {
          "owner": "The address of the account to query"
        },
        "return": "The amount of underlying owned by `owner`"
      },
      "borrow(uint256)": {
        "params": {
          "borrowAmount": "The amount of the underlying asset to borrow"
        },
        "return": "uint 0=success, otherwise a failure (see ErrorReporter.sol for details)"
      },
      "borrowBalanceCurrent(address)": {
        "params": {
          "account": "The address whose balance should be calculated after updating borrowIndex"
        },
        "return": "The calculated balance"
      },
      "borrowBalanceStored(address)": {
        "params": {
          "account": "The address whose balance should be calculated"
        },
        "return": "The calculated balance"
      },
      "borrowRatePerBlock()": {
        "return": "The borrow interest rate per block, scaled by 1e18"
      },
      "exchangeRateCurrent()": {
        "return": "Calculated exchange rate scaled by 1e18"
      },
      "exchangeRateStored()": {
        "details": "This function does not accrue interest before calculating the exchange rate",
        "return": "Calculated exchange rate scaled by 1e18"
      },
      "getAccountSnapshot(address)": {
        "details": "This is used by comptroller to more efficiently perform liquidity checks.",
        "params": {
          "account": "Address of the account to snapshot"
        },
        "return": "(possible error, token balance, borrow balance, exchange rate mantissa)"
      },
      "getCash()": {
        "return": "The quantity of underlying asset owned by this contract"
      },
      "initialize(address,address,address,uint256,string,string,uint8)": {
        "params": {
          "comptroller_": "The address of the Comptroller",
          "decimals_": "BEP-20 decimal precision of this token",
          "initialExchangeRateMantissa_": "The initial exchange rate, scaled by 1e18",
          "interestRateModel_": "The address of the interest rate model",
          "name_": "BEP-20 name of this token",
          "symbol_": "BEP-20 symbol of this token",
          "underlying_": "The address of the underlying asset"
        }
      },
      "initialize(address,address,uint256,string,string,uint8)": {
        "params": {
          "comptroller_": "The address of the Comptroller",
          "decimals_": "EIP-20 decimal precision of this token",
          "initialExchangeRateMantissa_": "The initial exchange rate, scaled by 1e18",
          "interestRateModel_": "The address of the interest rate model",
          "name_": "EIP-20 name of this token",
          "symbol_": "EIP-20 symbol of this token"
        }
      },
      "liquidateBorrow(address,uint256,address)": {
        "params": {
          "bTokenCollateral": "The market in which to seize collateral from the borrower",
          "borrower": "The borrower of this bToken to be liquidated",
          "repayAmount": "The amount of the underlying borrowed asset to repay"
        },
        "return": "uint 0=success, otherwise a failure (see ErrorReporter.sol for details)"
      },
      "mint(uint256)": {
        "details": "Accrues interest whether or not the operation succeeds, unless reverted",
        "params": {
          "mintAmount": "The amount of the underlying asset to supply"
        },
        "return": "uint 0=success, otherwise a failure (see ErrorReporter.sol for details)"
      },
      "redeem(uint256)": {
        "details": "Accrues interest whether or not the operation succeeds, unless reverted",
        "params": {
          "redeemTokens": "The number of bTokens to redeem into underlying"
        },
        "return": "uint 0=success, otherwise a failure (see ErrorReporter.sol for details)"
      },
      "redeemUnderlying(uint256)": {
        "details": "Accrues interest whether or not the operation succeeds, unless reverted",
        "params": {
          "redeemAmount": "The amount of underlying to redeem"
        },
        "return": "uint 0=success, otherwise a failure (see ErrorReporter.sol for details)"
      },
      "repayBorrow(uint256)": {
        "params": {
          "repayAmount": "The amount to repay"
        },
        "return": "uint 0=success, otherwise a failure (see ErrorReporter.sol for details)"
      },
      "repayBorrowBehalf(address,uint256)": {
        "params": {
          "borrower": "the account with the debt being payed off",
          "repayAmount": "The amount to repay"
        },
        "return": "uint 0=success, otherwise a failure (see ErrorReporter.sol for details)"
      },
      "seize(address,address,uint256)": {
        "details": "Will fail unless called by another bToken during the process of liquidation. Its absolutely critical to use msg.sender as the borrowed bToken and not a parameter.",
        "params": {
          "borrower": "The account having collateral seized",
          "liquidator": "The account receiving seized collateral",
          "seizeTokens": "The number of bTokens to seize"
        },
        "return": "uint 0=success, otherwise a failure (see ErrorReporter.sol for details)"
      },
      "supplyRatePerBlock()": {
        "return": "The supply interest rate per block, scaled by 1e18"
      },
      "totalBorrowsCurrent()": {
        "return": "The total borrows with interest"
      },
      "transfer(address,uint256)": {
        "params": {
          "amount": "The number of tokens to transfer",
          "dst": "The address of the destination account"
        },
        "return": "Whether or not the transfer succeeded"
      },
      "transferFrom(address,address,uint256)": {
        "params": {
          "amount": "The number of tokens to transfer",
          "dst": "The address of the destination account",
          "src": "The address of the source account"
        },
        "return": "Whether or not the transfer succeeded"
      }
    },
    "title": "Btntex's BBtntLikeDelegate Contract"
  },
  "userdoc": {
    "methods": {
      "_acceptAdmin()": {
        "notice": "Accepts transfer of admin rights. msg.sender must be pendingAdmin"
      },
      "_addReserves(uint256)": {
        "notice": "The sender adds to reserves."
      },
      "_becomeImplementation(bytes)": {
        "notice": "Called by the delegator on a delegate to initialize it for duty"
      },
      "_delegateBtntLikeTo(address)": {
        "notice": "Admin call to delegate the votes of the BTNT-like underlying"
      },
      "_reduceReserves(uint256)": {
        "notice": "Accrues interest and reduces reserves by transferring to admin"
      },
      "_resignImplementation()": {
        "notice": "Called by the delegator on a delegate to forfeit its responsibility"
      },
      "_setComptroller(address)": {
        "notice": "Sets a new comptroller for the market"
      },
      "_setInterestRateModel(address)": {
        "notice": "accrues interest and updates the interest rate model using _setInterestRateModelFresh"
      },
      "_setPendingAdmin(address)": {
        "notice": "Begins transfer of admin rights. The newPendingAdmin must call `_acceptAdmin` to finalize the transfer."
      },
      "_setReserveFactor(uint256)": {
        "notice": "accrues interest and sets a new reserve factor for the protocol using _setReserveFactorFresh"
      },
      "accrueInterest()": {
        "notice": "Applies accrued interest to total borrows and reserves"
      },
      "allowance(address,address)": {
        "notice": "Get the current allowance from `owner` for `spender`"
      },
      "approve(address,uint256)": {
        "notice": "Approve `spender` to transfer up to `amount` from `src`"
      },
      "balanceOf(address)": {
        "notice": "Get the token balance of the `owner`"
      },
      "balanceOfUnderlying(address)": {
        "notice": "Get the underlying balance of the `owner`"
      },
      "borrow(uint256)": {
        "notice": "Sender borrows assets from the protocol to their own address"
      },
      "borrowBalanceCurrent(address)": {
        "notice": "Accrue interest to updated borrowIndex and then calculate account's borrow balance using the updated borrowIndex"
      },
      "borrowBalanceStored(address)": {
        "notice": "Return the borrow balance of account based on stored data"
      },
      "borrowRatePerBlock()": {
        "notice": "Returns the current per-block borrow interest rate for this bToken"
      },
      "constructor": "Construct an empty delegate",
      "exchangeRateCurrent()": {
        "notice": "Accrue interest then return the up-to-date exchange rate"
      },
      "exchangeRateStored()": {
        "notice": "Calculates the exchange rate from the underlying to the BToken"
      },
      "getAccountSnapshot(address)": {
        "notice": "Get a snapshot of the account's balances, and the cached exchange rate"
      },
      "getCash()": {
        "notice": "Get cash balance of this bToken in the underlying asset"
      },
      "initialize(address,address,address,uint256,string,string,uint8)": {
        "notice": "Initialize the new money market"
      },
      "initialize(address,address,uint256,string,string,uint8)": {
        "notice": "Initialize the money market"
      },
      "liquidateBorrow(address,uint256,address)": {
        "notice": "The sender liquidates the borrowers collateral. The collateral seized is transferred to the liquidator."
      },
      "mint(uint256)": {
        "notice": "Sender supplies assets into the market and receives bTokens in exchange"
      },
      "redeem(uint256)": {
        "notice": "Sender redeems bTokens in exchange for the underlying asset"
      },
      "redeemUnderlying(uint256)": {
        "notice": "Sender redeems bTokens in exchange for a specified amount of underlying asset"
      },
      "repayBorrow(uint256)": {
        "notice": "Sender repays their own borrow"
      },
      "repayBorrowBehalf(address,uint256)": {
        "notice": "Sender repays a borrow belonging to borrower"
      },
      "seize(address,address,uint256)": {
        "notice": "Transfers collateral tokens (this market) to the liquidator."
      },
      "supplyRatePerBlock()": {
        "notice": "Returns the current per-block supply interest rate for this bToken"
      },
      "totalBorrowsCurrent()": {
        "notice": "Returns the current total borrows plus accrued interest"
      },
      "transfer(address,uint256)": {
        "notice": "Transfer `amount` tokens from `msg.sender` to `dst`"
      },
      "transferFrom(address,address,uint256)": {
        "notice": "Transfer `amount` tokens from `src` to `dst`"
      }
    },
    "notice": "BTokens which can 'delegate votes' of their underlying BEP-20"
  }
}