{
  "contractName": "BtntexPriceOracle",
  "abi": [
    {
      "inputs": [
        {
          "internalType": "contract IStdReference",
          "name": "_ref",
          "type": "address"
        }
      ],
      "payable": false,
      "stateMutability": "nonpayable",
      "type": "constructor"
    },
    {
      "anonymous": false,
      "inputs": [
        {
          "indexed": false,
          "internalType": "address",
          "name": "oldAdmin",
          "type": "address"
        },
        {
          "indexed": false,
          "internalType": "address",
          "name": "newAdmin",
          "type": "address"
        }
      ],
      "name": "NewAdmin",
      "type": "event"
    },
    {
      "anonymous": false,
      "inputs": [
        {
          "indexed": false,
          "internalType": "address",
          "name": "asset",
          "type": "address"
        },
        {
          "indexed": false,
          "internalType": "uint256",
          "name": "previousPriceMantissa",
          "type": "uint256"
        },
        {
          "indexed": false,
          "internalType": "uint256",
          "name": "requestedPriceMantissa",
          "type": "uint256"
        },
        {
          "indexed": false,
          "internalType": "uint256",
          "name": "newPriceMantissa",
          "type": "uint256"
        }
      ],
      "name": "PricePosted",
      "type": "event"
    },
    {
      "constant": true,
      "inputs": [],
      "name": "admin",
      "outputs": [
        {
          "internalType": "address",
          "name": "",
          "type": "address"
        }
      ],
      "payable": false,
      "stateMutability": "view",
      "type": "function"
    },
    {
      "constant": true,
      "inputs": [],
      "name": "isPriceOracle",
      "outputs": [
        {
          "internalType": "bool",
          "name": "",
          "type": "bool"
        }
      ],
      "payable": false,
      "stateMutability": "view",
      "type": "function"
    },
    {
      "constant": true,
      "inputs": [
        {
          "internalType": "contract BToken",
          "name": "bToken",
          "type": "address"
        }
      ],
      "name": "getUnderlyingPrice",
      "outputs": [
        {
          "internalType": "uint256",
          "name": "",
          "type": "uint256"
        }
      ],
      "payable": false,
      "stateMutability": "view",
      "type": "function"
    },
    {
      "constant": false,
      "inputs": [
        {
          "internalType": "contract BToken",
          "name": "bToken",
          "type": "address"
        },
        {
          "internalType": "uint256",
          "name": "underlyingPriceMantissa",
          "type": "uint256"
        }
      ],
      "name": "setUnderlyingPrice",
      "outputs": [],
      "payable": false,
      "stateMutability": "nonpayable",
      "type": "function"
    },
    {
      "constant": false,
      "inputs": [
        {
          "internalType": "address",
          "name": "asset",
          "type": "address"
        },
        {
          "internalType": "uint256",
          "name": "price",
          "type": "uint256"
        }
      ],
      "name": "setDirectPrice",
      "outputs": [],
      "payable": false,
      "stateMutability": "nonpayable",
      "type": "function"
    },
    {
      "constant": true,
      "inputs": [
        {
          "internalType": "address",
          "name": "asset",
          "type": "address"
        }
      ],
      "name": "assetPrices",
      "outputs": [
        {
          "internalType": "uint256",
          "name": "",
          "type": "uint256"
        }
      ],
      "payable": false,
      "stateMutability": "view",
      "type": "function"
    },
    {
      "constant": false,
      "inputs": [
        {
          "internalType": "address",
          "name": "newAdmin",
          "type": "address"
        }
      ],
      "name": "setAdmin",
      "outputs": [],
      "payable": false,
      "stateMutability": "nonpayable",
      "type": "function"
    }
  ],
  "bytecode": "0x60806040523480156200001157600080fd5b5060405162001968380380620019688339818101604052620000379190810190620000d6565b80600260006101000a81548173ffffffffffffffffffffffffffffffffffffffff021916908373ffffffffffffffffffffffffffffffffffffffff160217905550336000806101000a81548173ffffffffffffffffffffffffffffffffffffffff021916908373ffffffffffffffffffffffffffffffffffffffff1602179055505062000164565b600081519050620000d0816200014a565b92915050565b600060208284031215620000e957600080fd5b6000620000f984828501620000bf565b91505092915050565b60006200010f826200012a565b9050919050565b6000620001238262000102565b9050919050565b600073ffffffffffffffffffffffffffffffffffffffff82169050919050565b620001558162000116565b81146200016157600080fd5b50565b6117f480620001746000396000f3fe608060405234801561001057600080fd5b506004361061007d5760003560e01c806366331bba1161005b57806366331bba146100ea578063704b6c0214610108578063f851a44014610124578063fc57d4df146101425761007d565b806309a8acb014610082578063127ffda01461009e5780635e9a523c146100ba575b600080fd5b61009c60048036036100979190810190611046565b610172565b005b6100b860048036036100b391908101906110ab565b6102c5565b005b6100d460048036036100cf9190810190610ff4565b61049b565b6040516100e191906115e3565b60405180910390f35b6100f26104e4565b6040516100ff91906114be565b60405180910390f35b610122600480360361011d9190810190610ff4565b6104e9565b005b61012c61061b565b6040516101399190611435565b60405180910390f35b61015c60048036036101579190810190611082565b610640565b60405161016991906115e3565b60405180910390f35b6000809054906101000a900473ffffffffffffffffffffffffffffffffffffffff1673ffffffffffffffffffffffffffffffffffffffff163373ffffffffffffffffffffffffffffffffffffffff1614610201576040517f08c379a00000000000000000000000000000000000000000000000000000000081526004016101f890611530565b60405180910390fd5b7fdd71a1d19fcba687442a1d5c58578f1e409af71a79d10fd95a4d66efd8fa9ae782600160008573ffffffffffffffffffffffffffffffffffffffff1673ffffffffffffffffffffffffffffffffffffffff1681526020019081526020016000205483846040516102759493929190611479565b60405180910390a180600160008473ffffffffffffffffffffffffffffffffffffffff1673ffffffffffffffffffffffffffffffffffffffff168152602001908152602001600020819055505050565b6000809054906101000a900473ffffffffffffffffffffffffffffffffffffffff1673ffffffffffffffffffffffffffffffffffffffff163373ffffffffffffffffffffffffffffffffffffffff1614610354576040517f08c379a000000000000000000000000000000000000000000000000000000000815260040161034b906115a3565b60405180910390fd5b60008273ffffffffffffffffffffffffffffffffffffffff16636f307dc36040518163ffffffff1660e01b815260040160206040518083038186803b15801561039c57600080fd5b505afa1580156103b0573d6000803e3d6000fd5b505050506040513d601f19601f820116820180604052506103d4919081019061101d565b90507fdd71a1d19fcba687442a1d5c58578f1e409af71a79d10fd95a4d66efd8fa9ae781600160008473ffffffffffffffffffffffffffffffffffffffff1673ffffffffffffffffffffffffffffffffffffffff16815260200190815260200160002054848560405161044a9493929190611479565b60405180910390a181600160008373ffffffffffffffffffffffffffffffffffffffff1673ffffffffffffffffffffffffffffffffffffffff16815260200190815260200160002081905550505050565b6000600160008373ffffffffffffffffffffffffffffffffffffffff1673ffffffffffffffffffffffffffffffffffffffff168152602001908152602001600020549050919050565b600181565b6000809054906101000a900473ffffffffffffffffffffffffffffffffffffffff1673ffffffffffffffffffffffffffffffffffffffff163373ffffffffffffffffffffffffffffffffffffffff1614610578576040517f08c379a000000000000000000000000000000000000000000000000000000000815260040161056f90611583565b60405180910390fd5b60008060009054906101000a900473ffffffffffffffffffffffffffffffffffffffff169050816000806101000a81548173ffffffffffffffffffffffffffffffffffffffff021916908373ffffffffffffffffffffffffffffffffffffffff1602179055507ff9ffabca9c8276e99321725bcb43fb076a6c66a54b7f21c4e8146d8519b417dc818360405161060f929190611450565b60405180910390a15050565b6000809054906101000a900473ffffffffffffffffffffffffffffffffffffffff1681565b60006107038273ffffffffffffffffffffffffffffffffffffffff166395d89b416040518163ffffffff1660e01b815260040160006040518083038186803b15801561068b57600080fd5b505afa15801561069f573d6000803e3d6000fd5b505050506040513d6000823e3d601f19601f820116820180604052506106c891908101906110e7565b6040518060400160405280600481526020017f61424e4200000000000000000000000000000000000000000000000000000000815250610c34565b156107c857610710610e4d565b600260009054906101000a900473ffffffffffffffffffffffffffffffffffffffff1673ffffffffffffffffffffffffffffffffffffffff166365555bcc6040518163ffffffff1660e01b815260040161076990611550565b60606040518083038186803b15801561078157600080fd5b505afa158015610795573d6000803e3d6000fd5b505050506040513d601f19601f820116820180604052506107b99190810190611169565b90508060000151915050610c2f565b6108898273ffffffffffffffffffffffffffffffffffffffff166395d89b416040518163ffffffff1660e01b815260040160006040518083038186803b15801561081157600080fd5b505afa158015610825573d6000803e3d6000fd5b505050506040513d6000823e3d601f19601f8201168201806040525061084e91908101906110e7565b6040518060400160405280600481526020017f42544e5400000000000000000000000000000000000000000000000000000000815250610c34565b156108d557600160008373ffffffffffffffffffffffffffffffffffffffff1673ffffffffffffffffffffffffffffffffffffffff168152602001908152602001600020549050610c2f565b6000808373ffffffffffffffffffffffffffffffffffffffff16636f307dc36040518163ffffffff1660e01b815260040160206040518083038186803b15801561091e57600080fd5b505afa158015610932573d6000803e3d6000fd5b505050506040513d601f19601f82011682018060405250610956919081019061101d565b90506000600160008373ffffffffffffffffffffffffffffffffffffffff1673ffffffffffffffffffffffffffffffffffffffff16815260200190815260200160002054146109e657600160008273ffffffffffffffffffffffffffffffffffffffff1673ffffffffffffffffffffffffffffffffffffffff168152602001908152602001600020549150610b26565b6109ee610e4d565b600260009054906101000a900473ffffffffffffffffffffffffffffffffffffffff1673ffffffffffffffffffffffffffffffffffffffff166365555bcc8373ffffffffffffffffffffffffffffffffffffffff166395d89b416040518163ffffffff1660e01b815260040160006040518083038186803b158015610a7257600080fd5b505afa158015610a86573d6000803e3d6000fd5b505050506040513d6000823e3d601f19601f82011682018060405250610aaf9190810190611128565b6040518263ffffffff1660e01b8152600401610acb91906114fb565b60606040518083038186803b158015610ae357600080fd5b505afa158015610af7573d6000803e3d6000fd5b505050506040513d601f19601f82011682018060405250610b1b9190810190611169565b905080600001519250505b60006012905060008273ffffffffffffffffffffffffffffffffffffffff1663313ce5676040518163ffffffff1660e01b815260040160206040518083038186803b158015610b7457600080fd5b505afa158015610b88573d6000803e3d6000fd5b505050506040513d601f19601f82011682018060405250610bac9190810190611192565b60ff16905080821415610bc55783945050505050610c2f565b80821115610c0057610bf5610be38284610c8d90919063ffffffff16565b600a0a85610cd790919063ffffffff16565b945050505050610c2f565b610c28610c168383610c8d90919063ffffffff16565b600a0a85610d4790919063ffffffff16565b9450505050505b919050565b600081604051602001610c47919061141e565b6040516020818303038152906040528051906020012083604051602001610c6e919061141e565b6040516020818303038152906040528051906020012014905092915050565b6000610ccf83836040518060400160405280601e81526020017f536166654d6174683a207375627472616374696f6e206f766572666c6f770000815250610d91565b905092915050565b600080831415610cea5760009050610d41565b6000828402905082848281610cfb57fe5b0414610d3c576040517f08c379a0000000000000000000000000000000000000000000000000000000008152600401610d33906115c3565b60405180910390fd5b809150505b92915050565b6000610d8983836040518060400160405280601a81526020017f536166654d6174683a206469766973696f6e206279207a65726f000000000000815250610dec565b905092915050565b6000838311158290610dd9576040517f08c379a0000000000000000000000000000000000000000000000000000000008152600401610dd091906114d9565b60405180910390fd5b5060008385039050809150509392505050565b60008083118290610e33576040517f08c379a0000000000000000000000000000000000000000000000000000000008152600401610e2a91906114d9565b60405180910390fd5b506000838581610e3f57fe5b049050809150509392505050565b60405180606001604052806000815260200160008152602001600081525090565b600081359050610e7d81611755565b92915050565b600081519050610e9281611755565b92915050565b600081359050610ea78161176c565b92915050565b600082601f830112610ebe57600080fd5b8151610ed1610ecc8261162b565b6115fe565b91508082526020830160208301858383011115610eed57600080fd5b610ef8838284611711565b50505092915050565b600082601f830112610f1257600080fd5b8151610f25610f2082611657565b6115fe565b91508082526020830160208301858383011115610f4157600080fd5b610f4c838284611711565b50505092915050565b600060608284031215610f6757600080fd5b610f7160606115fe565b90506000610f8184828501610fca565b6000830152506020610f9584828501610fca565b6020830152506040610fa984828501610fca565b60408301525092915050565b600081359050610fc481611783565b92915050565b600081519050610fd981611783565b92915050565b600081519050610fee8161179a565b92915050565b60006020828403121561100657600080fd5b600061101484828501610e6e565b91505092915050565b60006020828403121561102f57600080fd5b600061103d84828501610e83565b91505092915050565b6000806040838503121561105957600080fd5b600061106785828601610e6e565b925050602061107885828601610fb5565b9150509250929050565b60006020828403121561109457600080fd5b60006110a284828501610e98565b91505092915050565b600080604083850312156110be57600080fd5b60006110cc85828601610e98565b92505060206110dd85828601610fb5565b9150509250929050565b6000602082840312156110f957600080fd5b600082015167ffffffffffffffff81111561111357600080fd5b61111f84828501610ead565b91505092915050565b60006020828403121561113a57600080fd5b600082015167ffffffffffffffff81111561115457600080fd5b61116084828501610f01565b91505092915050565b60006060828403121561117b57600080fd5b600061118984828501610f55565b91505092915050565b6000602082840312156111a457600080fd5b60006111b284828501610fdf565b91505092915050565b6111c4816116aa565b82525050565b6111d3816116bc565b82525050565b60006111e482611683565b6111ee818561168e565b93506111fe818560208601611711565b61120781611744565b840191505092915050565b600061121d82611683565b611227818561169f565b9350611237818560208601611711565b80840191505092915050565b600061125060188361168e565b91507f6f6e6c792061646d696e2063616e2073657420707269636500000000000000006000830152602082019050919050565b600061129060038361168e565b91507f424e4200000000000000000000000000000000000000000000000000000000006000830152602082019050919050565b60006112d0601c8361168e565b91507f6f6e6c792061646d696e2063616e20736574206e65772061646d696e000000006000830152602082019050919050565b600061131060238361168e565b91507f6f6e6c792061646d696e2063616e2073657420756e6465726c79696e6720707260008301527f69636500000000000000000000000000000000000000000000000000000000006020830152604082019050919050565b600061137660218361168e565b91507f536166654d6174683a206d756c7469706c69636174696f6e206f766572666c6f60008301527f77000000000000000000000000000000000000000000000000000000000000006020830152604082019050919050565b60006113dc60038361168e565b91507f55534400000000000000000000000000000000000000000000000000000000006000830152602082019050919050565b611418816116fa565b82525050565b600061142a8284611212565b915081905092915050565b600060208201905061144a60008301846111bb565b92915050565b600060408201905061146560008301856111bb565b61147260208301846111bb565b9392505050565b600060808201905061148e60008301876111bb565b61149b602083018661140f565b6114a8604083018561140f565b6114b5606083018461140f565b95945050505050565b60006020820190506114d360008301846111ca565b92915050565b600060208201905081810360008301526114f381846111d9565b905092915050565b6000604082019050818103600083015261151581846111d9565b90508181036020830152611528816113cf565b905092915050565b6000602082019050818103600083015261154981611243565b9050919050565b6000604082019050818103600083015261156981611283565b9050818103602083015261157c816113cf565b9050919050565b6000602082019050818103600083015261159c816112c3565b9050919050565b600060208201905081810360008301526115bc81611303565b9050919050565b600060208201905081810360008301526115dc81611369565b9050919050565b60006020820190506115f8600083018461140f565b92915050565b6000604051905081810181811067ffffffffffffffff8211171561162157600080fd5b8060405250919050565b600067ffffffffffffffff82111561164257600080fd5b601f19601f8301169050602081019050919050565b600067ffffffffffffffff82111561166e57600080fd5b601f19601f8301169050602081019050919050565b600081519050919050565b600082825260208201905092915050565b600081905092915050565b60006116b5826116da565b9050919050565b60008115159050919050565b60006116d3826116aa565b9050919050565b600073ffffffffffffffffffffffffffffffffffffffff82169050919050565b6000819050919050565b600060ff82169050919050565b60005b8381101561172f578082015181840152602081019050611714565b8381111561173e576000848401525b50505050565b6000601f19601f8301169050919050565b61175e816116aa565b811461176957600080fd5b50565b611775816116c8565b811461178057600080fd5b50565b61178c816116fa565b811461179757600080fd5b50565b6117a381611704565b81146117ae57600080fd5b5056fea365627a7a723158206407abf48f4f7a304734e91cc0a20d5b2ea77f30e5a64e62fcbd4f71ab9fe2316c6578706572696d656e74616cf564736f6c63430005110040",
  "source": "pragma solidity ^0.5.16;\npragma experimental ABIEncoderV2;\n\nimport \"./PriceOracle.sol\";\nimport \"./BBep20.sol\";\nimport \"./BEP20Interface.sol\";\nimport \"./SafeMath.sol\";\n\ninterface IStdReference {\n    /// A structure returned whenever someone requests for standard reference data.\n    struct ReferenceData {\n        uint256 rate; // base/quote exchange rate, multiplied by 1e18.\n        uint256 lastUpdatedBase; // UNIX epoch of the last time when base price gets updated.\n        uint256 lastUpdatedQuote; // UNIX epoch of the last time when quote price gets updated.\n    }\n\n    /// Returns the price data for the given base/quote pair. Revert if not available.\n    function getReferenceData(string calldata _base, string calldata _quote) external view returns (ReferenceData memory);\n\n    /// Similar to getReferenceData, but with multiple base/quote pairs at once.\n    function getReferenceDataBulk(string[] calldata _bases, string[] calldata _quotes) external view returns (ReferenceData[] memory);\n}\n\ncontract BtntexPriceOracle is PriceOracle {\n    using SafeMath for uint256;\n    address public admin;\n\n    mapping(address => uint) prices;\n    event PricePosted(address asset, uint previousPriceMantissa, uint requestedPriceMantissa, uint newPriceMantissa);\n    event NewAdmin(address oldAdmin, address newAdmin);\n\n    IStdReference ref;\n\n    constructor(IStdReference _ref) public {\n        ref = _ref;\n        admin = msg.sender;\n    }\n\n    function getUnderlyingPrice(BToken bToken) public view returns (uint) {\n        if (compareStrings(bToken.symbol(), \"aBNB\")) {\n            IStdReference.ReferenceData memory data = ref.getReferenceData(\"BNB\", \"USD\");\n            return data.rate;\n        }else if (compareStrings(bToken.symbol(), \"BTNT\")) {\n            return prices[address(bToken)];\n        } else {\n            uint256 price;\n            BEP20Interface token = BEP20Interface(BBep20(address(bToken)).underlying());\n\n            if(prices[address(token)] != 0) {\n                price = prices[address(token)];\n            } else {\n                IStdReference.ReferenceData memory data = ref.getReferenceData(token.symbol(), \"USD\");\n                price = data.rate;\n            }\n\n            uint256 defaultDecimal = 18;\n            uint256 tokenDecimal = uint256(token.decimals());\n\n            if(defaultDecimal == tokenDecimal) {\n                return price;\n            } else if(defaultDecimal > tokenDecimal) {\n                return price.mul(10**(defaultDecimal.sub(tokenDecimal)));\n            } else {\n                return price.div(10**(tokenDecimal.sub(defaultDecimal)));\n            }\n        }\n    }\n\n    function setUnderlyingPrice(BToken bToken, uint underlyingPriceMantissa) public {\n        require(msg.sender == admin, \"only admin can set underlying price\");\n        address asset = address(BBep20(address(bToken)).underlying());\n        emit PricePosted(asset, prices[asset], underlyingPriceMantissa, underlyingPriceMantissa);\n        prices[asset] = underlyingPriceMantissa;\n    }\n\n    function setDirectPrice(address asset, uint price) public {\n        require(msg.sender == admin, \"only admin can set price\");\n        emit PricePosted(asset, prices[asset], price, price);\n        prices[asset] = price;\n    }\n\n    function assetPrices(address asset) external view returns (uint) {\n        return prices[asset];\n    }\n\n    function compareStrings(string memory a, string memory b) internal pure returns (bool) {\n        return (keccak256(abi.encodePacked((a))) == keccak256(abi.encodePacked((b))));\n    }\n\n    function setAdmin(address newAdmin) external {\n        require(msg.sender == admin, \"only admin can set new admin\");\n        address oldAdmin = admin;\n        admin = newAdmin;\n\n        emit NewAdmin(oldAdmin, newAdmin);\n    }\n}\n",
  "sourcePath": "/home/aliwisam/AliWisamData/Personal/Orders/Sir Junaid/Gist/TruffleFlat/contracts/BtntPriceOracle.sol",
  "compiler": {
    "name": "solc",
    "version": "0.5.17+commit.d19bba13.Emscripten.clang"
  },
  "schemaVersion": "3.4.0",
  "updatedAt": "2021-06-16T15:51:17.822Z",
  "devdoc": {
    "methods": {}
  },
  "userdoc": {
    "methods": {}
  }
}