{
  "contractName": "BtntexLens",
  "abi": [
    {
      "constant": false,
      "inputs": [
        {
          "internalType": "contract BToken",
          "name": "bToken",
          "type": "address"
        }
      ],
      "name": "bTokenMetadata",
      "outputs": [
        {
          "components": [
            {
              "internalType": "address",
              "name": "bToken",
              "type": "address"
            },
            {
              "internalType": "uint256",
              "name": "exchangeRateCurrent",
              "type": "uint256"
            },
            {
              "internalType": "uint256",
              "name": "supplyRatePerBlock",
              "type": "uint256"
            },
            {
              "internalType": "uint256",
              "name": "borrowRatePerBlock",
              "type": "uint256"
            },
            {
              "internalType": "uint256",
              "name": "reserveFactorMantissa",
              "type": "uint256"
            },
            {
              "internalType": "uint256",
              "name": "totalBorrows",
              "type": "uint256"
            },
            {
              "internalType": "uint256",
              "name": "totalReserves",
              "type": "uint256"
            },
            {
              "internalType": "uint256",
              "name": "totalSupply",
              "type": "uint256"
            },
            {
              "internalType": "uint256",
              "name": "totalCash",
              "type": "uint256"
            },
            {
              "internalType": "bool",
              "name": "isListed",
              "type": "bool"
            },
            {
              "internalType": "uint256",
              "name": "collateralFactorMantissa",
              "type": "uint256"
            },
            {
              "internalType": "address",
              "name": "underlyingAssetAddress",
              "type": "address"
            },
            {
              "internalType": "uint256",
              "name": "bTokenDecimals",
              "type": "uint256"
            },
            {
              "internalType": "uint256",
              "name": "underlyingDecimals",
              "type": "uint256"
            }
          ],
          "internalType": "struct BtntexLens.BTokenMetadata",
          "name": "",
          "type": "tuple"
        }
      ],
      "payable": false,
      "stateMutability": "nonpayable",
      "type": "function"
    },
    {
      "constant": false,
      "inputs": [
        {
          "internalType": "contract BToken[]",
          "name": "bTokens",
          "type": "address[]"
        }
      ],
      "name": "bTokenMetadataAll",
      "outputs": [
        {
          "components": [
            {
              "internalType": "address",
              "name": "bToken",
              "type": "address"
            },
            {
              "internalType": "uint256",
              "name": "exchangeRateCurrent",
              "type": "uint256"
            },
            {
              "internalType": "uint256",
              "name": "supplyRatePerBlock",
              "type": "uint256"
            },
            {
              "internalType": "uint256",
              "name": "borrowRatePerBlock",
              "type": "uint256"
            },
            {
              "internalType": "uint256",
              "name": "reserveFactorMantissa",
              "type": "uint256"
            },
            {
              "internalType": "uint256",
              "name": "totalBorrows",
              "type": "uint256"
            },
            {
              "internalType": "uint256",
              "name": "totalReserves",
              "type": "uint256"
            },
            {
              "internalType": "uint256",
              "name": "totalSupply",
              "type": "uint256"
            },
            {
              "internalType": "uint256",
              "name": "totalCash",
              "type": "uint256"
            },
            {
              "internalType": "bool",
              "name": "isListed",
              "type": "bool"
            },
            {
              "internalType": "uint256",
              "name": "collateralFactorMantissa",
              "type": "uint256"
            },
            {
              "internalType": "address",
              "name": "underlyingAssetAddress",
              "type": "address"
            },
            {
              "internalType": "uint256",
              "name": "bTokenDecimals",
              "type": "uint256"
            },
            {
              "internalType": "uint256",
              "name": "underlyingDecimals",
              "type": "uint256"
            }
          ],
          "internalType": "struct BtntexLens.BTokenMetadata[]",
          "name": "",
          "type": "tuple[]"
        }
      ],
      "payable": false,
      "stateMutability": "nonpayable",
      "type": "function"
    },
    {
      "constant": false,
      "inputs": [
        {
          "internalType": "contract BToken",
          "name": "bToken",
          "type": "address"
        },
        {
          "internalType": "address payable",
          "name": "account",
          "type": "address"
        }
      ],
      "name": "bTokenBalances",
      "outputs": [
        {
          "components": [
            {
              "internalType": "address",
              "name": "bToken",
              "type": "address"
            },
            {
              "internalType": "uint256",
              "name": "balanceOf",
              "type": "uint256"
            },
            {
              "internalType": "uint256",
              "name": "borrowBalanceCurrent",
              "type": "uint256"
            },
            {
              "internalType": "uint256",
              "name": "balanceOfUnderlying",
              "type": "uint256"
            },
            {
              "internalType": "uint256",
              "name": "tokenBalance",
              "type": "uint256"
            },
            {
              "internalType": "uint256",
              "name": "tokenAllowance",
              "type": "uint256"
            }
          ],
          "internalType": "struct BtntexLens.BTokenBalances",
          "name": "",
          "type": "tuple"
        }
      ],
      "payable": false,
      "stateMutability": "nonpayable",
      "type": "function"
    },
    {
      "constant": false,
      "inputs": [
        {
          "internalType": "contract BToken[]",
          "name": "bTokens",
          "type": "address[]"
        },
        {
          "internalType": "address payable",
          "name": "account",
          "type": "address"
        }
      ],
      "name": "bTokenBalancesAll",
      "outputs": [
        {
          "components": [
            {
              "internalType": "address",
              "name": "bToken",
              "type": "address"
            },
            {
              "internalType": "uint256",
              "name": "balanceOf",
              "type": "uint256"
            },
            {
              "internalType": "uint256",
              "name": "borrowBalanceCurrent",
              "type": "uint256"
            },
            {
              "internalType": "uint256",
              "name": "balanceOfUnderlying",
              "type": "uint256"
            },
            {
              "internalType": "uint256",
              "name": "tokenBalance",
              "type": "uint256"
            },
            {
              "internalType": "uint256",
              "name": "tokenAllowance",
              "type": "uint256"
            }
          ],
          "internalType": "struct BtntexLens.BTokenBalances[]",
          "name": "",
          "type": "tuple[]"
        }
      ],
      "payable": false,
      "stateMutability": "nonpayable",
      "type": "function"
    },
    {
      "constant": true,
      "inputs": [
        {
          "internalType": "contract BToken",
          "name": "bToken",
          "type": "address"
        }
      ],
      "name": "bTokenUnderlyingPrice",
      "outputs": [
        {
          "components": [
            {
              "internalType": "address",
              "name": "bToken",
              "type": "address"
            },
            {
              "internalType": "uint256",
              "name": "underlyingPrice",
              "type": "uint256"
            }
          ],
          "internalType": "struct BtntexLens.BTokenUnderlyingPrice",
          "name": "",
          "type": "tuple"
        }
      ],
      "payable": false,
      "stateMutability": "view",
      "type": "function"
    },
    {
      "constant": true,
      "inputs": [
        {
          "internalType": "contract BToken[]",
          "name": "bTokens",
          "type": "address[]"
        }
      ],
      "name": "bTokenUnderlyingPriceAll",
      "outputs": [
        {
          "components": [
            {
              "internalType": "address",
              "name": "bToken",
              "type": "address"
            },
            {
              "internalType": "uint256",
              "name": "underlyingPrice",
              "type": "uint256"
            }
          ],
          "internalType": "struct BtntexLens.BTokenUnderlyingPrice[]",
          "name": "",
          "type": "tuple[]"
        }
      ],
      "payable": false,
      "stateMutability": "view",
      "type": "function"
    },
    {
      "constant": true,
      "inputs": [
        {
          "internalType": "contract ComptrollerLensInterface",
          "name": "comptroller",
          "type": "address"
        },
        {
          "internalType": "address",
          "name": "account",
          "type": "address"
        }
      ],
      "name": "getAccountLimits",
      "outputs": [
        {
          "components": [
            {
              "internalType": "contract BToken[]",
              "name": "markets",
              "type": "address[]"
            },
            {
              "internalType": "uint256",
              "name": "liquidity",
              "type": "uint256"
            },
            {
              "internalType": "uint256",
              "name": "shortfall",
              "type": "uint256"
            }
          ],
          "internalType": "struct BtntexLens.AccountLimits",
          "name": "",
          "type": "tuple"
        }
      ],
      "payable": false,
      "stateMutability": "view",
      "type": "function"
    },
    {
      "constant": true,
      "inputs": [
        {
          "internalType": "contract GovernorAlpha",
          "name": "governor",
          "type": "address"
        },
        {
          "internalType": "address",
          "name": "voter",
          "type": "address"
        },
        {
          "internalType": "uint256[]",
          "name": "proposalIds",
          "type": "uint256[]"
        }
      ],
      "name": "getGovReceipts",
      "outputs": [
        {
          "components": [
            {
              "internalType": "uint256",
              "name": "proposalId",
              "type": "uint256"
            },
            {
              "internalType": "bool",
              "name": "hasVoted",
              "type": "bool"
            },
            {
              "internalType": "bool",
              "name": "support",
              "type": "bool"
            },
            {
              "internalType": "uint96",
              "name": "votes",
              "type": "uint96"
            }
          ],
          "internalType": "struct BtntexLens.GovReceipt[]",
          "name": "",
          "type": "tuple[]"
        }
      ],
      "payable": false,
      "stateMutability": "view",
      "type": "function"
    },
    {
      "constant": true,
      "inputs": [
        {
          "internalType": "contract GovernorAlpha",
          "name": "governor",
          "type": "address"
        },
        {
          "internalType": "uint256[]",
          "name": "proposalIds",
          "type": "uint256[]"
        }
      ],
      "name": "getGovProposals",
      "outputs": [
        {
          "components": [
            {
              "internalType": "uint256",
              "name": "proposalId",
              "type": "uint256"
            },
            {
              "internalType": "address",
              "name": "proposer",
              "type": "address"
            },
            {
              "internalType": "uint256",
              "name": "eta",
              "type": "uint256"
            },
            {
              "internalType": "address[]",
              "name": "targets",
              "type": "address[]"
            },
            {
              "internalType": "uint256[]",
              "name": "values",
              "type": "uint256[]"
            },
            {
              "internalType": "string[]",
              "name": "signatures",
              "type": "string[]"
            },
            {
              "internalType": "bytes[]",
              "name": "calldatas",
              "type": "bytes[]"
            },
            {
              "internalType": "uint256",
              "name": "startBlock",
              "type": "uint256"
            },
            {
              "internalType": "uint256",
              "name": "endBlock",
              "type": "uint256"
            },
            {
              "internalType": "uint256",
              "name": "forVotes",
              "type": "uint256"
            },
            {
              "internalType": "uint256",
              "name": "againstVotes",
              "type": "uint256"
            },
            {
              "internalType": "bool",
              "name": "canceled",
              "type": "bool"
            },
            {
              "internalType": "bool",
              "name": "executed",
              "type": "bool"
            }
          ],
          "internalType": "struct BtntexLens.GovProposal[]",
          "name": "",
          "type": "tuple[]"
        }
      ],
      "payable": false,
      "stateMutability": "view",
      "type": "function"
    },
    {
      "constant": true,
      "inputs": [
        {
          "internalType": "contract BTNT",
          "name": "btnt",
          "type": "address"
        },
        {
          "internalType": "address",
          "name": "account",
          "type": "address"
        }
      ],
      "name": "getBTNTBalanceMetadata",
      "outputs": [
        {
          "components": [
            {
              "internalType": "uint256",
              "name": "balance",
              "type": "uint256"
            },
            {
              "internalType": "uint256",
              "name": "votes",
              "type": "uint256"
            },
            {
              "internalType": "address",
              "name": "delegate",
              "type": "address"
            }
          ],
          "internalType": "struct BtntexLens.BTNTBalanceMetadata",
          "name": "",
          "type": "tuple"
        }
      ],
      "payable": false,
      "stateMutability": "view",
      "type": "function"
    },
    {
      "constant": false,
      "inputs": [
        {
          "internalType": "contract BTNT",
          "name": "btnt",
          "type": "address"
        },
        {
          "internalType": "contract ComptrollerLensInterface",
          "name": "comptroller",
          "type": "address"
        },
        {
          "internalType": "address",
          "name": "account",
          "type": "address"
        }
      ],
      "name": "getBTNTBalanceMetadataExt",
      "outputs": [
        {
          "components": [
            {
              "internalType": "uint256",
              "name": "balance",
              "type": "uint256"
            },
            {
              "internalType": "uint256",
              "name": "votes",
              "type": "uint256"
            },
            {
              "internalType": "address",
              "name": "delegate",
              "type": "address"
            },
            {
              "internalType": "uint256",
              "name": "allocated",
              "type": "uint256"
            }
          ],
          "internalType": "struct BtntexLens.BTNTBalanceMetadataExt",
          "name": "",
          "type": "tuple"
        }
      ],
      "payable": false,
      "stateMutability": "nonpayable",
      "type": "function"
    },
    {
      "constant": true,
      "inputs": [
        {
          "internalType": "contract BTNT",
          "name": "btnt",
          "type": "address"
        },
        {
          "internalType": "address",
          "name": "account",
          "type": "address"
        },
        {
          "internalType": "uint32[]",
          "name": "blockNumbers",
          "type": "uint32[]"
        }
      ],
      "name": "getBtntexVotes",
      "outputs": [
        {
          "components": [
            {
              "internalType": "uint256",
              "name": "blockNumber",
              "type": "uint256"
            },
            {
              "internalType": "uint256",
              "name": "votes",
              "type": "uint256"
            }
          ],
          "internalType": "struct BtntexLens.BtntexVotes[]",
          "name": "",
          "type": "tuple[]"
        }
      ],
      "payable": false,
      "stateMutability": "view",
      "type": "function"
    }
  ],
  "bytecode": "0x608060405234801561001057600080fd5b50614a80806100206000396000f3fe608060405234801561001057600080fd5b50600436106100b45760003560e01c80637f8ee3eb116100715780637f8ee3eb146101d95780639699486914610209578063995ed99f14610239578063a4ac72b814610269578063b81f31b914610299578063bcf332f3146102c9576100b4565b806301d6951f146100b95780631e47628c146100e95780632ebfe5a614610119578063302d10c914610149578063584dcefc146101795780637dd8f6d9146101a9575b600080fd5b6100d360048036036100ce9190810190612ee8565b6102f9565b6040516100e091906141a8565b60405180910390f35b61010360048036036100fe9190810190612d92565b610471565b6040516101109190614164565b60405180910390f35b610133600480360361012e9190810190612f54565b610521565b604051610140919061428d565b60405180910390f35b610163600480360361015e9190810190612d92565b610926565b6040516101709190614186565b60405180910390f35b610193600480360361018e9190810190612fa3565b6109d6565b6040516101a091906142de565b60405180910390f35b6101c360048036036101be9190810190613031565b611254565b6040516101d0919061426b565b60405180910390f35b6101f360048036036101ee9190810190612fcc565b6113e6565b60405161020091906142c3565b60405180910390f35b610223600480360361021e91908101906130d4565b61188d565b60405161023091906141ca565b60405180910390f35b610253600480360361024e919081019061306d565b611a6e565b60405161026091906141ec565b60405180910390f35b610283600480360361027e9190810190612fa3565b611bef565b60405161029091906142fa565b60405180910390f35b6102b360048036036102ae9190810190612dd7565b611db7565b6040516102c09190614142565b60405180910390f35b6102e360048036036102de9190810190612eac565b611e69565b6040516102f091906142a8565b60405180910390f35b6060808383905060405190808252806020026020018201604052801561033957816020015b6103266122ab565b81526020019060019003908161031e5790505b50905060008090505b8484905081101561046457604051806040016040528086868481811061036457fe5b905060200201602061037991908101906132fd565b63ffffffff1681526020018873ffffffffffffffffffffffffffffffffffffffff1663782d6fe1898989878181106103ad57fe5b90506020020160206103c291908101906132fd565b6040518363ffffffff1660e01b81526004016103df929190614119565b60206040518083038186803b1580156103f757600080fd5b505afa15801561040b573d6000803e3d6000fd5b505050506040513d601f19601f8201168201806040525061042f919081019061334f565b6bffffffffffffffffffffffff1681525082828151811061044c57fe5b60200260200101819052508080600101915050610342565b5080915050949350505050565b606060008383905090506060816040519080825280602002602001820160405280156104b757816020015b6104a46122c5565b81526020019060019003908161049c5790505b50905060008090505b82811015610515576104f18686838181106104d757fe5b90506020020160206104ec9190810190612fa3565b6109d6565b8282815181106104fd57fe5b602002602001018190525080806001019150506104c0565b50809250505092915050565b610529612362565b60008473ffffffffffffffffffffffffffffffffffffffff166370a08231846040518263ffffffff1660e01b815260040161056491906140ba565b60206040518083038186803b15801561057c57600080fd5b505afa158015610590573d6000803e3d6000fd5b505050506040513d601f19601f820116820180604052506105b491908101906131bf565b90508373ffffffffffffffffffffffffffffffffffffffff1663da4738d3846040518263ffffffff1660e01b81526004016105ef91906140ba565b600060405180830381600087803b15801561060957600080fd5b505af115801561061d573d6000803e3d6000fd5b5050505060008573ffffffffffffffffffffffffffffffffffffffff166370a08231856040518263ffffffff1660e01b815260040161065c91906140ba565b60206040518083038186803b15801561067457600080fd5b505afa158015610688573d6000803e3d6000fd5b505050506040513d601f19601f820116820180604052506106ac91908101906131bf565b905060008573ffffffffffffffffffffffffffffffffffffffff1663fd6e7570866040518263ffffffff1660e01b81526004016106e991906140ba565b60206040518083038186803b15801561070157600080fd5b505afa158015610715573d6000803e3d6000fd5b505050506040513d601f19601f8201168201806040525061073991908101906131bf565b9050600061077d82846040518060400160405280600e81526020017f73756d2062746e7420746f74616c000000000000000000000000000000000000815250612050565b905060006107c182866040518060400160405280600d81526020017f73756220616c6c6f6361746564000000000000000000000000000000000000008152506120aa565b905060405180608001604052808681526020018a73ffffffffffffffffffffffffffffffffffffffff1663b4b5ea578a6040518263ffffffff1660e01b815260040161080d91906140ba565b60206040518083038186803b15801561082557600080fd5b505afa158015610839573d6000803e3d6000fd5b505050506040513d601f19601f8201168201806040525061085d919081019061334f565b6bffffffffffffffffffffffff1681526020018a73ffffffffffffffffffffffffffffffffffffffff1663587cde1e8a6040518263ffffffff1660e01b81526004016108a991906140ba565b60206040518083038186803b1580156108c157600080fd5b505afa1580156108d5573d6000803e3d6000fd5b505050506040513d601f19601f820116820180604052506108f99190810190612ca6565b73ffffffffffffffffffffffffffffffffffffffff16815260200182815250955050505050509392505050565b6060600083839050905060608160405190808252806020026020018201604052801561096c57816020015b6109596123a0565b8152602001906001900390816109515790505b50905060008090505b828110156109ca576109a686868381811061098c57fe5b90506020020160206109a19190810190612fa3565b611bef565b8282815181106109b257fe5b60200260200101819052508080600101915050610975565b50809250505092915050565b6109de6123d0565b60008273ffffffffffffffffffffffffffffffffffffffff1663bd6d894d6040518163ffffffff1660e01b8152600401602060405180830381600087803b158015610a2857600080fd5b505af1158015610a3c573d6000803e3d6000fd5b505050506040513d601f19601f82011682018060405250610a6091908101906131bf565b905060008373ffffffffffffffffffffffffffffffffffffffff16635fe3b5676040518163ffffffff1660e01b815260040160206040518083038186803b158015610aaa57600080fd5b505afa158015610abe573d6000803e3d6000fd5b505050506040513d601f19601f82011682018060405250610ae29190810190613008565b90506000808273ffffffffffffffffffffffffffffffffffffffff16638e8f294b876040518263ffffffff1660e01b8152600401610b2091906140ba565b604080518083038186803b158015610b3757600080fd5b505afa158015610b4b573d6000803e3d6000fd5b505050506040513d601f19601f82011682018060405250610b6f9190810190612e70565b91509150600080610c378873ffffffffffffffffffffffffffffffffffffffff166395d89b416040518163ffffffff1660e01b815260040160006040518083038186803b158015610bbf57600080fd5b505afa158015610bd3573d6000803e3d6000fd5b505050506040513d6000823e3d601f19601f82011682018060405250610bfc9190810190613155565b6040518060400160405280600481526020017f61424e4200000000000000000000000000000000000000000000000000000000815250612105565b15610c49576000915060129050610dd0565b60008890508073ffffffffffffffffffffffffffffffffffffffff16636f307dc36040518163ffffffff1660e01b815260040160206040518083038186803b158015610c9457600080fd5b505afa158015610ca8573d6000803e3d6000fd5b505050506040513d601f19601f82011682018060405250610ccc9190810190612ca6565b92508073ffffffffffffffffffffffffffffffffffffffff16636f307dc36040518163ffffffff1660e01b815260040160206040518083038186803b158015610d1457600080fd5b505afa158015610d28573d6000803e3d6000fd5b505050506040513d601f19601f82011682018060405250610d4c9190810190612ca6565b73ffffffffffffffffffffffffffffffffffffffff1663313ce5676040518163ffffffff1660e01b815260040160206040518083038186803b158015610d9157600080fd5b505afa158015610da5573d6000803e3d6000fd5b505050506040513d601f19601f82011682018060405250610dc99190810190613326565b60ff169150505b604051806101c001604052808973ffffffffffffffffffffffffffffffffffffffff1681526020018781526020018973ffffffffffffffffffffffffffffffffffffffff1663ae9d70b06040518163ffffffff1660e01b815260040160206040518083038186803b158015610e4457600080fd5b505afa158015610e58573d6000803e3d6000fd5b505050506040513d601f19601f82011682018060405250610e7c91908101906131bf565b81526020018973ffffffffffffffffffffffffffffffffffffffff1663f8f9da286040518163ffffffff1660e01b815260040160206040518083038186803b158015610ec757600080fd5b505afa158015610edb573d6000803e3d6000fd5b505050506040513d601f19601f82011682018060405250610eff91908101906131bf565b81526020018973ffffffffffffffffffffffffffffffffffffffff1663173b99046040518163ffffffff1660e01b815260040160206040518083038186803b158015610f4a57600080fd5b505afa158015610f5e573d6000803e3d6000fd5b505050506040513d601f19601f82011682018060405250610f8291908101906131bf565b81526020018973ffffffffffffffffffffffffffffffffffffffff166347bd37186040518163ffffffff1660e01b815260040160206040518083038186803b158015610fcd57600080fd5b505afa158015610fe1573d6000803e3d6000fd5b505050506040513d601f19601f8201168201806040525061100591908101906131bf565b81526020018973ffffffffffffffffffffffffffffffffffffffff16638f840ddd6040518163ffffffff1660e01b815260040160206040518083038186803b15801561105057600080fd5b505afa158015611064573d6000803e3d6000fd5b505050506040513d601f19601f8201168201806040525061108891908101906131bf565b81526020018973ffffffffffffffffffffffffffffffffffffffff166318160ddd6040518163ffffffff1660e01b815260040160206040518083038186803b1580156110d357600080fd5b505afa1580156110e7573d6000803e3d6000fd5b505050506040513d601f19601f8201168201806040525061110b91908101906131bf565b81526020018973ffffffffffffffffffffffffffffffffffffffff16633b1d21a26040518163ffffffff1660e01b815260040160206040518083038186803b15801561115657600080fd5b505afa15801561116a573d6000803e3d6000fd5b505050506040513d601f19601f8201168201806040525061118e91908101906131bf565b815260200185151581526020018481526020018373ffffffffffffffffffffffffffffffffffffffff1681526020018973ffffffffffffffffffffffffffffffffffffffff1663313ce5676040518163ffffffff1660e01b815260040160206040518083038186803b15801561120357600080fd5b505afa158015611217573d6000803e3d6000fd5b505050506040513d601f19601f8201168201806040525061123b9190810190613326565b60ff168152602001828152509650505050505050919050565b61125c61246d565b60008060008573ffffffffffffffffffffffffffffffffffffffff16635ec88c79866040518263ffffffff1660e01b815260040161129a91906140ba565b60606040518083038186803b1580156112b257600080fd5b505afa1580156112c6573d6000803e3d6000fd5b505050506040513d601f19601f820116820180604052506112ea91908101906132ae565b92509250925060008314611333576040517f08c379a000000000000000000000000000000000000000000000000000000000815260040161132a9061424b565b60405180910390fd5b60405180606001604052808773ffffffffffffffffffffffffffffffffffffffff1663abfceffc886040518263ffffffff1660e01b815260040161137791906140ba565b60006040518083038186803b15801561138f57600080fd5b505afa1580156113a3573d6000803e3d6000fd5b505050506040513d6000823e3d601f19601f820116820180604052506113cc9190810190612e2f565b815260200183815260200182815250935050505092915050565b6113ee61248e565b60008373ffffffffffffffffffffffffffffffffffffffff166370a08231846040518263ffffffff1660e01b815260040161142991906140d5565b60206040518083038186803b15801561144157600080fd5b505afa158015611455573d6000803e3d6000fd5b505050506040513d601f19601f8201168201806040525061147991908101906131bf565b905060008473ffffffffffffffffffffffffffffffffffffffff166317bfdfbc856040518263ffffffff1660e01b81526004016114b691906140d5565b602060405180830381600087803b1580156114d057600080fd5b505af11580156114e4573d6000803e3d6000fd5b505050506040513d601f19601f8201168201806040525061150891908101906131bf565b905060008573ffffffffffffffffffffffffffffffffffffffff16633af9e669866040518263ffffffff1660e01b815260040161154591906140d5565b602060405180830381600087803b15801561155f57600080fd5b505af1158015611573573d6000803e3d6000fd5b505050506040513d601f19601f8201168201806040525061159791908101906131bf565b905060008061165d8873ffffffffffffffffffffffffffffffffffffffff166395d89b416040518163ffffffff1660e01b815260040160006040518083038186803b1580156115e557600080fd5b505afa1580156115f9573d6000803e3d6000fd5b505050506040513d6000823e3d601f19601f820116820180604052506116229190810190613155565b6040518060400160405280600481526020017f61424e4200000000000000000000000000000000000000000000000000000000815250612105565b1561169b578673ffffffffffffffffffffffffffffffffffffffff163191508673ffffffffffffffffffffffffffffffffffffffff1631905061183d565b600088905060008173ffffffffffffffffffffffffffffffffffffffff16636f307dc36040518163ffffffff1660e01b815260040160206040518083038186803b1580156116e857600080fd5b505afa1580156116fc573d6000803e3d6000fd5b505050506040513d601f19601f820116820180604052506117209190810190612ca6565b90508073ffffffffffffffffffffffffffffffffffffffff166370a082318a6040518263ffffffff1660e01b815260040161175b91906140d5565b60206040518083038186803b15801561177357600080fd5b505afa158015611787573d6000803e3d6000fd5b505050506040513d601f19601f820116820180604052506117ab91908101906131bf565b93508073ffffffffffffffffffffffffffffffffffffffff1663dd62ed3e8a8c6040518363ffffffff1660e01b81526004016117e89291906140f0565b60206040518083038186803b15801561180057600080fd5b505afa158015611814573d6000803e3d6000fd5b505050506040513d601f19601f8201168201806040525061183891908101906131bf565b925050505b6040518060c001604052808973ffffffffffffffffffffffffffffffffffffffff168152602001868152602001858152602001848152602001838152602001828152509550505050505092915050565b606080838390506040519080825280602002602001820160405280156118cd57816020015b6118ba6124da565b8152602001906001900390816118b25790505b50905060008090505b84849050811015611a62576060806060808973ffffffffffffffffffffffffffffffffffffffff1663328dd9828a8a8881811061190f57fe5b905060200201356040518263ffffffff1660e01b81526004016119329190614315565b60006040518083038186803b15801561194a57600080fd5b505afa15801561195e573d6000803e3d6000fd5b505050506040513d6000823e3d601f19601f820116820180604052506119879190810190612ccf565b9350935093509350604051806101a0016040528060008152602001600073ffffffffffffffffffffffffffffffffffffffff168152602001600081526020018581526020018481526020018381526020018281526020016000815260200160008152602001600081526020016000815260200160001515815260200160001515815250868681518110611a1657fe5b6020026020010181905250611a51868681518110611a3057fe5b60200260200101518b8b8b89818110611a4557fe5b9050602002013561215e565b5050505080806001019150506118d6565b50809150509392505050565b6060600082519050606081604051908082528060200260200182016040528015611ab257816020015b611a9f61255c565b815260200190600190039081611a975790505b50905060008090505b82811015611be257611acb612596565b8773ffffffffffffffffffffffffffffffffffffffff1663e23a9a52878481518110611af357fe5b6020026020010151896040518363ffffffff1660e01b8152600401611b19929190614330565b60606040518083038186803b158015611b3157600080fd5b505afa158015611b45573d6000803e3d6000fd5b505050506040513d601f19601f82011682018060405250611b699190810190613196565b90506040518060800160405280878481518110611b8257fe5b6020026020010151815260200182600001511515815260200182602001511515815260200182604001516bffffffffffffffffffffffff16815250838381518110611bc957fe5b6020026020010181905250508080600101915050611abb565b5080925050509392505050565b611bf76125c9565b60008273ffffffffffffffffffffffffffffffffffffffff16635fe3b5676040518163ffffffff1660e01b815260040160206040518083038186803b158015611c3f57600080fd5b505afa158015611c53573d6000803e3d6000fd5b505050506040513d601f19601f82011682018060405250611c779190810190613008565b905060008173ffffffffffffffffffffffffffffffffffffffff16637dc0d1d06040518163ffffffff1660e01b815260040160206040518083038186803b158015611cc157600080fd5b505afa158015611cd5573d6000803e3d6000fd5b505050506040513d601f19601f82011682018060405250611cf9919081019061312c565b905060405180604001604052808573ffffffffffffffffffffffffffffffffffffffff1681526020018273ffffffffffffffffffffffffffffffffffffffff1663fc57d4df876040518263ffffffff1660e01b8152600401611d5b919061420e565b60206040518083038186803b158015611d7357600080fd5b505afa158015611d87573d6000803e3d6000fd5b505050506040513d601f19601f82011682018060405250611dab91908101906131bf565b81525092505050919050565b60606000848490509050606081604051908082528060200260200182016040528015611dfd57816020015b611dea6125f9565b815260200190600190039081611de25790505b50905060008090505b82811015611e5c57611e38878783818110611e1d57fe5b9050602002016020611e329190810190612fa3565b866113e6565b828281518110611e4457fe5b60200260200101819052508080600101915050611e06565b5080925050509392505050565b611e71612645565b60405180606001604052808473ffffffffffffffffffffffffffffffffffffffff166370a08231856040518263ffffffff1660e01b8152600401611eb591906140ba565b60206040518083038186803b158015611ecd57600080fd5b505afa158015611ee1573d6000803e3d6000fd5b505050506040513d601f19601f82011682018060405250611f0591908101906131bf565b81526020018473ffffffffffffffffffffffffffffffffffffffff1663b4b5ea57856040518263ffffffff1660e01b8152600401611f4391906140ba565b60206040518083038186803b158015611f5b57600080fd5b505afa158015611f6f573d6000803e3d6000fd5b505050506040513d601f19601f82011682018060405250611f93919081019061334f565b6bffffffffffffffffffffffff1681526020018473ffffffffffffffffffffffffffffffffffffffff1663587cde1e856040518263ffffffff1660e01b8152600401611fdf91906140ba565b60206040518083038186803b158015611ff757600080fd5b505afa15801561200b573d6000803e3d6000fd5b505050506040513d601f19601f8201168201806040525061202f9190810190612ca6565b73ffffffffffffffffffffffffffffffffffffffff16815250905092915050565b600080838501905084811015839061209e576040517f08c379a00000000000000000000000000000000000000000000000000000000081526004016120959190614229565b60405180910390fd5b50809150509392505050565b60008383111582906120f2576040517f08c379a00000000000000000000000000000000000000000000000000000000081526004016120e99190614229565b60405180910390fd5b5060008385039050809150509392505050565b60008160405160200161211891906140a3565b604051602081830303815290604052805190602001208360405160200161213f91906140a3565b6040516020818303038152906040528051906020012014905092915050565b6000806000806000806000808973ffffffffffffffffffffffffffffffffffffffff1663013cf08b8a6040518263ffffffff1660e01b81526004016121a39190614315565b6101206040518083038186803b1580156121bc57600080fd5b505afa1580156121d0573d6000803e3d6000fd5b505050506040513d601f19601f820116820180604052506121f491908101906131e8565b9850985098509850985098509850985050888b6000018181525050878b6020019073ffffffffffffffffffffffffffffffffffffffff16908173ffffffffffffffffffffffffffffffffffffffff1681525050868b6040018181525050858b60e0018181525050848b610100018181525050838b610120018181525050828b610140018181525050818b610160019015159081151581525050808b6101800190151590811515815250505050505050505050505050565b604051806040016040528060008152602001600081525090565b604051806101c00160405280600073ffffffffffffffffffffffffffffffffffffffff168152602001600081526020016000815260200160008152602001600081526020016000815260200160008152602001600081526020016000815260200160001515815260200160008152602001600073ffffffffffffffffffffffffffffffffffffffff16815260200160008152602001600081525090565b60405180608001604052806000815260200160008152602001600073ffffffffffffffffffffffffffffffffffffffff168152602001600081525090565b6040518060400160405280600073ffffffffffffffffffffffffffffffffffffffff168152602001600081525090565b604051806101c00160405280600073ffffffffffffffffffffffffffffffffffffffff168152602001600081526020016000815260200160008152602001600081526020016000815260200160008152602001600081526020016000815260200160001515815260200160008152602001600073ffffffffffffffffffffffffffffffffffffffff16815260200160008152602001600081525090565b60405180606001604052806060815260200160008152602001600081525090565b6040518060c00160405280600073ffffffffffffffffffffffffffffffffffffffff16815260200160008152602001600081526020016000815260200160008152602001600081525090565b604051806101a0016040528060008152602001600073ffffffffffffffffffffffffffffffffffffffff1681526020016000815260200160608152602001606081526020016060815260200160608152602001600081526020016000815260200160008152602001600081526020016000151581526020016000151581525090565b60405180608001604052806000815260200160001515815260200160001515815260200160006bffffffffffffffffffffffff1681525090565b604051806060016040528060001515815260200160001515815260200160006bffffffffffffffffffffffff1681525090565b6040518060400160405280600073ffffffffffffffffffffffffffffffffffffffff168152602001600081525090565b6040518060c00160405280600073ffffffffffffffffffffffffffffffffffffffff16815260200160008152602001600081526020016000815260200160008152602001600081525090565b60405180606001604052806000815260200160008152602001600073ffffffffffffffffffffffffffffffffffffffff1681525090565b60008135905061268b81614912565b92915050565b6000815190506126a081614912565b92915050565b6000813590506126b581614929565b92915050565b600082601f8301126126cc57600080fd5b81516126df6126da82614386565b614359565b9150818183526020840193506020810190508385602084028201111561270457600080fd5b60005b83811015612734578161271a8882612691565b845260208401935060208301925050600181019050612707565b5050505092915050565b600082601f83011261274f57600080fd5b815161276261275d826143ae565b614359565b9150818183526020840193506020810190508360005b838110156127a8578151860161278e8882612aa2565b845260208401935060208301925050600181019050612778565b5050505092915050565b60008083601f8401126127c457600080fd5b8235905067ffffffffffffffff8111156127dd57600080fd5b6020830191508360208202830111156127f557600080fd5b9250929050565b600082601f83011261280d57600080fd5b815161282061281b826143d6565b614359565b9150818183526020840193506020810190508385602084028201111561284557600080fd5b60005b83811015612875578161285b8882612b20565b845260208401935060208301925050600181019050612848565b5050505092915050565b600082601f83011261289057600080fd5b81516128a361289e826143fe565b614359565b9150818183526020840193506020810190508360005b838110156128e957815186016128cf8882612b89565b8452602084019350602083019250506001810190506128b9565b5050505092915050565b60008083601f84011261290557600080fd5b8235905067ffffffffffffffff81111561291e57600080fd5b60208301915083602082028301111561293657600080fd5b9250929050565b600082601f83011261294e57600080fd5b813561296161295c82614426565b614359565b9150818183526020840193506020810190508385602084028201111561298657600080fd5b60005b838110156129b6578161299c8882612c3d565b845260208401935060208301925050600181019050612989565b5050505092915050565b600082601f8301126129d157600080fd5b81516129e46129df82614426565b614359565b91508181835260208401935060208101905083856020840282011115612a0957600080fd5b60005b83811015612a395781612a1f8882612c52565b845260208401935060208301925050600181019050612a0c565b5050505092915050565b60008083601f840112612a5557600080fd5b8235905067ffffffffffffffff811115612a6e57600080fd5b602083019150836020820283011115612a8657600080fd5b9250929050565b600081519050612a9c81614940565b92915050565b600082601f830112612ab357600080fd5b8151612ac6612ac18261444e565b614359565b91508082526020830160208301858383011115612ae257600080fd5b612aed8382846148ce565b50505092915050565b600081359050612b0581614957565b92915050565b600081359050612b1a8161496e565b92915050565b600081519050612b2f8161496e565b92915050565b600081519050612b4481614985565b92915050565b600081359050612b598161499c565b92915050565b600081359050612b6e816149b3565b92915050565b600081519050612b83816149ca565b92915050565b600082601f830112612b9a57600080fd5b8151612bad612ba88261447a565b614359565b91508082526020830160208301858383011115612bc957600080fd5b612bd48382846148ce565b50505092915050565b600060608284031215612bef57600080fd5b612bf96060614359565b90506000612c0984828501612a8d565b6000830152506020612c1d84828501612a8d565b6020830152506040612c3184828501612c91565b60408301525092915050565b600081359050612c4c816149e1565b92915050565b600081519050612c61816149e1565b92915050565b600081359050612c76816149f8565b92915050565b600081519050612c8b81614a0f565b92915050565b600081519050612ca081614a26565b92915050565b600060208284031215612cb857600080fd5b6000612cc684828501612691565b91505092915050565b60008060008060808587031215612ce557600080fd5b600085015167ffffffffffffffff811115612cff57600080fd5b612d0b878288016126bb565b945050602085015167ffffffffffffffff811115612d2857600080fd5b612d34878288016129c0565b935050604085015167ffffffffffffffff811115612d5157600080fd5b612d5d8782880161287f565b925050606085015167ffffffffffffffff811115612d7a57600080fd5b612d868782880161273e565b91505092959194509250565b60008060208385031215612da557600080fd5b600083013567ffffffffffffffff811115612dbf57600080fd5b612dcb858286016127b2565b92509250509250929050565b600080600060408486031215612dec57600080fd5b600084013567ffffffffffffffff811115612e0657600080fd5b612e12868287016127b2565b93509350506020612e25868287016126a6565b9150509250925092565b600060208284031215612e4157600080fd5b600082015167ffffffffffffffff811115612e5b57600080fd5b612e67848285016127fc565b91505092915050565b60008060408385031215612e8357600080fd5b6000612e9185828601612a8d565b9250506020612ea285828601612c52565b9150509250929050565b60008060408385031215612ebf57600080fd5b6000612ecd85828601612af6565b9250506020612ede8582860161267c565b9150509250929050565b60008060008060608587031215612efe57600080fd5b6000612f0c87828801612af6565b9450506020612f1d8782880161267c565b935050604085013567ffffffffffffffff811115612f3a57600080fd5b612f4687828801612a43565b925092505092959194509250565b600080600060608486031215612f6957600080fd5b6000612f7786828701612af6565b9350506020612f8886828701612b4a565b9250506040612f998682870161267c565b9150509250925092565b600060208284031215612fb557600080fd5b6000612fc384828501612b0b565b91505092915050565b60008060408385031215612fdf57600080fd5b6000612fed85828601612b0b565b9250506020612ffe858286016126a6565b9150509250929050565b60006020828403121561301a57600080fd5b600061302884828501612b35565b91505092915050565b6000806040838503121561304457600080fd5b600061305285828601612b4a565b92505060206130638582860161267c565b9150509250929050565b60008060006060848603121561308257600080fd5b600061309086828701612b5f565b93505060206130a18682870161267c565b925050604084013567ffffffffffffffff8111156130be57600080fd5b6130ca8682870161293d565b9150509250925092565b6000806000604084860312156130e957600080fd5b60006130f786828701612b5f565b935050602084013567ffffffffffffffff81111561311457600080fd5b613120868287016128f3565b92509250509250925092565b60006020828403121561313e57600080fd5b600061314c84828501612b74565b91505092915050565b60006020828403121561316757600080fd5b600082015167ffffffffffffffff81111561318157600080fd5b61318d84828501612b89565b91505092915050565b6000606082840312156131a857600080fd5b60006131b684828501612bdd565b91505092915050565b6000602082840312156131d157600080fd5b60006131df84828501612c52565b91505092915050565b60008060008060008060008060006101208a8c03121561320757600080fd5b60006132158c828d01612c52565b99505060206132268c828d01612691565b98505060406132378c828d01612c52565b97505060606132488c828d01612c52565b96505060806132598c828d01612c52565b95505060a061326a8c828d01612c52565b94505060c061327b8c828d01612c52565b93505060e061328c8c828d01612a8d565b92505061010061329e8c828d01612a8d565b9150509295985092959850929598565b6000806000606084860312156132c357600080fd5b60006132d186828701612c52565b93505060206132e286828701612c52565b92505060406132f386828701612c52565b9150509250925092565b60006020828403121561330f57600080fd5b600061331d84828501612c67565b91505092915050565b60006020828403121561333857600080fd5b600061334684828501612c7c565b91505092915050565b60006020828403121561336157600080fd5b600061336f84828501612c91565b91505092915050565b60006133848383613484565b60208301905092915050565b600061339c8383613900565b905092915050565b60006133b08383613939565b60208301905092915050565b60006133c883836139c1565b905092915050565b60006133dc8383613b9c565b60c08301905092915050565b60006133f48383613d37565b6101c08301905092915050565b600061340d8383613e86565b60408301905092915050565b60006134258383613eb5565b60408301905092915050565b600061343d8383613ee4565b905092915050565b60006134518383614012565b60808301905092915050565b60006134698383614067565b60208301905092915050565b61347e81614862565b82525050565b61348d81614767565b82525050565b61349c81614767565b82525050565b60006134ad82614556565b6134b7818561467f565b93506134c2836144a6565b8060005b838110156134f35781516134da8882613378565b97506134e5836145f0565b9250506001810190506134c6565b5085935050505092915050565b600061350b82614561565b6135158185614690565b935083602082028501613527856144b6565b8060005b8581101561356357848403895281516135448582613390565b945061354f836145fd565b925060208a0199505060018101905061352b565b50829750879550505050505092915050565b60006135808261456c565b61358a818561467f565b9350613595836144c6565b8060005b838110156135c65781516135ad88826133a4565b97506135b88361460a565b925050600181019050613599565b5085935050505092915050565b60006135de82614577565b6135e881856146a1565b9350836020820285016135fa856144d6565b8060005b85811015613636578484038952815161361785826133bc565b945061362283614617565b925060208a019950506001810190506135fe565b50829750879550505050505092915050565b600061365382614582565b61365d81856146b2565b9350613668836144e6565b8060005b8381101561369957815161368088826133d0565b975061368b83614624565b92505060018101905061366c565b5085935050505092915050565b60006136b18261458d565b6136bb81856146c3565b93506136c6836144f6565b8060005b838110156136f75781516136de88826133e8565b97506136e983614631565b9250506001810190506136ca565b5085935050505092915050565b600061370f82614598565b61371981856146d4565b935061372483614506565b8060005b8381101561375557815161373c8882613401565b97506137478361463e565b925050600181019050613728565b5085935050505092915050565b600061376d826145a3565b61377781856146e5565b935061378283614516565b8060005b838110156137b357815161379a8882613419565b97506137a58361464b565b925050600181019050613786565b5085935050505092915050565b60006137cb826145ae565b6137d581856146f6565b9350836020820285016137e785614526565b8060005b8581101561382357848403895281516138048582613431565b945061380f83614658565b925060208a019950506001810190506137eb565b50829750879550505050505092915050565b6000613840826145b9565b61384a8185614707565b935061385583614536565b8060005b8381101561388657815161386d8882613445565b975061387883614665565b925050600181019050613859565b5085935050505092915050565b600061389e826145c4565b6138a88185614718565b93506138b383614546565b8060005b838110156138e45781516138cb888261345d565b97506138d683614672565b9250506001810190506138b7565b5085935050505092915050565b6138fa8161478b565b82525050565b600061390b826145cf565b6139158185614729565b93506139258185602086016148ce565b61392e81614901565b840191505092915050565b61394281614874565b82525050565b61395181614874565b82525050565b6000613962826145e5565b61396c818561474b565b935061397c8185602086016148ce565b61398581614901565b840191505092915050565b600061399b826145e5565b6139a5818561475c565b93506139b58185602086016148ce565b80840191505092915050565b60006139cc826145da565b6139d6818561473a565b93506139e68185602086016148ce565b6139ef81614901565b840191505092915050565b6000613a0760178361474b565b91507f6163636f756e74206c6971756964697479206572726f720000000000000000006000830152602082019050919050565b60006060830160008301518482036000860152613a578282613575565b9150506020830151613a6c6020860182614067565b506040830151613a7f6040860182614067565b508091505092915050565b608082016000820151613aa06000850182614067565b506020820151613ab36020850182614067565b506040820151613ac66040850182613484565b506060820151613ad96060850182614067565b50505050565b606082016000820151613af56000850182614067565b506020820151613b086020850182614067565b506040820151613b1b6040850182613484565b50505050565b60c082016000820151613b376000850182613484565b506020820151613b4a6020850182614067565b506040820151613b5d6040850182614067565b506060820151613b706060850182614067565b506080820151613b836080850182614067565b5060a0820151613b9660a0850182614067565b50505050565b60c082016000820151613bb26000850182613484565b506020820151613bc56020850182614067565b506040820151613bd86040850182614067565b506060820151613beb6060850182614067565b506080820151613bfe6080850182614067565b5060a0820151613c1160a0850182614067565b50505050565b6101c082016000820151613c2e6000850182613484565b506020820151613c416020850182614067565b506040820151613c546040850182614067565b506060820151613c676060850182614067565b506080820151613c7a6080850182614067565b5060a0820151613c8d60a0850182614067565b5060c0820151613ca060c0850182614067565b5060e0820151613cb360e0850182614067565b50610100820151613cc8610100850182614067565b50610120820151613cdd6101208501826138f1565b50610140820151613cf2610140850182614067565b50610160820151613d07610160850182613484565b50610180820151613d1c610180850182614067565b506101a0820151613d316101a0850182614067565b50505050565b6101c082016000820151613d4e6000850182613484565b506020820151613d616020850182614067565b506040820151613d746040850182614067565b506060820151613d876060850182614067565b506080820151613d9a6080850182614067565b5060a0820151613dad60a0850182614067565b5060c0820151613dc060c0850182614067565b5060e0820151613dd360e0850182614067565b50610100820151613de8610100850182614067565b50610120820151613dfd6101208501826138f1565b50610140820151613e12610140850182614067565b50610160820151613e27610160850182613484565b50610180820151613e3c610180850182614067565b506101a0820151613e516101a0850182614067565b50505050565b604082016000820151613e6d6000850182613484565b506020820151613e806020850182614067565b50505050565b604082016000820151613e9c6000850182613484565b506020820151613eaf6020850182614067565b50505050565b604082016000820151613ecb6000850182614067565b506020820151613ede6020850182614067565b50505050565b60006101a083016000830151613efd6000860182614067565b506020830151613f106020860182613484565b506040830151613f236040860182614067565b5060608301518482036060860152613f3b82826134a2565b91505060808301518482036080860152613f558282613893565b91505060a083015184820360a0860152613f6f82826135d3565b91505060c083015184820360c0860152613f898282613500565b91505060e0830151613f9e60e0860182614067565b50610100830151613fb3610100860182614067565b50610120830151613fc8610120860182614067565b50610140830151613fdd610140860182614067565b50610160830151613ff26101608601826138f1565b506101808301516140076101808601826138f1565b508091505092915050565b6080820160008201516140286000850182614067565b50602082015161403b60208501826138f1565b50604082015161404e60408501826138f1565b5060608201516140616060850182614094565b50505050565b61407081614823565b82525050565b61407f81614823565b82525050565b61408e816148bc565b82525050565b61409d8161484a565b82525050565b60006140af8284613990565b915081905092915050565b60006020820190506140cf6000830184613493565b92915050565b60006020820190506140ea6000830184613475565b92915050565b60006040820190506141056000830185613475565b6141126020830184613493565b9392505050565b600060408201905061412e6000830185613493565b61413b6020830184614085565b9392505050565b6000602082019050818103600083015261415c8184613648565b905092915050565b6000602082019050818103600083015261417e81846136a6565b905092915050565b600060208201905081810360008301526141a08184613704565b905092915050565b600060208201905081810360008301526141c28184613762565b905092915050565b600060208201905081810360008301526141e481846137c0565b905092915050565b600060208201905081810360008301526142068184613835565b905092915050565b60006020820190506142236000830184613948565b92915050565b600060208201905081810360008301526142438184613957565b905092915050565b60006020820190508181036000830152614264816139fa565b9050919050565b600060208201905081810360008301526142858184613a3a565b905092915050565b60006080820190506142a26000830184613a8a565b92915050565b60006060820190506142bd6000830184613adf565b92915050565b600060c0820190506142d86000830184613b21565b92915050565b60006101c0820190506142f46000830184613c17565b92915050565b600060408201905061430f6000830184613e57565b92915050565b600060208201905061432a6000830184614076565b92915050565b60006040820190506143456000830185614076565b6143526020830184613493565b9392505050565b6000604051905081810181811067ffffffffffffffff8211171561437c57600080fd5b8060405250919050565b600067ffffffffffffffff82111561439d57600080fd5b602082029050602081019050919050565b600067ffffffffffffffff8211156143c557600080fd5b602082029050602081019050919050565b600067ffffffffffffffff8211156143ed57600080fd5b602082029050602081019050919050565b600067ffffffffffffffff82111561441557600080fd5b602082029050602081019050919050565b600067ffffffffffffffff82111561443d57600080fd5b602082029050602081019050919050565b600067ffffffffffffffff82111561446557600080fd5b601f19601f8301169050602081019050919050565b600067ffffffffffffffff82111561449157600080fd5b601f19601f8301169050602081019050919050565b6000819050602082019050919050565b6000819050602082019050919050565b6000819050602082019050919050565b6000819050602082019050919050565b6000819050602082019050919050565b6000819050602082019050919050565b6000819050602082019050919050565b6000819050602082019050919050565b6000819050602082019050919050565b6000819050602082019050919050565b6000819050602082019050919050565b600081519050919050565b600081519050919050565b600081519050919050565b600081519050919050565b600081519050919050565b600081519050919050565b600081519050919050565b600081519050919050565b600081519050919050565b600081519050919050565b600081519050919050565b600081519050919050565b600081519050919050565b600081519050919050565b6000602082019050919050565b6000602082019050919050565b6000602082019050919050565b6000602082019050919050565b6000602082019050919050565b6000602082019050919050565b6000602082019050919050565b6000602082019050919050565b6000602082019050919050565b6000602082019050919050565b6000602082019050919050565b600082825260208201905092915050565b600082825260208201905092915050565b600082825260208201905092915050565b600082825260208201905092915050565b600082825260208201905092915050565b600082825260208201905092915050565b600082825260208201905092915050565b600082825260208201905092915050565b600082825260208201905092915050565b600082825260208201905092915050565b600082825260208201905092915050565b600082825260208201905092915050565b600082825260208201905092915050565b600081905092915050565b600061477282614803565b9050919050565b600061478482614803565b9050919050565b60008115159050919050565b60006147a282614767565b9050919050565b60006147b482614767565b9050919050565b60006147c682614767565b9050919050565b60006147d882614767565b9050919050565b60006147ea82614767565b9050919050565b60006147fc82614767565b9050919050565b600073ffffffffffffffffffffffffffffffffffffffff82169050919050565b6000819050919050565b600063ffffffff82169050919050565b600060ff82169050919050565b60006bffffffffffffffffffffffff82169050919050565b600061486d82614898565b9050919050565b600061487f82614886565b9050919050565b600061489182614803565b9050919050565b60006148a3826148aa565b9050919050565b60006148b582614803565b9050919050565b60006148c78261482d565b9050919050565b60005b838110156148ec5780820151818401526020810190506148d1565b838111156148fb576000848401525b50505050565b6000601f19601f8301169050919050565b61491b81614767565b811461492657600080fd5b50565b61493281614779565b811461493d57600080fd5b50565b6149498161478b565b811461495457600080fd5b50565b61496081614797565b811461496b57600080fd5b50565b614977816147a9565b811461498257600080fd5b50565b61498e816147bb565b811461499957600080fd5b50565b6149a5816147cd565b81146149b057600080fd5b50565b6149bc816147df565b81146149c757600080fd5b50565b6149d3816147f1565b81146149de57600080fd5b50565b6149ea81614823565b81146149f557600080fd5b50565b614a018161482d565b8114614a0c57600080fd5b50565b614a188161483d565b8114614a2357600080fd5b50565b614a2f8161484a565b8114614a3a57600080fd5b5056fea365627a7a72315820f65dec14fb938ed7bb8e4657092103c444dc1de7b9da3786659b7617d994796f6c6578706572696d656e74616cf564736f6c63430005110040",
  "source": "pragma solidity ^0.5.16;\npragma experimental ABIEncoderV2;\n\nimport \"./BBep20.sol\";\nimport \"./BToken.sol\";\nimport \"./PriceOracle.sol\";\nimport \"./EIP20Interface.sol\";\nimport \"./GovernorAlpha.sol\";\nimport \"./BTNT.sol\";\n\ninterface ComptrollerLensInterface {\n    function markets(address) external view returns (bool, uint);\n    function oracle() external view returns (PriceOracle);\n    function getAccountLiquidity(address) external view returns (uint, uint, uint);\n    function getAssetsIn(address) external view returns (BToken[] memory);\n    function claimBtntex(address) external;\n    function btntexAccrued(address) external view returns (uint);\n}\n\ncontract BtntexLens {\n    struct BTokenMetadata {\n        address bToken;\n        uint exchangeRateCurrent;\n        uint supplyRatePerBlock;\n        uint borrowRatePerBlock;\n        uint reserveFactorMantissa;\n        uint totalBorrows;\n        uint totalReserves;\n        uint totalSupply;\n        uint totalCash;\n        bool isListed;\n        uint collateralFactorMantissa;\n        address underlyingAssetAddress;\n        uint bTokenDecimals;\n        uint underlyingDecimals;\n    }\n\n    function bTokenMetadata(BToken bToken) public returns (BTokenMetadata memory) {\n        uint exchangeRateCurrent = bToken.exchangeRateCurrent();\n        ComptrollerLensInterface comptroller = ComptrollerLensInterface(address(bToken.comptroller()));\n        (bool isListed, uint collateralFactorMantissa) = comptroller.markets(address(bToken));\n        address underlyingAssetAddress;\n        uint underlyingDecimals;\n\n        if (compareStrings(bToken.symbol(), \"aBNB\")) {\n            underlyingAssetAddress = address(0);\n            underlyingDecimals = 18;\n        } else {\n            BBep20 bBep20 = BBep20(address(bToken));\n            underlyingAssetAddress = bBep20.underlying();\n            underlyingDecimals = EIP20Interface(bBep20.underlying()).decimals();\n        }\n\n        return BTokenMetadata({\n            bToken: address(bToken),\n            exchangeRateCurrent: exchangeRateCurrent,\n            supplyRatePerBlock: bToken.supplyRatePerBlock(),\n            borrowRatePerBlock: bToken.borrowRatePerBlock(),\n            reserveFactorMantissa: bToken.reserveFactorMantissa(),\n            totalBorrows: bToken.totalBorrows(),\n            totalReserves: bToken.totalReserves(),\n            totalSupply: bToken.totalSupply(),\n            totalCash: bToken.getCash(),\n            isListed: isListed,\n            collateralFactorMantissa: collateralFactorMantissa,\n            underlyingAssetAddress: underlyingAssetAddress,\n            bTokenDecimals: bToken.decimals(),\n            underlyingDecimals: underlyingDecimals\n        });\n    }\n\n    function bTokenMetadataAll(BToken[] calldata bTokens) external returns (BTokenMetadata[] memory) {\n        uint bTokenCount = bTokens.length;\n        BTokenMetadata[] memory res = new BTokenMetadata[](bTokenCount);\n        for (uint i = 0; i < bTokenCount; i++) {\n            res[i] = bTokenMetadata(bTokens[i]);\n        }\n        return res;\n    }\n\n    struct BTokenBalances {\n        address bToken;\n        uint balanceOf;\n        uint borrowBalanceCurrent;\n        uint balanceOfUnderlying;\n        uint tokenBalance;\n        uint tokenAllowance;\n    }\n\n    function bTokenBalances(BToken bToken, address payable account) public returns (BTokenBalances memory) {\n        uint balanceOf = bToken.balanceOf(account);\n        uint borrowBalanceCurrent = bToken.borrowBalanceCurrent(account);\n        uint balanceOfUnderlying = bToken.balanceOfUnderlying(account);\n        uint tokenBalance;\n        uint tokenAllowance;\n\n        if (compareStrings(bToken.symbol(), \"aBNB\")) {\n            tokenBalance = account.balance;\n            tokenAllowance = account.balance;\n        } else {\n            BBep20 bBep20 = BBep20(address(bToken));\n            EIP20Interface underlying = EIP20Interface(bBep20.underlying());\n            tokenBalance = underlying.balanceOf(account);\n            tokenAllowance = underlying.allowance(account, address(bToken));\n        }\n\n        return BTokenBalances({\n            bToken: address(bToken),\n            balanceOf: balanceOf,\n            borrowBalanceCurrent: borrowBalanceCurrent,\n            balanceOfUnderlying: balanceOfUnderlying,\n            tokenBalance: tokenBalance,\n            tokenAllowance: tokenAllowance\n        });\n    }\n\n    function bTokenBalancesAll(BToken[] calldata bTokens, address payable account) external returns (BTokenBalances[] memory) {\n        uint bTokenCount = bTokens.length;\n        BTokenBalances[] memory res = new BTokenBalances[](bTokenCount);\n        for (uint i = 0; i < bTokenCount; i++) {\n            res[i] = bTokenBalances(bTokens[i], account);\n        }\n        return res;\n    }\n\n    struct BTokenUnderlyingPrice {\n        address bToken;\n        uint underlyingPrice;\n    }\n\n    function bTokenUnderlyingPrice(BToken bToken) public view returns (BTokenUnderlyingPrice memory) {\n        ComptrollerLensInterface comptroller = ComptrollerLensInterface(address(bToken.comptroller()));\n        PriceOracle priceOracle = comptroller.oracle();\n\n        return BTokenUnderlyingPrice({\n            bToken: address(bToken),\n            underlyingPrice: priceOracle.getUnderlyingPrice(bToken)\n        });\n    }\n\n    function bTokenUnderlyingPriceAll(BToken[] calldata bTokens) external view returns (BTokenUnderlyingPrice[] memory) {\n        uint bTokenCount = bTokens.length;\n        BTokenUnderlyingPrice[] memory res = new BTokenUnderlyingPrice[](bTokenCount);\n        for (uint i = 0; i < bTokenCount; i++) {\n            res[i] = bTokenUnderlyingPrice(bTokens[i]);\n        }\n        return res;\n    }\n\n    struct AccountLimits {\n        BToken[] markets;\n        uint liquidity;\n        uint shortfall;\n    }\n\n    function getAccountLimits(ComptrollerLensInterface comptroller, address account) public view returns (AccountLimits memory) {\n        (uint errorCode, uint liquidity, uint shortfall) = comptroller.getAccountLiquidity(account);\n        require(errorCode == 0, \"account liquidity error\");\n\n        return AccountLimits({\n            markets: comptroller.getAssetsIn(account),\n            liquidity: liquidity,\n            shortfall: shortfall\n        });\n    }\n\n    struct GovReceipt {\n        uint proposalId;\n        bool hasVoted;\n        bool support;\n        uint96 votes;\n    }\n\n    function getGovReceipts(GovernorAlpha governor, address voter, uint[] memory proposalIds) public view returns (GovReceipt[] memory) {\n        uint proposalCount = proposalIds.length;\n        GovReceipt[] memory res = new GovReceipt[](proposalCount);\n        for (uint i = 0; i < proposalCount; i++) {\n            GovernorAlpha.Receipt memory receipt = governor.getReceipt(proposalIds[i], voter);\n            res[i] = GovReceipt({\n                proposalId: proposalIds[i],\n                hasVoted: receipt.hasVoted,\n                support: receipt.support,\n                votes: receipt.votes\n            });\n        }\n        return res;\n    }\n\n    struct GovProposal {\n        uint proposalId;\n        address proposer;\n        uint eta;\n        address[] targets;\n        uint[] values;\n        string[] signatures;\n        bytes[] calldatas;\n        uint startBlock;\n        uint endBlock;\n        uint forVotes;\n        uint againstVotes;\n        bool canceled;\n        bool executed;\n    }\n\n    function setProposal(GovProposal memory res, GovernorAlpha governor, uint proposalId) internal view {\n        (\n            ,\n            address proposer,\n            uint eta,\n            uint startBlock,\n            uint endBlock,\n            uint forVotes,\n            uint againstVotes,\n            bool canceled,\n            bool executed\n        ) = governor.proposals(proposalId);\n        res.proposalId = proposalId;\n        res.proposer = proposer;\n        res.eta = eta;\n        res.startBlock = startBlock;\n        res.endBlock = endBlock;\n        res.forVotes = forVotes;\n        res.againstVotes = againstVotes;\n        res.canceled = canceled;\n        res.executed = executed;\n    }\n\n    function getGovProposals(GovernorAlpha governor, uint[] calldata proposalIds) external view returns (GovProposal[] memory) {\n        GovProposal[] memory res = new GovProposal[](proposalIds.length);\n        for (uint i = 0; i < proposalIds.length; i++) {\n            (\n                address[] memory targets,\n                uint[] memory values,\n                string[] memory signatures,\n                bytes[] memory calldatas\n            ) = governor.getActions(proposalIds[i]);\n            res[i] = GovProposal({\n                proposalId: 0,\n                proposer: address(0),\n                eta: 0,\n                targets: targets,\n                values: values,\n                signatures: signatures,\n                calldatas: calldatas,\n                startBlock: 0,\n                endBlock: 0,\n                forVotes: 0,\n                againstVotes: 0,\n                canceled: false,\n                executed: false\n            });\n            setProposal(res[i], governor, proposalIds[i]);\n        }\n        return res;\n    }\n\n    struct BTNTBalanceMetadata {\n        uint balance;\n        uint votes;\n        address delegate;\n    }\n\n    function getBTNTBalanceMetadata(BTNT btnt, address account) external view returns (BTNTBalanceMetadata memory) {\n        return BTNTBalanceMetadata({\n            balance: btnt.balanceOf(account),\n            votes: uint256(btnt.getCurrentVotes(account)),\n            delegate: btnt.delegates(account)\n        });\n    }\n\n    struct BTNTBalanceMetadataExt {\n        uint balance;\n        uint votes;\n        address delegate;\n        uint allocated;\n    }\n\n    function getBTNTBalanceMetadataExt(BTNT btnt, ComptrollerLensInterface comptroller, address account) external returns (BTNTBalanceMetadataExt memory) {\n        uint balance = btnt.balanceOf(account);\n        comptroller.claimBtntex(account);\n        uint newBalance = btnt.balanceOf(account);\n        uint accrued = comptroller.btntexAccrued(account);\n        uint total = add(accrued, newBalance, \"sum btnt total\");\n        uint allocated = sub(total, balance, \"sub allocated\");\n\n        return BTNTBalanceMetadataExt({\n            balance: balance,\n            votes: uint256(btnt.getCurrentVotes(account)),\n            delegate: btnt.delegates(account),\n            allocated: allocated\n        });\n    }\n\n    struct BtntexVotes {\n        uint blockNumber;\n        uint votes;\n    }\n\n    function getBtntexVotes(BTNT btnt, address account, uint32[] calldata blockNumbers) external view returns (BtntexVotes[] memory) {\n        BtntexVotes[] memory res = new BtntexVotes[](blockNumbers.length);\n        for (uint i = 0; i < blockNumbers.length; i++) {\n            res[i] = BtntexVotes({\n                blockNumber: uint256(blockNumbers[i]),\n                votes: uint256(btnt.getPriorVotes(account, blockNumbers[i]))\n            });\n        }\n        return res;\n    }\n\n    function compareStrings(string memory a, string memory b) internal pure returns (bool) {\n        return (keccak256(abi.encodePacked((a))) == keccak256(abi.encodePacked((b))));\n    }\n\n    function add(uint a, uint b, string memory errorMessage) internal pure returns (uint) {\n        uint c = a + b;\n        require(c >= a, errorMessage);\n        return c;\n    }\n\n    function sub(uint a, uint b, string memory errorMessage) internal pure returns (uint) {\n        require(b <= a, errorMessage);\n        uint c = a - b;\n        return c;\n    }\n}\n",
  "sourcePath": "/home/aliwisam/AliWisamData/Personal/Orders/Sir Junaid/Gist/TruffleFlat/contracts/BtntLens.sol",
  "compiler": {
    "name": "solc",
    "version": "0.5.17+commit.d19bba13.Emscripten.clang"
  },
  "schemaVersion": "3.4.0",
  "updatedAt": "2021-06-16T15:51:17.809Z",
  "devdoc": {
    "methods": {}
  },
  "userdoc": {
    "methods": {}
  }
}