{
  "contractName": "GovernorAlpha",
  "abi": [
    {
      "inputs": [
        {
          "internalType": "address",
          "name": "timelock_",
          "type": "address"
        },
        {
          "internalType": "address",
          "name": "btnt_",
          "type": "address"
        },
        {
          "internalType": "address",
          "name": "guardian_",
          "type": "address"
        }
      ],
      "payable": false,
      "stateMutability": "nonpayable",
      "type": "constructor"
    },
    {
      "anonymous": false,
      "inputs": [
        {
          "indexed": false,
          "internalType": "uint256",
          "name": "id",
          "type": "uint256"
        }
      ],
      "name": "ProposalCanceled",
      "type": "event"
    },
    {
      "anonymous": false,
      "inputs": [
        {
          "indexed": false,
          "internalType": "uint256",
          "name": "id",
          "type": "uint256"
        },
        {
          "indexed": false,
          "internalType": "address",
          "name": "proposer",
          "type": "address"
        },
        {
          "indexed": false,
          "internalType": "address[]",
          "name": "targets",
          "type": "address[]"
        },
        {
          "indexed": false,
          "internalType": "uint256[]",
          "name": "values",
          "type": "uint256[]"
        },
        {
          "indexed": false,
          "internalType": "string[]",
          "name": "signatures",
          "type": "string[]"
        },
        {
          "indexed": false,
          "internalType": "bytes[]",
          "name": "calldatas",
          "type": "bytes[]"
        },
        {
          "indexed": false,
          "internalType": "uint256",
          "name": "startBlock",
          "type": "uint256"
        },
        {
          "indexed": false,
          "internalType": "uint256",
          "name": "endBlock",
          "type": "uint256"
        },
        {
          "indexed": false,
          "internalType": "string",
          "name": "description",
          "type": "string"
        }
      ],
      "name": "ProposalCreated",
      "type": "event"
    },
    {
      "anonymous": false,
      "inputs": [
        {
          "indexed": false,
          "internalType": "uint256",
          "name": "id",
          "type": "uint256"
        }
      ],
      "name": "ProposalExecuted",
      "type": "event"
    },
    {
      "anonymous": false,
      "inputs": [
        {
          "indexed": false,
          "internalType": "uint256",
          "name": "id",
          "type": "uint256"
        },
        {
          "indexed": false,
          "internalType": "uint256",
          "name": "eta",
          "type": "uint256"
        }
      ],
      "name": "ProposalQueued",
      "type": "event"
    },
    {
      "anonymous": false,
      "inputs": [
        {
          "indexed": false,
          "internalType": "address",
          "name": "voter",
          "type": "address"
        },
        {
          "indexed": false,
          "internalType": "uint256",
          "name": "proposalId",
          "type": "uint256"
        },
        {
          "indexed": false,
          "internalType": "bool",
          "name": "support",
          "type": "bool"
        },
        {
          "indexed": false,
          "internalType": "uint256",
          "name": "votes",
          "type": "uint256"
        }
      ],
      "name": "VoteCast",
      "type": "event"
    },
    {
      "constant": true,
      "inputs": [],
      "name": "BALLOT_TYPEHASH",
      "outputs": [
        {
          "internalType": "bytes32",
          "name": "",
          "type": "bytes32"
        }
      ],
      "payable": false,
      "stateMutability": "view",
      "type": "function"
    },
    {
      "constant": true,
      "inputs": [],
      "name": "DOMAIN_TYPEHASH",
      "outputs": [
        {
          "internalType": "bytes32",
          "name": "",
          "type": "bytes32"
        }
      ],
      "payable": false,
      "stateMutability": "view",
      "type": "function"
    },
    {
      "constant": true,
      "inputs": [],
      "name": "btnt",
      "outputs": [
        {
          "internalType": "contract BTNTInterface",
          "name": "",
          "type": "address"
        }
      ],
      "payable": false,
      "stateMutability": "view",
      "type": "function"
    },
    {
      "constant": true,
      "inputs": [],
      "name": "guardian",
      "outputs": [
        {
          "internalType": "address",
          "name": "",
          "type": "address"
        }
      ],
      "payable": false,
      "stateMutability": "view",
      "type": "function"
    },
    {
      "constant": true,
      "inputs": [
        {
          "internalType": "address",
          "name": "",
          "type": "address"
        }
      ],
      "name": "latestProposalIds",
      "outputs": [
        {
          "internalType": "uint256",
          "name": "",
          "type": "uint256"
        }
      ],
      "payable": false,
      "stateMutability": "view",
      "type": "function"
    },
    {
      "constant": true,
      "inputs": [],
      "name": "name",
      "outputs": [
        {
          "internalType": "string",
          "name": "",
          "type": "string"
        }
      ],
      "payable": false,
      "stateMutability": "view",
      "type": "function"
    },
    {
      "constant": true,
      "inputs": [],
      "name": "proposalCount",
      "outputs": [
        {
          "internalType": "uint256",
          "name": "",
          "type": "uint256"
        }
      ],
      "payable": false,
      "stateMutability": "view",
      "type": "function"
    },
    {
      "constant": true,
      "inputs": [
        {
          "internalType": "uint256",
          "name": "",
          "type": "uint256"
        }
      ],
      "name": "proposals",
      "outputs": [
        {
          "internalType": "uint256",
          "name": "id",
          "type": "uint256"
        },
        {
          "internalType": "address",
          "name": "proposer",
          "type": "address"
        },
        {
          "internalType": "uint256",
          "name": "eta",
          "type": "uint256"
        },
        {
          "internalType": "uint256",
          "name": "startBlock",
          "type": "uint256"
        },
        {
          "internalType": "uint256",
          "name": "endBlock",
          "type": "uint256"
        },
        {
          "internalType": "uint256",
          "name": "forVotes",
          "type": "uint256"
        },
        {
          "internalType": "uint256",
          "name": "againstVotes",
          "type": "uint256"
        },
        {
          "internalType": "bool",
          "name": "canceled",
          "type": "bool"
        },
        {
          "internalType": "bool",
          "name": "executed",
          "type": "bool"
        }
      ],
      "payable": false,
      "stateMutability": "view",
      "type": "function"
    },
    {
      "constant": true,
      "inputs": [],
      "name": "timelock",
      "outputs": [
        {
          "internalType": "contract TimelockInterface",
          "name": "",
          "type": "address"
        }
      ],
      "payable": false,
      "stateMutability": "view",
      "type": "function"
    },
    {
      "constant": true,
      "inputs": [],
      "name": "quorumVotes",
      "outputs": [
        {
          "internalType": "uint256",
          "name": "",
          "type": "uint256"
        }
      ],
      "payable": false,
      "stateMutability": "pure",
      "type": "function"
    },
    {
      "constant": true,
      "inputs": [],
      "name": "proposalThreshold",
      "outputs": [
        {
          "internalType": "uint256",
          "name": "",
          "type": "uint256"
        }
      ],
      "payable": false,
      "stateMutability": "pure",
      "type": "function"
    },
    {
      "constant": true,
      "inputs": [],
      "name": "proposalMaxOperations",
      "outputs": [
        {
          "internalType": "uint256",
          "name": "",
          "type": "uint256"
        }
      ],
      "payable": false,
      "stateMutability": "pure",
      "type": "function"
    },
    {
      "constant": true,
      "inputs": [],
      "name": "votingDelay",
      "outputs": [
        {
          "internalType": "uint256",
          "name": "",
          "type": "uint256"
        }
      ],
      "payable": false,
      "stateMutability": "pure",
      "type": "function"
    },
    {
      "constant": true,
      "inputs": [],
      "name": "votingPeriod",
      "outputs": [
        {
          "internalType": "uint256",
          "name": "",
          "type": "uint256"
        }
      ],
      "payable": false,
      "stateMutability": "pure",
      "type": "function"
    },
    {
      "constant": false,
      "inputs": [
        {
          "internalType": "address[]",
          "name": "targets",
          "type": "address[]"
        },
        {
          "internalType": "uint256[]",
          "name": "values",
          "type": "uint256[]"
        },
        {
          "internalType": "string[]",
          "name": "signatures",
          "type": "string[]"
        },
        {
          "internalType": "bytes[]",
          "name": "calldatas",
          "type": "bytes[]"
        },
        {
          "internalType": "string",
          "name": "description",
          "type": "string"
        }
      ],
      "name": "propose",
      "outputs": [
        {
          "internalType": "uint256",
          "name": "",
          "type": "uint256"
        }
      ],
      "payable": false,
      "stateMutability": "nonpayable",
      "type": "function"
    },
    {
      "constant": false,
      "inputs": [
        {
          "internalType": "uint256",
          "name": "proposalId",
          "type": "uint256"
        }
      ],
      "name": "queue",
      "outputs": [],
      "payable": false,
      "stateMutability": "nonpayable",
      "type": "function"
    },
    {
      "constant": false,
      "inputs": [
        {
          "internalType": "uint256",
          "name": "proposalId",
          "type": "uint256"
        }
      ],
      "name": "execute",
      "outputs": [],
      "payable": true,
      "stateMutability": "payable",
      "type": "function"
    },
    {
      "constant": false,
      "inputs": [
        {
          "internalType": "uint256",
          "name": "proposalId",
          "type": "uint256"
        }
      ],
      "name": "cancel",
      "outputs": [],
      "payable": false,
      "stateMutability": "nonpayable",
      "type": "function"
    },
    {
      "constant": true,
      "inputs": [
        {
          "internalType": "uint256",
          "name": "proposalId",
          "type": "uint256"
        }
      ],
      "name": "getActions",
      "outputs": [
        {
          "internalType": "address[]",
          "name": "targets",
          "type": "address[]"
        },
        {
          "internalType": "uint256[]",
          "name": "values",
          "type": "uint256[]"
        },
        {
          "internalType": "string[]",
          "name": "signatures",
          "type": "string[]"
        },
        {
          "internalType": "bytes[]",
          "name": "calldatas",
          "type": "bytes[]"
        }
      ],
      "payable": false,
      "stateMutability": "view",
      "type": "function"
    },
    {
      "constant": true,
      "inputs": [
        {
          "internalType": "uint256",
          "name": "proposalId",
          "type": "uint256"
        },
        {
          "internalType": "address",
          "name": "voter",
          "type": "address"
        }
      ],
      "name": "getReceipt",
      "outputs": [
        {
          "components": [
            {
              "internalType": "bool",
              "name": "hasVoted",
              "type": "bool"
            },
            {
              "internalType": "bool",
              "name": "support",
              "type": "bool"
            },
            {
              "internalType": "uint96",
              "name": "votes",
              "type": "uint96"
            }
          ],
          "internalType": "struct GovernorAlpha.Receipt",
          "name": "",
          "type": "tuple"
        }
      ],
      "payable": false,
      "stateMutability": "view",
      "type": "function"
    },
    {
      "constant": true,
      "inputs": [
        {
          "internalType": "uint256",
          "name": "proposalId",
          "type": "uint256"
        }
      ],
      "name": "state",
      "outputs": [
        {
          "internalType": "enum GovernorAlpha.ProposalState",
          "name": "",
          "type": "uint8"
        }
      ],
      "payable": false,
      "stateMutability": "view",
      "type": "function"
    },
    {
      "constant": false,
      "inputs": [
        {
          "internalType": "uint256",
          "name": "proposalId",
          "type": "uint256"
        },
        {
          "internalType": "bool",
          "name": "support",
          "type": "bool"
        }
      ],
      "name": "castVote",
      "outputs": [],
      "payable": false,
      "stateMutability": "nonpayable",
      "type": "function"
    },
    {
      "constant": false,
      "inputs": [
        {
          "internalType": "uint256",
          "name": "proposalId",
          "type": "uint256"
        },
        {
          "internalType": "bool",
          "name": "support",
          "type": "bool"
        },
        {
          "internalType": "uint8",
          "name": "v",
          "type": "uint8"
        },
        {
          "internalType": "bytes32",
          "name": "r",
          "type": "bytes32"
        },
        {
          "internalType": "bytes32",
          "name": "s",
          "type": "bytes32"
        }
      ],
      "name": "castVoteBySig",
      "outputs": [],
      "payable": false,
      "stateMutability": "nonpayable",
      "type": "function"
    },
    {
      "constant": false,
      "inputs": [],
      "name": "__acceptAdmin",
      "outputs": [],
      "payable": false,
      "stateMutability": "nonpayable",
      "type": "function"
    },
    {
      "constant": false,
      "inputs": [],
      "name": "__abdicate",
      "outputs": [],
      "payable": false,
      "stateMutability": "nonpayable",
      "type": "function"
    },
    {
      "constant": false,
      "inputs": [
        {
          "internalType": "address",
          "name": "newPendingAdmin",
          "type": "address"
        },
        {
          "internalType": "uint256",
          "name": "eta",
          "type": "uint256"
        }
      ],
      "name": "__queueSetTimelockPendingAdmin",
      "outputs": [],
      "payable": false,
      "stateMutability": "nonpayable",
      "type": "function"
    },
    {
      "constant": false,
      "inputs": [
        {
          "internalType": "address",
          "name": "newPendingAdmin",
          "type": "address"
        },
        {
          "internalType": "uint256",
          "name": "eta",
          "type": "uint256"
        }
      ],
      "name": "__executeSetTimelockPendingAdmin",
      "outputs": [],
      "payable": false,
      "stateMutability": "nonpayable",
      "type": "function"
    }
  ],
  "bytecode": "0x60806040523480156200001157600080fd5b506040516200541f3803806200541f833981810160405262000037919081019062000119565b826000806101000a81548173ffffffffffffffffffffffffffffffffffffffff021916908373ffffffffffffffffffffffffffffffffffffffff16021790555081600160006101000a81548173ffffffffffffffffffffffffffffffffffffffff021916908373ffffffffffffffffffffffffffffffffffffffff16021790555080600260006101000a81548173ffffffffffffffffffffffffffffffffffffffff021916908373ffffffffffffffffffffffffffffffffffffffff160217905550505050620001bd565b6000815190506200011381620001a3565b92915050565b6000806000606084860312156200012f57600080fd5b60006200013f8682870162000102565b9350506020620001528682870162000102565b9250506040620001658682870162000102565b9150509250925092565b60006200017c8262000183565b9050919050565b600073ffffffffffffffffffffffffffffffffffffffff82169050919050565b620001ae816200016f565b8114620001ba57600080fd5b50565b61525280620001cd6000396000f3fe60806040526004361061019c5760003560e01c80634634c61f116100ec578063d33219b41161008a578063ddf0b00911610064578063ddf0b009146105b1578063deaaa7cc146105da578063e23a9a5214610605578063fe0d94c1146106425761019c565b8063d33219b41461051e578063da35c66414610549578063da95691a146105745761019c565b80638e5c38da116100c65780638e5c38da1461048857806391500671146104b3578063b58131b0146104dc578063b9a61961146105075761019c565b80634634c61f1461041d578063760fbc13146104465780637bdbe4d01461045d5761019c565b806321f43e42116101595780633932abb1116101335780633932abb1146103615780633e4f49e61461038c57806340e58ee5146103c9578063452a9320146103f25761019c565b806321f43e42146102cd57806324bc1a64146102f6578063328dd982146103215761019c565b8063013cf08b146101a157806302a251a3146101e657806306fdde031461021157806315373e3d1461023c57806317977c611461026557806320606b70146102a2575b600080fd5b3480156101ad57600080fd5b506101c860048036036101c39190810190613372565b61065e565b6040516101dd99989796959493929190614c21565b60405180910390f35b3480156101f257600080fd5b506101fb6106e6565b6040516102089190614b56565b60405180910390f35b34801561021d57600080fd5b506102266106f1565b6040516102339190614879565b60405180910390f35b34801561024857600080fd5b50610263600480360361025e9190810190613400565b61072a565b005b34801561027157600080fd5b5061028c6004803603610287919081019061318b565b610739565b6040516102999190614b56565b60405180910390f35b3480156102ae57600080fd5b506102b7610751565b6040516102c4919061474c565b60405180910390f35b3480156102d957600080fd5b506102f460048036036102ef91908101906131b4565b610768565b005b34801561030257600080fd5b5061030b6108f5565b6040516103189190614b56565b60405180910390f35b34801561032d57600080fd5b5061034860048036036103439190810190613372565b610907565b60405161035894939291906146eb565b60405180910390f35b34801561036d57600080fd5b50610376610be4565b6040516103839190614b56565b60405180910390f35b34801561039857600080fd5b506103b360048036036103ae9190810190613372565b610bed565b6040516103c0919061485e565b60405180910390f35b3480156103d557600080fd5b506103f060048036036103eb9190810190613372565b610dd1565b005b3480156103fe57600080fd5b5061040761116d565b6040516104149190614518565b60405180910390f35b34801561042957600080fd5b50610444600480360361043f919081019061343c565b611193565b005b34801561045257600080fd5b5061045b611362565b005b34801561046957600080fd5b50610472611436565b60405161047f9190614b56565b60405180910390f35b34801561049457600080fd5b5061049d61143f565b6040516104aa9190614828565b60405180910390f35b3480156104bf57600080fd5b506104da60048036036104d591908101906131b4565b611465565b005b3480156104e857600080fd5b506104f16115ed565b6040516104fe9190614b56565b60405180910390f35b34801561051357600080fd5b5061051c6115ff565b005b34801561052a57600080fd5b50610533611712565b6040516105409190614843565b60405180910390f35b34801561055557600080fd5b5061055e611737565b60405161056b9190614b56565b60405180910390f35b34801561058057600080fd5b5061059b600480360361059691908101906131f0565b61173d565b6040516105a89190614b56565b60405180910390f35b3480156105bd57600080fd5b506105d860048036036105d39190810190613372565b611d0a565b005b3480156105e657600080fd5b506105ef612059565b6040516105fc919061474c565b60405180910390f35b34801561061157600080fd5b5061062c600480360361062791908101906133c4565b612070565b6040516106399190614b3b565b60405180910390f35b61065c60048036036106579190810190613372565b612152565b005b60046020528060005260406000206000915090508060000154908060010160009054906101000a900473ffffffffffffffffffffffffffffffffffffffff169080600201549080600701549080600801549080600901549080600a01549080600b0160009054906101000a900460ff169080600b0160019054906101000a900460ff16905089565b600062015180905090565b6040518060400160405280601581526020017f42746e74657820476f7665726e6f7220416c706861000000000000000000000081525081565b61073533838361239f565b5050565b60056020528060005260406000206000915090505481565b60405161075d906144ee565b604051809103902081565b600260009054906101000a900473ffffffffffffffffffffffffffffffffffffffff1673ffffffffffffffffffffffffffffffffffffffff163373ffffffffffffffffffffffffffffffffffffffff16146107f8576040517f08c379a00000000000000000000000000000000000000000000000000000000081526004016107ef906148fb565b60405180910390fd5b6000809054906101000a900473ffffffffffffffffffffffffffffffffffffffff1673ffffffffffffffffffffffffffffffffffffffff16630825f38f6000809054906101000a900473ffffffffffffffffffffffffffffffffffffffff1660008560405160200161086a9190614518565b604051602081830303815290604052856040518563ffffffff1660e01b8152600401610899949392919061455c565b600060405180830381600087803b1580156108b357600080fd5b505af11580156108c7573d6000803e3d6000fd5b505050506040513d6000823e3d601f19601f820116820180604052506108f09190810190613331565b505050565b6000697f0e10af47c1c7000000905090565b606080606080600060046000878152602001908152602001600020905080600301816004018260050183600601838054806020026020016040519081016040528092919081815260200182805480156109b557602002820191906000526020600020905b8160009054906101000a900473ffffffffffffffffffffffffffffffffffffffff1673ffffffffffffffffffffffffffffffffffffffff168152602001906001019080831161096b575b5050505050935082805480602002602001604051908101604052809291908181526020018280548015610a0757602002820191906000526020600020905b8154815260200190600101908083116109f3575b5050505050925081805480602002602001604051908101604052809291908181526020016000905b82821015610aeb578382906000526020600020018054600181600116156101000203166002900480601f016020809104026020016040519081016040528092919081815260200182805460018160011615610100020316600290048015610ad75780601f10610aac57610100808354040283529160200191610ad7565b820191906000526020600020905b815481529060010190602001808311610aba57829003601f168201915b505050505081526020019060010190610a2f565b50505050915080805480602002602001604051908101604052809291908181526020016000905b82821015610bce578382906000526020600020018054600181600116156101000203166002900480601f016020809104026020016040519081016040528092919081815260200182805460018160011615610100020316600290048015610bba5780601f10610b8f57610100808354040283529160200191610bba565b820191906000526020600020905b815481529060010190602001808311610b9d57829003601f168201915b505050505081526020019060010190610b12565b5050505090509450945094509450509193509193565b60006001905090565b60008160035410158015610c015750600082115b610c40576040517f08c379a0000000000000000000000000000000000000000000000000000000008152600401610c379061491b565b60405180910390fd5b600060046000848152602001908152602001600020905080600b0160009054906101000a900460ff1615610c78576002915050610dcc565b80600701544311610c8d576000915050610dcc565b80600801544311610ca2576001915050610dcc565b80600a01548160090154111580610cc35750610cbc6108f5565b8160090154105b15610cd2576003915050610dcc565b600081600201541415610ce9576004915050610dcc565b80600b0160019054906101000a900460ff1615610d0a576007915050610dcc565b610db681600201546000809054906101000a900473ffffffffffffffffffffffffffffffffffffffff1673ffffffffffffffffffffffffffffffffffffffff1663c1a287e26040518163ffffffff1660e01b815260040160206040518083038186803b158015610d7957600080fd5b505afa158015610d8d573d6000803e3d6000fd5b505050506040513d601f19601f82011682018060405250610db1919081019061339b565b61266e565b4210610dc6576006915050610dcc565b60059150505b919050565b6000610ddc82610bed565b9050600780811115610dea57fe5b816007811115610df657fe5b1415610e37576040517f08c379a0000000000000000000000000000000000000000000000000000000008152600401610e2e90614a7b565b60405180910390fd5b6000600460008481526020019081526020016000209050600260009054906101000a900473ffffffffffffffffffffffffffffffffffffffff1673ffffffffffffffffffffffffffffffffffffffff163373ffffffffffffffffffffffffffffffffffffffff161480610f985750610ead6115ed565b600160009054906101000a900473ffffffffffffffffffffffffffffffffffffffff1673ffffffffffffffffffffffffffffffffffffffff1663782d6fe18360010160009054906101000a900473ffffffffffffffffffffffffffffffffffffffff16610f1b4360016126c3565b6040518363ffffffff1660e01b8152600401610f389291906145bb565b60206040518083038186803b158015610f5057600080fd5b505afa158015610f64573d6000803e3d6000fd5b505050506040513d601f19601f82011682018060405250610f8891908101906134b3565b6bffffffffffffffffffffffff16105b610fd7576040517f08c379a0000000000000000000000000000000000000000000000000000000008152600401610fce906149db565b60405180910390fd5b600181600b0160006101000a81548160ff02191690831515021790555060008090505b8160030180549050811015611130576000809054906101000a900473ffffffffffffffffffffffffffffffffffffffff1673ffffffffffffffffffffffffffffffffffffffff1663591fcdfe83600301838154811061105557fe5b9060005260206000200160009054906101000a900473ffffffffffffffffffffffffffffffffffffffff1684600401848154811061108f57fe5b90600052602060002001548560050185815481106110a957fe5b906000526020600020018660060186815481106110c257fe5b9060005260206000200187600201546040518663ffffffff1660e01b81526004016110f195949392919061468a565b600060405180830381600087803b15801561110b57600080fd5b505af115801561111f573d6000803e3d6000fd5b505050508080600101915050610ffa565b507f789cf55be980739dad1d0699b93b58e806b51c9d96619bfa8fe0a28abaa7b30c836040516111609190614b56565b60405180910390a1505050565b600260009054906101000a900473ffffffffffffffffffffffffffffffffffffffff1681565b60006040516111a1906144ee565b60405180910390206040518060400160405280601581526020017f42746e74657820476f7665726e6f7220416c7068610000000000000000000000815250805190602001206111ee612713565b306040516020016112029493929190614767565b604051602081830303815290604052805190602001209050600060405161122890614503565b60405180910390208787604051602001611244939291906147ac565b604051602081830303815290604052805190602001209050600082826040516020016112719291906144b7565b6040516020818303038152906040528051906020012090506000600182888888604051600081526020016040526040516112ae94939291906147e3565b6020604051602081039080840390855afa1580156112d0573d6000803e3d6000fd5b505050602060405103519050600073ffffffffffffffffffffffffffffffffffffffff168173ffffffffffffffffffffffffffffffffffffffff16141561134c576040517f08c379a000000000000000000000000000000000000000000000000000000000815260040161134390614abb565b60405180910390fd5b611357818a8a61239f565b505050505050505050565b600260009054906101000a900473ffffffffffffffffffffffffffffffffffffffff1673ffffffffffffffffffffffffffffffffffffffff163373ffffffffffffffffffffffffffffffffffffffff16146113f2576040517f08c379a00000000000000000000000000000000000000000000000000000000081526004016113e990614b1b565b60405180910390fd5b6000600260006101000a81548173ffffffffffffffffffffffffffffffffffffffff021916908373ffffffffffffffffffffffffffffffffffffffff160217905550565b6000600a905090565b600160009054906101000a900473ffffffffffffffffffffffffffffffffffffffff1681565b600260009054906101000a900473ffffffffffffffffffffffffffffffffffffffff1673ffffffffffffffffffffffffffffffffffffffff163373ffffffffffffffffffffffffffffffffffffffff16146114f5576040517f08c379a00000000000000000000000000000000000000000000000000000000081526004016114ec9061495b565b60405180910390fd5b6000809054906101000a900473ffffffffffffffffffffffffffffffffffffffff1673ffffffffffffffffffffffffffffffffffffffff16633a66f9016000809054906101000a900473ffffffffffffffffffffffffffffffffffffffff166000856040516020016115679190614518565b604051602081830303815290604052856040518563ffffffff1660e01b8152600401611596949392919061455c565b602060405180830381600087803b1580156115b057600080fd5b505af11580156115c4573d6000803e3d6000fd5b505050506040513d601f19601f820116820180604052506115e89190810190613308565b505050565b6000693f870857a3e0e3800000905090565b600260009054906101000a900473ffffffffffffffffffffffffffffffffffffffff1673ffffffffffffffffffffffffffffffffffffffff163373ffffffffffffffffffffffffffffffffffffffff161461168f576040517f08c379a00000000000000000000000000000000000000000000000000000000081526004016116869061489b565b60405180910390fd5b6000809054906101000a900473ffffffffffffffffffffffffffffffffffffffff1673ffffffffffffffffffffffffffffffffffffffff16630e18b6816040518163ffffffff1660e01b8152600401600060405180830381600087803b1580156116f857600080fd5b505af115801561170c573d6000803e3d6000fd5b50505050565b6000809054906101000a900473ffffffffffffffffffffffffffffffffffffffff1681565b60035481565b60006117476115ed565b600160009054906101000a900473ffffffffffffffffffffffffffffffffffffffff1673ffffffffffffffffffffffffffffffffffffffff1663782d6fe1336117914360016126c3565b6040518363ffffffff1660e01b81526004016117ae929190614533565b60206040518083038186803b1580156117c657600080fd5b505afa1580156117da573d6000803e3d6000fd5b505050506040513d601f19601f820116820180604052506117fe91908101906134b3565b6bffffffffffffffffffffffff161161184c576040517f08c379a000000000000000000000000000000000000000000000000000000000815260040161184390614a9b565b60405180910390fd5b8451865114801561185e575083518651145b801561186b575082518651145b6118aa576040517f08c379a00000000000000000000000000000000000000000000000000000000081526004016118a1906149bb565b60405180910390fd5b6000865114156118ef576040517f08c379a00000000000000000000000000000000000000000000000000000000081526004016118e690614a5b565b60405180910390fd5b6118f7611436565b8651111561193a576040517f08c379a00000000000000000000000000000000000000000000000000000000081526004016119319061497b565b60405180910390fd5b6000600560003373ffffffffffffffffffffffffffffffffffffffff1673ffffffffffffffffffffffffffffffffffffffff16815260200190815260200160002054905060008114611a4957600061199182610bed565b9050600160078111156119a057fe5b8160078111156119ac57fe5b14156119ed576040517f08c379a00000000000000000000000000000000000000000000000000000000081526004016119e4906149fb565b60405180910390fd5b600060078111156119fa57fe5b816007811115611a0657fe5b1415611a47576040517f08c379a0000000000000000000000000000000000000000000000000000000008152600401611a3e90614a3b565b60405180910390fd5b505b6000611a5c43611a57610be4565b61266e565b90506000611a7182611a6c6106e6565b61266e565b9050600360008154809291906001019190505550611a8d6128f4565b604051806101a0016040528060035481526020013373ffffffffffffffffffffffffffffffffffffffff168152602001600081526020018b81526020018a815260200189815260200188815260200184815260200183815260200160008152602001600081526020016000151581526020016000151581525090508060046000836000015181526020019081526020016000206000820151816000015560208201518160010160006101000a81548173ffffffffffffffffffffffffffffffffffffffff021916908373ffffffffffffffffffffffffffffffffffffffff160217905550604082015181600201556060820151816003019080519060200190611b97929190612976565b506080820151816004019080519060200190611bb4929190612a00565b5060a0820151816005019080519060200190611bd1929190612a4d565b5060c0820151816006019080519060200190611bee929190612aad565b5060e082015181600701556101008201518160080155610120820151816009015561014082015181600a015561016082015181600b0160006101000a81548160ff02191690831515021790555061018082015181600b0160016101000a81548160ff021916908315150217905550905050806000015160056000836020015173ffffffffffffffffffffffffffffffffffffffff1673ffffffffffffffffffffffffffffffffffffffff168152602001908152602001600020819055507f7d84a6263ae0d98d3329bd7b46bb4e8d6f98cd35a7adb45c274c8b7fd5ebd5e08160000151338c8c8c8c89898e604051611cee99989796959493929190614b71565b60405180910390a1806000015194505050505095945050505050565b60046007811115611d1757fe5b611d2082610bed565b6007811115611d2b57fe5b14611d6b576040517f08c379a0000000000000000000000000000000000000000000000000000000008152600401611d62906148bb565b60405180910390fd5b60006004600083815260200190815260200160002090506000611e2c426000809054906101000a900473ffffffffffffffffffffffffffffffffffffffff1673ffffffffffffffffffffffffffffffffffffffff16636a42b8f86040518163ffffffff1660e01b815260040160206040518083038186803b158015611def57600080fd5b505afa158015611e03573d6000803e3d6000fd5b505050506040513d601f19601f82011682018060405250611e27919081019061339b565b61266e565b905060008090505b826003018054905081101561201157612004836003018281548110611e5557fe5b9060005260206000200160009054906101000a900473ffffffffffffffffffffffffffffffffffffffff16846004018381548110611e8f57fe5b9060005260206000200154856005018481548110611ea957fe5b906000526020600020018054600181600116156101000203166002900480601f016020809104026020016040519081016040528092919081815260200182805460018160011615610100020316600290048015611f475780601f10611f1c57610100808354040283529160200191611f47565b820191906000526020600020905b815481529060010190602001808311611f2a57829003601f168201915b5050505050866006018581548110611f5b57fe5b906000526020600020018054600181600116156101000203166002900480601f016020809104026020016040519081016040528092919081815260200182805460018160011615610100020316600290048015611ff95780601f10611fce57610100808354040283529160200191611ff9565b820191906000526020600020905b815481529060010190602001808311611fdc57829003601f168201915b505050505086612720565b8080600101915050611e34565b508082600201819055507f9a2e42fd6722813d69113e7d0079d3d940171428df7373df9c7f7617cfda2892838260405161204c929190614cae565b60405180910390a1505050565b60405161206590614503565b604051809103902081565b612078612b0d565b60046000848152602001908152602001600020600c0160008373ffffffffffffffffffffffffffffffffffffffff1673ffffffffffffffffffffffffffffffffffffffff1681526020019081526020016000206040518060600160405290816000820160009054906101000a900460ff161515151581526020016000820160019054906101000a900460ff161515151581526020016000820160029054906101000a90046bffffffffffffffffffffffff166bffffffffffffffffffffffff166bffffffffffffffffffffffff1681525050905092915050565b6005600781111561215f57fe5b61216882610bed565b600781111561217357fe5b146121b3576040517f08c379a00000000000000000000000000000000000000000000000000000000081526004016121aa906148db565b60405180910390fd5b6000600460008381526020019081526020016000209050600181600b0160016101000a81548160ff02191690831515021790555060008090505b8160030180549050811015612363576000809054906101000a900473ffffffffffffffffffffffffffffffffffffffff1673ffffffffffffffffffffffffffffffffffffffff16630825f38f83600401838154811061224857fe5b906000526020600020015484600301848154811061226257fe5b9060005260206000200160009054906101000a900473ffffffffffffffffffffffffffffffffffffffff1685600401858154811061229c57fe5b90600052602060002001548660050186815481106122b657fe5b906000526020600020018760060187815481106122cf57fe5b9060005260206000200188600201546040518763ffffffff1660e01b81526004016122fe95949392919061468a565b6000604051808303818588803b15801561231757600080fd5b505af115801561232b573d6000803e3d6000fd5b50505050506040513d6000823e3d601f19601f820116820180604052506123559190810190613331565b5080806001019150506121ed565b507f712ae1383f79ac853f8d882153778e0260ef8f03b504e2866e0593e04d2b291f826040516123939190614b56565b60405180910390a15050565b600160078111156123ac57fe5b6123b583610bed565b60078111156123c057fe5b14612400576040517f08c379a00000000000000000000000000000000000000000000000000000000081526004016123f790614adb565b60405180910390fd5b6000600460008481526020019081526020016000209050600081600c0160008673ffffffffffffffffffffffffffffffffffffffff1673ffffffffffffffffffffffffffffffffffffffff1681526020019081526020016000209050600015158160000160009054906101000a900460ff161515146124b4576040517f08c379a00000000000000000000000000000000000000000000000000000000081526004016124ab9061493b565b60405180910390fd5b6000600160009054906101000a900473ffffffffffffffffffffffffffffffffffffffff1673ffffffffffffffffffffffffffffffffffffffff1663782d6fe18785600701546040518363ffffffff1660e01b81526004016125179291906145bb565b60206040518083038186803b15801561252f57600080fd5b505afa158015612543573d6000803e3d6000fd5b505050506040513d601f19601f8201168201806040525061256791908101906134b3565b905083156125985761258b8360090154826bffffffffffffffffffffffff1661266e565b83600901819055506125bd565b6125b483600a0154826bffffffffffffffffffffffff1661266e565b83600a01819055505b60018260000160006101000a81548160ff021916908315150217905550838260000160016101000a81548160ff021916908315150217905550808260000160026101000a8154816bffffffffffffffffffffffff02191690836bffffffffffffffffffffffff1602179055507f877856338e13f63d0c36822ff0ef736b80934cd90574a3a5bc9262c39d217c468686868460405161265e94939291906145e4565b60405180910390a1505050505050565b6000808284019050838110156126b9576040517f08c379a00000000000000000000000000000000000000000000000000000000081526004016126b09061499b565b60405180910390fd5b8091505092915050565b600082821115612708576040517f08c379a00000000000000000000000000000000000000000000000000000000081526004016126ff90614afb565b60405180910390fd5b818303905092915050565b6000804690508091505090565b6000809054906101000a900473ffffffffffffffffffffffffffffffffffffffff1673ffffffffffffffffffffffffffffffffffffffff1663f2b065378686868686604051602001612776959493929190614629565b604051602081830303815290604052805190602001206040518263ffffffff1660e01b81526004016127a8919061474c565b60206040518083038186803b1580156127c057600080fd5b505afa1580156127d4573d6000803e3d6000fd5b505050506040513d601f19601f820116820180604052506127f891908101906132df565b15612838576040517f08c379a000000000000000000000000000000000000000000000000000000000815260040161282f90614a1b565b60405180910390fd5b6000809054906101000a900473ffffffffffffffffffffffffffffffffffffffff1673ffffffffffffffffffffffffffffffffffffffff16633a66f90186868686866040518663ffffffff1660e01b815260040161289a959493929190614629565b602060405180830381600087803b1580156128b457600080fd5b505af11580156128c8573d6000803e3d6000fd5b505050506040513d601f19601f820116820180604052506128ec9190810190613308565b505050505050565b604051806101a0016040528060008152602001600073ffffffffffffffffffffffffffffffffffffffff1681526020016000815260200160608152602001606081526020016060815260200160608152602001600081526020016000815260200160008152602001600081526020016000151581526020016000151581525090565b8280548282559060005260206000209081019282156129ef579160200282015b828111156129ee5782518260006101000a81548173ffffffffffffffffffffffffffffffffffffffff021916908373ffffffffffffffffffffffffffffffffffffffff16021790555091602001919060010190612996565b5b5090506129fc9190612b40565b5090565b828054828255906000526020600020908101928215612a3c579160200282015b82811115612a3b578251825591602001919060010190612a20565b5b509050612a499190612b83565b5090565b828054828255906000526020600020908101928215612a9c579160200282015b82811115612a9b578251829080519060200190612a8b929190612ba8565b5091602001919060010190612a6d565b5b509050612aa99190612c28565b5090565b828054828255906000526020600020908101928215612afc579160200282015b82811115612afb578251829080519060200190612aeb929190612c54565b5091602001919060010190612acd565b5b509050612b099190612cd4565b5090565b604051806060016040528060001515815260200160001515815260200160006bffffffffffffffffffffffff1681525090565b612b8091905b80821115612b7c57600081816101000a81549073ffffffffffffffffffffffffffffffffffffffff021916905550600101612b46565b5090565b90565b612ba591905b80821115612ba1576000816000905550600101612b89565b5090565b90565b828054600181600116156101000203166002900490600052602060002090601f016020900481019282601f10612be957805160ff1916838001178555612c17565b82800160010185558215612c17579182015b82811115612c16578251825591602001919060010190612bfb565b5b509050612c249190612b83565b5090565b612c5191905b80821115612c4d5760008181612c449190612d00565b50600101612c2e565b5090565b90565b828054600181600116156101000203166002900490600052602060002090601f016020900481019282601f10612c9557805160ff1916838001178555612cc3565b82800160010185558215612cc3579182015b82811115612cc2578251825591602001919060010190612ca7565b5b509050612cd09190612b83565b5090565b612cfd91905b80821115612cf95760008181612cf09190612d48565b50600101612cda565b5090565b90565b50805460018160011615610100020316600290046000825580601f10612d265750612d45565b601f016020900490600052602060002090810190612d449190612b83565b5b50565b50805460018160011615610100020316600290046000825580601f10612d6e5750612d8d565b601f016020900490600052602060002090810190612d8c9190612b83565b5b50565b600081359050612d9f81615185565b92915050565b600082601f830112612db657600080fd5b8135612dc9612dc482614d04565b614cd7565b91508181835260208401935060208101905083856020840282011115612dee57600080fd5b60005b83811015612e1e5781612e048882612d90565b845260208401935060208301925050600181019050612df1565b5050505092915050565b600082601f830112612e3957600080fd5b8135612e4c612e4782614d2c565b614cd7565b9150818183526020840193506020810190508360005b83811015612e925781358601612e788882612fe7565b845260208401935060208301925050600181019050612e62565b5050505092915050565b600082601f830112612ead57600080fd5b8135612ec0612ebb82614d54565b614cd7565b9150818183526020840193506020810190508360005b83811015612f065781358601612eec888261308f565b845260208401935060208301925050600181019050612ed6565b5050505092915050565b600082601f830112612f2157600080fd5b8135612f34612f2f82614d7c565b614cd7565b91508181835260208401935060208101905083856020840282011115612f5957600080fd5b60005b83811015612f895781612f6f8882613137565b845260208401935060208301925050600181019050612f5c565b5050505092915050565b600081359050612fa28161519c565b92915050565b600081519050612fb78161519c565b92915050565b600081359050612fcc816151b3565b92915050565b600081519050612fe1816151b3565b92915050565b600082601f830112612ff857600080fd5b813561300b61300682614da4565b614cd7565b9150808252602083016020830185838301111561302757600080fd5b61303283828461511b565b50505092915050565b600082601f83011261304c57600080fd5b815161305f61305a82614dd0565b614cd7565b9150808252602083016020830185838301111561307b57600080fd5b61308683828461512a565b50505092915050565b600082601f8301126130a057600080fd5b81356130b36130ae82614dfc565b614cd7565b915080825260208301602083018583830111156130cf57600080fd5b6130da83828461511b565b50505092915050565b600082601f8301126130f457600080fd5b813561310761310282614e28565b614cd7565b9150808252602083016020830185838301111561312357600080fd5b61312e83828461511b565b50505092915050565b600081359050613146816151ca565b92915050565b60008151905061315b816151ca565b92915050565b600081359050613170816151e1565b92915050565b600081519050613185816151f8565b92915050565b60006020828403121561319d57600080fd5b60006131ab84828501612d90565b91505092915050565b600080604083850312156131c757600080fd5b60006131d585828601612d90565b92505060206131e685828601613137565b9150509250929050565b600080600080600060a0868803121561320857600080fd5b600086013567ffffffffffffffff81111561322257600080fd5b61322e88828901612da5565b955050602086013567ffffffffffffffff81111561324b57600080fd5b61325788828901612f10565b945050604086013567ffffffffffffffff81111561327457600080fd5b61328088828901612e9c565b935050606086013567ffffffffffffffff81111561329d57600080fd5b6132a988828901612e28565b925050608086013567ffffffffffffffff8111156132c657600080fd5b6132d2888289016130e3565b9150509295509295909350565b6000602082840312156132f157600080fd5b60006132ff84828501612fa8565b91505092915050565b60006020828403121561331a57600080fd5b600061332884828501612fd2565b91505092915050565b60006020828403121561334357600080fd5b600082015167ffffffffffffffff81111561335d57600080fd5b6133698482850161303b565b91505092915050565b60006020828403121561338457600080fd5b600061339284828501613137565b91505092915050565b6000602082840312156133ad57600080fd5b60006133bb8482850161314c565b91505092915050565b600080604083850312156133d757600080fd5b60006133e585828601613137565b92505060206133f685828601612d90565b9150509250929050565b6000806040838503121561341357600080fd5b600061342185828601613137565b925050602061343285828601612f93565b9150509250929050565b600080600080600060a0868803121561345457600080fd5b600061346288828901613137565b955050602061347388828901612f93565b945050604061348488828901613161565b935050606061349588828901612fbd565b92505060806134a688828901612fbd565b9150509295509295909350565b6000602082840312156134c557600080fd5b60006134d384828501613176565b91505092915050565b60006134e88383613543565b60208301905092915050565b60006135008383613784565b905092915050565b600061351483836138c1565b905092915050565b6000613528838361446c565b60208301905092915050565b61353d81615067565b82525050565b61354c81614fdd565b82525050565b61355b81614fdd565b82525050565b600061356c82614ebe565b6135768185614f4a565b935061358183614e54565b8060005b838110156135b257815161359988826134dc565b97506135a483614f16565b925050600181019050613585565b5085935050505092915050565b60006135ca82614ec9565b6135d48185614f5b565b9350836020820285016135e685614e64565b8060005b85811015613622578484038952815161360385826134f4565b945061360e83614f23565b925060208a019950506001810190506135ea565b50829750879550505050505092915050565b600061363f82614ed4565b6136498185614f6c565b93508360208202850161365b85614e74565b8060005b8581101561369757848403895281516136788582613508565b945061368383614f30565b925060208a0199505060018101905061365f565b50829750879550505050505092915050565b60006136b482614edf565b6136be8185614f7d565b93506136c983614e84565b8060005b838110156136fa5781516136e1888261351c565b97506136ec83614f3d565b9250506001810190506136cd565b5085935050505092915050565b61371081614fef565b82525050565b61371f81614fef565b82525050565b61372e81614ffb565b82525050565b61374561374082614ffb565b61515d565b82525050565b600061375682614ef5565b6137608185614f9f565b935061377081856020860161512a565b61377981615167565b840191505092915050565b600061378f82614eea565b6137998185614f8e565b93506137a981856020860161512a565b6137b281615167565b840191505092915050565b6000815460018116600081146137da576001811461380057613844565b607f60028304166137eb8187614f9f565b955060ff198316865260208601935050613844565b6002820461380e8187614f9f565b955061381985614e94565b60005b8281101561383b5781548189015260018201915060208101905061381c565b80880195505050505b505092915050565b61385581615079565b82525050565b6138648161509d565b82525050565b613873816150c1565b82525050565b613882816150d3565b82525050565b600061389382614f0b565b61389d8185614fc1565b93506138ad81856020860161512a565b6138b681615167565b840191505092915050565b60006138cc82614f00565b6138d68185614fb0565b93506138e681856020860161512a565b6138ef81615167565b840191505092915050565b600061390582614f00565b61390f8185614fc1565b935061391f81856020860161512a565b61392881615167565b840191505092915050565b6000815460018116600081146139505760018114613976576139ba565b607f60028304166139618187614fc1565b955060ff1983168652602086019350506139ba565b600282046139848187614fc1565b955061398f85614ea9565b60005b828110156139b157815481890152600182019150602081019050613992565b80880195505050505b505092915050565b60006139cf603983614fc1565b91507f476f7665726e6f72416c7068613a3a5f5f61636365707441646d696e3a20736560008301527f6e646572206d75737420626520676f7620677561726469616e000000000000006020830152604082019050919050565b6000613a35604483614fc1565b91507f476f7665726e6f72416c7068613a3a71756575653a2070726f706f73616c206360008301527f616e206f6e6c792062652071756575656420696620697420697320737563636560208301527f65646564000000000000000000000000000000000000000000000000000000006040830152606082019050919050565b6000613ac1604583614fc1565b91507f476f7665726e6f72416c7068613a3a657865637574653a2070726f706f73616c60008301527f2063616e206f6e6c79206265206578656375746564206966206974206973207160208301527f75657565640000000000000000000000000000000000000000000000000000006040830152606082019050919050565b6000613b4d600283614fd2565b91507f19010000000000000000000000000000000000000000000000000000000000006000830152600282019050919050565b6000613b8d604c83614fc1565b91507f476f7665726e6f72416c7068613a3a5f5f6578656375746553657454696d656c60008301527f6f636b50656e64696e6741646d696e3a2073656e646572206d7573742062652060208301527f676f7620677561726469616e00000000000000000000000000000000000000006040830152606082019050919050565b6000613c19601883614fc1565b91507f73657450656e64696e6741646d696e28616464726573732900000000000000006000830152602082019050919050565b6000613c59602983614fc1565b91507f476f7665726e6f72416c7068613a3a73746174653a20696e76616c696420707260008301527f6f706f73616c20696400000000000000000000000000000000000000000000006020830152604082019050919050565b6000613cbf602d83614fc1565b91507f476f7665726e6f72416c7068613a3a5f63617374566f74653a20766f7465722060008301527f616c726561647920766f746564000000000000000000000000000000000000006020830152604082019050919050565b6000613d25604a83614fc1565b91507f476f7665726e6f72416c7068613a3a5f5f717565756553657454696d656c6f6360008301527f6b50656e64696e6741646d696e3a2073656e646572206d75737420626520676f60208301527f7620677561726469616e000000000000000000000000000000000000000000006040830152606082019050919050565b6000613db1602883614fc1565b91507f476f7665726e6f72416c7068613a3a70726f706f73653a20746f6f206d616e7960008301527f20616374696f6e730000000000000000000000000000000000000000000000006020830152604082019050919050565b6000613e17601183614fc1565b91507f6164646974696f6e206f766572666c6f770000000000000000000000000000006000830152602082019050919050565b6000613e57604383614fd2565b91507f454950373132446f6d61696e28737472696e67206e616d652c75696e7432353660008301527f20636861696e49642c6164647265737320766572696679696e67436f6e74726160208301527f63742900000000000000000000000000000000000000000000000000000000006040830152604382019050919050565b6000613ee3602783614fd2565b91507f42616c6c6f742875696e743235362070726f706f73616c49642c626f6f6c207360008301527f7570706f727429000000000000000000000000000000000000000000000000006020830152602782019050919050565b6000613f49604483614fc1565b91507f476f7665726e6f72416c7068613a3a70726f706f73653a2070726f706f73616c60008301527f2066756e6374696f6e20696e666f726d6174696f6e206172697479206d69736d60208301527f61746368000000000000000000000000000000000000000000000000000000006040830152606082019050919050565b6000613fd5602f83614fc1565b91507f476f7665726e6f72416c7068613a3a63616e63656c3a2070726f706f7365722060008301527f61626f7665207468726573686f6c6400000000000000000000000000000000006020830152604082019050919050565b600061403b603883614fc1565b91507f476f7665726e6f72416c7068613a3a70726f706f73653a20666f756e6420616e60008301527f20616c7265616479206163746976652070726f706f73616c00000000000000006020830152604082019050919050565b60006140a1604483614fc1565b91507f476f7665726e6f72416c7068613a3a5f71756575654f725265766572743a207060008301527f726f706f73616c20616374696f6e20616c72656164792071756575656420617460208301527f20657461000000000000000000000000000000000000000000000000000000006040830152606082019050919050565b600061412d603983614fc1565b91507f476f7665726e6f72416c7068613a3a70726f706f73653a20666f756e6420616e60008301527f20616c72656164792070656e64696e672070726f706f73616c000000000000006020830152604082019050919050565b6000614193602c83614fc1565b91507f476f7665726e6f72416c7068613a3a70726f706f73653a206d7573742070726f60008301527f7669646520616374696f6e7300000000000000000000000000000000000000006020830152604082019050919050565b60006141f9603783614fc1565b91507f476f7665726e6f72416c7068613a3a63616e63656c3a206362746e746f74206360008301527f616e63656c2065786563757465642070726f706f73616c0000000000000000006020830152604082019050919050565b600061425f603f83614fc1565b91507f476f7665726e6f72416c7068613a3a70726f706f73653a2070726f706f73657260008301527f20766f7465732062656c6f772070726f706f73616c207468726573686f6c64006020830152604082019050919050565b60006142c5602f83614fc1565b91507f476f7665726e6f72416c7068613a3a63617374566f746542795369673a20696e60008301527f76616c6964207369676e617475726500000000000000000000000000000000006020830152604082019050919050565b600061432b602a83614fc1565b91507f476f7665726e6f72416c7068613a3a5f63617374566f74653a20766f74696e6760008301527f20697320636c6f736564000000000000000000000000000000000000000000006020830152604082019050919050565b6000614391601583614fc1565b91507f7375627472616374696f6e20756e646572666c6f7700000000000000000000006000830152602082019050919050565b60006143d1603683614fc1565b91507f476f7665726e6f72416c7068613a3a5f5f61626469636174653a2073656e646560008301527f72206d75737420626520676f7620677561726469616e000000000000000000006020830152604082019050919050565b6060820160008201516144406000850182613707565b5060208201516144536020850182613707565b50604082015161446660408501826144a8565b50505050565b61447581615038565b82525050565b61448481615038565b82525050565b61449381615042565b82525050565b6144a281615109565b82525050565b6144b18161504f565b82525050565b60006144c282613b40565b91506144ce8285613734565b6020820191506144de8284613734565b6020820191508190509392505050565b60006144f982613e4a565b9150819050919050565b600061450e82613ed6565b9150819050919050565b600060208201905061452d6000830184613552565b92915050565b60006040820190506145486000830185613534565b614555602083018461447b565b9392505050565b600060a0820190506145716000830187613552565b61457e6020830186613879565b818103604083015261458f81613c0c565b905081810360608301526145a3818561374b565b90506145b2608083018461447b565b95945050505050565b60006040820190506145d06000830185613552565b6145dd602083018461447b565b9392505050565b60006080820190506145f96000830187613552565b614606602083018661447b565b6146136040830185613716565b6146206060830184614499565b95945050505050565b600060a08201905061463e6000830188613552565b61464b602083018761447b565b818103604083015261465d8186613888565b90508181036060830152614671818561374b565b9050614680608083018461447b565b9695505050505050565b600060a08201905061469f6000830188613552565b6146ac602083018761447b565b81810360408301526146be8186613933565b905081810360608301526146d281856137bd565b90506146e1608083018461447b565b9695505050505050565b600060808201905081810360008301526147058187613561565b9050818103602083015261471981866136a9565b9050818103604083015261472d8185613634565b9050818103606083015261474181846135bf565b905095945050505050565b60006020820190506147616000830184613725565b92915050565b600060808201905061477c6000830187613725565b6147896020830186613725565b614796604083018561447b565b6147a36060830184613552565b95945050505050565b60006060820190506147c16000830186613725565b6147ce602083018561447b565b6147db6040830184613716565b949350505050565b60006080820190506147f86000830187613725565b614805602083018661448a565b6148126040830185613725565b61481f6060830184613725565b95945050505050565b600060208201905061483d600083018461384c565b92915050565b6000602082019050614858600083018461385b565b92915050565b6000602082019050614873600083018461386a565b92915050565b6000602082019050818103600083015261489381846138fa565b905092915050565b600060208201905081810360008301526148b4816139c2565b9050919050565b600060208201905081810360008301526148d481613a28565b9050919050565b600060208201905081810360008301526148f481613ab4565b9050919050565b6000602082019050818103600083015261491481613b80565b9050919050565b6000602082019050818103600083015261493481613c4c565b9050919050565b6000602082019050818103600083015261495481613cb2565b9050919050565b6000602082019050818103600083015261497481613d18565b9050919050565b6000602082019050818103600083015261499481613da4565b9050919050565b600060208201905081810360008301526149b481613e0a565b9050919050565b600060208201905081810360008301526149d481613f3c565b9050919050565b600060208201905081810360008301526149f481613fc8565b9050919050565b60006020820190508181036000830152614a148161402e565b9050919050565b60006020820190508181036000830152614a3481614094565b9050919050565b60006020820190508181036000830152614a5481614120565b9050919050565b60006020820190508181036000830152614a7481614186565b9050919050565b60006020820190508181036000830152614a94816141ec565b9050919050565b60006020820190508181036000830152614ab481614252565b9050919050565b60006020820190508181036000830152614ad4816142b8565b9050919050565b60006020820190508181036000830152614af48161431e565b9050919050565b60006020820190508181036000830152614b1481614384565b9050919050565b60006020820190508181036000830152614b34816143c4565b9050919050565b6000606082019050614b50600083018461442a565b92915050565b6000602082019050614b6b600083018461447b565b92915050565b600061012082019050614b87600083018c61447b565b614b94602083018b613534565b8181036040830152614ba6818a613561565b90508181036060830152614bba81896136a9565b90508181036080830152614bce8188613634565b905081810360a0830152614be281876135bf565b9050614bf160c083018661447b565b614bfe60e083018561447b565b818103610100830152614c118184613888565b90509a9950505050505050505050565b600061012082019050614c37600083018c61447b565b614c44602083018b613552565b614c51604083018a61447b565b614c5e606083018961447b565b614c6b608083018861447b565b614c7860a083018761447b565b614c8560c083018661447b565b614c9260e0830185613716565b614ca0610100830184613716565b9a9950505050505050505050565b6000604082019050614cc3600083018561447b565b614cd0602083018461447b565b9392505050565b6000604051905081810181811067ffffffffffffffff82111715614cfa57600080fd5b8060405250919050565b600067ffffffffffffffff821115614d1b57600080fd5b602082029050602081019050919050565b600067ffffffffffffffff821115614d4357600080fd5b602082029050602081019050919050565b600067ffffffffffffffff821115614d6b57600080fd5b602082029050602081019050919050565b600067ffffffffffffffff821115614d9357600080fd5b602082029050602081019050919050565b600067ffffffffffffffff821115614dbb57600080fd5b601f19601f8301169050602081019050919050565b600067ffffffffffffffff821115614de757600080fd5b601f19601f8301169050602081019050919050565b600067ffffffffffffffff821115614e1357600080fd5b601f19601f8301169050602081019050919050565b600067ffffffffffffffff821115614e3f57600080fd5b601f19601f8301169050602081019050919050565b6000819050602082019050919050565b6000819050602082019050919050565b6000819050602082019050919050565b6000819050602082019050919050565b60008190508160005260206000209050919050565b60008190508160005260206000209050919050565b600081519050919050565b600081519050919050565b600081519050919050565b600081519050919050565b600081519050919050565b600081519050919050565b600081519050919050565b600081519050919050565b6000602082019050919050565b6000602082019050919050565b6000602082019050919050565b6000602082019050919050565b600082825260208201905092915050565b600082825260208201905092915050565b600082825260208201905092915050565b600082825260208201905092915050565b600082825260208201905092915050565b600082825260208201905092915050565b600082825260208201905092915050565b600082825260208201905092915050565b600081905092915050565b6000614fe882615018565b9050919050565b60008115159050919050565b6000819050919050565b600081905061501382615178565b919050565b600073ffffffffffffffffffffffffffffffffffffffff82169050919050565b6000819050919050565b600060ff82169050919050565b60006bffffffffffffffffffffffff82169050919050565b6000615072826150e5565b9050919050565b60006150848261508b565b9050919050565b600061509682615018565b9050919050565b60006150a8826150af565b9050919050565b60006150ba82615018565b9050919050565b60006150cc82615005565b9050919050565b60006150de82615038565b9050919050565b60006150f0826150f7565b9050919050565b600061510282615018565b9050919050565b60006151148261504f565b9050919050565b82818337600083830152505050565b60005b8381101561514857808201518184015260208101905061512d565b83811115615157576000848401525b50505050565b6000819050919050565b6000601f19601f8301169050919050565b6008811061518257fe5b50565b61518e81614fdd565b811461519957600080fd5b50565b6151a581614fef565b81146151b057600080fd5b50565b6151bc81614ffb565b81146151c757600080fd5b50565b6151d381615038565b81146151de57600080fd5b50565b6151ea81615042565b81146151f557600080fd5b50565b6152018161504f565b811461520c57600080fd5b5056fea365627a7a7231582093bd8d6058c73db8390b69954976e3dfe1bbd2391ce563483e458c9a2f6a1eb16c6578706572696d656e74616cf564736f6c63430005110040",
  "source": "pragma solidity ^0.5.16;\npragma experimental ABIEncoderV2;\n\ncontract GovernorAlpha {\n    /// @notice The name of this contract\n    string public constant name = \"Btntex Governor Alpha\";\n\n    /// @notice The number of votes in support of a proposal required in order for a quorum to be reached and for a vote to succeed\n    function quorumVotes() public pure returns (uint) { return 600000e18; } // 600,000 = 2% of BTNT\n\n    /// @notice The number of votes required in order for a voter to become a proposer\n    function proposalThreshold() public pure returns (uint) { return 300000e18; } // 300,000 = 1% of BTNT\n\n    /// @notice The maximum number of actions that can be included in a proposal\n    function proposalMaxOperations() public pure returns (uint) { return 10; } // 10 actions\n\n    /// @notice The delay before voting on a proposal may take place, once proposed\n    function votingDelay() public pure returns (uint) { return 1; } // 1 block\n\n    /// @notice The duration of voting on a proposal, in blocks\n    function votingPeriod() public pure returns (uint) { return 60 * 60 * 24 * 3 / 3; } // ~3 days in blocks (assuming 3s blocks)\n\n    /// @notice The address of the Btntex Protocol Timelock\n    TimelockInterface public timelock;\n\n    /// @notice The address of the Btntex governance token\n    BTNTInterface public btnt;\n\n    /// @notice The address of the Governor Guardian\n    address public guardian;\n\n    /// @notice The total number of proposals\n    uint public proposalCount;\n\n    struct Proposal {\n        /// @notice Unique id for looking up a proposal\n        uint id;\n\n        /// @notice Creator of the proposal\n        address proposer;\n\n        /// @notice The timestamp that the proposal will be available for execution, set once the vote succeeds\n        uint eta;\n\n        /// @notice the ordered list of target addresses for calls to be made\n        address[] targets;\n\n        /// @notice The ordered list of values (i.e. msg.value) to be passed to the calls to be made\n        uint[] values;\n\n        /// @notice The ordered list of function signatures to be called\n        string[] signatures;\n\n        /// @notice The ordered list of calldata to be passed to each call\n        bytes[] calldatas;\n\n        /// @notice The block at which voting begins: holders must delegate their votes prior to this block\n        uint startBlock;\n\n        /// @notice The block at which voting ends: votes must be cast prior to this block\n        uint endBlock;\n\n        /// @notice Current number of votes in favor of this proposal\n        uint forVotes;\n\n        /// @notice Current number of votes in opposition to this proposal\n        uint againstVotes;\n\n        /// @notice Flag marking whether the proposal has been canceled\n        bool canceled;\n\n        /// @notice Flag marking whether the proposal has been executed\n        bool executed;\n\n        /// @notice Receipts of ballots for the entire set of voters\n        mapping (address => Receipt) receipts;\n    }\n\n    /// @notice Ballot receipt record for a voter\n    struct Receipt {\n        /// @notice Whether or not a vote has been cast\n        bool hasVoted;\n\n        /// @notice Whether or not the voter supports the proposal\n        bool support;\n\n        /// @notice The number of votes the voter had, which were cast\n        uint96 votes;\n    }\n\n    /// @notice Possible states that a proposal may be in\n    enum ProposalState {\n        Pending,\n        Active,\n        Canceled,\n        Defeated,\n        Succeeded,\n        Queued,\n        Expired,\n        Executed\n    }\n\n    /// @notice The official record of all proposals ever proposed\n    mapping (uint => Proposal) public proposals;\n\n    /// @notice The latest proposal for each proposer\n    mapping (address => uint) public latestProposalIds;\n\n    /// @notice The EIP-712 typehash for the contract's domain\n    bytes32 public constant DOMAIN_TYPEHASH = keccak256(\"EIP712Domain(string name,uint256 chainId,address verifyingContract)\");\n\n    /// @notice The EIP-712 typehash for the ballot struct used by the contract\n    bytes32 public constant BALLOT_TYPEHASH = keccak256(\"Ballot(uint256 proposalId,bool support)\");\n\n    /// @notice An event emitted when a new proposal is created\n    event ProposalCreated(uint id, address proposer, address[] targets, uint[] values, string[] signatures, bytes[] calldatas, uint startBlock, uint endBlock, string description);\n\n    /// @notice An event emitted when a vote has been cast on a proposal\n    event VoteCast(address voter, uint proposalId, bool support, uint votes);\n\n    /// @notice An event emitted when a proposal has been canceled\n    event ProposalCanceled(uint id);\n\n    /// @notice An event emitted when a proposal has been queued in the Timelock\n    event ProposalQueued(uint id, uint eta);\n\n    /// @notice An event emitted when a proposal has been executed in the Timelock\n    event ProposalExecuted(uint id);\n\n    constructor(address timelock_, address btnt_, address guardian_) public {\n        timelock = TimelockInterface(timelock_);\n        btnt = BTNTInterface(btnt_);\n        guardian = guardian_;\n    }\n\n    function propose(address[] memory targets, uint[] memory values, string[] memory signatures, bytes[] memory calldatas, string memory description) public returns (uint) {\n        require(btnt.getPriorVotes(msg.sender, sub256(block.number, 1)) > proposalThreshold(), \"GovernorAlpha::propose: proposer votes below proposal threshold\");\n        require(targets.length == values.length && targets.length == signatures.length && targets.length == calldatas.length, \"GovernorAlpha::propose: proposal function information arity mismatch\");\n        require(targets.length != 0, \"GovernorAlpha::propose: must provide actions\");\n        require(targets.length <= proposalMaxOperations(), \"GovernorAlpha::propose: too many actions\");\n\n        uint latestProposalId = latestProposalIds[msg.sender];\n        if (latestProposalId != 0) {\n          ProposalState proposersLatestProposalState = state(latestProposalId);\n          require(proposersLatestProposalState != ProposalState.Active, \"GovernorAlpha::propose: found an already active proposal\");\n          require(proposersLatestProposalState != ProposalState.Pending, \"GovernorAlpha::propose: found an already pending proposal\");\n        }\n\n        uint startBlock = add256(block.number, votingDelay());\n        uint endBlock = add256(startBlock, votingPeriod());\n\n        proposalCount++;\n        Proposal memory newProposal = Proposal({\n            id: proposalCount,\n            proposer: msg.sender,\n            eta: 0,\n            targets: targets,\n            values: values,\n            signatures: signatures,\n            calldatas: calldatas,\n            startBlock: startBlock,\n            endBlock: endBlock,\n            forVotes: 0,\n            againstVotes: 0,\n            canceled: false,\n            executed: false\n        });\n\n        proposals[newProposal.id] = newProposal;\n        latestProposalIds[newProposal.proposer] = newProposal.id;\n\n        emit ProposalCreated(newProposal.id, msg.sender, targets, values, signatures, calldatas, startBlock, endBlock, description);\n        return newProposal.id;\n    }\n\n    function queue(uint proposalId) public {\n        require(state(proposalId) == ProposalState.Succeeded, \"GovernorAlpha::queue: proposal can only be queued if it is succeeded\");\n        Proposal storage proposal = proposals[proposalId];\n        uint eta = add256(block.timestamp, timelock.delay());\n        for (uint i = 0; i < proposal.targets.length; i++) {\n            _queueOrRevert(proposal.targets[i], proposal.values[i], proposal.signatures[i], proposal.calldatas[i], eta);\n        }\n        proposal.eta = eta;\n        emit ProposalQueued(proposalId, eta);\n    }\n\n    function _queueOrRevert(address target, uint value, string memory signature, bytes memory data, uint eta) internal {\n        require(!timelock.queuedTransactions(keccak256(abi.encode(target, value, signature, data, eta))), \"GovernorAlpha::_queueOrRevert: proposal action already queued at eta\");\n        timelock.queueTransaction(target, value, signature, data, eta);\n    }\n\n    function execute(uint proposalId) public payable {\n        require(state(proposalId) == ProposalState.Queued, \"GovernorAlpha::execute: proposal can only be executed if it is queued\");\n        Proposal storage proposal = proposals[proposalId];\n        proposal.executed = true;\n        for (uint i = 0; i < proposal.targets.length; i++) {\n            timelock.executeTransaction.value(proposal.values[i])(proposal.targets[i], proposal.values[i], proposal.signatures[i], proposal.calldatas[i], proposal.eta);\n        }\n        emit ProposalExecuted(proposalId);\n    }\n\n    function cancel(uint proposalId) public {\n        ProposalState state = state(proposalId);\n        require(state != ProposalState.Executed, \"GovernorAlpha::cancel: cbtntot cancel executed proposal\");\n\n        Proposal storage proposal = proposals[proposalId];\n        require(msg.sender == guardian || btnt.getPriorVotes(proposal.proposer, sub256(block.number, 1)) < proposalThreshold(), \"GovernorAlpha::cancel: proposer above threshold\");\n\n        proposal.canceled = true;\n        for (uint i = 0; i < proposal.targets.length; i++) {\n            timelock.cancelTransaction(proposal.targets[i], proposal.values[i], proposal.signatures[i], proposal.calldatas[i], proposal.eta);\n        }\n\n        emit ProposalCanceled(proposalId);\n    }\n\n    function getActions(uint proposalId) public view returns (address[] memory targets, uint[] memory values, string[] memory signatures, bytes[] memory calldatas) {\n        Proposal storage p = proposals[proposalId];\n        return (p.targets, p.values, p.signatures, p.calldatas);\n    }\n\n    function getReceipt(uint proposalId, address voter) public view returns (Receipt memory) {\n        return proposals[proposalId].receipts[voter];\n    }\n\n    function state(uint proposalId) public view returns (ProposalState) {\n        require(proposalCount >= proposalId && proposalId > 0, \"GovernorAlpha::state: invalid proposal id\");\n        Proposal storage proposal = proposals[proposalId];\n        if (proposal.canceled) {\n            return ProposalState.Canceled;\n        } else if (block.number <= proposal.startBlock) {\n            return ProposalState.Pending;\n        } else if (block.number <= proposal.endBlock) {\n            return ProposalState.Active;\n        } else if (proposal.forVotes <= proposal.againstVotes || proposal.forVotes < quorumVotes()) {\n            return ProposalState.Defeated;\n        } else if (proposal.eta == 0) {\n            return ProposalState.Succeeded;\n        } else if (proposal.executed) {\n            return ProposalState.Executed;\n        } else if (block.timestamp >= add256(proposal.eta, timelock.GRACE_PERIOD())) {\n            return ProposalState.Expired;\n        } else {\n            return ProposalState.Queued;\n        }\n    }\n\n    function castVote(uint proposalId, bool support) public {\n        return _castVote(msg.sender, proposalId, support);\n    }\n\n    function castVoteBySig(uint proposalId, bool support, uint8 v, bytes32 r, bytes32 s) public {\n        bytes32 domainSeparator = keccak256(abi.encode(DOMAIN_TYPEHASH, keccak256(bytes(name)), getChainId(), address(this)));\n        bytes32 structHash = keccak256(abi.encode(BALLOT_TYPEHASH, proposalId, support));\n        bytes32 digest = keccak256(abi.encodePacked(\"\\x19\\x01\", domainSeparator, structHash));\n        address signatory = ecrecover(digest, v, r, s);\n        require(signatory != address(0), \"GovernorAlpha::castVoteBySig: invalid signature\");\n        return _castVote(signatory, proposalId, support);\n    }\n\n    function _castVote(address voter, uint proposalId, bool support) internal {\n        require(state(proposalId) == ProposalState.Active, \"GovernorAlpha::_castVote: voting is closed\");\n        Proposal storage proposal = proposals[proposalId];\n        Receipt storage receipt = proposal.receipts[voter];\n        require(receipt.hasVoted == false, \"GovernorAlpha::_castVote: voter already voted\");\n        uint96 votes = btnt.getPriorVotes(voter, proposal.startBlock);\n\n        if (support) {\n            proposal.forVotes = add256(proposal.forVotes, votes);\n        } else {\n            proposal.againstVotes = add256(proposal.againstVotes, votes);\n        }\n\n        receipt.hasVoted = true;\n        receipt.support = support;\n        receipt.votes = votes;\n\n        emit VoteCast(voter, proposalId, support, votes);\n    }\n\n    function __acceptAdmin() public {\n        require(msg.sender == guardian, \"GovernorAlpha::__acceptAdmin: sender must be gov guardian\");\n        timelock.acceptAdmin();\n    }\n\n    function __abdicate() public {\n        require(msg.sender == guardian, \"GovernorAlpha::__abdicate: sender must be gov guardian\");\n        guardian = address(0);\n    }\n\n    function __queueSetTimelockPendingAdmin(address newPendingAdmin, uint eta) public {\n        require(msg.sender == guardian, \"GovernorAlpha::__queueSetTimelockPendingAdmin: sender must be gov guardian\");\n        timelock.queueTransaction(address(timelock), 0, \"setPendingAdmin(address)\", abi.encode(newPendingAdmin), eta);\n    }\n\n    function __executeSetTimelockPendingAdmin(address newPendingAdmin, uint eta) public {\n        require(msg.sender == guardian, \"GovernorAlpha::__executeSetTimelockPendingAdmin: sender must be gov guardian\");\n        timelock.executeTransaction(address(timelock), 0, \"setPendingAdmin(address)\", abi.encode(newPendingAdmin), eta);\n    }\n\n    function add256(uint256 a, uint256 b) internal pure returns (uint) {\n        uint c = a + b;\n        require(c >= a, \"addition overflow\");\n        return c;\n    }\n\n    function sub256(uint256 a, uint256 b) internal pure returns (uint) {\n        require(b <= a, \"subtraction underflow\");\n        return a - b;\n    }\n\n    function getChainId() internal pure returns (uint) {\n        uint chainId;\n        assembly { chainId := chainid() }\n        return chainId;\n    }\n}\n\ninterface TimelockInterface {\n    function delay() external view returns (uint);\n    function GRACE_PERIOD() external view returns (uint);\n    function acceptAdmin() external;\n    function queuedTransactions(bytes32 hash) external view returns (bool);\n    function queueTransaction(address target, uint value, string calldata signature, bytes calldata data, uint eta) external returns (bytes32);\n    function cancelTransaction(address target, uint value, string calldata signature, bytes calldata data, uint eta) external;\n    function executeTransaction(address target, uint value, string calldata signature, bytes calldata data, uint eta) external payable returns (bytes memory);\n}\n\ninterface BTNTInterface {\n    function getPriorVotes(address account, uint blockNumber) external view returns (uint96);\n}\n",
  "sourcePath": "/home/aliwisam/AliWisamData/Personal/Orders/Sir Junaid/Gist/TruffleFlat/contracts/GovernorAlpha.sol",
  "compiler": {
    "name": "solc",
    "version": "0.5.17+commit.d19bba13.Emscripten.clang"
  },
  "schemaVersion": "3.4.0",
  "updatedAt": "2021-06-16T15:51:18.098Z",
  "devdoc": {
    "methods": {}
  },
  "userdoc": {
    "methods": {
      "proposalMaxOperations()": {
        "notice": "The maximum number of actions that can be included in a proposal"
      },
      "proposalThreshold()": {
        "notice": "The number of votes required in order for a voter to become a proposer"
      },
      "quorumVotes()": {
        "notice": "The number of votes in support of a proposal required in order for a quorum to be reached and for a vote to succeed"
      },
      "votingDelay()": {
        "notice": "The delay before voting on a proposal may take place, once proposed"
      },
      "votingPeriod()": {
        "notice": "The duration of voting on a proposal, in blocks"
      }
    }
  }
}