{
  "contractName": "Maximillion",
  "abi": [
    {
      "inputs": [
        {
          "internalType": "contract BBNB",
          "name": "bBnb_",
          "type": "address"
        }
      ],
      "payable": false,
      "stateMutability": "nonpayable",
      "type": "constructor"
    },
    {
      "constant": true,
      "inputs": [],
      "name": "bBnb",
      "outputs": [
        {
          "internalType": "contract BBNB",
          "name": "",
          "type": "address"
        }
      ],
      "payable": false,
      "stateMutability": "view",
      "type": "function"
    },
    {
      "constant": false,
      "inputs": [
        {
          "internalType": "address",
          "name": "borrower",
          "type": "address"
        }
      ],
      "name": "repayBehalf",
      "outputs": [],
      "payable": true,
      "stateMutability": "payable",
      "type": "function"
    },
    {
      "constant": false,
      "inputs": [
        {
          "internalType": "address",
          "name": "borrower",
          "type": "address"
        },
        {
          "internalType": "contract BBNB",
          "name": "bBnb_",
          "type": "address"
        }
      ],
      "name": "repayBehalfExplicit",
      "outputs": [],
      "payable": true,
      "stateMutability": "payable",
      "type": "function"
    }
  ],
  "bytecode": "0x608060405234801561001057600080fd5b506040516104a43803806104a48339818101604052602081101561003357600080fd5b8101908080519060200190929190505050806000806101000a81548173ffffffffffffffffffffffffffffffffffffffff021916908373ffffffffffffffffffffffffffffffffffffffff16021790555050610410806100946000396000f3fe6080604052600436106100345760003560e01c806306abb37e14610039578063367b7f05146100905780639f35c3d5146100f4575b600080fd5b34801561004557600080fd5b5061004e610138565b604051808273ffffffffffffffffffffffffffffffffffffffff1673ffffffffffffffffffffffffffffffffffffffff16815260200191505060405180910390f35b6100f2600480360360408110156100a657600080fd5b81019080803573ffffffffffffffffffffffffffffffffffffffff169060200190929190803573ffffffffffffffffffffffffffffffffffffffff16906020019092919050505061015d565b005b6101366004803603602081101561010a57600080fd5b81019080803573ffffffffffffffffffffffffffffffffffffffff1690602001909291905050506103ad565b005b6000809054906101000a900473ffffffffffffffffffffffffffffffffffffffff1681565b600034905060008273ffffffffffffffffffffffffffffffffffffffff166317bfdfbc856040518263ffffffff1660e01b8152600401808273ffffffffffffffffffffffffffffffffffffffff1673ffffffffffffffffffffffffffffffffffffffff168152602001915050602060405180830381600087803b1580156101e357600080fd5b505af11580156101f7573d6000803e3d6000fd5b505050506040513d602081101561020d57600080fd5b810190808051906020019092919050505090508082111561030e578273ffffffffffffffffffffffffffffffffffffffff1663e597461982866040518363ffffffff1660e01b8152600401808273ffffffffffffffffffffffffffffffffffffffff1673ffffffffffffffffffffffffffffffffffffffff1681526020019150506000604051808303818588803b1580156102a757600080fd5b505af11580156102bb573d6000803e3d6000fd5b50505050503373ffffffffffffffffffffffffffffffffffffffff166108fc8284039081150290604051600060405180830381858888f19350505050158015610308573d6000803e3d6000fd5b506103a7565b8273ffffffffffffffffffffffffffffffffffffffff1663e597461983866040518363ffffffff1660e01b8152600401808273ffffffffffffffffffffffffffffffffffffffff1673ffffffffffffffffffffffffffffffffffffffff1681526020019150506000604051808303818588803b15801561038d57600080fd5b505af11580156103a1573d6000803e3d6000fd5b50505050505b50505050565b6103d8816000809054906101000a900473ffffffffffffffffffffffffffffffffffffffff1661015d565b5056fea265627a7a723158202cd131a6c3c57f026f6bf83fa49abd0a7f887dae2259bea6044bf8083005845464736f6c63430005110032",
  "source": "pragma solidity ^0.5.16;\n\nimport \"./BBNB.sol\";\n\n/**\n * @title Btntex's Maximillion Contract\n * @author Btntex\n */\ncontract Maximillion {\n    /**\n     * @notice The default bBnb market to repay in\n     */\n    BBNB public bBnb;\n\n    /**\n     * @notice Construct a Maximillion to repay max in a BBNB market\n     */\n    constructor(BBNB bBnb_) public {\n        bBnb = bBnb_;\n    }\n\n    /**\n     * @notice msg.sender sends BNB to repay an account's borrow in the bBnb market\n     * @dev The provided BNB is applied towards the borrow balance, any excess is refunded\n     * @param borrower The address of the borrower account to repay on behalf of\n     */\n    function repayBehalf(address borrower) public payable {\n        repayBehalfExplicit(borrower, bBnb);\n    }\n\n    /**\n     * @notice msg.sender sends BNB to repay an account's borrow in a bBnb market\n     * @dev The provided BNB is applied towards the borrow balance, any excess is refunded\n     * @param borrower The address of the borrower account to repay on behalf of\n     * @param bBnb_ The address of the bBnb contract to repay in\n     */\n    function repayBehalfExplicit(address borrower, BBNB bBnb_) public payable {\n        uint received = msg.value;\n        uint borrows = bBnb_.borrowBalanceCurrent(borrower);\n        if (received > borrows) {\n            bBnb_.repayBorrowBehalf.value(borrows)(borrower);\n            msg.sender.transfer(received - borrows);\n        } else {\n            bBnb_.repayBorrowBehalf.value(received)(borrower);\n        }\n    }\n}\n",
  "sourcePath": "/home/aliwisam/AliWisamData/Personal/Orders/Sir Junaid/Gist/TruffleFlat/contracts/Maximillion.sol",
  "compiler": {
    "name": "solc",
    "version": "0.5.17+commit.d19bba13.Emscripten.clang"
  },
  "schemaVersion": "3.4.0",
  "updatedAt": "2021-06-16T15:51:18.146Z",
  "devdoc": {
    "author": "Btntex",
    "methods": {
      "repayBehalf(address)": {
        "details": "The provided BNB is applied towards the borrow balance, any excess is refunded",
        "params": {
          "borrower": "The address of the borrower account to repay on behalf of"
        }
      },
      "repayBehalfExplicit(address,address)": {
        "details": "The provided BNB is applied towards the borrow balance, any excess is refunded",
        "params": {
          "bBnb_": "The address of the bBnb contract to repay in",
          "borrower": "The address of the borrower account to repay on behalf of"
        }
      }
    },
    "title": "Btntex's Maximillion Contract"
  },
  "userdoc": {
    "methods": {
      "constructor": "Construct a Maximillion to repay max in a BBNB market",
      "repayBehalf(address)": {
        "notice": "msg.sender sends BNB to repay an account's borrow in the bBnb market"
      },
      "repayBehalfExplicit(address,address)": {
        "notice": "msg.sender sends BNB to repay an account's borrow in a bBnb market"
      }
    }
  }
}