{
  "contractName": "Reservoir",
  "abi": [
    {
      "inputs": [
        {
          "internalType": "uint256",
          "name": "dripRate_",
          "type": "uint256"
        },
        {
          "internalType": "contract EIP20Interface",
          "name": "token_",
          "type": "address"
        },
        {
          "internalType": "address",
          "name": "target_",
          "type": "address"
        }
      ],
      "payable": false,
      "stateMutability": "nonpayable",
      "type": "constructor"
    },
    {
      "constant": true,
      "inputs": [],
      "name": "dripRate",
      "outputs": [
        {
          "internalType": "uint256",
          "name": "",
          "type": "uint256"
        }
      ],
      "payable": false,
      "stateMutability": "view",
      "type": "function"
    },
    {
      "constant": true,
      "inputs": [],
      "name": "dripStart",
      "outputs": [
        {
          "internalType": "uint256",
          "name": "",
          "type": "uint256"
        }
      ],
      "payable": false,
      "stateMutability": "view",
      "type": "function"
    },
    {
      "constant": true,
      "inputs": [],
      "name": "dripped",
      "outputs": [
        {
          "internalType": "uint256",
          "name": "",
          "type": "uint256"
        }
      ],
      "payable": false,
      "stateMutability": "view",
      "type": "function"
    },
    {
      "constant": true,
      "inputs": [],
      "name": "target",
      "outputs": [
        {
          "internalType": "address",
          "name": "",
          "type": "address"
        }
      ],
      "payable": false,
      "stateMutability": "view",
      "type": "function"
    },
    {
      "constant": true,
      "inputs": [],
      "name": "token",
      "outputs": [
        {
          "internalType": "contract EIP20Interface",
          "name": "",
          "type": "address"
        }
      ],
      "payable": false,
      "stateMutability": "view",
      "type": "function"
    },
    {
      "constant": false,
      "inputs": [],
      "name": "drip",
      "outputs": [
        {
          "internalType": "uint256",
          "name": "",
          "type": "uint256"
        }
      ],
      "payable": false,
      "stateMutability": "nonpayable",
      "type": "function"
    }
  ],
  "bytecode": "0x608060405234801561001057600080fd5b506040516108573803806108578339818101604052606081101561003357600080fd5b81019080805190602001909291908051906020019092919080519060200190929190505050436000819055508260018190555081600260006101000a81548173ffffffffffffffffffffffffffffffffffffffff021916908373ffffffffffffffffffffffffffffffffffffffff16021790555080600360006101000a81548173ffffffffffffffffffffffffffffffffffffffff021916908373ffffffffffffffffffffffffffffffffffffffff1602179055506000600481905550505050610755806101026000396000f3fe608060405234801561001057600080fd5b50600436106100625760003560e01c806388a91a8a1461006757806395f632b3146100855780639f678cca146100a3578063d3261592146100c1578063d4b83992146100df578063fc0c546a14610129575b600080fd5b61006f610173565b6040518082815260200191505060405180910390f35b61008d610179565b6040518082815260200191505060405180910390f35b6100ab61017f565b6040518082815260200191505060405180910390f35b6100c961045a565b6040518082815260200191505060405180910390f35b6100e7610460565b604051808273ffffffffffffffffffffffffffffffffffffffff1673ffffffffffffffffffffffffffffffffffffffff16815260200191505060405180910390f35b610131610486565b604051808273ffffffffffffffffffffffffffffffffffffffff1673ffffffffffffffffffffffffffffffffffffffff16815260200191505060405180910390f35b60005481565b60045481565b600080600260009054906101000a900473ffffffffffffffffffffffffffffffffffffffff16905060008173ffffffffffffffffffffffffffffffffffffffff166370a08231306040518263ffffffff1660e01b8152600401808273ffffffffffffffffffffffffffffffffffffffff1673ffffffffffffffffffffffffffffffffffffffff16815260200191505060206040518083038186803b15801561022657600080fd5b505afa15801561023a573d6000803e3d6000fd5b505050506040513d602081101561025057600080fd5b8101908080519060200190929190505050905060006001549050600080549050600060045490506000600360009054906101000a900473ffffffffffffffffffffffffffffffffffffffff169050600043905060006102e7868684036040518060400160405280601281526020017f64726970546f74616c206f766572666c6f7700000000000000000000000000008152506104ac565b9050600061032b82866040518060400160405280601381526020017f64656c74614472697020756e646572666c6f7700000000000000000000000000815250610586565b905060006103398983610646565b9050600061037d87836040518060400160405280600c81526020017f746175746f6c6f676963616c0000000000000000000000000000000000000000815250610661565b9050806004819055508a73ffffffffffffffffffffffffffffffffffffffff1663a9059cbb87846040518363ffffffff1660e01b8152600401808373ffffffffffffffffffffffffffffffffffffffff1673ffffffffffffffffffffffffffffffffffffffff16815260200182815260200192505050602060405180830381600087803b15801561040d57600080fd5b505af1158015610421573d6000803e3d6000fd5b505050506040513d602081101561043757600080fd5b810190808051906020019092919050505050819b50505050505050505050505090565b60015481565b600360009054906101000a900473ffffffffffffffffffffffffffffffffffffffff1681565b600260009054906101000a900473ffffffffffffffffffffffffffffffffffffffff1681565b6000808414156104bf576000905061057f565b60008385029050838582816104d057fe5b04148390610579576040517f08c379a00000000000000000000000000000000000000000000000000000000081526004018080602001828103825283818151815260200191508051906020019080838360005b8381101561053e578082015181840152602081019050610523565b50505050905090810190601f16801561056b5780820380516001836020036101000a031916815260200191505b509250505060405180910390fd5b50809150505b9392505050565b6000838311158290610633576040517f08c379a00000000000000000000000000000000000000000000000000000000081526004018080602001828103825283818151815260200191508051906020019080838360005b838110156105f85780820151818401526020810190506105dd565b50505050905090810190601f1680156106255780820380516001836020036101000a031916815260200191505b509250505060405180910390fd5b5060008385039050809150509392505050565b60008183116106575782905061065b565b8190505b92915050565b6000808385019050848110158390610714576040517f08c379a00000000000000000000000000000000000000000000000000000000081526004018080602001828103825283818151815260200191508051906020019080838360005b838110156106d95780820151818401526020810190506106be565b50505050905090810190601f1680156107065780820380516001836020036101000a031916815260200191505b509250505060405180910390fd5b5080915050939250505056fea265627a7a72315820dcc2a8e9e867b071502f4f19f00f1ea177b28abc254dc3441514c8371682d5ea64736f6c63430005110032",
  "source": "pragma solidity ^0.5.16;\n\n/**\n * @title Reservoir Contract\n * @notice Distributes a token to a different contract at a fixed rate.\n * @dev This contract must be poked via the `drip()` function every so often.\n * @author Btntex\n */\ncontract Reservoir {\n\n  /// @notice The block number when the Reservoir started (immutable)\n  uint public dripStart;\n\n  /// @notice Tokens per block that to drip to target (immutable)\n  uint public dripRate;\n\n  /// @notice Reference to token to drip (immutable)\n  EIP20Interface public token;\n\n  /// @notice Target to receive dripped tokens (immutable)\n  address public target;\n\n  /// @notice Amount that has already been dripped\n  uint public dripped;\n\n  /**\n    * @notice Constructs a Reservoir\n    * @param dripRate_ Numer of tokens per block to drip\n    * @param token_ The token to drip\n    * @param target_ The recipient of dripped tokens\n    */\n  constructor(uint dripRate_, EIP20Interface token_, address target_) public {\n    dripStart = block.number;\n    dripRate = dripRate_;\n    token = token_;\n    target = target_;\n    dripped = 0;\n  }\n\n  /**\n    * @notice Drips the maximum amount of tokens to match the drip rate since inception\n    * @dev Note: this will only drip up to the amount of tokens available.\n    * @return The amount of tokens dripped in this call\n    */\n  function drip() public returns (uint) {\n    // First, read storage into memory\n    EIP20Interface token_ = token;\n    uint reservoirBalance_ = token_.balanceOf(address(this)); // TODO: Verify this is a static call\n    uint dripRate_ = dripRate;\n    uint dripStart_ = dripStart;\n    uint dripped_ = dripped;\n    address target_ = target;\n    uint blockNumber_ = block.number;\n\n    // Next, calculate intermediate values\n    uint dripTotal_ = mul(dripRate_, blockNumber_ - dripStart_, \"dripTotal overflow\");\n    uint deltaDrip_ = sub(dripTotal_, dripped_, \"deltaDrip underflow\");\n    uint toDrip_ = min(reservoirBalance_, deltaDrip_);\n    uint drippedNext_ = add(dripped_, toDrip_, \"tautological\");\n\n    // Finally, write new `dripped` value and transfer tokens to target\n    dripped = drippedNext_;\n    token_.transfer(target_, toDrip_);\n\n    return toDrip_;\n  }\n\n  /* Internal helper functions for safe math */\n\n  function add(uint a, uint b, string memory errorMessage) internal pure returns (uint) {\n    uint c = a + b;\n    require(c >= a, errorMessage);\n    return c;\n  }\n\n  function sub(uint a, uint b, string memory errorMessage) internal pure returns (uint) {\n    require(b <= a, errorMessage);\n    uint c = a - b;\n    return c;\n  }\n\n  function mul(uint a, uint b, string memory errorMessage) internal pure returns (uint) {\n    if (a == 0) {\n      return 0;\n    }\n    uint c = a * b;\n    require(c / a == b, errorMessage);\n    return c;\n  }\n\n  function min(uint a, uint b) internal pure returns (uint) {\n    if (a <= b) {\n      return a;\n    } else {\n      return b;\n    }\n  }\n}\n\nimport \"./EIP20Interface.sol\";\n",
  "sourcePath": "/home/aliwisam/AliWisamData/Personal/Orders/Sir Junaid/Gist/TruffleFlat/contracts/Reservoir.sol",
  "compiler": {
    "name": "solc",
    "version": "0.5.17+commit.d19bba13.Emscripten.clang"
  },
  "schemaVersion": "3.4.0",
  "updatedAt": "2021-06-16T15:51:18.154Z",
  "devdoc": {
    "author": "Btntex",
    "details": "This contract must be poked via the `drip()` function every so often.",
    "methods": {
      "constructor": {
        "params": {
          "dripRate_": "Numer of tokens per block to drip",
          "target_": "The recipient of dripped tokens",
          "token_": "The token to drip"
        }
      },
      "drip()": {
        "details": "Note: this will only drip up to the amount of tokens available.",
        "return": "The amount of tokens dripped in this call"
      }
    },
    "title": "Reservoir Contract"
  },
  "userdoc": {
    "methods": {
      "constructor": "Constructs a Reservoir",
      "drip()": {
        "notice": "Drips the maximum amount of tokens to match the drip rate since inception"
      }
    },
    "notice": "Distributes a token to a different contract at a fixed rate."
  }
}