{
  "contractName": "UnitrollerAdminStorage",
  "abi": [
    {
      "constant": true,
      "inputs": [],
      "name": "admin",
      "outputs": [
        {
          "internalType": "address",
          "name": "",
          "type": "address"
        }
      ],
      "payable": false,
      "stateMutability": "view",
      "type": "function"
    },
    {
      "constant": true,
      "inputs": [],
      "name": "comptrollerImplementation",
      "outputs": [
        {
          "internalType": "address",
          "name": "",
          "type": "address"
        }
      ],
      "payable": false,
      "stateMutability": "view",
      "type": "function"
    },
    {
      "constant": true,
      "inputs": [],
      "name": "pendingAdmin",
      "outputs": [
        {
          "internalType": "address",
          "name": "",
          "type": "address"
        }
      ],
      "payable": false,
      "stateMutability": "view",
      "type": "function"
    },
    {
      "constant": true,
      "inputs": [],
      "name": "pendingComptrollerImplementation",
      "outputs": [
        {
          "internalType": "address",
          "name": "",
          "type": "address"
        }
      ],
      "payable": false,
      "stateMutability": "view",
      "type": "function"
    }
  ],
  "bytecode": "0x608060405234801561001057600080fd5b50610245806100206000396000f3fe608060405234801561001057600080fd5b506004361061004c5760003560e01c80632678224714610051578063bb82aa5e1461009b578063dcfbc0c7146100e5578063f851a4401461012f575b600080fd5b610059610179565b604051808273ffffffffffffffffffffffffffffffffffffffff1673ffffffffffffffffffffffffffffffffffffffff16815260200191505060405180910390f35b6100a361019f565b604051808273ffffffffffffffffffffffffffffffffffffffff1673ffffffffffffffffffffffffffffffffffffffff16815260200191505060405180910390f35b6100ed6101c5565b604051808273ffffffffffffffffffffffffffffffffffffffff1673ffffffffffffffffffffffffffffffffffffffff16815260200191505060405180910390f35b6101376101eb565b604051808273ffffffffffffffffffffffffffffffffffffffff1673ffffffffffffffffffffffffffffffffffffffff16815260200191505060405180910390f35b600160009054906101000a900473ffffffffffffffffffffffffffffffffffffffff1681565b600260009054906101000a900473ffffffffffffffffffffffffffffffffffffffff1681565b600360009054906101000a900473ffffffffffffffffffffffffffffffffffffffff1681565b6000809054906101000a900473ffffffffffffffffffffffffffffffffffffffff168156fea265627a7a7231582005a80cc7e8934a9630f3074e17591830e75402160d54e6ae10fd3868e044a95c64736f6c63430005110032",
  "source": "pragma solidity ^0.5.16;\n\nimport \"./BToken.sol\";\nimport \"./PriceOracle.sol\";\nimport \"./BAIControllerInterface.sol\";\n\ncontract UnitrollerAdminStorage {\n    /**\n    * @notice Administrator for this contract\n    */\n    address public admin;\n\n    /**\n    * @notice Pending administrator for this contract\n    */\n    address public pendingAdmin;\n\n    /**\n    * @notice Active brains of Unitroller\n    */\n    address public comptrollerImplementation;\n\n    /**\n    * @notice Pending brains of Unitroller\n    */\n    address public pendingComptrollerImplementation;\n}\n\ncontract ComptrollerV1Storage is UnitrollerAdminStorage {\n\n    /**\n     * @notice Oracle which gives the price of any given asset\n     */\n    PriceOracle public oracle;\n\n    /**\n     * @notice Multiplier used to calculate the maximum repayAmount when liquidating a borrow\n     */\n    uint public closeFactorMantissa;\n\n    /**\n     * @notice Multiplier representing the discount on collateral that a liquidator receives\n     */\n    uint public liquidationIncentiveMantissa;\n\n    /**\n     * @notice Max number of assets a single account can participate in (borrow or use as collateral)\n     */\n    uint public maxAssets;\n\n    /**\n     * @notice Per-account mapping of \"assets you are in\", capped by maxAssets\n     */\n    mapping(address => BToken[]) public accountAssets;\n\n    struct Market {\n        /// @notice Whether or not this market is listed\n        bool isListed;\n\n        /**\n         * @notice Multiplier representing the most one can borrow against their collateral in this market.\n         *  For instance, 0.9 to allow borrowing 90% of collateral value.\n         *  Must be between 0 and 1, and stored as a mantissa.\n         */\n        uint collateralFactorMantissa;\n\n        /// @notice Per-market mapping of \"accounts in this asset\"\n        mapping(address => bool) accountMembership;\n\n        /// @notice Whether or not this market receives BTNT\n        bool isBtntex;\n    }\n\n    /**\n     * @notice Official mapping of bTokens -> Market metadata\n     * @dev Used e.g. to determine if a market is supported\n     */\n    mapping(address => Market) public markets;\n\n    /**\n     * @notice The Pause Guardian can pause certain actions as a safety mechanism.\n     *  Actions which allow users to remove their own assets cbtntot be paused.\n     *  Liquidation / seizing / transfer can only be paused globally, not by market.\n     */\n    address public pauseGuardian;\n    bool public _mintGuardianPaused;\n    bool public _borrowGuardianPaused;\n    bool public transferGuardianPaused;\n    bool public seizeGuardianPaused;\n    mapping(address => bool) public mintGuardianPaused;\n    mapping(address => bool) public borrowGuardianPaused;\n\n    struct BtntexMarketState {\n        /// @notice The market's last updated btntexBorrowIndex or btntexSupplyIndex\n        uint224 index;\n\n        /// @notice The block number the index was last updated at\n        uint32 block;\n    }\n\n    /// @notice A list of all markets\n    BToken[] public allMarkets;\n\n    /// @notice The rate at which the flywheel distributes BTNT, per block\n    uint public btntexRate;\n\n    /// @notice The portion of btntexRate that each market currently receives\n    mapping(address => uint) public btntexSpeeds;\n\n    /// @notice The Btntex market supply state for each market\n    mapping(address => BtntexMarketState) public btntexSupplyState;\n\n    /// @notice The Btntex market borrow state for each market\n    mapping(address => BtntexMarketState) public btntexBorrowState;\n\n    /// @notice The Btntex supply index for each market for each supplier as of the last time they accrued BTNT\n    mapping(address => mapping(address => uint)) public btntexSupplierIndex;\n\n    /// @notice The Btntex borrow index for each market for each borrower as of the last time they accrued BTNT\n    mapping(address => mapping(address => uint)) public btntexBorrowerIndex;\n\n    /// @notice The BTNT accrued but not yet transferred to each user\n    mapping(address => uint) public btntexAccrued;\n\n    /// @notice The Address of BAIController\n    BAIControllerInterface public baiController;\n\n    /// @notice The minted BAI amount to each user\n    mapping(address => uint) public mintedBAIs;\n\n    /// @notice BAI Mint Rate as a percentage\n    uint public baiMintRate;\n\n    /**\n     * @notice The Pause Guardian can pause certain actions as a safety mechanism.\n     */\n    bool public mintBAIGuardianPaused;\n    bool public repayBAIGuardianPaused;\n\n    /**\n     * @notice Pause/Unpause whole protocol actions\n     */\n    bool public protocolPaused;\n\n    /// @notice The rate at which the flywheel distributes BTNT to BAI Minters, per block\n    uint public btntexBAIRate;\n}\n\ncontract ComptrollerV2Storage is ComptrollerV1Storage {\n    /// @notice The rate at which the flywheel distributes BTNT to BAI Vault, per block\n    uint public btntexBAIVaultRate;\n\n    // address of BAI Vault\n    address public baiVaultAddress;\n\n    // start block of release to BAI Vault\n    uint256 public releaseStartBlock;\n\n    // minimum release amount to BAI Vault\n    uint256 public minReleaseAmount;\n}\n\ncontract ComptrollerV3Storage is ComptrollerV2Storage {\n    /// @notice The borrowCapGuardian can set borrowCaps to any number for any market. Lowering the borrow cap could disable borrowing on the given market.\n    address public borrowCapGuardian;\n\n    /// @notice Borrow caps enforced by borrowAllowed for each bToken address. Defaults to zero which corresponds to unlimited borrowing.\n    mapping(address => uint) public borrowCaps;\n}\n\ncontract ComptrollerV4Storage is ComptrollerV3Storage {\n    /// @notice Treasury Guardian address\n    address public treasuryGuardian;\n\n    /// @notice Treasury address\n    address public treasuryAddress;\n\n    /// @notice Fee percent of accrued interest with decimal 18\n    uint256 public treasuryPercent;\n}\n",
  "sourcePath": "/home/aliwisam/AliWisamData/Personal/Orders/Sir Junaid/Gist/TruffleFlat/contracts/ComptrollerStorage.sol",
  "compiler": {
    "name": "solc",
    "version": "0.5.17+commit.d19bba13.Emscripten.clang"
  },
  "schemaVersion": "3.4.0",
  "updatedAt": "2021-06-16T15:51:18.052Z",
  "devdoc": {
    "methods": {}
  },
  "userdoc": {
    "methods": {}
  }
}